{
  "abi": [
    {
      "inputs": [
        {
          "internalType": "address",
          "name": "_lendingRegistry",
          "type": "address"
        },
        {
          "internalType": "bytes32",
          "name": "_protocolKey",
          "type": "bytes32"
        },
        {
          "internalType": "address",
          "name": "_bentoBox",
          "type": "address"
        }
      ],
      "stateMutability": "nonpayable",
      "type": "constructor"
    },
    {
      "inputs": [],
      "name": "bentoBox",
      "outputs": [
        {
          "internalType": "contract IBentoBoxV1",
          "name": "",
          "type": "address"
        }
      ],
      "stateMutability": "view",
      "type": "function"
    },
    {
      "inputs": [
        {
          "internalType": "address",
          "name": "_kaToken",
          "type": "address"
        }
      ],
      "name": "exchangeRate",
      "outputs": [
        {
          "internalType": "uint256",
          "name": "",
          "type": "uint256"
        }
      ],
      "stateMutability": "nonpayable",
      "type": "function"
    },
    {
      "inputs": [
        {
          "internalType": "address",
          "name": "_kaToken",
          "type": "address"
        }
      ],
      "name": "exchangeRateView",
      "outputs": [
        {
          "internalType": "uint256",
          "name": "",
          "type": "uint256"
        }
      ],
      "stateMutability": "view",
      "type": "function"
    },
    {
      "inputs": [
        {
          "internalType": "address",
          "name": "_token",
          "type": "address"
        }
      ],
      "name": "getAPRFromUnderlying",
      "outputs": [
        {
          "internalType": "uint256",
          "name": "",
          "type": "uint256"
        }
      ],
      "stateMutability": "view",
      "type": "function"
    },
    {
      "inputs": [
        {
          "internalType": "address",
          "name": "_token",
          "type": "address"
        }
      ],
      "name": "getAPRFromWrapped",
      "outputs": [
        {
          "internalType": "uint256",
          "name": "",
          "type": "uint256"
        }
      ],
      "stateMutability": "view",
      "type": "function"
    },
    {
      "inputs": [
        {
          "internalType": "address",
          "name": "_underlying",
          "type": "address"
        },
        {
          "internalType": "uint256",
          "name": "_amount",
          "type": "uint256"
        },
        {
          "internalType": "address",
          "name": "_tokenHolder",
          "type": "address"
        }
      ],
      "name": "lend",
      "outputs": [
        {
          "internalType": "address[]",
          "name": "targets",
          "type": "address[]"
        },
        {
          "internalType": "bytes[]",
          "name": "data",
          "type": "bytes[]"
        }
      ],
      "stateMutability": "view",
      "type": "function"
    },
    {
      "inputs": [],
      "name": "lendingRegistry",
      "outputs": [
        {
          "internalType": "contract LendingRegistry",
          "name": "",
          "type": "address"
        }
      ],
      "stateMutability": "view",
      "type": "function"
    },
    {
      "inputs": [],
      "name": "protocolKey",
      "outputs": [
        {
          "internalType": "bytes32",
          "name": "",
          "type": "bytes32"
        }
      ],
      "stateMutability": "view",
      "type": "function"
    },
    {
      "inputs": [
        {
          "internalType": "address",
          "name": "_wrapped",
          "type": "address"
        },
        {
          "internalType": "uint256",
          "name": "_amount",
          "type": "uint256"
        },
        {
          "internalType": "address",
          "name": "_tokenHolder",
          "type": "address"
        }
      ],
      "name": "unlend",
      "outputs": [
        {
          "internalType": "address[]",
          "name": "targets",
          "type": "address[]"
        },
        {
          "internalType": "bytes[]",
          "name": "data",
          "type": "bytes[]"
        }
      ],
      "stateMutability": "view",
      "type": "function"
    }
  ],
  "bytecode": {
    "object": "0x60c060405234801561001057600080fd5b506040516113ad3803806113ad83398101604081905261002f916100d0565b6001600160a01b0383166100895760405162461bcd60e51b815260206004820152601860248201527f494e56414c49445f4c454e44494e475f52454749535452590000000000000000604482015260640160405180910390fd5b600080546001600160a01b0319166001600160a01b039485161790556080919091521660a05261010c565b80516001600160a01b03811681146100cb57600080fd5b919050565b6000806000606084860312156100e557600080fd5b6100ee846100b4565b925060208401519150610103604085016100b4565b90509250925092565b60805160a05161125261015b6000396000818161010a01528181610403015281816104db01528181610bc70152610c8601526000818161014901528181610579015261092101526112526000f3fe608060405234801561001057600080fd5b50600436106100935760003560e01c80636b2ace87116100665780636b2ace87146101055780636cfa20d6146101445780637b1c44321461016b578063dc3b7c8b1461017e578063eeb401a91461019157600080fd5b80630f13634e14610098578063269d2947146100be57806337bca10f146100d157806342bde0b8146100e4575b600080fd5b6100ab6100a6366004610e6e565b6101a4565b6040519081526020015b60405180910390f35b6100ab6100cc366004610e6e565b61022c565b6100ab6100df366004610e6e565b610556565b6100f76100f2366004610e8b565b6105f6565b6040516100b5929190610f6d565b61012c7f000000000000000000000000000000000000000000000000000000000000000081565b6040516001600160a01b0390911681526020016100b5565b6100ab7f000000000000000000000000000000000000000000000000000000000000000081565b6100f7610179366004610e8b565b6108fe565b6100ab61018c366004610e6e565b610d8e565b60005461012c906001600160a01b031681565b600080829050806001600160a01b031663b27c0e746040518163ffffffff1660e01b8152600401606060405180830381865afa1580156101e8573d6000803e3d6000fd5b505050506040513d601f19601f8201168201806040525081019061020c9190611001565b516102259067ffffffffffffffff166301e14320611091565b9392505050565b6000806000836001600160a01b031663f9557ccb6040518163ffffffff1660e01b81526004016040805180830381865afa15801561026e573d6000803e3d6000fd5b505050506040513d601f19601f8201168201806040525081019061029291906110b0565b91509150600080856001600160a01b0316638285ef406040518163ffffffff1660e01b81526004016040805180830381865afa1580156102d6573d6000803e3d6000fd5b505050506040513d601f19601f820116820180604052508101906102fa91906110b0565b915091506000866001600160a01b03166338d52e0f6040518163ffffffff1660e01b8152600401602060405180830381865afa15801561033e573d6000803e3d6000fd5b505050506040513d601f19601f8201168201806040525081019061036291906110e3565b90506000876001600160a01b031663313ce5676040518163ffffffff1660e01b8152600401602060405180830381865afa1580156103a4573d6000803e3d6000fd5b505050506040513d601f19601f820116820180604052508101906103c89190611100565b604051636d289ce560e11b81526001600160a01b0384811660048301526001600160801b0387166024830152600160448301529192506000917f0000000000000000000000000000000000000000000000000000000000000000169063da5139ca90606401602060405180830381865afa15801561044a573d6000803e3d6000fd5b505050506040513d601f19601f8201168201806040525081019061046e9190611123565b610481906001600160801b03891661113c565b905060006001600160801b0387166104a183670de0b6b3a7640000611091565b6104ab9190611154565b604051630acc462360e31b81526001600160a01b03868116600483015260248201839052600160448301529192507f000000000000000000000000000000000000000000000000000000000000000090911690635662311890606401602060405180830381865afa158015610524573d6000803e3d6000fd5b505050506040513d601f19601f820116820180604052508101906105489190611123565b9a9950505050505050505050565b6000805460405163d7aceec760e01b81526001600160a01b0384811660048301527f000000000000000000000000000000000000000000000000000000000000000060248301528392169063d7aceec790604401602060405180830381865afa1580156105c7573d6000803e3d6000fd5b505050506040513d601f19601f820116820180604052508101906105eb91906110e3565b9050610225816101a4565b6060806000856001600160a01b03166338d52e0f6040518163ffffffff1660e01b8152600401602060405180830381865afa158015610639573d6000803e3d6000fd5b505050506040513d601f19601f8201168201806040525081019061065d91906110e3565b6040805160018082528183019092529192506020808301908036833701905050604080516001808252818301909252919450816020015b606081526020019060019003908161069457505060408051600280825260608201835292945060009290916020830190803683375050604080516002808252606082018352939450600093909250906020830190803683375050604080516002808252606082019092529293506000929150602082015b606081526020019060019003908161070b57905050905060038360008151811061073757610737611176565b60200260200101818152505060008260008151811061075857610758611176565b60200260200101818152505087876040516020016107899291909182526001600160a01b0316602082015260400190565b604051602081830303815290604052816000815181106107ab576107ab611176565b60200260200101819052506015836001815181106107cb576107cb611176565b6020026020010181815250506000826001815181106107ec576107ec611176565b602090810291909101810191909152604080516001600160a01b03808816938201939093529189169082015260006060820152600019608082015260a0016040516020818303038152906040528160018151811061084c5761084c611176565b6020026020010181905250888660008151811061086b5761086b611176565b6001600160a01b039092166020928302919091019091015260405163195bcf5960e21b906108a1908590859085906024016111c7565b604051602081830303815290604052906001600160e01b0319166020820180516001600160e01b038381831617835250505050856000815181106108e7576108e7611176565b602002602001018190525050505050935093915050565b6000805460405163d7aceec760e01b81526001600160a01b0386811660048301527f000000000000000000000000000000000000000000000000000000000000000060248301526060938493909291169063d7aceec790604401602060405180830381865afa158015610975573d6000803e3d6000fd5b505050506040513d601f19601f8201168201806040525081019061099991906110e3565b60408051600380825260808201909252919250602082016060803683370190505060408051600380825260808201909252919450816020015b60608152602001906001900390816109d257505060408051600280825260608201835292945060009290916020830190803683375050604080516002808252606082018352939450600093909250906020830190803683375050604080516002808252606082019092529293506000929150602082015b6060815260200190600190039081610a49579050509050601483600081518110610a7557610a75611176565b602002602001018181525050600082600081518110610a9657610a96611176565b602090810291909101810191909152604080516001600160a01b03808d169382019390935291891690820152606081018990526000608082015260a00160405160208183030381529060405281600081518110610af557610af5611176565b6020026020010181905250600183600181518110610b1557610b15611176565b602002602001018181525050600082600181518110610b3657610b36611176565b60209081029190910181019190915260408051600119928101929092526001600160a01b038916908201526000606082015260800160405160208183030381529060405281600181518110610b8d57610b8d611176565b60200260200101819052508886600081518110610bac57610bac611176565b6001600160a01b0392831660209182029290920101526040517f000000000000000000000000000000000000000000000000000000000000000090911660248201526000604482015263095ea7b360e01b90606401604051602081830303815290604052906001600160e01b0319166020820180516001600160e01b03838183161783525050505085600081518110610c4757610c47611176565b60200260200101819052508886600181518110610c6657610c66611176565b6001600160a01b03928316602091820292909201810191909152604080517f0000000000000000000000000000000000000000000000000000000000000000909316602484015260448084018c90528151808503909101815260649093019052810180516001600160e01b031663095ea7b360e01b179052855186906001908110610cf357610cf3611176565b60200260200101819052508386600281518110610d1257610d12611176565b6001600160a01b039092166020928302919091019091015260405163195bcf5960e21b90610d48908590859085906024016111c7565b604051602081830303815290604052906001600160e01b0319166020820180516001600160e01b038381831617835250505050856002815181106108e7576108e7611176565b60408051600481526024810182526020810180516001600160e01b031663f8ba4cff60e01b17905290516000916001600160a01b038416918391610dd191611200565b60006040518083038185875af1925050503d8060008114610e0e576040519150601f19603f3d011682016040523d82523d6000602084013e610e13565b606091505b505050600080836001600160a01b031663f9557ccb6040518163ffffffff1660e01b81526004016040805180830381865afa15801561026e573d6000803e3d6000fd5b6001600160a01b0381168114610e6b57600080fd5b50565b600060208284031215610e8057600080fd5b813561022581610e56565b600080600060608486031215610ea057600080fd5b8335610eab81610e56565b9250602084013591506040840135610ec281610e56565b809150509250925092565b60005b83811015610ee8578181015183820152602001610ed0565b83811115610ef7576000848401525b50505050565b600082825180855260208086019550808260051b84010181860160005b84811015610f6057601f1980878503018a5282518051808652610f4281888801898501610ecd565b9a86019a601f01909116939093018401925090830190600101610f1a565b5090979650505050505050565b604080825283519082018190526000906020906060840190828701845b82811015610faf5781516001600160a01b031684529284019290840190600101610f8a565b50505083810382850152610fc38186610efd565b9695505050505050565b805167ffffffffffffffff81168114610fe557600080fd5b919050565b80516001600160801b0381168114610fe557600080fd5b60006060828403121561101357600080fd5b6040516060810181811067ffffffffffffffff8211171561104457634e487b7160e01b600052604160045260246000fd5b60405261105083610fcd565b815261105e60208401610fcd565b602082015261106f60408401610fea565b60408201529392505050565b634e487b7160e01b600052601160045260246000fd5b60008160001904831182151516156110ab576110ab61107b565b500290565b600080604083850312156110c357600080fd5b6110cc83610fea565b91506110da60208401610fea565b90509250929050565b6000602082840312156110f557600080fd5b815161022581610e56565b60006020828403121561111257600080fd5b815160ff8116811461022557600080fd5b60006020828403121561113557600080fd5b5051919050565b6000821982111561114f5761114f61107b565b500190565b60008261117157634e487b7160e01b600052601260045260246000fd5b500490565b634e487b7160e01b600052603260045260246000fd5b600081518084526020808501945080840160005b838110156111bc578151875295820195908201906001016111a0565b509495945050505050565b6060815260006111da606083018661118c565b82810360208401526111ec818661118c565b90508281036040840152610fc38185610efd565b60008251611212818460208701610ecd565b919091019291505056fea26469706673582212206523a1364b78cba1e617da3a5ced38f4bbc2cefd91cd498dbf936e1b742fe3f664736f6c634300080c0033",
    "linkReferences": {}
  }
}