{
  "_format": "hh-sol-artifact-1",
  "contractName": "LendingLogicKashi",
  "sourceName": "contracts/Strategies/KashiLending/LendingLogicKashi.sol",
  "abi": [
    {
      "inputs": [
        {
          "internalType": "address",
          "name": "_lendingRegistry",
          "type": "address"
        },
        {
          "internalType": "bytes32",
          "name": "_protocolKey",
          "type": "bytes32"
        },
        {
          "internalType": "address",
          "name": "_bentoBox",
          "type": "address"
        }
      ],
      "stateMutability": "nonpayable",
      "type": "constructor"
    },
    {
      "inputs": [],
      "name": "bentoBox",
      "outputs": [
        {
          "internalType": "contract IBentoBoxV1",
          "name": "",
          "type": "address"
        }
      ],
      "stateMutability": "view",
      "type": "function"
    },
    {
      "inputs": [
        {
          "internalType": "address",
          "name": "_kaToken",
          "type": "address"
        }
      ],
      "name": "exchangeRate",
      "outputs": [
        {
          "internalType": "uint256",
          "name": "",
          "type": "uint256"
        }
      ],
      "stateMutability": "nonpayable",
      "type": "function"
    },
    {
      "inputs": [
        {
          "internalType": "address",
          "name": "_kaToken",
          "type": "address"
        }
      ],
      "name": "exchangeRateView",
      "outputs": [
        {
          "internalType": "uint256",
          "name": "",
          "type": "uint256"
        }
      ],
      "stateMutability": "view",
      "type": "function"
    },
    {
      "inputs": [
        {
          "internalType": "address",
          "name": "_token",
          "type": "address"
        }
      ],
      "name": "getAPRFromUnderlying",
      "outputs": [
        {
          "internalType": "uint256",
          "name": "",
          "type": "uint256"
        }
      ],
      "stateMutability": "view",
      "type": "function"
    },
    {
      "inputs": [
        {
          "internalType": "address",
          "name": "_token",
          "type": "address"
        }
      ],
      "name": "getAPRFromWrapped",
      "outputs": [
        {
          "internalType": "uint256",
          "name": "",
          "type": "uint256"
        }
      ],
      "stateMutability": "view",
      "type": "function"
    },
    {
      "inputs": [
        {
          "internalType": "address",
          "name": "_underlying",
          "type": "address"
        },
        {
          "internalType": "uint256",
          "name": "_amount",
          "type": "uint256"
        },
        {
          "internalType": "address",
          "name": "_tokenHolder",
          "type": "address"
        }
      ],
      "name": "lend",
      "outputs": [
        {
          "internalType": "address[]",
          "name": "targets",
          "type": "address[]"
        },
        {
          "internalType": "bytes[]",
          "name": "data",
          "type": "bytes[]"
        }
      ],
      "stateMutability": "view",
      "type": "function"
    },
    {
      "inputs": [],
      "name": "lendingRegistry",
      "outputs": [
        {
          "internalType": "contract LendingRegistry",
          "name": "",
          "type": "address"
        }
      ],
      "stateMutability": "view",
      "type": "function"
    },
    {
      "inputs": [],
      "name": "protocolKey",
      "outputs": [
        {
          "internalType": "bytes32",
          "name": "",
          "type": "bytes32"
        }
      ],
      "stateMutability": "view",
      "type": "function"
    },
    {
      "inputs": [
        {
          "internalType": "address",
          "name": "_wrapped",
          "type": "address"
        },
        {
          "internalType": "uint256",
          "name": "_amount",
          "type": "uint256"
        },
        {
          "internalType": "address",
          "name": "_tokenHolder",
          "type": "address"
        }
      ],
      "name": "unlend",
      "outputs": [
        {
          "internalType": "address[]",
          "name": "targets",
          "type": "address[]"
        },
        {
          "internalType": "bytes[]",
          "name": "data",
          "type": "bytes[]"
        }
      ],
      "stateMutability": "view",
      "type": "function"
    }
  ],
  "bytecode": "0x60c06040523480156200001157600080fd5b506040516200163f3803806200163f8339810160408190526200003491620000bd565b6001600160a01b038316620000665760405162461bcd60e51b81526004016200005d90620000fd565b60405180910390fd5b600080546001600160a01b0319166001600160a01b03949094169390931790925560805260601b6001600160601b03191660a05262000134565b80516001600160a01b0381168114620000b857600080fd5b919050565b600080600060608486031215620000d2578283fd5b620000dd84620000a0565b925060208401519150620000f460408501620000a0565b90509250925092565b60208082526018908201527f494e56414c49445f4c454e44494e475f52454749535452590000000000000000604082015260600190565b60805160a05160601c6114b862000187600039600081816103ca015281816104c00152818161096501528181610cca0152610da00152600081816105830152818161098901526109dd01526114b86000f3fe608060405234801561001057600080fd5b50600436106100935760003560e01c80636b2ace87116100665780636b2ace87146101085780636cfa20d61461011d5780637b1c443214610125578063dc3b7c8b14610138578063eeb401a91461014b57610093565b80630f13634e14610098578063269d2947146100c157806337bca10f146100d457806342bde0b8146100e7575b600080fd5b6100ab6100a6366004610fd6565b610153565b6040516100b891906112ca565b60405180910390f35b6100ab6100cf366004610fd6565b6101ec565b6100ab6100e2366004610fd6565b610558565b6100fa6100f5366004611015565b610606565b6040516100b8929190611231565b610110610963565b6040516100b891906112d3565b6100ab610987565b6100fa610133366004611015565b6109ab565b6100ab610146366004610fd6565b610ed5565b610110610f98565b600080829050806001600160a01b031663b27c0e746040518163ffffffff1660e01b815260040160606040518083038186803b15801561019257600080fd5b505afa1580156101a6573d6000803e3d6000fd5b505050506040513d601f19601f820116820180604052508101906101ca9190611056565b516101e39067ffffffffffffffff166301e14320611405565b9150505b919050565b6000806000836001600160a01b031663f9557ccb6040518163ffffffff1660e01b8152600401604080518083038186803b15801561022957600080fd5b505afa15801561023d573d6000803e3d6000fd5b505050506040513d601f19601f8201168201806040525081019061026191906110cd565b91509150600080856001600160a01b0316638285ef406040518163ffffffff1660e01b8152600401604080518083038186803b1580156102a057600080fd5b505afa1580156102b4573d6000803e3d6000fd5b505050506040513d601f19601f820116820180604052508101906102d891906110cd565b915091506000866001600160a01b03166338d52e0f6040518163ffffffff1660e01b815260040160206040518083038186803b15801561031757600080fd5b505afa15801561032b573d6000803e3d6000fd5b505050506040513d601f19601f8201168201806040525081019061034f9190610ff9565b90506000876001600160a01b031663313ce5676040518163ffffffff1660e01b815260040160206040518083038186803b15801561038c57600080fd5b505afa1580156103a0573d6000803e3d6000fd5b505050506040513d601f19601f820116820180604052508101906103c49190611117565b905060007f00000000000000000000000000000000000000000000000000000000000000006001600160a01b031663da5139ca848760016040518463ffffffff1660e01b815260040161041993929190611341565b60206040518083038186803b15801561043157600080fd5b505afa158015610445573d6000803e3d6000fd5b505050506040513d601f19601f8201168201806040525081019061046991906110ff565b61047c906001600160801b0389166113cd565b905060006001600160801b03871661049c83670de0b6b3a7640000611405565b6104a691906113e5565b604051630acc462360e31b81529091506001600160a01b037f000000000000000000000000000000000000000000000000000000000000000016906356623118906104fa908790859060019060040161136d565b60206040518083038186803b15801561051257600080fd5b505afa158015610526573d6000803e3d6000fd5b505050506040513d601f19601f8201168201806040525081019061054a91906110ff565b9a9950505050505050505050565b6000805460405163d7aceec760e01b815282916001600160a01b03169063d7aceec7906105ab9086907f0000000000000000000000000000000000000000000000000000000000000000906004016111fc565b60206040518083038186803b1580156105c357600080fd5b505afa1580156105d7573d6000803e3d6000fd5b505050506040513d601f19601f820116820180604052508101906105fb9190610ff9565b90506101e381610153565b6060806000856001600160a01b03166338d52e0f6040518163ffffffff1660e01b815260040160206040518083038186803b15801561064457600080fd5b505afa158015610658573d6000803e3d6000fd5b505050506040513d601f19601f8201168201806040525081019061067c9190610ff9565b6040805160018082528183019092529192506020808301908036833701905050604080516001808252818301909252919450816020015b60608152602001906001900390816106b357505060408051600280825260608201835292945060009290916020830190803683375050604080516002808252606082018352939450600093909250906020830190803683375050604080516002808252606082019092529293506000929150602082015b606081526020019060019003908161072a57905050905060038360008151811061076457634e487b7160e01b600052603260045260246000fd5b60200260200101818152505060008260008151811061079357634e487b7160e01b600052603260045260246000fd5b60200260200101818152505087876040516020016107b29291906113b6565b604051602081830303815290604052816000815181106107e257634e487b7160e01b600052603260045260246000fd5b602002602001018190525060158360018151811061081057634e487b7160e01b600052603260045260246000fd5b60200260200101818152505060008260018151811061083f57634e487b7160e01b600052603260045260246000fd5b6020026020010181815250508387600060001960405160200161086594939291906112e7565b6040516020818303038152906040528160018151811061089557634e487b7160e01b600052603260045260246000fd5b602002602001018190525088866000815181106108c257634e487b7160e01b600052603260045260246000fd5b6001600160a01b039092166020928302919091019091015260405163195bcf5960e21b906108f890859085908590602401611291565b604051602081830303815290604052906001600160e01b0319166020820180516001600160e01b0383818316178352505050508560008151811061094c57634e487b7160e01b600052603260045260246000fd5b602002602001018190525050505050935093915050565b7f000000000000000000000000000000000000000000000000000000000000000081565b7f000000000000000000000000000000000000000000000000000000000000000081565b6000805460405163d7aceec760e01b8152606092839290916001600160a01b039091169063d7aceec790610a059089907f0000000000000000000000000000000000000000000000000000000000000000906004016111fc565b60206040518083038186803b158015610a1d57600080fd5b505afa158015610a31573d6000803e3d6000fd5b505050506040513d601f19601f82011682018060405250810190610a559190610ff9565b60408051600380825260808201909252919250602082016060803683370190505060408051600380825260808201909252919450816020015b6060815260200190600190039081610a8e57505060408051600280825260608201835292945060009290916020830190803683375050604080516002808252606082018352939450600093909250906020830190803683375050604080516002808252606082019092529293506000929150602082015b6060815260200190600190039081610b05579050509050601483600081518110610b3f57634e487b7160e01b600052603260045260246000fd5b602002602001018181525050600082600081518110610b6e57634e487b7160e01b600052603260045260246000fd5b6020026020010181815250508887896000604051602001610b929493929190611316565b60405160208183030381529060405281600081518110610bc257634e487b7160e01b600052603260045260246000fd5b6020026020010181905250600183600181518110610bf057634e487b7160e01b600052603260045260246000fd5b602002602001018181525050600082600181518110610c1f57634e487b7160e01b600052603260045260246000fd5b602002602001018181525050600119876000604051602001610c4393929190611390565b60405160208183030381529060405281600181518110610c7357634e487b7160e01b600052603260045260246000fd5b60200260200101819052508886600081518110610ca057634e487b7160e01b600052603260045260246000fd5b6001600160a01b039092166020928302919091019091015260405163095ea7b360e01b90610cf5907f000000000000000000000000000000000000000000000000000000000000000090600090602401611215565b604051602081830303815290604052906001600160e01b0319166020820180516001600160e01b03838183161783525050505085600081518110610d4957634e487b7160e01b600052603260045260246000fd5b60200260200101819052508886600181518110610d7657634e487b7160e01b600052603260045260246000fd5b6001600160a01b039092166020928302919091019091015260405163095ea7b360e01b90610dca907f0000000000000000000000000000000000000000000000000000000000000000908b906024016111fc565b604051602081830303815290604052906001600160e01b0319166020820180516001600160e01b03838183161783525050505085600181518110610e1e57634e487b7160e01b600052603260045260246000fd5b60200260200101819052508386600281518110610e4b57634e487b7160e01b600052603260045260246000fd5b6001600160a01b039092166020928302919091019091015260405163195bcf5960e21b90610e8190859085908590602401611291565b604051602081830303815290604052906001600160e01b0319166020820180516001600160e01b0383818316178352505050508560028151811061094c57634e487b7160e01b600052603260045260246000fd5b60408051600481526024810182526020810180516001600160e01b031663f8ba4cff60e01b17905290516000916001600160a01b038416918391610f18916111e0565b60006040518083038185875af1925050503d8060008114610f55576040519150601f19603f3d011682016040523d82523d6000602084013e610f5a565b606091505b505050600080836001600160a01b031663f9557ccb6040518163ffffffff1660e01b8152600401604080518083038186803b15801561022957600080fd5b6000546001600160a01b031681565b80516001600160801b03811681146101e757600080fd5b805167ffffffffffffffff811681146101e757600080fd5b600060208284031215610fe7578081fd5b8135610ff28161146a565b9392505050565b60006020828403121561100a578081fd5b8151610ff28161146a565b600080600060608486031215611029578182fd5b83356110348161146a565b925060208401359150604084013561104b8161146a565b809150509250925092565b600060608284031215611067578081fd5b6040516060810181811067ffffffffffffffff8211171561109657634e487b7160e01b83526041600452602483fd5b6040526110a283610fbe565b81526110b060208401610fbe565b60208201526110c160408401610fa7565b60408201529392505050565b600080604083850312156110df578182fd5b6110e883610fa7565b91506110f660208401610fa7565b90509250929050565b600060208284031215611110578081fd5b5051919050565b600060208284031215611128578081fd5b815160ff81168114610ff2578182fd5b60008282518085526020808601955080818302840101818601855b8481101561119957601f1980878503018a528251805180865261117b81888801898501611424565b9a86019a601f01909116939093018401925090830190600101611153565b5090979650505050505050565b6000815180845260208085019450808401835b838110156111d5578151875295820195908201906001016111b9565b509495945050505050565b600082516111f2818460208701611424565b9190910192915050565b6001600160a01b03929092168252602082015260400190565b6001600160a01b0392909216825260ff16602082015260400190565b604080825283519082018190526000906020906060840190828701845b828110156112735781516001600160a01b03168452928401929084019060010161124e565b505050838103828501526112878186611138565b9695505050505050565b6000606082526112a460608301866111a6565b82810360208401526112b681866111a6565b905082810360408401526112878185611138565b90815260200190565b6001600160a01b0391909116815260200190565b6001600160a01b03948516815292909316602083015260ff16604082015260009190910b606082015260800190565b6001600160a01b039485168152929093166020830152604082015260ff909116606082015260800190565b6001600160a01b039390931683526001600160801b039190911660208301521515604082015260600190565b6001600160a01b0393909316835260208301919091521515604082015260600190565b60009390930b83526001600160a01b039190911660208301521515604082015260600190565b9182526001600160a01b0316602082015260400190565b600082198211156113e0576113e0611454565b500190565b60008261140057634e487b7160e01b81526012600452602481fd5b500490565b600081600019048311821515161561141f5761141f611454565b500290565b60005b8381101561143f578181015183820152602001611427565b8381111561144e576000848401525b50505050565b634e487b7160e01b600052601160045260246000fd5b6001600160a01b038116811461147f57600080fd5b5056fea2646970667358221220a942480fb74292772b42fe1229aed01279d603cf375238c4e464bdc45b2a367b64736f6c63430008010033",
  "linkReferences": {},
  "deployedLinkReferences": {}
}