{
  "abi": [
    {
      "inputs": [
        {
          "internalType": "address",
          "name": "_lendingPool",
          "type": "address"
        },
        {
          "internalType": "uint16",
          "name": "_referralCode",
          "type": "uint16"
        }
      ],
      "stateMutability": "nonpayable",
      "type": "constructor"
    },
    {
      "inputs": [
        {
          "internalType": "address",
          "name": "",
          "type": "address"
        }
      ],
      "name": "exchangeRate",
      "outputs": [
        {
          "internalType": "uint256",
          "name": "",
          "type": "uint256"
        }
      ],
      "stateMutability": "pure",
      "type": "function"
    },
    {
      "inputs": [
        {
          "internalType": "address",
          "name": "",
          "type": "address"
        }
      ],
      "name": "exchangeRateView",
      "outputs": [
        {
          "internalType": "uint256",
          "name": "",
          "type": "uint256"
        }
      ],
      "stateMutability": "pure",
      "type": "function"
    },
    {
      "inputs": [
        {
          "internalType": "address",
          "name": "_token",
          "type": "address"
        }
      ],
      "name": "getAPRFromUnderlying",
      "outputs": [
        {
          "internalType": "uint256",
          "name": "",
          "type": "uint256"
        }
      ],
      "stateMutability": "view",
      "type": "function"
    },
    {
      "inputs": [
        {
          "internalType": "address",
          "name": "_token",
          "type": "address"
        }
      ],
      "name": "getAPRFromWrapped",
      "outputs": [
        {
          "internalType": "uint256",
          "name": "",
          "type": "uint256"
        }
      ],
      "stateMutability": "view",
      "type": "function"
    },
    {
      "inputs": [
        {
          "internalType": "address",
          "name": "_underlying",
          "type": "address"
        },
        {
          "internalType": "uint256",
          "name": "_amount",
          "type": "uint256"
        },
        {
          "internalType": "address",
          "name": "_tokenHolder",
          "type": "address"
        }
      ],
      "name": "lend",
      "outputs": [
        {
          "internalType": "address[]",
          "name": "targets",
          "type": "address[]"
        },
        {
          "internalType": "bytes[]",
          "name": "data",
          "type": "bytes[]"
        }
      ],
      "stateMutability": "view",
      "type": "function"
    },
    {
      "inputs": [],
      "name": "lendingPool",
      "outputs": [
        {
          "internalType": "contract IAaveLendingPoolV2",
          "name": "",
          "type": "address"
        }
      ],
      "stateMutability": "view",
      "type": "function"
    },
    {
      "inputs": [],
      "name": "referralCode",
      "outputs": [
        {
          "internalType": "uint16",
          "name": "",
          "type": "uint16"
        }
      ],
      "stateMutability": "view",
      "type": "function"
    },
    {
      "inputs": [
        {
          "internalType": "address",
          "name": "_wrapped",
          "type": "address"
        },
        {
          "internalType": "uint256",
          "name": "_amount",
          "type": "uint256"
        },
        {
          "internalType": "address",
          "name": "_tokenHolder",
          "type": "address"
        }
      ],
      "name": "unlend",
      "outputs": [
        {
          "internalType": "address[]",
          "name": "targets",
          "type": "address[]"
        },
        {
          "internalType": "bytes[]",
          "name": "data",
          "type": "bytes[]"
        }
      ],
      "stateMutability": "view",
      "type": "function"
    }
  ],
  "bytecode": {
    "object": "0x608060405234801561001057600080fd5b50604051610aee380380610aee83398101604081905261002f916100bc565b6001600160a01b0382166100895760405162461bcd60e51b815260206004820152601460248201527f4c454e44494e475f504f4f4c5f494e56414c4944000000000000000000000000604482015260640160405180910390fd5b6000805461ffff909216600160a01b026001600160b01b03199092166001600160a01b0390931692909217179055610109565b600080604083850312156100cf57600080fd5b82516001600160a01b03811681146100e657600080fd5b602084015190925061ffff811681146100fe57600080fd5b809150509250929050565b6109d6806101186000396000f3fe608060405234801561001057600080fd5b50600436106100885760003560e01c80637b1c44321161005b5780637b1c443214610102578063a59a997314610115578063d8b6d25214610140578063dc3b7c8b146100b357600080fd5b80630f13634e1461008d578063269d2947146100b357806337bca10f146100ce57806342bde0b8146100e1575b600080fd5b6100a061009b366004610650565b610168565b6040519081526020015b60405180910390f35b6100a06100c1366004610650565b50670de0b6b3a764000090565b6100a06100dc366004610650565b6101df565b6100f46100ef36600461066d565b61026e565b6040516100aa9291906106af565b6100f461011036600461066d565b6103e8565b600054610128906001600160a01b031681565b6040516001600160a01b0390911681526020016100aa565b60005461015590600160a01b900461ffff1681565b60405161ffff90911681526020016100aa565b600080826001600160a01b031663b16a19de6040518163ffffffff1660e01b8152600401602060405180830381865afa1580156101a9573d6000803e3d6000fd5b505050506040513d601f19601f820116820180604052508101906101cd9190610799565b90506101d8816101df565b9392505050565b600080546040516335ea6a7560e01b81526001600160a01b038481166004830152839216906335ea6a759060240161018060405180830381865afa15801561022b573d6000803e3d6000fd5b505050506040513d601f19601f8201168201806040525081019061024f919061087b565b60608101519091506101d8906001600160801b0316633b9aca0061062c565b604080516001808252818301909252606091829186916020808301908036833701905050604080516001808252818301909252919450816020015b60608152602001906001900390816102a95750506000805485519294506001600160a01b0316918591906102df576102df610968565b60200260200101906001600160a01b031690816001600160a01b0316815250506369328dec60e01b816001600160a01b031663b16a19de6040518163ffffffff1660e01b8152600401602060405180830381865afa158015610345573d6000803e3d6000fd5b505050506040513d601f19601f820116820180604052508101906103699190610799565b6040516001600160a01b039182166024820152604481018890529086166064820152608401604051602081830303815290604052906001600160e01b0319166020820180516001600160e01b038381831617835250505050826000815181106103d4576103d4610968565b602002602001018190525050935093915050565b60408051600380825260808201909252606091829186916020820184803683370190505060408051600380825260808201909252919450816020015b6060815260200190600190039081610424579050509150858360008151811061044f5761044f610968565b6001600160a01b0392831660209182029290920101526000805460405192166024830152604482015263095ea7b360e01b90606401604051602081830303815290604052906001600160e01b0319166020820180516001600160e01b038381831617835250505050826000815181106104ca576104ca610968565b602002602001018190525085836001815181106104e9576104e9610968565b6001600160a01b039283166020918202929092010152600054604051911660248201526044810186905263095ea7b360e01b90606401604051602081830303815290604052906001600160e01b0319166020820180516001600160e01b0383818316178352505050508260018151811061056557610565610968565b602002602001018190525060008054906101000a90046001600160a01b03168360028151811061059757610597610968565b6001600160a01b0392831660209182029290920101526000546040518883166024820152604481018890529186166064830152600160a01b900461ffff16608482015263e8eda9df60e01b9060a401604051602081830303815290604052906001600160e01b0319166020820180516001600160e01b038381831617835250505050826002815181106103d4576103d4610968565b60006101d8828461097e565b6001600160a01b038116811461064d57600080fd5b50565b60006020828403121561066257600080fd5b81356101d881610638565b60008060006060848603121561068257600080fd5b833561068d81610638565b92506020840135915060408401356106a481610638565b809150509250925092565b604080825283519082018190526000906020906060840190828701845b828110156106f15781516001600160a01b0316845292840192908401906001016106cc565b50505083810382850152845180825282820190600581901b8301840187850160005b8381101561077a57601f19808785030186528251805180865260005b8181101561074a578281018b01518782018c01528a0161072f565b8181111561075b5760008b83890101525b5096890196601f01909116939093018701925090860190600101610713565b50909998505050505050505050565b805161079481610638565b919050565b6000602082840312156107ab57600080fd5b81516101d881610638565b604051610180810167ffffffffffffffff811182821017156107e857634e487b7160e01b600052604160045260246000fd5b60405290565b60006020828403121561080057600080fd5b6040516020810181811067ffffffffffffffff8211171561083157634e487b7160e01b600052604160045260246000fd5b6040529151825250919050565b80516001600160801b038116811461079457600080fd5b805164ffffffffff8116811461079457600080fd5b805160ff8116811461079457600080fd5b6000610180828403121561088e57600080fd5b6108966107b6565b6108a084846107ee565b81526108ae6020840161083e565b60208201526108bf6040840161083e565b60408201526108d06060840161083e565b60608201526108e16080840161083e565b60808201526108f260a0840161083e565b60a082015261090360c08401610855565b60c082015261091460e08401610789565b60e0820152610100610927818501610789565b90820152610120610939848201610789565b9082015261014061094b848201610789565b9082015261016061095d84820161086a565b908201529392505050565b634e487b7160e01b600052603260045260246000fd5b60008261099b57634e487b7160e01b600052601260045260246000fd5b50049056fea2646970667358221220a231d8a1244c0bb566fb6c443f23c2247b6361f72d0555bd9ea978d9d7aafcf064736f6c634300080c0033",
    "linkReferences": {}
  }
}