{
  "_format": "hh-sol-artifact-1",
  "contractName": "UniPieRecipeV2",
  "sourceName": "contracts/Recipes/Recipe.sol",
  "abi": [
    {
      "inputs": [
        {
          "internalType": "address",
          "name": "_weth",
          "type": "address"
        },
        {
          "internalType": "address",
          "name": "_sushiRouter",
          "type": "address"
        },
        {
          "internalType": "address",
          "name": "_lendingRegistry",
          "type": "address"
        },
        {
          "internalType": "address",
          "name": "_pieRegistry",
          "type": "address"
        },
        {
          "internalType": "address",
          "name": "_bentoBox",
          "type": "address"
        },
        {
          "internalType": "address",
          "name": "_masterKontract",
          "type": "address"
        }
      ],
      "stateMutability": "nonpayable",
      "type": "constructor"
    },
    {
      "anonymous": false,
      "inputs": [
        {
          "indexed": true,
          "internalType": "address",
          "name": "_token",
          "type": "address"
        },
        {
          "indexed": true,
          "internalType": "address",
          "name": "_hop",
          "type": "address"
        }
      ],
      "name": "HopUpdated",
      "type": "event"
    },
    {
      "anonymous": false,
      "inputs": [
        {
          "indexed": true,
          "internalType": "address",
          "name": "previousOwner",
          "type": "address"
        },
        {
          "indexed": true,
          "internalType": "address",
          "name": "newOwner",
          "type": "address"
        }
      ],
      "name": "OwnershipTransferred",
      "type": "event"
    },
    {
      "inputs": [
        {
          "internalType": "address",
          "name": "_inputToken",
          "type": "address"
        },
        {
          "internalType": "address",
          "name": "_outputToken",
          "type": "address"
        },
        {
          "internalType": "uint256",
          "name": "_maxInput",
          "type": "uint256"
        },
        {
          "internalType": "bytes",
          "name": "_data",
          "type": "bytes"
        }
      ],
      "name": "bake",
      "outputs": [
        {
          "internalType": "uint256",
          "name": "inputAmountUsed",
          "type": "uint256"
        },
        {
          "internalType": "uint256",
          "name": "outputAmount",
          "type": "uint256"
        }
      ],
      "stateMutability": "nonpayable",
      "type": "function"
    },
    {
      "inputs": [
        {
          "internalType": "address",
          "name": "_pie",
          "type": "address"
        },
        {
          "internalType": "uint256",
          "name": "_poolAmount",
          "type": "uint256"
        }
      ],
      "name": "calcToPie",
      "outputs": [
        {
          "internalType": "uint256",
          "name": "",
          "type": "uint256"
        }
      ],
      "stateMutability": "nonpayable",
      "type": "function"
    },
    {
      "inputs": [
        {
          "internalType": "address",
          "name": "",
          "type": "address"
        }
      ],
      "name": "customHops",
      "outputs": [
        {
          "internalType": "address",
          "name": "hop",
          "type": "address"
        }
      ],
      "stateMutability": "view",
      "type": "function"
    },
    {
      "inputs": [
        {
          "internalType": "uint256",
          "name": "_outputAmount",
          "type": "uint256"
        }
      ],
      "name": "encodeData",
      "outputs": [
        {
          "internalType": "bytes",
          "name": "",
          "type": "bytes"
        }
      ],
      "stateMutability": "pure",
      "type": "function"
    },
    {
      "inputs": [
        {
          "internalType": "address",
          "name": "_inputToken",
          "type": "address"
        },
        {
          "internalType": "address",
          "name": "_outputToken",
          "type": "address"
        },
        {
          "internalType": "uint256",
          "name": "_outputAmount",
          "type": "uint256"
        }
      ],
      "name": "getPrice",
      "outputs": [
        {
          "internalType": "uint256",
          "name": "",
          "type": "uint256"
        }
      ],
      "stateMutability": "nonpayable",
      "type": "function"
    },
    {
      "inputs": [],
      "name": "owner",
      "outputs": [
        {
          "internalType": "address",
          "name": "",
          "type": "address"
        }
      ],
      "stateMutability": "view",
      "type": "function"
    },
    {
      "inputs": [],
      "name": "renounceOwnership",
      "outputs": [],
      "stateMutability": "nonpayable",
      "type": "function"
    },
    {
      "inputs": [
        {
          "internalType": "address payable",
          "name": "_to",
          "type": "address"
        },
        {
          "internalType": "uint256",
          "name": "_amount",
          "type": "uint256"
        }
      ],
      "name": "saveEth",
      "outputs": [],
      "stateMutability": "nonpayable",
      "type": "function"
    },
    {
      "inputs": [
        {
          "internalType": "address",
          "name": "_token",
          "type": "address"
        },
        {
          "internalType": "address",
          "name": "_to",
          "type": "address"
        },
        {
          "internalType": "uint256",
          "name": "_amount",
          "type": "uint256"
        }
      ],
      "name": "saveToken",
      "outputs": [],
      "stateMutability": "nonpayable",
      "type": "function"
    },
    {
      "inputs": [
        {
          "internalType": "address",
          "name": "_token",
          "type": "address"
        },
        {
          "internalType": "address",
          "name": "_hop",
          "type": "address"
        }
      ],
      "name": "setCustomHop",
      "outputs": [],
      "stateMutability": "nonpayable",
      "type": "function"
    },
    {
      "inputs": [
        {
          "internalType": "address",
          "name": "_pie",
          "type": "address"
        },
        {
          "internalType": "uint256",
          "name": "_outputAmount",
          "type": "uint256"
        }
      ],
      "name": "toPie",
      "outputs": [],
      "stateMutability": "payable",
      "type": "function"
    },
    {
      "inputs": [
        {
          "internalType": "address",
          "name": "newOwner",
          "type": "address"
        }
      ],
      "name": "transferOwnership",
      "outputs": [],
      "stateMutability": "nonpayable",
      "type": "function"
    }
  ],
  "bytecode": "0x6101006040523480156200001257600080fd5b506040516200311d3803806200311d833981016040819052620000359162000259565b6200004962000043620001e8565b620001ec565b6001600160a01b0386166200007b5760405162461bcd60e51b81526004016200007290620003e0565b60405180910390fd5b6001600160a01b038516620000a45760405162461bcd60e51b81526004016200007290620003b5565b6001600160a01b038416620000cd5760405162461bcd60e51b8152600401620000729062000353565b6001600160a01b038316620000f65760405162461bcd60e51b815260040162000072906200038a565b6001600160601b0319606087811b821660805286811b821660a05285811b821660c05284901b1660e0526040516001600160a01b0383169060009063c0a47c9360e01b9062000155903090869060019086908190819060240162000315565b60408051601f198184030181529181526020820180516001600160e01b03166001600160e01b0319909416939093179092529051620001959190620002d9565b60006040518083038185875af1925050503d8060008114620001d4576040519150601f19603f3d011682016040523d82523d6000602084013e620001d9565b606091505b50505050505050505062000403565b3390565b600080546001600160a01b038381166001600160a01b0319831681178455604051919092169283917f8be0079c531659141344cd1fd0a4f28419497f9722a3daafe3b4186f6b6457e09190a35050565b80516001600160a01b03811681146200025457600080fd5b919050565b60008060008060008060c0878903121562000272578182fd5b6200027d876200023c565b95506200028d602088016200023c565b94506200029d604088016200023c565b9350620002ad606088016200023c565b9250620002bd608088016200023c565b9150620002cd60a088016200023c565b90509295509295509295565b60008251815b81811015620002fb5760208186018101518583015201620002df565b818111156200030a5782828501525b509190910192915050565b6001600160a01b039687168152949095166020850152911515604084015260ff9081166060840152908116608083015290911660a082015260c00190565b60208082526014908201527f4c454e44494e475f4d414e414745525f5a45524f000000000000000000000000604082015260600190565b6020808252601190820152705049455f52454749535452595f5a45524f60781b604082015260600190565b60208082526011908201527053555348495f524f555445525f5a45524f60781b604082015260600190565b602080825260099082015268574554485f5a45524f60b81b604082015260600190565b60805160601c60a05160601c60c05160601c60e05160601c612c096200051460003960008181610aef01526112f801526000818161097101528181610f0101526113ab01526000818161113e01528181611826015281816118c8015281816119510152818161217a0152818161221c01526122a50152600081816102f8015281816105ed0152818161061701528181610698015281816106f70152818161079b01528181610b8901528181610bc601528181610bff01528181610c3c01528181610c7d01528181610cae0152818161109f0152818161121f0152818161125d0152818161128b015281816112b501528181611aa201528181611dc301528181611e000152611e9f0152612c096000f3fe6080604052600436106100a75760003560e01c80638da5cb5b116100645780638da5cb5b1461017a5780639afdb2c21461019c578063a7521a89146101bc578063a9dd14d6146101e9578063c1a5c7f114610209578063f2fde38b14610229576100a7565b806327726e7d146100ac578063335d15e3146100ce578063412c9547146101045780634ec8f6ae14610132578063715018a614610152578063731dae7e14610167575b600080fd5b3480156100b857600080fd5b506100cc6100c7366004612421565b610249565b005b3480156100da57600080fd5b506100ee6100e9366004612566565b6102f1565b6040516100fb9190612847565b60405180910390f35b34801561011057600080fd5b5061012461011f3660046124c4565b610325565b6040516100fb929190612a2d565b34801561013e57600080fd5b506100cc61014d36600461244c565b610520565b34801561015e57600080fd5b506100cc61059b565b6100cc610175366004612566565b6105e6565b34801561018657600080fd5b5061018f610837565b6040516100fb91906127d3565b3480156101a857600080fd5b506100cc6101b7366004612484565b610846565b3480156101c857600080fd5b506101dc6101d736600461272d565b61090b565b6040516100fb9190612850565b3480156101f557600080fd5b506100ee610204366004612484565b610934565b34801561021557600080fd5b5061018f6102243660046123e9565b610cf7565b34801561023557600080fd5b506100cc6102443660046123e9565b610d12565b610251610d83565b6001600160a01b0316610262610837565b6001600160a01b0316146102915760405162461bcd60e51b8152600401610288906128ef565b60405180910390fd5b816001600160a01b0316816040516102a8906127d0565b60006040518083038185875af1925050503d80600081146102e5576040519150601f19603f3d011682016040523d82523d6000602084013e6102ea565b606091505b5050505050565b600061031e7f00000000000000000000000000000000000000000000000000000000000000008484610934565b9392505050565b6000808585610347610335610d83565b6001600160a01b038416903089610d87565b60008580602001905181019061035d9190612715565b905061036b89898984610ddf565b93506000836001600160a01b03166370a08231306040518263ffffffff1660e01b815260040161039b91906127d3565b60206040518083038186803b1580156103b357600080fd5b505afa1580156103c7573d6000803e3d6000fd5b505050506040513d601f19601f820116820180604052508101906103eb9190612715565b905080156104f757836001600160a01b031663a9059cbb61040a610d83565b6040516370a0823160e01b81526001600160a01b038816906370a08231906104369030906004016127d3565b60206040518083038186803b15801561044e57600080fd5b505afa158015610462573d6000803e3d6000fd5b505050506040513d601f19601f820116820180604052508101906104869190612715565b6040518363ffffffff1660e01b81526004016104a392919061280b565b602060405180830381600087803b1580156104bd57600080fd5b505af11580156104d1573d6000803e3d6000fd5b505050506040513d601f19601f820116820180604052508101906104f591906126f5565b505b610513610502610d83565b6001600160a01b0385169087610e73565b5050505094509492505050565b610528610d83565b6001600160a01b0316610539610837565b6001600160a01b03161461055f5760405162461bcd60e51b8152600401610288906128ef565b60408051602080820183526001600160a01b039384168252938316600090815260019094529220915182546001600160a01b0319169116179055565b6105a3610d83565b6001600160a01b03166105b4610837565b6001600160a01b0316146105da5760405162461bcd60e51b8152600401610288906128ef565b6105e46000610e97565b565b60006106137f00000000000000000000000000000000000000000000000000000000000000008484610934565b90507f00000000000000000000000000000000000000000000000000000000000000006001600160a01b03163460405161064c906127d0565b60006040518083038185875af1925050503d8060008114610689576040519150601f19603f3d011682016040523d82523d6000602084013e61068e565b606091505b50505060006106bf7f0000000000000000000000000000000000000000000000000000000000000000853486610ddf565b90506106dd6106cc610d83565b6001600160a01b0386169083610e73565b6040516370a0823160e01b81526000906001600160a01b037f000000000000000000000000000000000000000000000000000000000000000016906370a082319061072c9030906004016127d3565b60206040518083038186803b15801561074457600080fd5b505afa158015610758573d6000803e3d6000fd5b505050506040513d601f19601f8201168201806040525081019061077c9190612715565b905080156102ea57604051632e1a7d4d60e01b81526001600160a01b037f00000000000000000000000000000000000000000000000000000000000000001690632e1a7d4d906107d0908490600401612847565b600060405180830381600087803b1580156107ea57600080fd5b505af11580156107fe573d6000803e3d6000fd5b505060405133925083156108fc02915083906000818181858888f1935050505015801561082f573d6000803e3d6000fd5b505050505050565b6000546001600160a01b031690565b61084e610d83565b6001600160a01b031661085f610837565b6001600160a01b0316146108855760405162461bcd60e51b8152600401610288906128ef565b60405163a9059cbb60e01b81526001600160a01b0384169063a9059cbb906108b3908590859060040161280b565b602060405180830381600087803b1580156108cd57600080fd5b505af11580156108e1573d6000803e3d6000fd5b505050506040513d601f19601f8201168201806040525081019061090591906126f5565b50505050565b60608160405160200161091e9190612847565b6040516020818303038152906040529050919050565b6000826001600160a01b0316846001600160a01b0316141561095757508061031e565b604051632aabce9960e11b81526000906001600160a01b037f000000000000000000000000000000000000000000000000000000000000000016906355579d32906109a69087906004016127d3565b60206040518083038186803b1580156109be57600080fd5b505afa1580156109d2573d6000803e3d6000fd5b505050506040513d601f19601f820116820180604052508101906109f69190612405565b90506001600160a01b03811615610ad8576000610a1285610ee7565b90506000816001600160a01b031663dc3b7c8b876040518263ffffffff1660e01b8152600401610a4291906127d3565b602060405180830381600087803b158015610a5c57600080fd5b505af1158015610a70573d6000803e3d6000fd5b505050506040513d601f19601f82011682018060405250810190610a949190612715565b90506000670de0b6b3a7640000610aab8388612b2c565b610ab59190612b0c565b610ac0906001612af4565b9050610acd888583610934565b94505050505061031e565b60405163e4ec552b60e01b81526001600160a01b037f0000000000000000000000000000000000000000000000000000000000000000169063e4ec552b90610b249087906004016127d3565b60206040518083038186803b158015610b3c57600080fd5b505afa158015610b50573d6000803e3d6000fd5b505050506040513d601f19601f82011682018060405250810190610b7491906126f5565b15610bfd576000610b858585611000565b90507f00000000000000000000000000000000000000000000000000000000000000006001600160a01b0316866001600160a01b031614610bf457610beb867f000000000000000000000000000000000000000000000000000000000000000083610934565b9250505061031e565b915061031e9050565b7f00000000000000000000000000000000000000000000000000000000000000006001600160a01b0316856001600160a01b031614158015610c7157507f00000000000000000000000000000000000000000000000000000000000000006001600160a01b0316846001600160a01b031614155b15610cdf576000610ca37f00000000000000000000000000000000000000000000000000000000000000008686611131565b5090506000610cd3877f000000000000000000000000000000000000000000000000000000000000000084611131565b50935061031e92505050565b6000610cec868686611131565b509695505050505050565b6001602052600090815260409020546001600160a01b031681565b610d1a610d83565b6001600160a01b0316610d2b610837565b6001600160a01b031614610d515760405162461bcd60e51b8152600401610288906128ef565b6001600160a01b038116610d775760405162461bcd60e51b815260040161028890612863565b610d8081610e97565b50565b3390565b610905846323b872dd60e01b858585604051602401610da8939291906127e7565b60408051601f198184030181529190526020810180516001600160e01b03166001600160e01b03199093169290921790915261116f565b6000610dec8585846111fe565b6040516370a0823160e01b81526001600160a01b038516906370a0823190610e189030906004016127d3565b60206040518083038186803b158015610e3057600080fd5b505afa158015610e44573d6000803e3d6000fd5b505050506040513d601f19601f82011682018060405250810190610e689190612715565b90505b949350505050565b610e928363a9059cbb60e01b8484604051602401610da892919061280b565b505050565b600080546001600160a01b038381166001600160a01b0319831681178455604051919092169283917f8be0079c531659141344cd1fd0a4f28419497f9722a3daafe3b4186f6b6457e09190a35050565b604051632df6e47f60e21b81526000906001600160a01b037f0000000000000000000000000000000000000000000000000000000000000000169063f8b7f42290829063b7db91fc90610f3e9087906004016127d3565b60206040518083038186803b158015610f5657600080fd5b505afa158015610f6a573d6000803e3d6000fd5b505050506040513d601f19601f82011682018060405250810190610f8e9190612715565b6040518263ffffffff1660e01b8152600401610faa9190612847565b60206040518083038186803b158015610fc257600080fd5b505afa158015610fd6573d6000803e3d6000fd5b505050506040513d601f19601f82011682018060405250810190610ffa9190612405565b92915050565b604051630dc6eaf760e21b81526000908390829081906001600160a01b0384169063371babdc90611035908890600401612847565b60006040518083038186803b15801561104d57600080fd5b505afa158015611061573d6000803e3d6000fd5b505050506040513d6000823e601f3d908101601f191682016040526110899190810190612661565b915091506000805b8351811015610cec576111137f00000000000000000000000000000000000000000000000000000000000000008583815181106110de57634e487b7160e01b600052603260045260246000fd5b602002602001015185848151811061110657634e487b7160e01b600052603260045260246000fd5b6020026020010151610934565b61111d9083612af4565b91508061112981612b77565b915050611091565b60008060006111628686867f0000000000000000000000000000000000000000000000000000000000000000611695565b9660019650945050505050565b60006111c4826040518060400160405280602081526020017f5361666545524332303a206c6f772d6c6576656c2063616c6c206661696c6564815250856001600160a01b031661177c9092919063ffffffff16565b805190915015610e9257808060200190518101906111e291906126f5565b610e925760405162461bcd60e51b8152600401610288906129a5565b816001600160a01b0316836001600160a01b0316141561121d57610e92565b7f00000000000000000000000000000000000000000000000000000000000000006001600160a01b0316836001600160a01b0316146112e15760006112837f00000000000000000000000000000000000000000000000000000000000000008484610934565b90506112b0847f00000000000000000000000000000000000000000000000000000000000000008361178b565b6112db7f000000000000000000000000000000000000000000000000000000000000000084846111fe565b50610e92565b60405163e4ec552b60e01b81526001600160a01b037f0000000000000000000000000000000000000000000000000000000000000000169063e4ec552b9061132d9085906004016127d3565b60206040518083038186803b15801561134557600080fd5b505afa158015611359573d6000803e3d6000fd5b505050506040513d601f19601f8201168201806040525081019061137d91906126f5565b156113915761138c8282611a06565b610e92565b604051632aabce9960e11b81526000906001600160a01b037f000000000000000000000000000000000000000000000000000000000000000016906355579d32906113e09086906004016127d3565b60206040518083038186803b1580156113f857600080fd5b505afa15801561140c573d6000803e3d6000fd5b505050506040513d601f19601f820116820180604052508101906114309190612405565b90506001600160a01b0381161561168a57600061144c84610ee7565b90506000816001600160a01b031663dc3b7c8b866040518263ffffffff1660e01b815260040161147c91906127d3565b602060405180830381600087803b15801561149657600080fd5b505af11580156114aa573d6000803e3d6000fd5b505050506040513d601f19601f820116820180604052508101906114ce9190612715565b90506000670de0b6b3a76400006114e58387612b2c565b6114ef9190612b0c565b6114fa906001612af4565b90506115078785836111fe565b600080846001600160a01b0316637b1c44328785306040518463ffffffff1660e01b815260040161153a93929190612824565b60006040518083038186803b15801561155257600080fd5b505afa158015611566573d6000803e3d6000fd5b505050506040513d6000823e601f3d908101601f1916820160405261158e9190810190612578565b9150915060005b825181101561167e5760008382815181106115c057634e487b7160e01b600052603260045260246000fd5b60200260200101516001600160a01b031660008484815181106115f357634e487b7160e01b600052603260045260246000fd5b602002602001015160405161160891906127b4565b60006040518083038185875af1925050503d8060008114611645576040519150601f19603f3d011682016040523d82523d6000602084013e61164a565b606091505b505090508061166b5760405162461bcd60e51b8152600401610288906129ef565b508061167681612b77565b915050611595565b50505050505050610e92565b61090584848461178b565b6000836001600160a01b0316856001600160a01b031614156116b8575081610e6b565b816001600160a01b0316631f00ca74846116d488886000611dbf565b6040518363ffffffff1660e01b81526004016116f1929190612a14565b60006040518083038186803b15801561170957600080fd5b505afa92505050801561173e57506040513d6000823e601f3d908101601f1916820160405261173b91908101906126c2565b60015b61174b5750600019610e6b565b8060008151811061176c57634e487b7160e01b600052603260045260246000fd5b6020026020010151915050610e6b565b6060610e6b8484600085612085565b6001600160a01b0380831660008181526001602090815260409182902082519182019092529054831681528592909190831614156117ca575050610e92565b80516001600160a01b0316156117f1576117ea8582600001518686612145565b5050610e92565b60006117ff86866000611dbf565b60405163095ea7b360e01b81529091506001600160a01b0384169063095ea7b390611851907f00000000000000000000000000000000000000000000000000000000000000009060009060040161280b565b602060405180830381600087803b15801561186b57600080fd5b505af115801561187f573d6000803e3d6000fd5b505050506040513d601f19601f820116820180604052508101906118a391906126f5565b5060405163095ea7b360e01b81526001600160a01b0384169063095ea7b3906118f4907f0000000000000000000000000000000000000000000000000000000000000000906000199060040161280b565b602060405180830381600087803b15801561190e57600080fd5b505af1158015611922573d6000803e3d6000fd5b505050506040513d601f19601f8201168201806040525081019061194691906126f5565b506001600160a01b037f000000000000000000000000000000000000000000000000000000000000000016638803dbee856000198430611987426001612af4565b6040518663ffffffff1660e01b81526004016119a7959493929190612a3b565b600060405180830381600087803b1580156119c157600080fd5b505af11580156119d5573d6000803e3d6000fd5b505050506040513d6000823e601f3d908101601f191682016040526119fd91908101906126c2565b50505050505050565b604051630dc6eaf760e21b8152829060009081906001600160a01b0384169063371babdc90611a39908790600401612847565b60006040518083038186803b158015611a5157600080fd5b505afa158015611a65573d6000803e3d6000fd5b505050506040513d6000823e601f3d908101601f19168201604052611a8d9190810190612661565b9150915060005b8251811015611d5957611b227f0000000000000000000000000000000000000000000000000000000000000000848381518110611ae157634e487b7160e01b600052603260045260246000fd5b6020026020010151848481518110611b0957634e487b7160e01b600052603260045260246000fd5b60200260200101516001611b1d9190612af4565b6111fe565b6000838281518110611b4457634e487b7160e01b600052603260045260246000fd5b60200260200101519050806001600160a01b031663095ea7b38860006040518363ffffffff1660e01b8152600401611b7d92919061280b565b602060405180830381600087803b158015611b9757600080fd5b505af1158015611bab573d6000803e3d6000fd5b505050506040513d601f19601f82011682018060405250810190611bcf91906126f5565b50806001600160a01b031663095ea7b388858581518110611c0057634e487b7160e01b600052603260045260246000fd5b60200260200101516001611c149190612af4565b6040518363ffffffff1660e01b8152600401611c3192919061280b565b602060405180830381600087803b158015611c4b57600080fd5b505af1158015611c5f573d6000803e3d6000fd5b505050506040513d601f19601f82011682018060405250810190611c8391906126f5565b506040516370a0823160e01b81526001600160a01b038216906370a0823190611cb09030906004016127d3565b60206040518083038186803b158015611cc857600080fd5b505afa158015611cdc573d6000803e3d6000fd5b505050506040513d601f19601f82011682018060405250810190611d009190612715565b838381518110611d2057634e487b7160e01b600052603260045260246000fd5b60200260200101511115611d465760405162461bcd60e51b81526004016102889061295b565b5080611d5181612b77565b915050611a94565b506040516334e7a19f60e01b81526001600160a01b038416906334e7a19f90611d86908790600401612847565b600060405180830381600087803b158015611da057600080fd5b505af1158015611db4573d6000803e3d6000fd5b505050505050505050565b60607f00000000000000000000000000000000000000000000000000000000000000006001600160a01b0316846001600160a01b031614158015611e3557507f00000000000000000000000000000000000000000000000000000000000000006001600160a01b0316836001600160a01b031614155b15611f46576040805160038082526080820190925290602082016060803683370190505090508381600081518110611e7d57634e487b7160e01b600052603260045260246000fd5b60200260200101906001600160a01b031690816001600160a01b0316815250507f000000000000000000000000000000000000000000000000000000000000000081600181518110611edf57634e487b7160e01b600052603260045260246000fd5b60200260200101906001600160a01b031690816001600160a01b0316815250508281600281518110611f2157634e487b7160e01b600052603260045260246000fd5b60200260200101906001600160a01b031690816001600160a01b03168152505061031e565b6001600160a01b03821615611fda576040805160038082526080820190925290602082016060803683370190505090508381600081518110611f9857634e487b7160e01b600052603260045260246000fd5b60200260200101906001600160a01b031690816001600160a01b0316815250508181600181518110611edf57634e487b7160e01b600052603260045260246000fd5b6040805160028082526060820183529091602083019080368337019050509050838160008151811061201c57634e487b7160e01b600052603260045260246000fd5b60200260200101906001600160a01b031690816001600160a01b031681525050828160018151811061205e57634e487b7160e01b600052603260045260246000fd5b60200260200101906001600160a01b031690816001600160a01b0316815250509392505050565b6060824710156120a75760405162461bcd60e51b8152600401610288906128a9565b6120b0856122db565b6120cc5760405162461bcd60e51b815260040161028890612924565b600080866001600160a01b031685876040516120e891906127b4565b60006040518083038185875af1925050503d8060008114612125576040519150601f19603f3d011682016040523d82523d6000602084013e61212a565b606091505b509150915061213a8282866122e1565b979650505050505050565b836000612153828587611dbf565b60405163095ea7b360e01b81529091506001600160a01b0383169063095ea7b3906121a5907f00000000000000000000000000000000000000000000000000000000000000009060009060040161280b565b602060405180830381600087803b1580156121bf57600080fd5b505af11580156121d3573d6000803e3d6000fd5b505050506040513d601f19601f820116820180604052508101906121f791906126f5565b5060405163095ea7b360e01b81526001600160a01b0383169063095ea7b390612248907f0000000000000000000000000000000000000000000000000000000000000000906000199060040161280b565b602060405180830381600087803b15801561226257600080fd5b505af1158015612276573d6000803e3d6000fd5b505050506040513d601f19601f8201168201806040525081019061229a91906126f5565b506001600160a01b037f000000000000000000000000000000000000000000000000000000000000000016638803dbee846000198430611987426001612af4565b3b151590565b606083156122f057508161031e565b8251156123005782518084602001fd5b8160405162461bcd60e51b81526004016102889190612850565b600082601f83011261232a578081fd5b8151602061233f61233a83612aa8565b612a77565b828152818101908583018385028701840188101561235b578586fd5b855b8581101561238257815161237081612bbe565b8452928401929084019060010161235d565b5090979650505050505050565b600082601f83011261239f578081fd5b815160206123af61233a83612aa8565b82815281810190858301838502870184018810156123cb578586fd5b855b85811015612382578151845292840192908401906001016123cd565b6000602082840312156123fa578081fd5b813561031e81612bbe565b600060208284031215612416578081fd5b815161031e81612bbe565b60008060408385031215612433578081fd5b823561243e81612bbe565b946020939093013593505050565b6000806040838503121561245e578182fd5b823561246981612bbe565b9150602083013561247981612bbe565b809150509250929050565b600080600060608486031215612498578081fd5b83356124a381612bbe565b925060208401356124b381612bbe565b929592945050506040919091013590565b600080600080608085870312156124d9578081fd5b84356124e481612bbe565b935060208501356124f481612bbe565b925060408501359150606085013567ffffffffffffffff811115612516578182fd5b8501601f81018713612526578182fd5b803561253461233a82612acc565b818152886020838501011115612548578384fd5b81602084016020830137908101602001929092525092959194509250565b60008060408385031215612433578182fd5b600080604080848603121561258b578283fd5b835167ffffffffffffffff808211156125a2578485fd5b6125ae8783880161231a565b94506020915081860151818111156125c4578485fd5b86019050601f810187136125d6578384fd5b80516125e461233a82612aa8565b81815283810190838501875b8481101561265057815186018c603f82011261260a57898afd5b8781015161261a61233a82612acc565b8181528e8b83850101111561262d578b8cfd5b61263c828b83018d8601612b4b565b8652505092860192908601906001016125f0565b50979a909950975050505050505050565b60008060408385031215612673578182fd5b825167ffffffffffffffff8082111561268a578384fd5b6126968683870161231a565b935060208501519150808211156126ab578283fd5b506126b88582860161238f565b9150509250929050565b6000602082840312156126d3578081fd5b815167ffffffffffffffff8111156126e9578182fd5b610e6b8482850161238f565b600060208284031215612706578081fd5b8151801515811461031e578182fd5b600060208284031215612726578081fd5b5051919050565b60006020828403121561273e578081fd5b5035919050565b6000815180845260208085019450808401835b8381101561277d5781516001600160a01b031687529582019590820190600101612758565b509495945050505050565b600081518084526127a0816020860160208601612b4b565b601f01601f19169290920160200192915050565b600082516127c6818460208701612b4b565b9190910192915050565b90565b6001600160a01b0391909116815260200190565b6001600160a01b039384168152919092166020820152604081019190915260600190565b6001600160a01b03929092168252602082015260400190565b6001600160a01b0393841681526020810192909252909116604082015260600190565b90815260200190565b60006020825261031e6020830184612788565b60208082526026908201527f4f776e61626c653a206e6577206f776e657220697320746865207a65726f206160408201526564647265737360d01b606082015260800190565b60208082526026908201527f416464726573733a20696e73756666696369656e742062616c616e636520666f6040820152651c8818d85b1b60d21b606082015260800190565b6020808252818101527f4f776e61626c653a2063616c6c6572206973206e6f7420746865206f776e6572604082015260600190565b6020808252601d908201527f416464726573733a2063616c6c20746f206e6f6e2d636f6e7472616374000000604082015260600190565b6020808252602a908201527f57652061726520747279696e6720746f206465706f736974206d6f7265207468604082015269656e207765206861766560b01b606082015260800190565b6020808252602a908201527f5361666545524332303a204552433230206f7065726174696f6e20646964206e6040820152691bdd081cdd58d8d9595960b21b606082015260800190565b6020808252600b908201526a10d0531317d1905253115160aa1b604082015260600190565b600083825260406020830152610e6b6040830184612745565b918252602082015260400190565b600086825285602083015260a06040830152612a5a60a0830186612745565b6001600160a01b0394909416606083015250608001529392505050565b604051601f8201601f1916810167ffffffffffffffff81118282101715612aa057612aa0612ba8565b604052919050565b600067ffffffffffffffff821115612ac257612ac2612ba8565b5060209081020190565b600067ffffffffffffffff821115612ae657612ae6612ba8565b50601f01601f191660200190565b60008219821115612b0757612b07612b92565b500190565b600082612b2757634e487b7160e01b81526012600452602481fd5b500490565b6000816000190483118215151615612b4657612b46612b92565b500290565b60005b83811015612b66578181015183820152602001612b4e565b838111156109055750506000910152565b6000600019821415612b8b57612b8b612b92565b5060010190565b634e487b7160e01b600052601160045260246000fd5b634e487b7160e01b600052604160045260246000fd5b6001600160a01b0381168114610d8057600080fdfea2646970667358221220b1c7cb0356439090c47a8ea531506495783ae616e853c6784a4df268881f1f7264736f6c63430008010033",
  "linkReferences": {},
  "deployedLinkReferences": {}
}