{
  "abi": [
    {
      "inputs": [
        {
          "internalType": "address",
          "name": "_controller",
          "type": "address"
        },
        {
          "internalType": "address",
          "name": "_pie",
          "type": "address"
        },
        {
          "internalType": "address",
          "name": "_recipe",
          "type": "address"
        }
      ],
      "stateMutability": "nonpayable",
      "type": "constructor"
    },
    {
      "anonymous": false,
      "inputs": [
        {
          "indexed": false,
          "internalType": "address",
          "name": "user",
          "type": "address"
        },
        {
          "indexed": false,
          "internalType": "uint256",
          "name": "amount",
          "type": "uint256"
        },
        {
          "indexed": false,
          "internalType": "uint256",
          "name": "price",
          "type": "uint256"
        }
      ],
      "name": "Bake",
      "type": "event"
    },
    {
      "anonymous": false,
      "inputs": [
        {
          "indexed": false,
          "internalType": "address",
          "name": "user",
          "type": "address"
        },
        {
          "indexed": false,
          "internalType": "uint256",
          "name": "amount",
          "type": "uint256"
        }
      ],
      "name": "Deposit",
      "type": "event"
    },
    {
      "anonymous": false,
      "inputs": [
        {
          "indexed": false,
          "internalType": "address",
          "name": "user",
          "type": "address"
        },
        {
          "indexed": false,
          "internalType": "uint256",
          "name": "amount",
          "type": "uint256"
        },
        {
          "indexed": false,
          "internalType": "address",
          "name": "receiver",
          "type": "address"
        }
      ],
      "name": "WithdrawETH",
      "type": "event"
    },
    {
      "anonymous": false,
      "inputs": [
        {
          "indexed": false,
          "internalType": "address",
          "name": "user",
          "type": "address"
        },
        {
          "indexed": false,
          "internalType": "uint256",
          "name": "amount",
          "type": "uint256"
        },
        {
          "indexed": false,
          "internalType": "address",
          "name": "receiver",
          "type": "address"
        }
      ],
      "name": "WithdrawOuput",
      "type": "event"
    },
    {
      "inputs": [
        {
          "internalType": "address[]",
          "name": "_receivers",
          "type": "address[]"
        },
        {
          "internalType": "uint256",
          "name": "_outputAmount",
          "type": "uint256"
        },
        {
          "internalType": "uint256",
          "name": "_maxPrice",
          "type": "uint256"
        }
      ],
      "name": "bake",
      "outputs": [],
      "stateMutability": "nonpayable",
      "type": "function"
    },
    {
      "inputs": [],
      "name": "cap",
      "outputs": [
        {
          "internalType": "uint256",
          "name": "",
          "type": "uint256"
        }
      ],
      "stateMutability": "view",
      "type": "function"
    },
    {
      "inputs": [],
      "name": "controller",
      "outputs": [
        {
          "internalType": "address",
          "name": "",
          "type": "address"
        }
      ],
      "stateMutability": "view",
      "type": "function"
    },
    {
      "inputs": [],
      "name": "deposit",
      "outputs": [],
      "stateMutability": "payable",
      "type": "function"
    },
    {
      "inputs": [
        {
          "internalType": "address",
          "name": "",
          "type": "address"
        }
      ],
      "name": "ethBalanceOf",
      "outputs": [
        {
          "internalType": "uint256",
          "name": "",
          "type": "uint256"
        }
      ],
      "stateMutability": "view",
      "type": "function"
    },
    {
      "inputs": [],
      "name": "getCap",
      "outputs": [
        {
          "internalType": "uint256",
          "name": "",
          "type": "uint256"
        }
      ],
      "stateMutability": "view",
      "type": "function"
    },
    {
      "inputs": [
        {
          "internalType": "address",
          "name": "",
          "type": "address"
        }
      ],
      "name": "outputBalanceOf",
      "outputs": [
        {
          "internalType": "uint256",
          "name": "",
          "type": "uint256"
        }
      ],
      "stateMutability": "view",
      "type": "function"
    },
    {
      "inputs": [],
      "name": "pie",
      "outputs": [
        {
          "internalType": "contract IERC20",
          "name": "",
          "type": "address"
        }
      ],
      "stateMutability": "view",
      "type": "function"
    },
    {
      "inputs": [],
      "name": "recipe",
      "outputs": [
        {
          "internalType": "contract IRecipe",
          "name": "",
          "type": "address"
        }
      ],
      "stateMutability": "view",
      "type": "function"
    },
    {
      "inputs": [
        {
          "internalType": "address",
          "name": "_token",
          "type": "address"
        }
      ],
      "name": "saveToken",
      "outputs": [],
      "stateMutability": "nonpayable",
      "type": "function"
    },
    {
      "inputs": [
        {
          "internalType": "uint256",
          "name": "_cap",
          "type": "uint256"
        }
      ],
      "name": "setCap",
      "outputs": [],
      "stateMutability": "nonpayable",
      "type": "function"
    },
    {
      "inputs": [
        {
          "internalType": "address",
          "name": "_controller",
          "type": "address"
        }
      ],
      "name": "setController",
      "outputs": [],
      "stateMutability": "nonpayable",
      "type": "function"
    },
    {
      "inputs": [
        {
          "internalType": "address",
          "name": "_pie",
          "type": "address"
        }
      ],
      "name": "setPie",
      "outputs": [],
      "stateMutability": "nonpayable",
      "type": "function"
    },
    {
      "inputs": [
        {
          "internalType": "address",
          "name": "_pie",
          "type": "address"
        },
        {
          "internalType": "address",
          "name": "_recipe",
          "type": "address"
        }
      ],
      "name": "setPieAndRecipe",
      "outputs": [],
      "stateMutability": "nonpayable",
      "type": "function"
    },
    {
      "inputs": [
        {
          "internalType": "address",
          "name": "_recipe",
          "type": "address"
        }
      ],
      "name": "setRecipe",
      "outputs": [],
      "stateMutability": "nonpayable",
      "type": "function"
    },
    {
      "inputs": [
        {
          "internalType": "address payable",
          "name": "_receiver",
          "type": "address"
        }
      ],
      "name": "withdrawAll",
      "outputs": [],
      "stateMutability": "nonpayable",
      "type": "function"
    },
    {
      "inputs": [
        {
          "internalType": "address payable",
          "name": "_receiver",
          "type": "address"
        }
      ],
      "name": "withdrawAllETH",
      "outputs": [],
      "stateMutability": "nonpayable",
      "type": "function"
    },
    {
      "inputs": [
        {
          "internalType": "uint256",
          "name": "_amount",
          "type": "uint256"
        },
        {
          "internalType": "address payable",
          "name": "_receiver",
          "type": "address"
        }
      ],
      "name": "withdrawETH",
      "outputs": [],
      "stateMutability": "nonpayable",
      "type": "function"
    },
    {
      "inputs": [
        {
          "internalType": "address",
          "name": "_receiver",
          "type": "address"
        }
      ],
      "name": "withdrawOutput",
      "outputs": [],
      "stateMutability": "nonpayable",
      "type": "function"
    },
    {
      "stateMutability": "payable",
      "type": "receive"
    }
  ],
  "bytecode": {
    "object": "0x608060405234801561001057600080fd5b506040516112cc3803806112cc83398101604081905261002f9161008d565b600280546001600160a01b039485166001600160a01b0319918216179091556003805493851693821693909317909255600480549190931691161790556100d0565b80516001600160a01b038116811461008857600080fd5b919050565b6000806000606084860312156100a257600080fd5b6100ab84610071565b92506100b960208501610071565b91506100c760408501610071565b90509250925092565b6111ed806100df6000396000f3fe6080604052600436106101185760003560e01c806392eefe9b116100a0578063d6ea4c1011610064578063d6ea4c1014610304578063e560ce9c14610324578063f1a7ccfd14610344578063f77c479114610364578063fa09e6301461038457600080fd5b806392eefe9b1461026f5780639ebd91151461028f578063a114a5d2146102af578063b13820a7146102cf578063d0e30db0146102fc57600080fd5b806347786d37116100e757806347786d37146101cd578063554d578d146101ed57806367d6f65f146102025780637252bbf2146102225780638a95a7461461024f57600080fd5b8063355274ea1461012c57806336118b521461015557806336f58588146101755780633a1d2d02146101ad57600080fd5b36610127576101256103a4565b005b600080fd5b34801561013857600080fd5b5061014260055481565b6040519081526020015b60405180910390f35b34801561016157600080fd5b50610125610170366004610f3a565b61049d565b34801561018157600080fd5b50600454610195906001600160a01b031681565b6040516001600160a01b03909116815260200161014c565b3480156101b957600080fd5b506101256101c8366004610f6a565b6105a0565b3480156101d957600080fd5b506101256101e8366004610f87565b61063a565b3480156101f957600080fd5b50600554610142565b34801561020e57600080fd5b5061012561021d366004610f6a565b610669565b34801561022e57600080fd5b5061014261023d366004610f6a565b60006020819052908152604090205481565b34801561025b57600080fd5b50600354610195906001600160a01b031681565b34801561027b57600080fd5b5061012561028a366004610f6a565b610700565b34801561029b57600080fd5b506101256102aa366004610f6a565b61074c565b3480156102bb57600080fd5b506101256102ca366004610fa0565b6107b9565b3480156102db57600080fd5b506101426102ea366004610f6a565b60016020526000908152604090205481565b6101256103a4565b34801561031057600080fd5b5061012561031f366004610f6a565b610c14565b34801561033057600080fd5b5061012561033f366004610f6a565b610d39565b34801561035057600080fd5b5061012561035f366004611022565b610e76565b34801561037057600080fd5b50600254610195906001600160a01b031681565b34801561039057600080fd5b5061012561039f366004610f6a565b610e8c565b6003546001600160a01b03166103d55760405162461bcd60e51b81526004016103cc90611050565b60405180910390fd5b6004546001600160a01b03166103fd5760405162461bcd60e51b81526004016103cc90611075565b336000908152602081905260409020546104179034610eee565b336000908152602081905260409020556005544711156104635760405162461bcd60e51b815260206004820152600760248201526604d41585f4341560cc1b60448201526064016103cc565b604080513381523460208201527fe1fffcc4923d04b559f4d29a8bfc6cda04eb5b0d3c460751c2402c5c5cc9109c910160405180910390a1565b6003546001600160a01b03166104c55760405162461bcd60e51b81526004016103cc90611050565b6004546001600160a01b03166104ed5760405162461bcd60e51b81526004016103cc90611075565b336000908152602081905260409020546105079083610f01565b336000908152602081905260408082209290925590516001600160a01b0383169184156108fc02918591818181858888f1935050505015801561054e573d6000803e3d6000fd5b5060408051338152602081018490526001600160a01b038316918101919091527f51faa29987d414cc66998a6556a58b18659c063a7ed944d9a8439e54ba1844bf906060015b60405180910390a15050565b6002546001600160a01b031633146105ca5760405162461bcd60e51b81526004016103cc9061109d565b6004546001600160a01b0316156106185760405162461bcd60e51b8152602060048201526012602482015271149150d2541157d053149150511657d4d15560721b60448201526064016103cc565b600480546001600160a01b0319166001600160a01b0392909216919091179055565b6002546001600160a01b031633146106645760405162461bcd60e51b81526004016103cc9061109d565b600555565b6002546001600160a01b031633146106935760405162461bcd60e51b81526004016103cc9061109d565b6003546001600160a01b0316156106de5760405162461bcd60e51b815260206004820152600f60248201526e14125157d053149150511657d4d155608a1b60448201526064016103cc565b600380546001600160a01b0319166001600160a01b0392909216919091179055565b6002546001600160a01b0316331461072a5760405162461bcd60e51b81526004016103cc9061109d565b600280546001600160a01b0319166001600160a01b0392909216919091179055565b6003546001600160a01b03166107745760405162461bcd60e51b81526004016103cc90611050565b6004546001600160a01b031661079c5760405162461bcd60e51b81526004016103cc90611075565b336000908152602081905260409020546107b6908261049d565b50565b6003546001600160a01b03166107e15760405162461bcd60e51b81526004016103cc90611050565b6004546001600160a01b03166108095760405162461bcd60e51b81526004016103cc90611075565b6002546001600160a01b031633146108335760405162461bcd60e51b81526004016103cc9061109d565b6004805460035460405163335d15e360e01b81526001600160a01b03918216938101939093526024830185905260009291169063335d15e3906044016020604051808303816000875af115801561088e573d6000803e3d6000fd5b505050506040513d601f19601f820116820180604052508101906108b291906110c5565b9050818111156108f25760405162461bcd60e51b815260206004820152600b60248201526a282924a1a2afa2a92927a960a91b60448201526064016103cc565b6000805b85811015610b5b576000806000898985818110610915576109156110de565b905060200201602081019061092a9190610f6a565b6001600160a01b03166001600160a01b031681526020019081526020016000205490508383141561095b5750610b5b565b836109668483610eee565b1161097c576109758382610eee565b9250610995565b6109868484610f01565b90506109928382610eee565b92505b6109e3816000808b8b878181106109ae576109ae6110de565b90506020020160208101906109c39190610f6a565b6001600160a01b0316815260208101919091526040016000205490610f01565b6000808a8a868181106109f8576109f86110de565b9050602002016020810190610a0d9190610f6a565b6001600160a01b031681526020810191909152604001600090812091909155610a4085610a3a8985610f0d565b90610f19565b9050610a9181600160008c8c88818110610a5c57610a5c6110de565b9050602002016020810190610a719190610f6a565b6001600160a01b0316815260208101919091526040016000205490610eee565b600160008b8b87818110610aa757610aa76110de565b9050602002016020810190610abc9190610f6a565b6001600160a01b031681526020810191909152604001600020557f96c59bac7680c77217510ed14bc725bbca570081c194f20c9fad3fa3b349ca43898985818110610b0957610b096110de565b9050602002016020810190610b1e9190610f6a565b604080516001600160a01b03909216825260208201849052810184905260600160405180910390a150508080610b539061110a565b9150506108f6565b50818114610ba05760405162461bcd60e51b8152602060048201526012602482015271494e53554646494349454e545f46554e445360701b60448201526064016103cc565b6004805460035460405163398ed73f60e11b81526001600160a01b039182169381019390935260248301879052169063731dae7e9084906044016000604051808303818588803b158015610bf357600080fd5b505af1158015610c07573d6000803e3d6000fd5b5050505050505050505050565b6003546001600160a01b0316610c3c5760405162461bcd60e51b81526004016103cc90611050565b6004546001600160a01b0316610c645760405162461bcd60e51b81526004016103cc90611075565b336000908152600160205260408082208054929055600354905163a9059cbb60e01b81526001600160a01b038481166004830152602482018490529091169063a9059cbb906044016020604051808303816000875af1158015610ccb573d6000803e3d6000fd5b505050506040513d601f19601f82011682018060405250810190610cef9190611125565b5060408051338152602081018390526001600160a01b038416918101919091527f601812e3be00387a6117506f98da8c90f2abbc8b7369b08016996918895287a490606001610594565b6003546001600160a01b0382811691161415610d875760405162461bcd60e51b815260206004820152600d60248201526c24a72b20a624a22faa27a5a2a760991b60448201526064016103cc565b6002546040516370a0823160e01b815230600482015282916001600160a01b038084169263a9059cbb92919091169083906370a0823190602401602060405180830381865afa158015610dde573d6000803e3d6000fd5b505050506040513d601f19601f82011682018060405250810190610e0291906110c5565b6040516001600160e01b031960e085901b1681526001600160a01b03909216600483015260248201526044016020604051808303816000875af1158015610e4d573d6000803e3d6000fd5b505050506040513d601f19601f82011682018060405250810190610e719190611125565b505050565b610e7f82610669565b610e88816105a0565b5050565b6003546001600160a01b0316610eb45760405162461bcd60e51b81526004016103cc90611050565b6004546001600160a01b0316610edc5760405162461bcd60e51b81526004016103cc90611075565b610ee58161074c565b6107b681610c14565b6000610efa8284611147565b9392505050565b6000610efa828461115f565b6000610efa8284611176565b6000610efa8284611195565b6001600160a01b03811681146107b657600080fd5b60008060408385031215610f4d57600080fd5b823591506020830135610f5f81610f25565b809150509250929050565b600060208284031215610f7c57600080fd5b8135610efa81610f25565b600060208284031215610f9957600080fd5b5035919050565b60008060008060608587031215610fb657600080fd5b843567ffffffffffffffff80821115610fce57600080fd5b818701915087601f830112610fe257600080fd5b813581811115610ff157600080fd5b8860208260051b850101111561100657600080fd5b6020928301999098509187013596604001359550909350505050565b6000806040838503121561103557600080fd5b823561104081610f25565b91506020830135610f5f81610f25565b6020808252600b908201526a14125157d393d517d4d15560aa1b604082015260600190565b6020808252600e908201526d149150d2541157d393d517d4d15560921b604082015260600190565b6020808252600e908201526d2727aa2fa1a7a72a2927a62622a960911b604082015260600190565b6000602082840312156110d757600080fd5b5051919050565b634e487b7160e01b600052603260045260246000fd5b634e487b7160e01b600052601160045260246000fd5b600060001982141561111e5761111e6110f4565b5060010190565b60006020828403121561113757600080fd5b81518015158114610efa57600080fd5b6000821982111561115a5761115a6110f4565b500190565b600082821015611171576111716110f4565b500390565b6000816000190483118215151615611190576111906110f4565b500290565b6000826111b257634e487b7160e01b600052601260045260246000fd5b50049056fea26469706673582212207d18a69c9e1af7fb0572b8d55bc85d2b65011fdc2abe25a969ce8119a313b90a64736f6c634300080c0033",
    "linkReferences": {}
  }
}