{
  "_format": "hh-sol-artifact-1",
  "contractName": "BasketRegistry",
  "sourceName": "contracts/BasketRegistry.sol",
  "abi": [
    {
      "anonymous": false,
      "inputs": [
        {
          "indexed": true,
          "internalType": "address",
          "name": "previousOwner",
          "type": "address"
        },
        {
          "indexed": true,
          "internalType": "address",
          "name": "newOwner",
          "type": "address"
        }
      ],
      "name": "OwnershipTransferred",
      "type": "event"
    },
    {
      "inputs": [
        {
          "internalType": "address",
          "name": "_basket",
          "type": "address"
        }
      ],
      "name": "addBasket",
      "outputs": [],
      "stateMutability": "nonpayable",
      "type": "function"
    },
    {
      "inputs": [
        {
          "internalType": "uint256",
          "name": "",
          "type": "uint256"
        }
      ],
      "name": "entries",
      "outputs": [
        {
          "internalType": "address",
          "name": "",
          "type": "address"
        }
      ],
      "stateMutability": "view",
      "type": "function"
    },
    {
      "inputs": [
        {
          "internalType": "address",
          "name": "",
          "type": "address"
        }
      ],
      "name": "inRegistry",
      "outputs": [
        {
          "internalType": "bool",
          "name": "",
          "type": "bool"
        }
      ],
      "stateMutability": "view",
      "type": "function"
    },
    {
      "inputs": [],
      "name": "owner",
      "outputs": [
        {
          "internalType": "address",
          "name": "",
          "type": "address"
        }
      ],
      "stateMutability": "view",
      "type": "function"
    },
    {
      "inputs": [
        {
          "internalType": "uint256",
          "name": "_index",
          "type": "uint256"
        }
      ],
      "name": "removeBasket",
      "outputs": [],
      "stateMutability": "nonpayable",
      "type": "function"
    },
    {
      "inputs": [
        {
          "internalType": "address",
          "name": "_address",
          "type": "address"
        }
      ],
      "name": "removeBasketByAddress",
      "outputs": [],
      "stateMutability": "nonpayable",
      "type": "function"
    },
    {
      "inputs": [],
      "name": "renounceOwnership",
      "outputs": [],
      "stateMutability": "nonpayable",
      "type": "function"
    },
    {
      "inputs": [
        {
          "internalType": "address",
          "name": "newOwner",
          "type": "address"
        }
      ],
      "name": "transferOwnership",
      "outputs": [],
      "stateMutability": "nonpayable",
      "type": "function"
    }
  ],
  "bytecode": "0x608060405260006100176001600160e01b0361006616565b600080546001600160a01b0319166001600160a01b0383169081178255604051929350917f8be0079c531659141344cd1fd0a4f28419497f9722a3daafe3b4186f6b6457e0908290a35061006a565b3390565b61070c806100796000396000f3fe608060405234801561001057600080fd5b50600436106100885760003560e01c8063b30906d41161005b578063b30906d4146100fe578063e4ec552b1461011b578063f0e15d2314610155578063f2fde38b1461017b57610088565b8063059a7bd51461008d578063715018a6146100ac5780638da5cb5b146100b4578063a180fe89146100d8575b600080fd5b6100aa600480360360208110156100a357600080fd5b50356101a1565b005b6100aa6102cf565b6100bc610371565b604080516001600160a01b039092168252519081900360200190f35b6100aa600480360360208110156100ee57600080fd5b50356001600160a01b0316610380565b6100bc6004803603602081101561011457600080fd5b50356104ad565b6101416004803603602081101561013157600080fd5b50356001600160a01b03166104d4565b604080519115158252519081900360200190f35b6100aa6004803603602081101561016b57600080fd5b50356001600160a01b03166104e9565b6100aa6004803603602081101561019157600080fd5b50356001600160a01b0316610594565b6101a961068c565b6000546001600160a01b039081169116146101f9576040805162461bcd60e51b815260206004820181905260248201526000805160206106b7833981519152604482015290519081900360640190fd5b60006002828154811061020857fe5b60009182526020808320909101546001600160a01b031680835260019091526040909120805460ff191690556002805491925090600019810190811061024a57fe5b600091825260209091200154600280546001600160a01b03909216918490811061027057fe5b9060005260206000200160006101000a8154816001600160a01b0302191690836001600160a01b0316021790555060028054806102a957fe5b600082815260209020810160001990810180546001600160a01b03191690550190555050565b6102d761068c565b6000546001600160a01b03908116911614610327576040805162461bcd60e51b815260206004820181905260248201526000805160206106b7833981519152604482015290519081900360640190fd5b600080546040516001600160a01b03909116907f8be0079c531659141344cd1fd0a4f28419497f9722a3daafe3b4186f6b6457e0908390a3600080546001600160a01b0319169055565b6000546001600160a01b031690565b61038861068c565b6000546001600160a01b039081169116146103d8576040805162461bcd60e51b815260206004820181905260248201526000805160206106b7833981519152604482015290519081900360640190fd5b6001600160a01b03811660009081526001602052604090205460ff1615610446576040805162461bcd60e51b815260206004820152601d60248201527f4261736b657420697320616c726561647920696e205265676973747279000000604482015290519081900360640190fd5b6002805460018181019092557f405787fa12a823e0f2b7631cc41b3ba8828b3321ca811111fa75cd3aa3bb5ace0180546001600160a01b039093166001600160a01b031990931683179055600091825260208190526040909120805460ff19169091179055565b600281815481106104ba57fe5b6000918252602090912001546001600160a01b0316905081565b60016020526000908152604090205460ff1681565b6104f161068c565b6000546001600160a01b03908116911614610541576040805162461bcd60e51b815260206004820181905260248201526000805160206106b7833981519152604482015290519081900360640190fd5b60005b600254811015610590576002818154811061055b57fe5b6000918252602090912001546001600160a01b038381169116141561058857610583816101a1565b610590565b600101610544565b5050565b61059c61068c565b6000546001600160a01b039081169116146105ec576040805162461bcd60e51b815260206004820181905260248201526000805160206106b7833981519152604482015290519081900360640190fd5b6001600160a01b0381166106315760405162461bcd60e51b81526004018080602001828103825260268152602001806106916026913960400191505060405180910390fd5b600080546040516001600160a01b03808516939216917f8be0079c531659141344cd1fd0a4f28419497f9722a3daafe3b4186f6b6457e091a3600080546001600160a01b0319166001600160a01b0392909216919091179055565b339056fe4f776e61626c653a206e6577206f776e657220697320746865207a65726f20616464726573734f776e61626c653a2063616c6c6572206973206e6f7420746865206f776e6572a264697066735822122019a775077cdbb92f05b8f88b24b650b2e5dea7c780956beaadcd28c1ecbbc3e264736f6c63430006040033",
  "linkReferences": {},
  "deployedLinkReferences": {}
}