{
  "abi": [
    {
      "inputs": [],
      "stateMutability": "nonpayable",
      "type": "constructor"
    },
    {
      "stateMutability": "payable",
      "type": "fallback"
    },
    {
      "inputs": [
        {
          "internalType": "address",
          "name": "_value",
          "type": "address"
        }
      ],
      "name": "addressToBytes32",
      "outputs": [
        {
          "internalType": "bytes32",
          "name": "",
          "type": "bytes32"
        }
      ],
      "stateMutability": "view",
      "type": "function"
    },
    {
      "inputs": [
        {
          "internalType": "bytes32",
          "name": "_value",
          "type": "bytes32"
        }
      ],
      "name": "bytes32ToAddress",
      "outputs": [
        {
          "internalType": "address",
          "name": "",
          "type": "address"
        }
      ],
      "stateMutability": "pure",
      "type": "function"
    },
    {
      "inputs": [],
      "name": "getImplementation",
      "outputs": [
        {
          "internalType": "address",
          "name": "",
          "type": "address"
        }
      ],
      "stateMutability": "view",
      "type": "function"
    },
    {
      "inputs": [],
      "name": "getProxyOwner",
      "outputs": [
        {
          "internalType": "address",
          "name": "",
          "type": "address"
        }
      ],
      "stateMutability": "view",
      "type": "function"
    },
    {
      "inputs": [
        {
          "internalType": "bytes32",
          "name": "_key",
          "type": "bytes32"
        }
      ],
      "name": "readAddress",
      "outputs": [
        {
          "internalType": "address",
          "name": "",
          "type": "address"
        }
      ],
      "stateMutability": "view",
      "type": "function"
    },
    {
      "inputs": [
        {
          "internalType": "bytes32",
          "name": "_key",
          "type": "bytes32"
        }
      ],
      "name": "readBool",
      "outputs": [
        {
          "internalType": "bool",
          "name": "",
          "type": "bool"
        }
      ],
      "stateMutability": "view",
      "type": "function"
    },
    {
      "inputs": [
        {
          "internalType": "address",
          "name": "_newImplementation",
          "type": "address"
        }
      ],
      "name": "setImplementation",
      "outputs": [],
      "stateMutability": "nonpayable",
      "type": "function"
    },
    {
      "inputs": [
        {
          "internalType": "address",
          "name": "_newOwner",
          "type": "address"
        }
      ],
      "name": "setProxyOwner",
      "outputs": [],
      "stateMutability": "nonpayable",
      "type": "function"
    },
    {
      "inputs": [
        {
          "internalType": "bytes32",
          "name": "_key",
          "type": "bytes32"
        }
      ],
      "name": "storageRead",
      "outputs": [
        {
          "internalType": "bytes32",
          "name": "",
          "type": "bytes32"
        }
      ],
      "stateMutability": "view",
      "type": "function"
    }
  ],
  "bytecode": {
    "object": "0x608060405234801561001057600080fd5b506040516913d5d3915497d4d313d560b21b602082015261005090602a01604051602081830303815290604052805190602001203361005560201b60201c565b610068565b503060601b6001600160601b0319169055565b6104c2806100776000396000f3fe6080604052600436106100865760003560e01c80639d84ae69116100595780639d84ae691461013f578063aaf10f421461015f578063bb15ac8e14610174578063caaee91c146101a4578063d784d426146101c457610086565b80631ab7710d1461009057806337a440e6146100c25780635ced058e146100ef57806382c947b71461010d575b61008e6101e4565b005b34801561009c57600080fd5b506100a5610254565b6040516001600160a01b0390911681526020015b60405180910390f35b3480156100ce57600080fd5b506100e16100dd3660046103f8565b5490565b6040519081526020016100b9565b3480156100fb57600080fd5b506100a561010a3660046103f8565b90565b34801561011957600080fd5b506100e1610128366004610411565b506bffffffffffffffffffffffff193060601b1690565b34801561014b57600080fd5b506100a561015a3660046103f8565b61027e565b34801561016b57600080fd5b506100a5610291565b34801561018057600080fd5b5061019461018f3660046103f8565b6102bf565b60405190151581526020016100b9565b3480156101b057600080fd5b5061008e6101bf366004610411565b6102d2565b3480156101d057600080fd5b5061008e6101df366004610411565b61037b565b600061022d604051602001610212907212535413115351539510551253d397d4d313d5606a1b815260130190565b6040516020818303038152906040528051906020012061027e565b905060405136600082376000803683855af43d806000843e818015610250578184f35b8184fd5b6000610279604051602001610212906913d5d3915497d4d313d560b21b8152600a0190565b905090565b600061028b61010a835490565b92915050565b6000610279604051602001610212907212535413115351539510551253d397d4d313d5606a1b815260130190565b600060016102cb835490565b1492915050565b6040516913d5d3915497d4d313d560b21b60208201526102f490602a01610212565b6001600160a01b0316336001600160a01b03161461032d5760405162461bcd60e51b815260040161032490610441565b60405180910390fd5b6040516913d5d3915497d4d313d560b21b602082015261037890602a015b604051602081830303815290604052805190602001203060601b6bffffffffffffffffffffffff19169055565b50565b6040516913d5d3915497d4d313d560b21b602082015261039d90602a01610212565b6001600160a01b0316336001600160a01b0316146103cd5760405162461bcd60e51b815260040161032490610441565b6040517212535413115351539510551253d397d4d313d5606a1b60208201526103789060330161034b565b60006020828403121561040a57600080fd5b5035919050565b60006020828403121561042357600080fd5b81356001600160a01b038116811461043a57600080fd5b9392505050565b6020808252602b908201527f5050726f78792e6f6e6c7950726f78794f776e65723a206d73672073656e646560408201526a39103737ba1037bbb732b960a91b60608201526080019056fea2646970667358221220d65747019db784b44b743373ced04edd8839eae9dbf9276150f9a011bac7b6d064736f6c634300080c0033",
    "linkReferences": {}
  }
}