{
  "abi": [
    {
      "anonymous": false,
      "inputs": [
        {
          "indexed": true,
          "internalType": "address",
          "name": "caller",
          "type": "address"
        },
        {
          "indexed": true,
          "internalType": "address",
          "name": "target",
          "type": "address"
        },
        {
          "indexed": false,
          "internalType": "bytes",
          "name": "data",
          "type": "bytes"
        },
        {
          "indexed": false,
          "internalType": "uint256",
          "name": "value",
          "type": "uint256"
        }
      ],
      "name": "Call",
      "type": "event"
    },
    {
      "anonymous": false,
      "inputs": [
        {
          "indexed": true,
          "internalType": "address",
          "name": "caller",
          "type": "address"
        }
      ],
      "name": "CallerAdded",
      "type": "event"
    },
    {
      "anonymous": false,
      "inputs": [
        {
          "indexed": true,
          "internalType": "address",
          "name": "caller",
          "type": "address"
        }
      ],
      "name": "CallerRemoved",
      "type": "event"
    },
    {
      "inputs": [],
      "name": "MAX_CALLERS",
      "outputs": [
        {
          "internalType": "uint256",
          "name": "",
          "type": "uint256"
        }
      ],
      "stateMutability": "view",
      "type": "function"
    },
    {
      "inputs": [
        {
          "internalType": "address",
          "name": "_caller",
          "type": "address"
        }
      ],
      "name": "addCaller",
      "outputs": [],
      "stateMutability": "nonpayable",
      "type": "function"
    },
    {
      "inputs": [
        {
          "internalType": "address[]",
          "name": "_targets",
          "type": "address[]"
        },
        {
          "internalType": "bytes[]",
          "name": "_calldata",
          "type": "bytes[]"
        },
        {
          "internalType": "uint256[]",
          "name": "_values",
          "type": "uint256[]"
        }
      ],
      "name": "call",
      "outputs": [],
      "stateMutability": "nonpayable",
      "type": "function"
    },
    {
      "inputs": [
        {
          "internalType": "address[]",
          "name": "_targets",
          "type": "address[]"
        },
        {
          "internalType": "bytes[]",
          "name": "_calldata",
          "type": "bytes[]"
        }
      ],
      "name": "callNoValue",
      "outputs": [],
      "stateMutability": "nonpayable",
      "type": "function"
    },
    {
      "inputs": [
        {
          "internalType": "address",
          "name": "_caller",
          "type": "address"
        }
      ],
      "name": "canCall",
      "outputs": [
        {
          "internalType": "bool",
          "name": "",
          "type": "bool"
        }
      ],
      "stateMutability": "view",
      "type": "function"
    },
    {
      "inputs": [],
      "name": "getCallers",
      "outputs": [
        {
          "internalType": "address[]",
          "name": "",
          "type": "address[]"
        }
      ],
      "stateMutability": "view",
      "type": "function"
    },
    {
      "inputs": [
        {
          "internalType": "address",
          "name": "_caller",
          "type": "address"
        }
      ],
      "name": "removeCaller",
      "outputs": [],
      "stateMutability": "nonpayable",
      "type": "function"
    },
    {
      "inputs": [
        {
          "internalType": "address",
          "name": "_target",
          "type": "address"
        },
        {
          "internalType": "bytes",
          "name": "_calldata",
          "type": "bytes"
        },
        {
          "internalType": "uint256",
          "name": "_value",
          "type": "uint256"
        }
      ],
      "name": "singleCall",
      "outputs": [],
      "stateMutability": "nonpayable",
      "type": "function"
    }
  ],
  "bytecode": {
    "object": "0x608060405234801561001057600080fd5b506110f3806100206000396000f3fe608060405234801561001057600080fd5b50600436106100885760003560e01c8063bd509fd51161005b578063bd509fd5146100e3578063cb6e7a89146100f6578063dd8d4c401461013f578063eef21cd21461015457600080fd5b806330c9473c1461008d578063747293fb146100a25780637a16eebd146100b557806398a9884d146100d0575b600080fd5b6100a061009b366004610cd5565b610167565b005b6100a06100b0366004610db3565b610303565b6100bd603281565b6040519081526020015b60405180910390f35b6100a06100de366004610dd5565b6104cc565b6100a06100f1366004610e5e565b6105d7565b61012f610104366004610db3565b6001600160a01b0316600090815260008051602061109e833981519152602052604090205460ff1690565b60405190151581526020016100c7565b610147610744565b6040516100c79190610ec2565b6100a0610162366004610db3565b6107b6565b7ffad169404002d10c88c6f4c5df96a5ae8d3cada85765079fe73839a09bf6887c805481600061019683610f25565b9091555050805460008051602061107e833981519152600401546001600160a01b03163314806101e2575033600090815260008051602061109e833981519152602052604090205460ff165b806101ec57503330145b6102115760405162461bcd60e51b815260040161020890610f40565b60405180910390fd5b83518551148015610223575083518351145b6102675760405162461bcd60e51b8152602060048201526015602482015274082a4a482b2be988a9c8ea890be9a92a69a82a8869605b1b6044820152606401610208565b60005b85518110156102db576102c986828151811061028857610288610f65565b60200260200101518683815181106102a2576102a2610f65565b60200260200101518684815181106102bc576102bc610f65565b60200260200101516109c3565b806102d381610f25565b91505061026a565b50815481146102fc5760405162461bcd60e51b815260040161020890610f7b565b5050505050565b60008051602061107e833981519152600401546001600160a01b0316331461033d5760405162461bcd60e51b815260040161020890610f40565b7f9c2f18e64d5b5907e90b2b2311d05bba11034180752e6e13ac413439576c65715460008051602061109e833981519152906032116103b15760405162461bcd60e51b815260206004820152601060248201526f544f4f5f4d414e595f43414c4c45525360801b6044820152606401610208565b6001600160a01b03821660009081526020829052604090205460ff161561040e5760405162461bcd60e51b815260206004820152601160248201527024a9afa0a62922a0a22cafa1a0a62622a960791b6044820152606401610208565b6001600160a01b0382166104555760405162461bcd60e51b815260206004820152600e60248201526d24a72b20a624a22fa1a0a62622a960911b6044820152606401610208565b6001818101805480830182556000918252602080832090910180546001600160a01b0319166001600160a01b038716908117909155808352908490526040808320805460ff191690941790935591517ff7762e85af7b409451f9a76004c5f755642902434eb11351ae67eb9746888b699190a25050565b7ffad169404002d10c88c6f4c5df96a5ae8d3cada85765079fe73839a09bf6887c80548160006104fb83610f25565b9091555050805460008051602061107e833981519152600401546001600160a01b0316331480610547575033600090815260008051602061109e833981519152602052604090205460ff165b8061055157503330145b61056d5760405162461bcd60e51b815260040161020890610f40565b6105af8686868080601f0160208091040260200160405190810160405280939291908181526020018383808284376000920191909152508892506109c3915050565b815481146105cf5760405162461bcd60e51b815260040161020890610f7b565b505050505050565b7ffad169404002d10c88c6f4c5df96a5ae8d3cada85765079fe73839a09bf6887c805481600061060683610f25565b9091555050805460008051602061107e833981519152600401546001600160a01b0316331480610652575033600090815260008051602061109e833981519152602052604090205460ff165b8061065c57503330145b6106785760405162461bcd60e51b815260040161020890610f40565b82518451146106c15760405162461bcd60e51b8152602060048201526015602482015274082a4a482b2be988a9c8ea890be9a92a69a82a8869605b1b6044820152606401610208565b60005b845181101561071d5761070b8582815181106106e2576106e2610f65565b60200260200101518583815181106106fc576106fc610f65565b602002602001015160006109c3565b8061071581610f25565b9150506106c4565b508154811461073e5760405162461bcd60e51b815260040161020890610f7b565b50505050565b606060008051602061109e8339815191526001018054806020026020016040519081016040528092919081815260200182805480156107ac57602002820191906000526020600020905b81546001600160a01b0316815260019091019060200180831161078e575b5050505050905090565b60008051602061107e833981519152600401546001600160a01b031633146107f05760405162461bcd60e51b815260040161020890610f40565b6001600160a01b038116600090815260008051602061109e833981519152602081905260409091205460ff166108585760405162461bcd60e51b815260206004820152600d60248201526c24a9afa727aa2fa1a0a62622a960991b6044820152606401610208565b6001600160a01b0382166000908152602082905260408120805460ff191690555b600182015481101561098a57600082600101828154811061089c5761089c610f65565b6000918252602090912001546001600160a01b0390811691508416811415610977576001808401805490916108d091610fcd565b815481106108e0576108e0610f65565b6000918252602090912001546001840180546001600160a01b03909216918490811061090e5761090e610f65565b9060005260206000200160006101000a8154816001600160a01b0302191690836001600160a01b031602179055508260010180548061094f5761094f610fe4565b600082815260209020810160001990810180546001600160a01b03191690550190555061098a565b508061098281610f25565b915050610879565b506040516001600160a01b038316907f50c35a67b454d38c20800d5b55e320f58f4c9c86a28d8ab20f03045d1a38d99a90600090a25050565b80471015610a095760405162461bcd60e51b81526020600482015260136024820152724554485f42414c414e43455f544f4f5f4c4f5760681b6044820152606401610208565b6000836001600160a01b03168284604051610a249190611026565b60006040518083038185875af1925050503d8060008114610a61576040519150601f19603f3d011682016040523d82523d6000602084013e610a66565b606091505b5050905080610aa55760405162461bcd60e51b815260206004820152600b60248201526a10d0531317d1905253115160aa1b6044820152606401610208565b836001600160a01b0316336001600160a01b03167f5445265cc9b8dc4940d92d42eeac90ded88956778eff9bfe9ec19681374736278585604051610aea929190611042565b60405180910390a350505050565b634e487b7160e01b600052604160045260246000fd5b604051601f8201601f1916810167ffffffffffffffff81118282101715610b3757610b37610af8565b604052919050565b600067ffffffffffffffff821115610b5957610b59610af8565b5060051b60200190565b80356001600160a01b0381168114610b7a57600080fd5b919050565b600082601f830112610b9057600080fd5b81356020610ba5610ba083610b3f565b610b0e565b82815260059290921b84018101918181019086841115610bc457600080fd5b8286015b84811015610be657610bd981610b63565b8352918301918301610bc8565b509695505050505050565b6000601f8381840112610c0357600080fd5b82356020610c13610ba083610b3f565b82815260059290921b85018101918181019087841115610c3257600080fd5b8287015b84811015610cc957803567ffffffffffffffff80821115610c575760008081fd5b818a0191508a603f830112610c6c5760008081fd5b85820135604082821115610c8257610c82610af8565b610c93828b01601f19168901610b0e565b92508183528c81838601011115610caa5760008081fd5b8181850189850137506000908201870152845250918301918301610c36565b50979650505050505050565b600080600060608486031215610cea57600080fd5b833567ffffffffffffffff80821115610d0257600080fd5b610d0e87838801610b7f565b9450602091508186013581811115610d2557600080fd5b610d3188828901610bf1565b945050604086013581811115610d4657600080fd5b86019050601f81018713610d5957600080fd5b8035610d67610ba082610b3f565b81815260059190911b82018301908381019089831115610d8657600080fd5b928401925b82841015610da457833582529284019290840190610d8b565b80955050505050509250925092565b600060208284031215610dc557600080fd5b610dce82610b63565b9392505050565b60008060008060608587031215610deb57600080fd5b610df485610b63565b9350602085013567ffffffffffffffff80821115610e1157600080fd5b818701915087601f830112610e2557600080fd5b813581811115610e3457600080fd5b886020828501011115610e4657600080fd5b95986020929092019750949560400135945092505050565b60008060408385031215610e7157600080fd5b823567ffffffffffffffff80821115610e8957600080fd5b610e9586838701610b7f565b93506020850135915080821115610eab57600080fd5b50610eb885828601610bf1565b9150509250929050565b6020808252825182820181905260009190848201906040850190845b81811015610f035783516001600160a01b031683529284019291840191600101610ede565b50909695505050505050565b634e487b7160e01b600052601160045260246000fd5b6000600019821415610f3957610f39610f0f565b5060010190565b6020808252600b908201526a1393d517d0531313d5d15160aa1b604082015260600190565b634e487b7160e01b600052603260045260246000fd5b60208082526032908201527f5265656e74727950726f74656374696f6e46616365742e6e6f5265656e7472796040820152710e881c99595b9d1c9e4819195d1958dd195960721b606082015260800190565b600082821015610fdf57610fdf610f0f565b500390565b634e487b7160e01b600052603160045260246000fd5b60005b83811015611015578181015183820152602001610ffd565b8381111561073e5750506000910152565b60008251611038818460208701610ffa565b9190910192915050565b6040815260008351806040840152611061816060850160208801610ffa565b602083019390935250601f91909101601f19160160600191905056fec8fcad8db84d3cc18b4c41d551ea0ee66dd599cde068d998e57d5e09332c131c9c2f18e64d5b5907e90b2b2311d05bba11034180752e6e13ac413439576c6570a26469706673582212206be99c28bc423c57efabd77d54ba8a61c932bef5d22c81e321b2f87ca730685664736f6c634300080c0033",
    "linkReferences": {}
  }
}