{
  "_format": "hh-sol-artifact-1",
  "contractName": "LendingManager",
  "sourceName": "contracts/LendingManager.sol",
  "abi": [
    {
      "inputs": [
        {
          "internalType": "address",
          "name": "_lendingRegistry",
          "type": "address"
        },
        {
          "internalType": "address",
          "name": "_basket",
          "type": "address"
        }
      ],
      "stateMutability": "nonpayable",
      "type": "constructor"
    },
    {
      "anonymous": false,
      "inputs": [
        {
          "indexed": true,
          "internalType": "address",
          "name": "underlying",
          "type": "address"
        },
        {
          "indexed": false,
          "internalType": "uint256",
          "name": "amount",
          "type": "uint256"
        },
        {
          "indexed": true,
          "internalType": "bytes32",
          "name": "protocol",
          "type": "bytes32"
        }
      ],
      "name": "Lend",
      "type": "event"
    },
    {
      "anonymous": false,
      "inputs": [
        {
          "indexed": true,
          "internalType": "address",
          "name": "previousOwner",
          "type": "address"
        },
        {
          "indexed": true,
          "internalType": "address",
          "name": "newOwner",
          "type": "address"
        }
      ],
      "name": "OwnershipTransferred",
      "type": "event"
    },
    {
      "anonymous": false,
      "inputs": [
        {
          "indexed": true,
          "internalType": "address",
          "name": "wrapped",
          "type": "address"
        },
        {
          "indexed": false,
          "internalType": "uint256",
          "name": "amount",
          "type": "uint256"
        }
      ],
      "name": "UnLend",
      "type": "event"
    },
    {
      "inputs": [],
      "name": "basket",
      "outputs": [
        {
          "internalType": "contract IExperiPie",
          "name": "",
          "type": "address"
        }
      ],
      "stateMutability": "view",
      "type": "function"
    },
    {
      "inputs": [
        {
          "internalType": "address",
          "name": "_wrapped",
          "type": "address"
        },
        {
          "internalType": "uint256",
          "name": "_amount",
          "type": "uint256"
        },
        {
          "internalType": "bytes32",
          "name": "_toProtocol",
          "type": "bytes32"
        }
      ],
      "name": "bounce",
      "outputs": [],
      "stateMutability": "nonpayable",
      "type": "function"
    },
    {
      "inputs": [
        {
          "internalType": "address",
          "name": "_underlying",
          "type": "address"
        },
        {
          "internalType": "uint256",
          "name": "_amount",
          "type": "uint256"
        },
        {
          "internalType": "bytes32",
          "name": "_protocol",
          "type": "bytes32"
        }
      ],
      "name": "lend",
      "outputs": [],
      "stateMutability": "nonpayable",
      "type": "function"
    },
    {
      "inputs": [],
      "name": "lendingRegistry",
      "outputs": [
        {
          "internalType": "contract LendingRegistry",
          "name": "",
          "type": "address"
        }
      ],
      "stateMutability": "view",
      "type": "function"
    },
    {
      "inputs": [],
      "name": "owner",
      "outputs": [
        {
          "internalType": "address",
          "name": "",
          "type": "address"
        }
      ],
      "stateMutability": "view",
      "type": "function"
    },
    {
      "inputs": [],
      "name": "renounceOwnership",
      "outputs": [],
      "stateMutability": "nonpayable",
      "type": "function"
    },
    {
      "inputs": [
        {
          "internalType": "address",
          "name": "newOwner",
          "type": "address"
        }
      ],
      "name": "transferOwnership",
      "outputs": [],
      "stateMutability": "nonpayable",
      "type": "function"
    },
    {
      "inputs": [
        {
          "internalType": "address",
          "name": "_wrapped",
          "type": "address"
        },
        {
          "internalType": "uint256",
          "name": "_amount",
          "type": "uint256"
        }
      ],
      "name": "unlend",
      "outputs": [],
      "stateMutability": "nonpayable",
      "type": "function"
    }
  ],
  "bytecode": "0x60806040523480156200001157600080fd5b50604051620013f5380380620013f583398101604081905262000034916200013d565b6000620000406200011b565b600080546001600160a01b0319166001600160a01b0383169081178255604051929350917f8be0079c531659141344cd1fd0a4f28419497f9722a3daafe3b4186f6b6457e0908290a350600180556001600160a01b038216620000c05760405162461bcd60e51b8152600401620000b79062000176565b60405180910390fd5b6001600160a01b038116620000e95760405162461bcd60e51b8152600401620000b790620001ad565b600280546001600160a01b039384166001600160a01b03199182161790915560038054929093169116179055620001d5565b3390565b80516001600160a01b03811681146200013757600080fd5b92915050565b6000806040838503121562000150578182fd5b6200015c84846200011f565b91506200016d84602085016200011f565b90509250929050565b60208082526018908201527f494e56414c49445f4c454e44494e475f52454749535452590000000000000000604082015260600190565b6020808252600e908201526d1253959053125117d09054d2d15560921b604082015260600190565b61121080620001e56000396000f3fe608060405234801561001057600080fd5b50600436106100885760003560e01c8063e89d1ea31161005b578063e89d1ea3146100db578063edc832b3146100ee578063eeb401a9146100f6578063f2fde38b146100fe57610088565b8063715018a61461008d5780638da5cb5b14610097578063b7b4df38146100b5578063c8ab0a9f146100c8575b600080fd5b610095610111565b005b61009f610199565b6040516100ac9190610f18565b60405180910390f35b6100956100c3366004610da1565b6101a8565b6100956100d6366004610d76565b610242565b6100956100e9366004610da1565b610509565b61009f610887565b61009f610896565b61009561010c366004610d3e565b6108a5565b61011961095b565b6000546001600160a01b0390811691161461014f5760405162461bcd60e51b8152600401610146906110a9565b60405180910390fd5b600080546040516001600160a01b03909116907f8be0079c531659141344cd1fd0a4f28419497f9722a3daafe3b4186f6b6457e0908390a3600080546001600160a01b0319169055565b6000546001600160a01b031690565b6101b28383610242565b600254604051632aabce9960e11b815261023d916001600160a01b0316906355579d32906101e4908790600401610f18565b60206040518083038186803b1580156101fc57600080fd5b505afa158015610210573d6000803e3d6000fd5b505050506040513d601f19601f820116820180604052508101906102349190610d5a565b60001983610509565b505050565b61024a61095b565b6000546001600160a01b039081169116146102775760405162461bcd60e51b8152600401610146906110a9565b6002600154141561029a5760405162461bcd60e51b8152600401610146906110de565b60026001556003546040516370a0823160e01b815260009161032f916001600160a01b03868116926370a08231926102d89290911690600401610f18565b60206040518083038186803b1580156102f057600080fd5b505afa158015610304573d6000803e3d6000fd5b505050506040513d601f19601f820116820180604052508101906103289190610eb8565b839061095f565b6002546003546040516358d28ef760e01b815292935060609283926001600160a01b03908116926358d28ef79261036f928a928992911690600401610f79565b60006040518083038186803b15801561038757600080fd5b505afa15801561039b573d6000803e3d6000fd5b505050506040513d6000823e601f3d908101601f191682016040526103c39190810190610dd5565b60035460405163bd509fd560e01b81529294509092506001600160a01b03169063bd509fd5906103f99085908590600401610fc6565b600060405180830381600087803b15801561041357600080fd5b505af1158015610427573d6000803e3d6000fd5b5050600254604051632aabce9960e11b81526104b493506001600160a01b0390911691506355579d329061045f908990600401610f18565b60206040518083038186803b15801561047757600080fd5b505afa15801561048b573d6000803e3d6000fd5b505050506040513d601f19601f820116820180604052508101906104af9190610d5a565b610977565b6104bd85610b48565b846001600160a01b03167f8d00b0a12de62fbaf47a01515094cbd0c9fcc0357a0af65f99786841500e77fd856040516104f69190611115565b60405180910390a2505060018055505050565b61051161095b565b6000546001600160a01b0390811691161461053e5760405162461bcd60e51b8152600401610146906110a9565b600260015414156105615760405162461bcd60e51b8152600401610146906110de565b60026001556003546040516370a0823160e01b81526000916105f6916001600160a01b03878116926370a082319261059f9290911690600401610f18565b60206040518083038186803b1580156105b757600080fd5b505afa1580156105cb573d6000803e3d6000fd5b505050506040513d601f19601f820116820180604052508101906105ef9190610eb8565b849061095f565b60025460405163d7aceec760e01b81529192506001600160a01b03169063d7aceec7906106299087908690600401610f2c565b60206040518083038186803b15801561064157600080fd5b505afa158015610655573d6000803e3d6000fd5b505050506040513d601f19601f820116820180604052508101906106799190610d5a565b60408051600481526024810182526020810180516001600160e01b031663f8ba4cff60e01b17905290516001600160a01b0392909216916000916106bc91610efc565b60006040518083038185875af1925050503d80600081146106f9576040519150601f19603f3d011682016040523d82523d6000602084013e6106fe565b606091505b50506002546003546040516356f6e43560e11b81526060935083926001600160a01b039081169263adedc86a92610740928b9289929116908a90600401610f9c565b60006040518083038186803b15801561075857600080fd5b505afa15801561076c573d6000803e3d6000fd5b505050506040513d6000823e601f3d908101601f191682016040526107949190810190610dd5565b60035460405163bd509fd560e01b81529294509092506001600160a01b03169063bd509fd5906107ca9085908590600401610fc6565b600060405180830381600087803b1580156107e457600080fd5b505af11580156107f8573d6000803e3d6000fd5b5050505061080586610b48565b60025460405163d7aceec760e01b8152610839916001600160a01b03169063d7aceec79061045f908a908990600401610f2c565b83866001600160a01b03167f487f0a0363a6dd1f773ac8a6ab336d93de1614f4dbaac2992c5698800b1ab1ca876040516108739190611115565b60405180910390a350506001805550505050565b6003546001600160a01b031681565b6002546001600160a01b031681565b6108ad61095b565b6000546001600160a01b039081169116146108da5760405162461bcd60e51b8152600401610146906110a9565b6001600160a01b0381166109005760405162461bcd60e51b815260040161014690611063565b600080546040516001600160a01b03808516939216917f8be0079c531659141344cd1fd0a4f28419497f9722a3daafe3b4186f6b6457e091a3600080546001600160a01b0319166001600160a01b0392909216919091179055565b3390565b600081831061096e5781610970565b825b9392505050565b60035460405163e3d670d760e01b81526000916001600160a01b03169063e3d670d7906109a8908590600401610f18565b60206040518083038186803b1580156109c057600080fd5b505afa1580156109d4573d6000803e3d6000fd5b505050506040513d601f19601f820116820180604052508101906109f89190610eb8565b600354604051635765c9ab60e11b81529192506000916001600160a01b039091169063aecb935690610a2e908690600401610f18565b60206040518083038186803b158015610a4657600080fd5b505afa158015610a5a573d6000803e3d6000fd5b505050506040513d601f19601f82011682018060405250810190610a7e9190610e98565b9050811580610a8a5750805b15610a96575050610b45565b6003546040516001600160a01b03909116906398a9884d90829063d48bfca760e01b90610ac7908890602401610f18565b60408051601f198184030181529181526020820180516001600160e01b03166001600160e01b03199485161790525160e085901b9092168252610b109291600090600401610f45565b600060405180830381600087803b158015610b2a57600080fd5b505af1158015610b3e573d6000803e3d6000fd5b5050505050505b50565b60035460405163e3d670d760e01b81526000916001600160a01b03169063e3d670d790610b79908590600401610f18565b60206040518083038186803b158015610b9157600080fd5b505afa158015610ba5573d6000803e3d6000fd5b505050506040513d601f19601f82011682018060405250810190610bc99190610eb8565b600354604051635765c9ab60e11b81529192506000916001600160a01b039091169063aecb935690610bff908690600401610f18565b60206040518083038186803b158015610c1757600080fd5b505afa158015610c2b573d6000803e3d6000fd5b505050506040513d601f19601f82011682018060405250810190610c4f9190610e98565b905081151580610c5d575080155b15610c69575050610b45565b6003546040516001600160a01b03909116906398a9884d9082906317e9ed6160e21b90610ac7908890602401610f18565b600082601f830112610caa578081fd5b8151610cbd610cb882611145565b61111e565b818152915060208083019084810160005b84811015610d33578151870188603f820112610ce957600080fd5b83810151610cf9610cb882611165565b81815260408b81848601011115610d0f57600080fd5b610d1e83888401838701611195565b50865250509282019290820190600101610cce565b505050505092915050565b600060208284031215610d4f578081fd5b8135610970816111c5565b600060208284031215610d6b578081fd5b8151610970816111c5565b60008060408385031215610d88578081fd5b8235610d93816111c5565b946020939093013593505050565b600080600060608486031215610db5578081fd5b8335610dc0816111c5565b95602085013595506040909401359392505050565b60008060408385031215610de7578182fd5b825167ffffffffffffffff80821115610dfe578384fd5b818501915085601f830112610e11578384fd5b8151610e1f610cb882611145565b80828252602080830192508086018a828387028901011115610e3f578889fd5b8896505b84871015610e6a578051610e56816111c5565b845260019690960195928101928101610e43565b508801519096509350505080821115610e81578283fd5b50610e8e85828601610c9a565b9150509250929050565b600060208284031215610ea9578081fd5b81518015158114610970578182fd5b600060208284031215610ec9578081fd5b5051919050565b60008151808452610ee8816020860160208601611195565b601f01601f19169290920160200192915050565b60008251610f0e818460208701611195565b9190910192915050565b6001600160a01b0391909116815260200190565b6001600160a01b03929092168252602082015260400190565b6001600160a01b0384168152606060208201819052600090610f6990830185610ed0565b9050826040830152949350505050565b6001600160a01b0393841681526020810192909252909116604082015260600190565b6001600160a01b039485168152602081019390935292166040820152606081019190915260800190565b604080825283519082018190526000906020906060840190828701845b8281101561100757610ff58251611189565b84529284019290840190600101610fe3565b5050508381038285015284518082528282019080840283018401878501865b8381101561105457601f19868403018552611042838351610ed0565b94870194925090860190600101611026565b50909998505050505050505050565b60208082526026908201527f4f776e61626c653a206e6577206f776e657220697320746865207a65726f206160408201526564647265737360d01b606082015260800190565b6020808252818101527f4f776e61626c653a2063616c6c6572206973206e6f7420746865206f776e6572604082015260600190565b6020808252601f908201527f5265656e7472616e637947756172643a207265656e7472616e742063616c6c00604082015260600190565b90815260200190565b60405181810167ffffffffffffffff8111828210171561113d57600080fd5b604052919050565b600067ffffffffffffffff82111561115b578081fd5b5060209081020190565b600067ffffffffffffffff82111561117b578081fd5b50601f01601f191660200190565b6001600160a01b031690565b60005b838110156111b0578181015183820152602001611198565b838111156111bf576000848401525b50505050565b6001600160a01b0381168114610b4557600080fdfea2646970667358221220c45b55902ae72009db4b5adb0184139af0006aa4ae318613fafa1105821cdb1764736f6c63430007010033",
  "linkReferences": {},
  "deployedLinkReferences": {}
}