{
  "abi": [
    {
      "anonymous": false,
      "inputs": [
        {
          "indexed": true,
          "internalType": "address",
          "name": "previousOwner",
          "type": "address"
        },
        {
          "indexed": true,
          "internalType": "address",
          "name": "newOwner",
          "type": "address"
        }
      ],
      "name": "OwnershipTransferred",
      "type": "event"
    },
    {
      "inputs": [
        {
          "internalType": "address",
          "name": "_basket",
          "type": "address"
        }
      ],
      "name": "addBasket",
      "outputs": [],
      "stateMutability": "nonpayable",
      "type": "function"
    },
    {
      "inputs": [
        {
          "internalType": "uint256",
          "name": "",
          "type": "uint256"
        }
      ],
      "name": "entries",
      "outputs": [
        {
          "internalType": "address",
          "name": "",
          "type": "address"
        }
      ],
      "stateMutability": "view",
      "type": "function"
    },
    {
      "inputs": [
        {
          "internalType": "address",
          "name": "",
          "type": "address"
        }
      ],
      "name": "inRegistry",
      "outputs": [
        {
          "internalType": "bool",
          "name": "",
          "type": "bool"
        }
      ],
      "stateMutability": "view",
      "type": "function"
    },
    {
      "inputs": [],
      "name": "owner",
      "outputs": [
        {
          "internalType": "address",
          "name": "",
          "type": "address"
        }
      ],
      "stateMutability": "view",
      "type": "function"
    },
    {
      "inputs": [
        {
          "internalType": "uint256",
          "name": "_index",
          "type": "uint256"
        }
      ],
      "name": "removeBasket",
      "outputs": [],
      "stateMutability": "nonpayable",
      "type": "function"
    },
    {
      "inputs": [
        {
          "internalType": "address",
          "name": "_address",
          "type": "address"
        }
      ],
      "name": "removeBasketByAddress",
      "outputs": [],
      "stateMutability": "nonpayable",
      "type": "function"
    },
    {
      "inputs": [],
      "name": "renounceOwnership",
      "outputs": [],
      "stateMutability": "nonpayable",
      "type": "function"
    },
    {
      "inputs": [
        {
          "internalType": "address",
          "name": "newOwner",
          "type": "address"
        }
      ],
      "name": "transferOwnership",
      "outputs": [],
      "stateMutability": "nonpayable",
      "type": "function"
    }
  ],
  "bytecode": {
    "object": "0x608060405234801561001057600080fd5b5061001a3361001f565b61006f565b600080546001600160a01b038381166001600160a01b0319831681178455604051919092169283917f8be0079c531659141344cd1fd0a4f28419497f9722a3daafe3b4186f6b6457e09190a35050565b6106708061007e6000396000f3fe608060405234801561001057600080fd5b50600436106100885760003560e01c8063b30906d41161005b578063b30906d4146100e7578063e4ec552b146100fa578063f0e15d231461012d578063f2fde38b1461014057600080fd5b8063059a7bd51461008d578063715018a6146100a25780638da5cb5b146100aa578063a180fe89146100d4575b600080fd5b6100a061009b366004610548565b610153565b005b6100a061027b565b6000546001600160a01b03165b6040516001600160a01b0390911681526020015b60405180910390f35b6100a06100e2366004610561565b6102b1565b6100b76100f5366004610548565b6103ab565b61011d610108366004610561565b60016020526000908152604090205460ff1681565b60405190151581526020016100cb565b6100a061013b366004610561565b6103d5565b6100a061014e366004610561565b61045d565b6000546001600160a01b031633146101865760405162461bcd60e51b815260040161017d90610591565b60405180910390fd5b60006002828154811061019b5761019b6105c6565b60009182526020808320909101546001600160a01b03168083526001918290526040909220805460ff1916905560028054929350916101da91906105f2565b815481106101ea576101ea6105c6565b600091825260209091200154600280546001600160a01b039092169184908110610216576102166105c6565b9060005260206000200160006101000a8154816001600160a01b0302191690836001600160a01b03160217905550600280548061025557610255610609565b600082815260209020810160001990810180546001600160a01b03191690550190555050565b6000546001600160a01b031633146102a55760405162461bcd60e51b815260040161017d90610591565b6102af60006104f8565b565b6000546001600160a01b031633146102db5760405162461bcd60e51b815260040161017d90610591565b6001600160a01b03811660009081526001602052604090205460ff16156103445760405162461bcd60e51b815260206004820152601d60248201527f4261736b657420697320616c726561647920696e205265676973747279000000604482015260640161017d565b6002805460018181019092557f405787fa12a823e0f2b7631cc41b3ba8828b3321ca811111fa75cd3aa3bb5ace0180546001600160a01b039093166001600160a01b031990931683179055600091825260208190526040909120805460ff19169091179055565b600281815481106103bb57600080fd5b6000918252602090912001546001600160a01b0316905081565b6000546001600160a01b031633146103ff5760405162461bcd60e51b815260040161017d90610591565b60005b600254811015610447576002818154811061041f5761041f6105c6565b6000918252602090912001546001600160a01b038381169116141561044b5761044781610153565b5050565b806104558161061f565b915050610402565b6000546001600160a01b031633146104875760405162461bcd60e51b815260040161017d90610591565b6001600160a01b0381166104ec5760405162461bcd60e51b815260206004820152602660248201527f4f776e61626c653a206e6577206f776e657220697320746865207a65726f206160448201526564647265737360d01b606482015260840161017d565b6104f5816104f8565b50565b600080546001600160a01b038381166001600160a01b0319831681178455604051919092169283917f8be0079c531659141344cd1fd0a4f28419497f9722a3daafe3b4186f6b6457e09190a35050565b60006020828403121561055a57600080fd5b5035919050565b60006020828403121561057357600080fd5b81356001600160a01b038116811461058a57600080fd5b9392505050565b6020808252818101527f4f776e61626c653a2063616c6c6572206973206e6f7420746865206f776e6572604082015260600190565b634e487b7160e01b600052603260045260246000fd5b634e487b7160e01b600052601160045260246000fd5b600082821015610604576106046105dc565b500390565b634e487b7160e01b600052603160045260246000fd5b6000600019821415610633576106336105dc565b506001019056fea26469706673582212201a535953d9e6b1adc4bc53e45d504ebed59e7e2fa3c9c12f2028937f3166958f64736f6c634300080c0033",
    "linkReferences": {}
  }
}