{
  "_format": "hh-sol-artifact-1",
  "contractName": "Imports",
  "sourceName": "contracts/Diamond/Imports.sol",
  "abi": [
    {
      "inputs": [],
      "name": "diamondCutFacet",
      "outputs": [
        {
          "internalType": "contract DiamondCutFacet",
          "name": "",
          "type": "address"
        }
      ],
      "stateMutability": "view",
      "type": "function"
    },
    {
      "inputs": [],
      "name": "diamondLoupeFacet",
      "outputs": [
        {
          "internalType": "contract DiamondLoupeFacet",
          "name": "",
          "type": "address"
        }
      ],
      "stateMutability": "view",
      "type": "function"
    },
    {
      "inputs": [],
      "name": "ownershipFacet",
      "outputs": [
        {
          "internalType": "contract OwnershipFacet",
          "name": "",
          "type": "address"
        }
      ],
      "stateMutability": "view",
      "type": "function"
    }
  ],
  "bytecode": "0x608060405234801561001057600080fd5b5060d28061001f6000396000f3fe6080604052348015600f57600080fd5b5060043610603c5760003560e01c80630c53b2bd146041578063a051e9b3146063578063befddd1c146069575b600080fd5b6047606f565b604080516001600160a01b039092168252519081900360200190f35b6047607e565b6047608d565b6002546001600160a01b031681565b6000546001600160a01b031681565b6001546001600160a01b03168156fea26469706673582212203db0ca74bfb2fd66262ed55adfa12943127a7514446487edb2afe586b119260e64736f6c63430007010033",
  "linkReferences": {},
  "deployedLinkReferences": {}
}