{
  "_format": "hh-sol-artifact-1",
  "contractName": "LendingRegistry",
  "sourceName": "contracts/LendingRegistry.sol",
  "abi": [
    {
      "anonymous": false,
      "inputs": [
        {
          "indexed": true,
          "internalType": "address",
          "name": "previousOwner",
          "type": "address"
        },
        {
          "indexed": true,
          "internalType": "address",
          "name": "newOwner",
          "type": "address"
        }
      ],
      "name": "OwnershipTransferred",
      "type": "event"
    },
    {
      "anonymous": false,
      "inputs": [
        {
          "indexed": true,
          "internalType": "bytes32",
          "name": "protocol",
          "type": "bytes32"
        },
        {
          "indexed": true,
          "internalType": "address",
          "name": "logic",
          "type": "address"
        }
      ],
      "name": "ProtocolToLogicSet",
      "type": "event"
    },
    {
      "anonymous": false,
      "inputs": [
        {
          "indexed": true,
          "internalType": "address",
          "name": "underlying",
          "type": "address"
        },
        {
          "indexed": true,
          "internalType": "bytes32",
          "name": "protocol",
          "type": "bytes32"
        },
        {
          "indexed": true,
          "internalType": "address",
          "name": "wrapped",
          "type": "address"
        }
      ],
      "name": "UnderlyingToProtocolWrappedSet",
      "type": "event"
    },
    {
      "anonymous": false,
      "inputs": [
        {
          "indexed": true,
          "internalType": "address",
          "name": "wrapped",
          "type": "address"
        },
        {
          "indexed": true,
          "internalType": "bytes32",
          "name": "protocol",
          "type": "bytes32"
        }
      ],
      "name": "WrappedToProtocolSet",
      "type": "event"
    },
    {
      "anonymous": false,
      "inputs": [
        {
          "indexed": true,
          "internalType": "address",
          "name": "wrapped",
          "type": "address"
        },
        {
          "indexed": true,
          "internalType": "address",
          "name": "underlying",
          "type": "address"
        }
      ],
      "name": "WrappedToUnderlyingSet",
      "type": "event"
    },
    {
      "inputs": [
        {
          "internalType": "address",
          "name": "_underlying",
          "type": "address"
        },
        {
          "internalType": "bytes32[]",
          "name": "_protocols",
          "type": "bytes32[]"
        }
      ],
      "name": "getBestApr",
      "outputs": [
        {
          "internalType": "uint256",
          "name": "apr",
          "type": "uint256"
        },
        {
          "internalType": "bytes32",
          "name": "protocol",
          "type": "bytes32"
        }
      ],
      "stateMutability": "view",
      "type": "function"
    },
    {
      "inputs": [
        {
          "internalType": "address",
          "name": "_underlying",
          "type": "address"
        },
        {
          "internalType": "uint256",
          "name": "_amount",
          "type": "uint256"
        },
        {
          "internalType": "address",
          "name": "_tokenHolder",
          "type": "address"
        },
        {
          "internalType": "bytes32",
          "name": "_protocol",
          "type": "bytes32"
        }
      ],
      "name": "getLendTXData",
      "outputs": [
        {
          "internalType": "address[]",
          "name": "targets",
          "type": "address[]"
        },
        {
          "internalType": "bytes[]",
          "name": "data",
          "type": "bytes[]"
        }
      ],
      "stateMutability": "view",
      "type": "function"
    },
    {
      "inputs": [
        {
          "internalType": "address",
          "name": "_wrapped",
          "type": "address"
        },
        {
          "internalType": "uint256",
          "name": "_amount",
          "type": "uint256"
        },
        {
          "internalType": "address",
          "name": "_tokenHolder",
          "type": "address"
        }
      ],
      "name": "getUnlendTXData",
      "outputs": [
        {
          "internalType": "address[]",
          "name": "targets",
          "type": "address[]"
        },
        {
          "internalType": "bytes[]",
          "name": "data",
          "type": "bytes[]"
        }
      ],
      "stateMutability": "view",
      "type": "function"
    },
    {
      "inputs": [],
      "name": "owner",
      "outputs": [
        {
          "internalType": "address",
          "name": "",
          "type": "address"
        }
      ],
      "stateMutability": "view",
      "type": "function"
    },
    {
      "inputs": [
        {
          "internalType": "bytes32",
          "name": "",
          "type": "bytes32"
        }
      ],
      "name": "protocolToLogic",
      "outputs": [
        {
          "internalType": "address",
          "name": "",
          "type": "address"
        }
      ],
      "stateMutability": "view",
      "type": "function"
    },
    {
      "inputs": [],
      "name": "renounceOwnership",
      "outputs": [],
      "stateMutability": "nonpayable",
      "type": "function"
    },
    {
      "inputs": [
        {
          "internalType": "bytes32",
          "name": "_protocol",
          "type": "bytes32"
        },
        {
          "internalType": "address",
          "name": "_logic",
          "type": "address"
        }
      ],
      "name": "setProtocolToLogic",
      "outputs": [],
      "stateMutability": "nonpayable",
      "type": "function"
    },
    {
      "inputs": [
        {
          "internalType": "address",
          "name": "_underlying",
          "type": "address"
        },
        {
          "internalType": "bytes32",
          "name": "_protocol",
          "type": "bytes32"
        },
        {
          "internalType": "address",
          "name": "_wrapped",
          "type": "address"
        }
      ],
      "name": "setUnderlyingToProtocolWrapped",
      "outputs": [],
      "stateMutability": "nonpayable",
      "type": "function"
    },
    {
      "inputs": [
        {
          "internalType": "address",
          "name": "_wrapped",
          "type": "address"
        },
        {
          "internalType": "bytes32",
          "name": "_protocol",
          "type": "bytes32"
        }
      ],
      "name": "setWrappedToProtocol",
      "outputs": [],
      "stateMutability": "nonpayable",
      "type": "function"
    },
    {
      "inputs": [
        {
          "internalType": "address",
          "name": "_wrapped",
          "type": "address"
        },
        {
          "internalType": "address",
          "name": "_underlying",
          "type": "address"
        }
      ],
      "name": "setWrappedToUnderlying",
      "outputs": [],
      "stateMutability": "nonpayable",
      "type": "function"
    },
    {
      "inputs": [
        {
          "internalType": "address",
          "name": "newOwner",
          "type": "address"
        }
      ],
      "name": "transferOwnership",
      "outputs": [],
      "stateMutability": "nonpayable",
      "type": "function"
    },
    {
      "inputs": [
        {
          "internalType": "address",
          "name": "",
          "type": "address"
        },
        {
          "internalType": "bytes32",
          "name": "",
          "type": "bytes32"
        }
      ],
      "name": "underlyingToProtocolWrapped",
      "outputs": [
        {
          "internalType": "address",
          "name": "",
          "type": "address"
        }
      ],
      "stateMutability": "view",
      "type": "function"
    },
    {
      "inputs": [
        {
          "internalType": "address",
          "name": "",
          "type": "address"
        }
      ],
      "name": "wrappedToProtocol",
      "outputs": [
        {
          "internalType": "bytes32",
          "name": "",
          "type": "bytes32"
        }
      ],
      "stateMutability": "view",
      "type": "function"
    },
    {
      "inputs": [
        {
          "internalType": "address",
          "name": "",
          "type": "address"
        }
      ],
      "name": "wrappedToUnderlying",
      "outputs": [
        {
          "internalType": "address",
          "name": "",
          "type": "address"
        }
      ],
      "stateMutability": "view",
      "type": "function"
    }
  ],
  "bytecode": "0x608060405234801561001057600080fd5b50600061001b61006a565b600080546001600160a01b0319166001600160a01b0383169081178255604051929350917f8be0079c531659141344cd1fd0a4f28419497f9722a3daafe3b4186f6b6457e0908290a35061006e565b3390565b610eef8061007d6000396000f3fe608060405234801561001057600080fd5b50600436106100ea5760003560e01c8063adedc86a1161008c578063d26809e111610066578063d26809e1146101d8578063d7aceec7146101eb578063f2fde38b146101fe578063f8b7f42214610211576100ea565b8063adedc86a14610192578063b7db91fc146101a5578063bda82acc146101c5576100ea565b806358d28ef7116100c857806358d28ef71461014e5780635f91dd811461016f578063715018a6146101825780638da5cb5b1461018a576100ea565b806314457947146100ef578063196041181461010457806355579d321461012e575b600080fd5b6101026100fd366004610a94565b610224565b005b6101176101123660046109c4565b6102c6565b604051610125929190610dec565b60405180910390f35b61014161013c366004610969565b6103d2565b6040516101259190610c47565b61016161015c366004610ad5565b6103ed565b604051610125929190610c7e565b61010261017d366004610a69565b6104c8565b610102610544565b6101416105c3565b6101616101a0366004610ae9565b6105d2565b6101b86101b3366004610969565b61069e565b6040516101259190610d3a565b6101026101d3366004610c0b565b6106b0565b6101026101e636600461098c565b61073e565b6101416101f9366004610a69565b6107ca565b61010261020c366004610969565b6107f0565b61014161021f366004610bf3565b6108a6565b61022c6108c1565b6000546001600160a01b039081169116146102625760405162461bcd60e51b815260040161025990610db7565b60405180910390fd5b6001600160a01b03838116600081815260036020908152604080832087845290915280822080546001600160a01b0319169486169485179055518592917ef16cac75566114cbfffaff7857b8fff8050ff0820a182eac3b236f0b62ac2b91a4505050565b60008060008060005b85518110156103c65760008682815181106102e657fe5b602090810291909101810151600081815260049092526040909120549091506001600160a01b03168061032b5760405162461bcd60e51b815260040161025990610d89565b6040516337bca10f60e01b81526000906001600160a01b038316906337bca10f9061035a908d90600401610c47565b60206040518083038186803b15801561037257600080fd5b505afa158015610386573d6000803e3d6000fd5b505050506040513d601f19601f820116820180604052508101906103aa9190610c2f565b9050858111156103bb578095508294505b5050506001016102cf565b50909590945092505050565b6002602052600090815260409020546001600160a01b031681565b6001600160a01b0380841660009081526001602090815260408083205483526004909152902054606091829116806104375760405162461bcd60e51b815260040161025990610d89565b604051630857bc1760e31b81526001600160a01b038216906342bde0b89061046790899089908990600401610c5b565b60006040518083038186803b15801561047f57600080fd5b505afa158015610493573d6000803e3d6000fd5b505050506040513d6000823e601f3d908101601f191682016040526104bb9190810190610b30565b9250925050935093915050565b6104d06108c1565b6000546001600160a01b039081169116146104fd5760405162461bcd60e51b815260040161025990610db7565b6001600160a01b038216600081815260016020526040808220849055518392917f8d6c4851f1ff74632094f71fe39e4b0603cfd53a02524b0f56e077ec1a62464491a35050565b61054c6108c1565b6000546001600160a01b039081169116146105795760405162461bcd60e51b815260040161025990610db7565b600080546040516001600160a01b03909116907f8be0079c531659141344cd1fd0a4f28419497f9722a3daafe3b4186f6b6457e0908390a3600080546001600160a01b0319169055565b6000546001600160a01b031690565b60008181526004602052604090205460609081906001600160a01b03168061060c5760405162461bcd60e51b815260040161025990610d89565b604051633d8e221960e11b81526001600160a01b03821690637b1c44329061063c908a908a908a90600401610c5b565b60006040518083038186803b15801561065457600080fd5b505afa158015610668573d6000803e3d6000fd5b505050506040513d6000823e601f3d908101601f191682016040526106909190810190610b30565b925092505094509492505050565b60016020526000908152604090205481565b6106b86108c1565b6000546001600160a01b039081169116146106e55760405162461bcd60e51b815260040161025990610db7565b60008281526004602052604080822080546001600160a01b0319166001600160a01b0385169081179091559051909184917f05b94fa6d67a57a259499d28d3f8fd0eb8131cda46ea8c527ce24199839cb6649190a35050565b6107466108c1565b6000546001600160a01b039081169116146107735760405162461bcd60e51b815260040161025990610db7565b6001600160a01b0382811660008181526002602052604080822080546001600160a01b0319169486169485179055517fcff55967603e193c0ecb65c41c4fa6f4032a9053d0fad30061ec89105cc7b5c29190a35050565b60036020908152600092835260408084209091529082529020546001600160a01b031681565b6107f86108c1565b6000546001600160a01b039081169116146108255760405162461bcd60e51b815260040161025990610db7565b6001600160a01b03811661084b5760405162461bcd60e51b815260040161025990610d43565b600080546040516001600160a01b03808516939216917f8be0079c531659141344cd1fd0a4f28419497f9722a3daafe3b4186f6b6457e091a3600080546001600160a01b0319166001600160a01b0392909216919091179055565b6004602052600090815260409020546001600160a01b031681565b3390565b600082601f8301126108d5578081fd5b81516108e86108e382610e21565b610dfa565b818152915060208083019084810160005b8481101561095e578151870188603f82011261091457600080fd5b838101516109246108e382610e41565b81815260408b8184860101111561093a57600080fd5b61094983888401838701610e71565b508652505092820192908201906001016108f9565b505050505092915050565b60006020828403121561097a578081fd5b813561098581610ea1565b9392505050565b6000806040838503121561099e578081fd5b82356109a981610ea1565b915060208301356109b981610ea1565b809150509250929050565b600080604083850312156109d6578182fd5b82356109e181610ea1565b915060208381013567ffffffffffffffff8111156109fd578283fd5b8401601f81018613610a0d578283fd5b8035610a1b6108e382610e21565b81815283810190838501858402850186018a1015610a37578687fd5b8694505b83851015610a59578035835260019490940193918501918501610a3b565b5080955050505050509250929050565b60008060408385031215610a7b578182fd5b8235610a8681610ea1565b946020939093013593505050565b600080600060608486031215610aa8578081fd5b8335610ab381610ea1565b9250602084013591506040840135610aca81610ea1565b809150509250925092565b600080600060608486031215610aa8578283fd5b60008060008060808587031215610afe578081fd5b8435610b0981610ea1565b9350602085013592506040850135610b2081610ea1565b9396929550929360600135925050565b60008060408385031215610b42578182fd5b825167ffffffffffffffff80821115610b59578384fd5b818501915085601f830112610b6c578384fd5b8151610b7a6108e382610e21565b80828252602080830192508086018a828387028901011115610b9a578889fd5b8896505b84871015610bc5578051610bb181610ea1565b845260019690960195928101928101610b9e565b508801519096509350505080821115610bdc578283fd5b50610be9858286016108c5565b9150509250929050565b600060208284031215610c04578081fd5b5035919050565b60008060408385031215610c1d578182fd5b8235915060208301356109b981610ea1565b600060208284031215610c40578081fd5b5051919050565b6001600160a01b0391909116815260200190565b6001600160a01b0393841681526020810192909252909116604082015260600190565b604080825283519082018190526000906020906060840190828701845b82811015610cbf57610cad8251610e65565b84529284019290840190600101610c9b565b5050508381038285015284518082528282019080840283018401878501865b83811015610d2b57601f198087850301865282518051610cfe8187610d3a565b610d0b82828d8601610e71565b978a0197601f919091019092169190910193505090860190600101610cde565b50909998505050505050505050565b90815260200190565b60208082526026908201527f4f776e61626c653a206e6577206f776e657220697320746865207a65726f206160408201526564647265737360d01b606082015260800190565b6020808252601490820152731393d7d3115391125391d7d313d1d250d7d4d15560621b604082015260600190565b6020808252818101527f4f776e61626c653a2063616c6c6572206973206e6f7420746865206f776e6572604082015260600190565b918252602082015260400190565b60405181810167ffffffffffffffff81118282101715610e1957600080fd5b604052919050565b600067ffffffffffffffff821115610e37578081fd5b5060209081020190565b600067ffffffffffffffff821115610e57578081fd5b50601f01601f191660200190565b6001600160a01b031690565b60005b83811015610e8c578181015183820152602001610e74565b83811115610e9b576000848401525b50505050565b6001600160a01b0381168114610eb657600080fd5b5056fea26469706673582212205f8825dfedb1256be454f81ed51096d6f4573a462e15afdcc6ac79d7bc909ffb64736f6c63430007010033",
  "linkReferences": {},
  "deployedLinkReferences": {}
}