{
  "_format": "hh-sol-artifact-1",
  "contractName": "Oven",
  "sourceName": "contracts/Oven.sol",
  "abi": [
    {
      "inputs": [
        {
          "internalType": "address",
          "name": "_controller",
          "type": "address"
        },
        {
          "internalType": "address",
          "name": "_pie",
          "type": "address"
        },
        {
          "internalType": "address",
          "name": "_recipe",
          "type": "address"
        }
      ],
      "stateMutability": "nonpayable",
      "type": "constructor"
    },
    {
      "anonymous": false,
      "inputs": [
        {
          "indexed": false,
          "internalType": "address",
          "name": "user",
          "type": "address"
        },
        {
          "indexed": false,
          "internalType": "uint256",
          "name": "amount",
          "type": "uint256"
        },
        {
          "indexed": false,
          "internalType": "uint256",
          "name": "price",
          "type": "uint256"
        }
      ],
      "name": "Bake",
      "type": "event"
    },
    {
      "anonymous": false,
      "inputs": [
        {
          "indexed": false,
          "internalType": "address",
          "name": "user",
          "type": "address"
        },
        {
          "indexed": false,
          "internalType": "uint256",
          "name": "amount",
          "type": "uint256"
        }
      ],
      "name": "Deposit",
      "type": "event"
    },
    {
      "anonymous": false,
      "inputs": [
        {
          "indexed": false,
          "internalType": "address",
          "name": "user",
          "type": "address"
        },
        {
          "indexed": false,
          "internalType": "uint256",
          "name": "amount",
          "type": "uint256"
        },
        {
          "indexed": false,
          "internalType": "address",
          "name": "receiver",
          "type": "address"
        }
      ],
      "name": "WithdrawETH",
      "type": "event"
    },
    {
      "anonymous": false,
      "inputs": [
        {
          "indexed": false,
          "internalType": "address",
          "name": "user",
          "type": "address"
        },
        {
          "indexed": false,
          "internalType": "uint256",
          "name": "amount",
          "type": "uint256"
        },
        {
          "indexed": false,
          "internalType": "address",
          "name": "receiver",
          "type": "address"
        }
      ],
      "name": "WithdrawOuput",
      "type": "event"
    },
    {
      "inputs": [
        {
          "internalType": "address[]",
          "name": "_receivers",
          "type": "address[]"
        },
        {
          "internalType": "uint256",
          "name": "_outputAmount",
          "type": "uint256"
        },
        {
          "internalType": "uint256",
          "name": "_maxPrice",
          "type": "uint256"
        }
      ],
      "name": "bake",
      "outputs": [],
      "stateMutability": "nonpayable",
      "type": "function"
    },
    {
      "inputs": [],
      "name": "cap",
      "outputs": [
        {
          "internalType": "uint256",
          "name": "",
          "type": "uint256"
        }
      ],
      "stateMutability": "view",
      "type": "function"
    },
    {
      "inputs": [],
      "name": "controller",
      "outputs": [
        {
          "internalType": "address",
          "name": "",
          "type": "address"
        }
      ],
      "stateMutability": "view",
      "type": "function"
    },
    {
      "inputs": [],
      "name": "deposit",
      "outputs": [],
      "stateMutability": "payable",
      "type": "function"
    },
    {
      "inputs": [
        {
          "internalType": "address",
          "name": "",
          "type": "address"
        }
      ],
      "name": "ethBalanceOf",
      "outputs": [
        {
          "internalType": "uint256",
          "name": "",
          "type": "uint256"
        }
      ],
      "stateMutability": "view",
      "type": "function"
    },
    {
      "inputs": [],
      "name": "getCap",
      "outputs": [
        {
          "internalType": "uint256",
          "name": "",
          "type": "uint256"
        }
      ],
      "stateMutability": "view",
      "type": "function"
    },
    {
      "inputs": [
        {
          "internalType": "address",
          "name": "",
          "type": "address"
        }
      ],
      "name": "outputBalanceOf",
      "outputs": [
        {
          "internalType": "uint256",
          "name": "",
          "type": "uint256"
        }
      ],
      "stateMutability": "view",
      "type": "function"
    },
    {
      "inputs": [],
      "name": "pie",
      "outputs": [
        {
          "internalType": "contract IERC20",
          "name": "",
          "type": "address"
        }
      ],
      "stateMutability": "view",
      "type": "function"
    },
    {
      "inputs": [],
      "name": "recipe",
      "outputs": [
        {
          "internalType": "contract IRecipe",
          "name": "",
          "type": "address"
        }
      ],
      "stateMutability": "view",
      "type": "function"
    },
    {
      "inputs": [
        {
          "internalType": "address",
          "name": "_token",
          "type": "address"
        }
      ],
      "name": "saveToken",
      "outputs": [],
      "stateMutability": "nonpayable",
      "type": "function"
    },
    {
      "inputs": [
        {
          "internalType": "uint256",
          "name": "_cap",
          "type": "uint256"
        }
      ],
      "name": "setCap",
      "outputs": [],
      "stateMutability": "nonpayable",
      "type": "function"
    },
    {
      "inputs": [
        {
          "internalType": "address",
          "name": "_controller",
          "type": "address"
        }
      ],
      "name": "setController",
      "outputs": [],
      "stateMutability": "nonpayable",
      "type": "function"
    },
    {
      "inputs": [
        {
          "internalType": "address",
          "name": "_pie",
          "type": "address"
        }
      ],
      "name": "setPie",
      "outputs": [],
      "stateMutability": "nonpayable",
      "type": "function"
    },
    {
      "inputs": [
        {
          "internalType": "address",
          "name": "_pie",
          "type": "address"
        },
        {
          "internalType": "address",
          "name": "_recipe",
          "type": "address"
        }
      ],
      "name": "setPieAndRecipe",
      "outputs": [],
      "stateMutability": "nonpayable",
      "type": "function"
    },
    {
      "inputs": [
        {
          "internalType": "address",
          "name": "_recipe",
          "type": "address"
        }
      ],
      "name": "setRecipe",
      "outputs": [],
      "stateMutability": "nonpayable",
      "type": "function"
    },
    {
      "inputs": [
        {
          "internalType": "address payable",
          "name": "_receiver",
          "type": "address"
        }
      ],
      "name": "withdrawAll",
      "outputs": [],
      "stateMutability": "nonpayable",
      "type": "function"
    },
    {
      "inputs": [
        {
          "internalType": "address payable",
          "name": "_receiver",
          "type": "address"
        }
      ],
      "name": "withdrawAllETH",
      "outputs": [],
      "stateMutability": "nonpayable",
      "type": "function"
    },
    {
      "inputs": [
        {
          "internalType": "uint256",
          "name": "_amount",
          "type": "uint256"
        },
        {
          "internalType": "address payable",
          "name": "_receiver",
          "type": "address"
        }
      ],
      "name": "withdrawETH",
      "outputs": [],
      "stateMutability": "nonpayable",
      "type": "function"
    },
    {
      "inputs": [
        {
          "internalType": "address",
          "name": "_receiver",
          "type": "address"
        }
      ],
      "name": "withdrawOutput",
      "outputs": [],
      "stateMutability": "nonpayable",
      "type": "function"
    },
    {
      "stateMutability": "payable",
      "type": "receive"
    }
  ],
  "bytecode": "0x608060405234801561001057600080fd5b506040516116293803806116298339818101604052606081101561003357600080fd5b5080516020820151604090920151600280546001600160a01b03199081166001600160a01b03948516179091556003805482169484169490941790935560048054909316911617905561159e8061008b6000396000f3fe6080604052600436106101185760003560e01c806392eefe9b116100a0578063d6ea4c1011610064578063d6ea4c10146103ce578063e560ce9c14610401578063f1a7ccfd14610434578063f77c47911461046f578063fa09e6301461048457610127565b806392eefe9b146102aa5780639ebd9115146102dd578063a114a5d214610310578063b13820a714610393578063d0e30db0146103c657610127565b806347786d37116100e757806347786d37146101f0578063554d578d1461021a57806367d6f65f1461022f5780637252bbf2146102625780638a95a7461461029557610127565b8063355274ea1461012c57806336118b521461015357806336f585881461018c5780633a1d2d02146101bd57610127565b36610127576101256104b7565b005b600080fd5b34801561013857600080fd5b506101416105f7565b60408051918252519081900360200190f35b34801561015f57600080fd5b506101256004803603604081101561017657600080fd5b50803590602001356001600160a01b03166105fd565b34801561019857600080fd5b506101a1610744565b604080516001600160a01b039092168252519081900360200190f35b3480156101c957600080fd5b50610125600480360360208110156101e057600080fd5b50356001600160a01b0316610753565b3480156101fc57600080fd5b506101256004803603602081101561021357600080fd5b5035610818565b34801561022657600080fd5b5061014161086d565b34801561023b57600080fd5b506101256004803603602081101561025257600080fd5b50356001600160a01b0316610873565b34801561026e57600080fd5b506101416004803603602081101561028557600080fd5b50356001600160a01b0316610935565b3480156102a157600080fd5b506101a1610947565b3480156102b657600080fd5b50610125600480360360208110156102cd57600080fd5b50356001600160a01b0316610956565b3480156102e957600080fd5b506101256004803603602081101561030057600080fd5b50356001600160a01b03166109c8565b34801561031c57600080fd5b506101256004803603606081101561033357600080fd5b81019060208101813564010000000081111561034e57600080fd5b82018360208201111561036057600080fd5b8035906020019184602083028401116401000000008311171561038257600080fd5b919350915080359060200135610a7e565b34801561039f57600080fd5b50610141600480360360208110156103b657600080fd5b50356001600160a01b0316610f56565b6101256104b7565b3480156103da57600080fd5b50610125600480360360208110156103f157600080fd5b50356001600160a01b0316610f68565b34801561040d57600080fd5b506101256004803603602081101561042457600080fd5b50356001600160a01b03166110e4565b34801561044057600080fd5b506101256004803603604081101561045757600080fd5b506001600160a01b038135811691602001351661123b565b34801561047b57600080fd5b506101a1611251565b34801561049057600080fd5b50610125600480360360208110156104a757600080fd5b50356001600160a01b0316611260565b6003546001600160a01b0316610502576040805162461bcd60e51b815260206004820152600b60248201526a14125157d393d517d4d15560aa1b604482015290519081900360640190fd5b6004546001600160a01b0316610550576040805162461bcd60e51b815260206004820152600e60248201526d149150d2541157d393d517d4d15560921b604482015290519081900360640190fd5b3360009081526020819052604090205461056a903461130b565b336000908152602081905260409020556005544711156105bb576040805162461bcd60e51b815260206004820152600760248201526604d41585f4341560cc1b604482015290519081900360640190fd5b6040805133815234602082015281517fe1fffcc4923d04b559f4d29a8bfc6cda04eb5b0d3c460751c2402c5c5cc9109c929181900390910190a1565b60055481565b6003546001600160a01b0316610648576040805162461bcd60e51b815260206004820152600b60248201526a14125157d393d517d4d15560aa1b604482015290519081900360640190fd5b6004546001600160a01b0316610696576040805162461bcd60e51b815260206004820152600e60248201526d149150d2541157d393d517d4d15560921b604482015290519081900360640190fd5b336000908152602081905260409020546106b0908361136e565b336000908152602081905260408082209290925590516001600160a01b0383169184156108fc02918591818181858888f193505050501580156106f7573d6000803e3d6000fd5b5060408051338152602081018490526001600160a01b0383168183015290517f51faa29987d414cc66998a6556a58b18659c063a7ed944d9a8439e54ba1844bf9181900360600190a15050565b6004546001600160a01b031681565b6002546001600160a01b031633146107a3576040805162461bcd60e51b815260206004820152600e60248201526d2727aa2fa1a7a72a2927a62622a960911b604482015290519081900360640190fd5b6004546001600160a01b0316156107f6576040805162461bcd60e51b8152602060048201526012602482015271149150d2541157d053149150511657d4d15560721b604482015290519081900360640190fd5b600480546001600160a01b0319166001600160a01b0392909216919091179055565b6002546001600160a01b03163314610868576040805162461bcd60e51b815260206004820152600e60248201526d2727aa2fa1a7a72a2927a62622a960911b604482015290519081900360640190fd5b600555565b60055490565b6002546001600160a01b031633146108c3576040805162461bcd60e51b815260206004820152600e60248201526d2727aa2fa1a7a72a2927a62622a960911b604482015290519081900360640190fd5b6003546001600160a01b031615610913576040805162461bcd60e51b815260206004820152600f60248201526e14125157d053149150511657d4d155608a1b604482015290519081900360640190fd5b600380546001600160a01b0319166001600160a01b0392909216919091179055565b60006020819052908152604090205481565b6003546001600160a01b031681565b6002546001600160a01b031633146109a6576040805162461bcd60e51b815260206004820152600e60248201526d2727aa2fa1a7a72a2927a62622a960911b604482015290519081900360640190fd5b600280546001600160a01b0319166001600160a01b0392909216919091179055565b6003546001600160a01b0316610a13576040805162461bcd60e51b815260206004820152600b60248201526a14125157d393d517d4d15560aa1b604482015290519081900360640190fd5b6004546001600160a01b0316610a61576040805162461bcd60e51b815260206004820152600e60248201526d149150d2541157d393d517d4d15560921b604482015290519081900360640190fd5b33600090815260208190526040902054610a7b90826105fd565b50565b6003546001600160a01b0316610ac9576040805162461bcd60e51b815260206004820152600b60248201526a14125157d393d517d4d15560aa1b604482015290519081900360640190fd5b6004546001600160a01b0316610b17576040805162461bcd60e51b815260206004820152600e60248201526d149150d2541157d393d517d4d15560921b604482015290519081900360640190fd5b6002546001600160a01b03163314610b67576040805162461bcd60e51b815260206004820152600e60248201526d2727aa2fa1a7a72a2927a62622a960911b604482015290519081900360640190fd5b600480546003546040805163335d15e360e01b81526001600160a01b03928316948101949094526024840186905251600093919092169163335d15e39160448082019260209290919082900301818787803b158015610bc557600080fd5b505af1158015610bd9573d6000803e3d6000fd5b505050506040513d6020811015610bef57600080fd5b5051905081811115610c36576040805162461bcd60e51b815260206004820152600b60248201526a282924a1a2afa2a92927a960a91b604482015290519081900360640190fd5b6000805b85811015610e90576000806000898985818110610c5357fe5b905060200201356001600160a01b03166001600160a01b03166001600160a01b0316815260200190815260200160002054905083831415610c945750610e90565b83610c9f848361130b565b11610cb557610cae838261130b565b9250610cce565b610cbf848461136e565b9050610ccb838261130b565b92505b610d20816000808b8b87818110610ce157fe5b905060200201356001600160a01b03166001600160a01b03166001600160a01b031681526020019081526020016000205461136e90919063ffffffff16565b6000808a8a86818110610d2f57fe5b905060200201356001600160a01b03166001600160a01b03166001600160a01b03168152602001908152602001600020819055506000610d8285610d7c848a6113b090919063ffffffff16565b90611409565b9050610dd781600160008c8c88818110610d9857fe5b905060200201356001600160a01b03166001600160a01b03166001600160a01b031681526020019081526020016000205461130b90919063ffffffff16565b600160008b8b87818110610de757fe5b905060200201356001600160a01b03166001600160a01b03166001600160a01b03168152602001908152602001600020819055507f96c59bac7680c77217510ed14bc725bbca570081c194f20c9fad3fa3b349ca43898985818110610e4857fe5b905060200201356001600160a01b0316828460405180846001600160a01b03168152602001838152602001828152602001935050505060405180910390a15050600101610c3a565b50818114610eda576040805162461bcd60e51b8152602060048201526012602482015271494e53554646494349454e545f46554e445360701b604482015290519081900360640190fd5b600480546003546040805163398ed73f60e11b81526001600160a01b0392831694810194909452602484018890525191169163731dae7e91859160448082019260009290919082900301818588803b158015610f3557600080fd5b505af1158015610f49573d6000803e3d6000fd5b5050505050505050505050565b60016020526000908152604090205481565b6003546001600160a01b0316610fb3576040805162461bcd60e51b815260206004820152600b60248201526a14125157d393d517d4d15560aa1b604482015290519081900360640190fd5b6004546001600160a01b0316611001576040805162461bcd60e51b815260206004820152600e60248201526d149150d2541157d393d517d4d15560921b604482015290519081900360640190fd5b336000908152600160209081526040808320805490849055600354825163a9059cbb60e01b81526001600160a01b0387811660048301526024820184905293519295939091169363a9059cbb9360448084019492938390030190829087803b15801561106c57600080fd5b505af1158015611080573d6000803e3d6000fd5b505050506040513d602081101561109657600080fd5b505060408051338152602081018390526001600160a01b0384168183015290517f601812e3be00387a6117506f98da8c90f2abbc8b7369b08016996918895287a49181900360600190a15050565b6003546001600160a01b0382811691161415611137576040805162461bcd60e51b815260206004820152600d60248201526c24a72b20a624a22faa27a5a2a760991b604482015290519081900360640190fd5b600254604080516370a0823160e01b8152306004820152905183926001600160a01b038085169363a9059cbb93929091169184916370a08231916024808301926020929190829003018186803b15801561119057600080fd5b505afa1580156111a4573d6000803e3d6000fd5b505050506040513d60208110156111ba57600080fd5b5051604080516001600160e01b031960e086901b1681526001600160a01b03909316600484015260248301919091525160448083019260209291908290030181600087803b15801561120b57600080fd5b505af115801561121f573d6000803e3d6000fd5b505050506040513d602081101561123557600080fd5b50505050565b61124482610873565b61124d81610753565b5050565b6002546001600160a01b031681565b6003546001600160a01b03166112ab576040805162461bcd60e51b815260206004820152600b60248201526a14125157d393d517d4d15560aa1b604482015290519081900360640190fd5b6004546001600160a01b03166112f9576040805162461bcd60e51b815260206004820152600e60248201526d149150d2541157d393d517d4d15560921b604482015290519081900360640190fd5b611302816109c8565b610a7b81610f68565b600082820183811015611365576040805162461bcd60e51b815260206004820152601b60248201527f536166654d6174683a206164646974696f6e206f766572666c6f770000000000604482015290519081900360640190fd5b90505b92915050565b600061136583836040518060400160405280601e81526020017f536166654d6174683a207375627472616374696f6e206f766572666c6f77000081525061144b565b6000826113bf57506000611368565b828202828482816113cc57fe5b04146113655760405162461bcd60e51b81526004018080602001828103825260218152602001806115486021913960400191505060405180910390fd5b600061136583836040518060400160405280601a81526020017f536166654d6174683a206469766973696f6e206279207a65726f0000000000008152506114e2565b600081848411156114da5760405162461bcd60e51b81526004018080602001828103825283818151815260200191508051906020019080838360005b8381101561149f578181015183820152602001611487565b50505050905090810190601f1680156114cc5780820380516001836020036101000a031916815260200191505b509250505060405180910390fd5b505050900390565b600081836115315760405162461bcd60e51b815260206004820181815283516024840152835190928392604490910191908501908083836000831561149f578181015183820152602001611487565b50600083858161153d57fe5b049594505050505056fe536166654d6174683a206d756c7469706c69636174696f6e206f766572666c6f77a26469706673582212202bef883d3915335191fb903641ff911670d3ad9d99ec5e12062d78696e7eb32a64736f6c63430007010033",
  "linkReferences": {},
  "deployedLinkReferences": {}
}