{
  "abi": [
    {
      "inputs": [
        {
          "internalType": "address",
          "name": "_lendingRegistry",
          "type": "address"
        },
        {
          "internalType": "bytes32",
          "name": "_protocolKey",
          "type": "bytes32"
        }
      ],
      "stateMutability": "nonpayable",
      "type": "constructor"
    },
    {
      "anonymous": false,
      "inputs": [
        {
          "indexed": true,
          "internalType": "address",
          "name": "previousOwner",
          "type": "address"
        },
        {
          "indexed": true,
          "internalType": "address",
          "name": "newOwner",
          "type": "address"
        }
      ],
      "name": "OwnershipTransferred",
      "type": "event"
    },
    {
      "inputs": [],
      "name": "blocksPerYear",
      "outputs": [
        {
          "internalType": "uint256",
          "name": "",
          "type": "uint256"
        }
      ],
      "stateMutability": "view",
      "type": "function"
    },
    {
      "inputs": [
        {
          "internalType": "address",
          "name": "_wrapped",
          "type": "address"
        }
      ],
      "name": "exchangeRate",
      "outputs": [
        {
          "internalType": "uint256",
          "name": "",
          "type": "uint256"
        }
      ],
      "stateMutability": "nonpayable",
      "type": "function"
    },
    {
      "inputs": [
        {
          "internalType": "address",
          "name": "_wrapped",
          "type": "address"
        }
      ],
      "name": "exchangeRateView",
      "outputs": [
        {
          "internalType": "uint256",
          "name": "",
          "type": "uint256"
        }
      ],
      "stateMutability": "view",
      "type": "function"
    },
    {
      "inputs": [
        {
          "internalType": "address",
          "name": "_token",
          "type": "address"
        }
      ],
      "name": "getAPRFromUnderlying",
      "outputs": [
        {
          "internalType": "uint256",
          "name": "",
          "type": "uint256"
        }
      ],
      "stateMutability": "view",
      "type": "function"
    },
    {
      "inputs": [
        {
          "internalType": "address",
          "name": "_token",
          "type": "address"
        }
      ],
      "name": "getAPRFromWrapped",
      "outputs": [
        {
          "internalType": "uint256",
          "name": "",
          "type": "uint256"
        }
      ],
      "stateMutability": "view",
      "type": "function"
    },
    {
      "inputs": [
        {
          "internalType": "address",
          "name": "_underlying",
          "type": "address"
        },
        {
          "internalType": "uint256",
          "name": "_amount",
          "type": "uint256"
        },
        {
          "internalType": "address",
          "name": "_tokenHolder",
          "type": "address"
        }
      ],
      "name": "lend",
      "outputs": [
        {
          "internalType": "address[]",
          "name": "targets",
          "type": "address[]"
        },
        {
          "internalType": "bytes[]",
          "name": "data",
          "type": "bytes[]"
        }
      ],
      "stateMutability": "view",
      "type": "function"
    },
    {
      "inputs": [],
      "name": "lendingRegistry",
      "outputs": [
        {
          "internalType": "contract LendingRegistry",
          "name": "",
          "type": "address"
        }
      ],
      "stateMutability": "view",
      "type": "function"
    },
    {
      "inputs": [],
      "name": "owner",
      "outputs": [
        {
          "internalType": "address",
          "name": "",
          "type": "address"
        }
      ],
      "stateMutability": "view",
      "type": "function"
    },
    {
      "inputs": [],
      "name": "protocolKey",
      "outputs": [
        {
          "internalType": "bytes32",
          "name": "",
          "type": "bytes32"
        }
      ],
      "stateMutability": "view",
      "type": "function"
    },
    {
      "inputs": [],
      "name": "renounceOwnership",
      "outputs": [],
      "stateMutability": "nonpayable",
      "type": "function"
    },
    {
      "inputs": [
        {
          "internalType": "uint256",
          "name": "_blocks",
          "type": "uint256"
        }
      ],
      "name": "setBlocksPerYear",
      "outputs": [],
      "stateMutability": "nonpayable",
      "type": "function"
    },
    {
      "inputs": [
        {
          "internalType": "address",
          "name": "newOwner",
          "type": "address"
        }
      ],
      "name": "transferOwnership",
      "outputs": [],
      "stateMutability": "nonpayable",
      "type": "function"
    },
    {
      "inputs": [
        {
          "internalType": "address",
          "name": "_wrapped",
          "type": "address"
        },
        {
          "internalType": "uint256",
          "name": "_amount",
          "type": "uint256"
        },
        {
          "internalType": "address",
          "name": "_tokenHolder",
          "type": "address"
        }
      ],
      "name": "unlend",
      "outputs": [
        {
          "internalType": "address[]",
          "name": "targets",
          "type": "address[]"
        },
        {
          "internalType": "bytes[]",
          "name": "data",
          "type": "bytes[]"
        }
      ],
      "stateMutability": "view",
      "type": "function"
    }
  ],
  "bytecode": {
    "object": "0x60a060405234801561001057600080fd5b50604051610c5b380380610c5b83398101604081905261002f9161010b565b610038336100bb565b6001600160a01b0382166100925760405162461bcd60e51b815260206004820152601860248201527f494e56414c49445f4c454e44494e475f52454749535452590000000000000000604482015260640160405180910390fd5b600180546001600160a01b0319166001600160a01b039390931692909217909155608052610145565b600080546001600160a01b038381166001600160a01b0319831681178455604051919092169283917f8be0079c531659141344cd1fd0a4f28419497f9722a3daafe3b4186f6b6457e09190a35050565b6000806040838503121561011e57600080fd5b82516001600160a01b038116811461013557600080fd5b6020939093015192949293505050565b608051610aed61016e60003960008181610146015281816102fb015261050f0152610aed6000f3fe608060405234801561001057600080fd5b50600436106100cf5760003560e01c80637b1c44321161008c578063dc3b7c8b11610066578063dc3b7c8b146101b3578063e5fa2b70146101c6578063eeb401a9146101d9578063f2fde38b146101ec57600080fd5b80637b1c4432146101725780638da5cb5b14610185578063a385fb96146101aa57600080fd5b80630f13634e146100d4578063269d2947146100fa57806337bca10f1461010d57806342bde0b8146101205780636cfa20d614610141578063715018a614610168575b600080fd5b6100e76100e23660046108b7565b6101ff565b6040519081526020015b60405180910390f35b6100e76101083660046108b7565b610275565b6100e761011b3660046108b7565b6102d9565b61013361012e3660046108d4565b610383565b6040516100f1929190610916565b6100e77f000000000000000000000000000000000000000000000000000000000000000081565b61017061045d565b005b6101336101803660046108d4565b61049c565b6000546001600160a01b03165b6040516001600160a01b0390911681526020016100f1565b6100e760025481565b6100e76101c13660046108b7565b61073a565b6101706101d43660046109f0565b61077c565b600154610192906001600160a01b031681565b6101706101fa3660046108b7565b6107ab565b600061026f600254836001600160a01b031663ae9d70b06040518163ffffffff1660e01b8152600401602060405180830381865afa158015610245573d6000803e3d6000fd5b505050506040513d601f19601f820116820180604052508101906102699190610a09565b90610846565b92915050565b6000816001600160a01b031663182df0f56040518163ffffffff1660e01b8152600401602060405180830381865afa1580156102b5573d6000803e3d6000fd5b505050506040513d601f19601f8201168201806040525081019061026f9190610a09565b60015460405163d7aceec760e01b81526001600160a01b0383811660048301527f00000000000000000000000000000000000000000000000000000000000000006024830152600092839291169063d7aceec790604401602060405180830381865afa15801561034d573d6000803e3d6000fd5b505050506040513d601f19601f820116820180604052508101906103719190610a22565b905061037c816101ff565b9392505050565b6040805160018082528183019092526060918291906020808301908036833701905050604080516001808252818301909252919350816020015b60608152602001906001900390816103bd57905050905084826000815181106103e8576103e8610a3f565b6001600160a01b039290921660209283029190910182015260408051602480820188905282518083039091018152604490910190915290810180516001600160e01b031663db006a7560e01b1790528151829060009061044a5761044a610a3f565b6020026020010181905250935093915050565b6000546001600160a01b031633146104905760405162461bcd60e51b815260040161048790610a55565b60405180910390fd5b61049a6000610852565b565b60408051600380825260808201909252606091829186916020820184803683370190505060408051600380825260808201909252919450816020015b60608152602001906001900390816104d85790505060015460405163d7aceec760e01b81526001600160a01b0389811660048301527f000000000000000000000000000000000000000000000000000000000000000060248301529294506000929091169063d7aceec790604401602060405180830381865afa158015610563573d6000803e3d6000fd5b505050506040513d601f19601f820116820180604052508101906105879190610a22565b9050868460008151811061059d5761059d610a3f565b6001600160a01b03928316602091820292909201015260405190821660248201526000604482015263095ea7b360e01b90606401604051602081830303815290604052906001600160e01b0319166020820180516001600160e01b0383818316178352505050508360008151811061061757610617610a3f565b6020026020010181905250868460018151811061063657610636610a3f565b6001600160a01b0392831660209182029290920181019190915260408051928416602484015260448084018a90528151808503909101815260649093019052810180516001600160e01b031663095ea7b360e01b1790528351849060019081106106a2576106a2610a3f565b602002602001018190525080846002815181106106c1576106c1610a3f565b6001600160a01b03929092166020928302919091018201526040805160248082018a905282518083039091018152604490910190915290810180516001600160e01b031663140e25ad60e31b17905283518490600290811061072557610725610a3f565b60200260200101819052505050935093915050565b6000816001600160a01b031663bd6d894d6040518163ffffffff1660e01b81526004016020604051808303816000875af11580156102b5573d6000803e3d6000fd5b6000546001600160a01b031633146107a65760405162461bcd60e51b815260040161048790610a55565b600255565b6000546001600160a01b031633146107d55760405162461bcd60e51b815260040161048790610a55565b6001600160a01b03811661083a5760405162461bcd60e51b815260206004820152602660248201527f4f776e61626c653a206e6577206f776e657220697320746865207a65726f206160448201526564647265737360d01b6064820152608401610487565b61084381610852565b50565b600061037c8284610a8a565b600080546001600160a01b038381166001600160a01b0319831681178455604051919092169283917f8be0079c531659141344cd1fd0a4f28419497f9722a3daafe3b4186f6b6457e09190a35050565b6001600160a01b038116811461084357600080fd5b6000602082840312156108c957600080fd5b813561037c816108a2565b6000806000606084860312156108e957600080fd5b83356108f4816108a2565b925060208401359150604084013561090b816108a2565b809150509250925092565b604080825283519082018190526000906020906060840190828701845b828110156109585781516001600160a01b031684529284019290840190600101610933565b50505083810382850152845180825282820190600581901b8301840187850160005b838110156109e157601f19808785030186528251805180865260005b818110156109b1578281018b01518782018c01528a01610996565b818111156109c25760008b83890101525b5096890196601f0190911693909301870192509086019060010161097a565b50909998505050505050505050565b600060208284031215610a0257600080fd5b5035919050565b600060208284031215610a1b57600080fd5b5051919050565b600060208284031215610a3457600080fd5b815161037c816108a2565b634e487b7160e01b600052603260045260246000fd5b6020808252818101527f4f776e61626c653a2063616c6c6572206973206e6f7420746865206f776e6572604082015260600190565b6000816000190483118215151615610ab257634e487b7160e01b600052601160045260246000fd5b50029056fea264697066735822122093ac227ea8b4576064602d75da216cf11cb1dbe919621726b6705f9ccd6770c364736f6c634300080c0033",
    "linkReferences": {}
  }
}