{
  "abi": [
    {
      "anonymous": false,
      "inputs": [
        {
          "indexed": false,
          "internalType": "uint256",
          "name": "fee",
          "type": "uint256"
        }
      ],
      "name": "AnnualizedFeeSet",
      "type": "event"
    },
    {
      "anonymous": false,
      "inputs": [
        {
          "indexed": false,
          "internalType": "uint256",
          "name": "cap",
          "type": "uint256"
        }
      ],
      "name": "CapSet",
      "type": "event"
    },
    {
      "anonymous": false,
      "inputs": [
        {
          "indexed": false,
          "internalType": "uint256",
          "name": "share",
          "type": "uint256"
        }
      ],
      "name": "EntryFeeBeneficiaryShareSet",
      "type": "event"
    },
    {
      "anonymous": false,
      "inputs": [
        {
          "indexed": false,
          "internalType": "uint256",
          "name": "fee",
          "type": "uint256"
        }
      ],
      "name": "EntryFeeSet",
      "type": "event"
    },
    {
      "anonymous": false,
      "inputs": [
        {
          "indexed": false,
          "internalType": "uint256",
          "name": "share",
          "type": "uint256"
        }
      ],
      "name": "ExitFeeBeneficiaryShareSet",
      "type": "event"
    },
    {
      "anonymous": false,
      "inputs": [
        {
          "indexed": false,
          "internalType": "uint256",
          "name": "fee",
          "type": "uint256"
        }
      ],
      "name": "ExitFeeSet",
      "type": "event"
    },
    {
      "anonymous": false,
      "inputs": [
        {
          "indexed": true,
          "internalType": "address",
          "name": "beneficiary",
          "type": "address"
        }
      ],
      "name": "FeeBeneficiarySet",
      "type": "event"
    },
    {
      "anonymous": false,
      "inputs": [
        {
          "indexed": false,
          "internalType": "uint256",
          "name": "amount",
          "type": "uint256"
        }
      ],
      "name": "FeeCharged",
      "type": "event"
    },
    {
      "anonymous": false,
      "inputs": [
        {
          "indexed": false,
          "internalType": "uint256",
          "name": "lockBlock",
          "type": "uint256"
        }
      ],
      "name": "LockSet",
      "type": "event"
    },
    {
      "anonymous": false,
      "inputs": [
        {
          "indexed": true,
          "internalType": "address",
          "name": "who",
          "type": "address"
        },
        {
          "indexed": false,
          "internalType": "uint256",
          "name": "amount",
          "type": "uint256"
        }
      ],
      "name": "PoolExited",
      "type": "event"
    },
    {
      "anonymous": false,
      "inputs": [
        {
          "indexed": true,
          "internalType": "address",
          "name": "who",
          "type": "address"
        },
        {
          "indexed": false,
          "internalType": "uint256",
          "name": "amount",
          "type": "uint256"
        }
      ],
      "name": "PoolJoined",
      "type": "event"
    },
    {
      "anonymous": false,
      "inputs": [
        {
          "indexed": true,
          "internalType": "address",
          "name": "_token",
          "type": "address"
        }
      ],
      "name": "TokenAdded",
      "type": "event"
    },
    {
      "anonymous": false,
      "inputs": [
        {
          "indexed": true,
          "internalType": "address",
          "name": "_token",
          "type": "address"
        }
      ],
      "name": "TokenRemoved",
      "type": "event"
    },
    {
      "inputs": [],
      "name": "HUNDRED_PERCENT",
      "outputs": [
        {
          "internalType": "uint256",
          "name": "",
          "type": "uint256"
        }
      ],
      "stateMutability": "view",
      "type": "function"
    },
    {
      "inputs": [],
      "name": "MAX_ANNUAL_FEE",
      "outputs": [
        {
          "internalType": "uint256",
          "name": "",
          "type": "uint256"
        }
      ],
      "stateMutability": "view",
      "type": "function"
    },
    {
      "inputs": [],
      "name": "MAX_ENTRY_FEE",
      "outputs": [
        {
          "internalType": "uint256",
          "name": "",
          "type": "uint256"
        }
      ],
      "stateMutability": "view",
      "type": "function"
    },
    {
      "inputs": [],
      "name": "MAX_EXIT_FEE",
      "outputs": [
        {
          "internalType": "uint256",
          "name": "",
          "type": "uint256"
        }
      ],
      "stateMutability": "view",
      "type": "function"
    },
    {
      "inputs": [],
      "name": "MAX_TOKENS",
      "outputs": [
        {
          "internalType": "uint256",
          "name": "",
          "type": "uint256"
        }
      ],
      "stateMutability": "view",
      "type": "function"
    },
    {
      "inputs": [],
      "name": "MIN_AMOUNT",
      "outputs": [
        {
          "internalType": "uint256",
          "name": "",
          "type": "uint256"
        }
      ],
      "stateMutability": "view",
      "type": "function"
    },
    {
      "inputs": [
        {
          "internalType": "address",
          "name": "_token",
          "type": "address"
        }
      ],
      "name": "addToken",
      "outputs": [],
      "stateMutability": "nonpayable",
      "type": "function"
    },
    {
      "inputs": [
        {
          "internalType": "address",
          "name": "_token",
          "type": "address"
        }
      ],
      "name": "balance",
      "outputs": [
        {
          "internalType": "uint256",
          "name": "",
          "type": "uint256"
        }
      ],
      "stateMutability": "view",
      "type": "function"
    },
    {
      "inputs": [],
      "name": "calcOutStandingAnnualizedFee",
      "outputs": [
        {
          "internalType": "uint256",
          "name": "",
          "type": "uint256"
        }
      ],
      "stateMutability": "view",
      "type": "function"
    },
    {
      "inputs": [
        {
          "internalType": "uint256",
          "name": "_amount",
          "type": "uint256"
        }
      ],
      "name": "calcTokensForAmount",
      "outputs": [
        {
          "internalType": "address[]",
          "name": "tokens",
          "type": "address[]"
        },
        {
          "internalType": "uint256[]",
          "name": "amounts",
          "type": "uint256[]"
        }
      ],
      "stateMutability": "view",
      "type": "function"
    },
    {
      "inputs": [
        {
          "internalType": "uint256",
          "name": "_amount",
          "type": "uint256"
        }
      ],
      "name": "calcTokensForAmountExit",
      "outputs": [
        {
          "internalType": "address[]",
          "name": "tokens",
          "type": "address[]"
        },
        {
          "internalType": "uint256[]",
          "name": "amounts",
          "type": "uint256[]"
        }
      ],
      "stateMutability": "view",
      "type": "function"
    },
    {
      "inputs": [],
      "name": "chargeOutstandingAnnualizedFee",
      "outputs": [],
      "stateMutability": "nonpayable",
      "type": "function"
    },
    {
      "inputs": [
        {
          "internalType": "uint256",
          "name": "_amount",
          "type": "uint256"
        }
      ],
      "name": "exitPool",
      "outputs": [],
      "stateMutability": "nonpayable",
      "type": "function"
    },
    {
      "inputs": [],
      "name": "getAnnualizedFee",
      "outputs": [
        {
          "internalType": "uint256",
          "name": "",
          "type": "uint256"
        }
      ],
      "stateMutability": "view",
      "type": "function"
    },
    {
      "inputs": [],
      "name": "getCap",
      "outputs": [
        {
          "internalType": "uint256",
          "name": "",
          "type": "uint256"
        }
      ],
      "stateMutability": "view",
      "type": "function"
    },
    {
      "inputs": [],
      "name": "getEntryFee",
      "outputs": [
        {
          "internalType": "uint256",
          "name": "",
          "type": "uint256"
        }
      ],
      "stateMutability": "view",
      "type": "function"
    },
    {
      "inputs": [],
      "name": "getEntryFeeBeneficiaryShare",
      "outputs": [
        {
          "internalType": "uint256",
          "name": "",
          "type": "uint256"
        }
      ],
      "stateMutability": "view",
      "type": "function"
    },
    {
      "inputs": [],
      "name": "getExitFee",
      "outputs": [
        {
          "internalType": "uint256",
          "name": "",
          "type": "uint256"
        }
      ],
      "stateMutability": "view",
      "type": "function"
    },
    {
      "inputs": [],
      "name": "getExitFeeBeneficiaryShare",
      "outputs": [
        {
          "internalType": "uint256",
          "name": "",
          "type": "uint256"
        }
      ],
      "stateMutability": "view",
      "type": "function"
    },
    {
      "inputs": [],
      "name": "getFeeBeneficiary",
      "outputs": [
        {
          "internalType": "address",
          "name": "",
          "type": "address"
        }
      ],
      "stateMutability": "view",
      "type": "function"
    },
    {
      "inputs": [],
      "name": "getLock",
      "outputs": [
        {
          "internalType": "bool",
          "name": "",
          "type": "bool"
        }
      ],
      "stateMutability": "view",
      "type": "function"
    },
    {
      "inputs": [],
      "name": "getLockBlock",
      "outputs": [
        {
          "internalType": "uint256",
          "name": "",
          "type": "uint256"
        }
      ],
      "stateMutability": "view",
      "type": "function"
    },
    {
      "inputs": [
        {
          "internalType": "address",
          "name": "_token",
          "type": "address"
        }
      ],
      "name": "getTokenInPool",
      "outputs": [
        {
          "internalType": "bool",
          "name": "",
          "type": "bool"
        }
      ],
      "stateMutability": "view",
      "type": "function"
    },
    {
      "inputs": [],
      "name": "getTokens",
      "outputs": [
        {
          "internalType": "address[]",
          "name": "",
          "type": "address[]"
        }
      ],
      "stateMutability": "view",
      "type": "function"
    },
    {
      "inputs": [
        {
          "internalType": "uint256",
          "name": "_amount",
          "type": "uint256"
        }
      ],
      "name": "joinPool",
      "outputs": [],
      "stateMutability": "nonpayable",
      "type": "function"
    },
    {
      "inputs": [
        {
          "internalType": "address",
          "name": "_token",
          "type": "address"
        }
      ],
      "name": "removeToken",
      "outputs": [],
      "stateMutability": "nonpayable",
      "type": "function"
    },
    {
      "inputs": [
        {
          "internalType": "uint256",
          "name": "_fee",
          "type": "uint256"
        }
      ],
      "name": "setAnnualizedFee",
      "outputs": [],
      "stateMutability": "nonpayable",
      "type": "function"
    },
    {
      "inputs": [
        {
          "internalType": "uint256",
          "name": "_maxCap",
          "type": "uint256"
        }
      ],
      "name": "setCap",
      "outputs": [],
      "stateMutability": "nonpayable",
      "type": "function"
    },
    {
      "inputs": [
        {
          "internalType": "uint256",
          "name": "_fee",
          "type": "uint256"
        }
      ],
      "name": "setEntryFee",
      "outputs": [],
      "stateMutability": "nonpayable",
      "type": "function"
    },
    {
      "inputs": [
        {
          "internalType": "uint256",
          "name": "_share",
          "type": "uint256"
        }
      ],
      "name": "setEntryFeeBeneficiaryShare",
      "outputs": [],
      "stateMutability": "nonpayable",
      "type": "function"
    },
    {
      "inputs": [
        {
          "internalType": "uint256",
          "name": "_fee",
          "type": "uint256"
        }
      ],
      "name": "setExitFee",
      "outputs": [],
      "stateMutability": "nonpayable",
      "type": "function"
    },
    {
      "inputs": [
        {
          "internalType": "uint256",
          "name": "_share",
          "type": "uint256"
        }
      ],
      "name": "setExitFeeBeneficiaryShare",
      "outputs": [],
      "stateMutability": "nonpayable",
      "type": "function"
    },
    {
      "inputs": [
        {
          "internalType": "address",
          "name": "_beneficiary",
          "type": "address"
        }
      ],
      "name": "setFeeBeneficiary",
      "outputs": [],
      "stateMutability": "nonpayable",
      "type": "function"
    },
    {
      "inputs": [
        {
          "internalType": "uint256",
          "name": "_lock",
          "type": "uint256"
        }
      ],
      "name": "setLock",
      "outputs": [],
      "stateMutability": "nonpayable",
      "type": "function"
    }
  ],
  "bytecode": {
    "object": "0x608060405234801561001057600080fd5b506123c0806100206000396000f3fe608060405234801561001057600080fd5b50600436106102065760003560e01c8063ad293cf21161011a578063e586a4f0116100ad578063ecb0116a1161007c578063ecb0116a146103f1578063ef512424146103f9578063f47c84c51461040c578063f50ab0de14610273578063fff3087c1461041457600080fd5b8063e586a4f0146103bb578063e5a583a9146103c3578063eb770d0c146103d6578063ec9c2b39146103e957600080fd5b8063d48bfca7116100e9578063d48bfca71461036b578063d908c3e51461037e578063ddbcb5fa1461039e578063e3d670d7146103a857600080fd5b8063ad293cf21461032a578063aecb935614610332578063be1d24ad14610345578063d3e157471461035857600080fd5b80635a0a3d821161019d5780637e5852d91161016c5780637e5852d9146102e25780638a8257dd146102fa5780639baf58d2146102735780639d3f7dd41461030d578063aa6ca8081461031557600080fd5b80635a0a3d82146102a55780635d44c9cb146102b85780635fa7b584146102c05780636ed93dd0146102d357600080fd5b80633809283a116101d95780633809283a1461027357806347786d3714610282578063554d578d14610295578063560ad1341461029d57600080fd5b806323817b8e1461020b57806334e7a19f14610235578063366254e81461024a578063371babdc14610260575b600080fd5b61021e610219366004612097565b610427565b60405161022c9291906120f4565b60405180910390f35b610248610243366004612097565b610602565b005b6102526109e0565b60405190815260200161022c565b61021e61026e366004612097565b6109f3565b61025267016345785d8a000081565b610248610290366004612097565b610b9d565b610252610c25565b610252610c38565b6102486102b336600461214b565b610c48565b610248610cea565b6102486102ce36600461214b565b610d5d565b610252670de0b6b3a764000081565b6102ea610f73565b604051901515815260200161022c565b610248610308366004612097565b610f96565b610252611063565b61031d611076565b60405161022c9190612174565b610252611191565b6102ea61034036600461214b565b6111a4565b610248610353366004612097565b6111d3565b610248610366366004612097565b6114e8565b61024861037936600461214b565b611566565b61038661172a565b6040516001600160a01b03909116815260200161022c565b610252620f424081565b6102526103b636600461214b565b611746565b6102526117b7565b6102486103d1366004612097565b6117ca565b6102486103e4366004612097565b611873565b61025261191c565b6102526119c1565b610248610407366004612097565b6119d4565b610252601e81565b610248610422366004612097565b611a85565b6060806000610434611b52565b90506000610461670de0b6b3a764000061045b846006015488611b7690919063ffffffff16565b90611b89565b9050600061049861047061191c565b7f41d2dff3392a31ed3dbbccd2b0d803b57f5635d0ccd048fd68edf9f4d37c1ba15490611b95565b600284015490915067ffffffffffffffff8111156104b8576104b8612187565b6040519080825280602002602001820160405280156104e1578160200160208202803683370190505b50600284015490955067ffffffffffffffff81111561050257610502612187565b60405190808252806020026020018201604052801561052b578160200160208202803683370190505b50935060005b60028401548110156105f95760008460020182815481106105545761055461219d565b60009182526020822001546001600160a01b0316915061057382611746565b9050600061058f8561045b6105888d8a611ba1565b8590611b76565b9050828985815181106105a4576105a461219d565b60200260200101906001600160a01b031690816001600160a01b031681525050808885815181106105d7576105d761219d565b60200260200101818152505050505080806105f1906121c9565b915050610531565b50505050915091565b7ffad169404002d10c88c6f4c5df96a5ae8d3cada85765079fe73839a09bf6887c8054816000610631836121c9565b9091555050805460408051637e5852d960e01b815290513091637e5852d99160048083019260209291908290030181865afa158015610674573d6000803e3d6000fd5b505050506040513d601f19601f8201168201806040525081019061069891906121e4565b156106d85760405162461bcd60e51b815260206004820152600b60248201526a1413d3d317d313d0d2d15160aa1b60448201526064015b60405180910390fd5b6106e0610cea565b60006106ea611b52565b905060007f41d2dff3392a31ed3dbbccd2b0d803b57f5635d0ccd048fd68edf9f4d37c1b9f600201549050306001600160a01b031663554d578d6040518163ffffffff1660e01b8152600401602060405180830381865afa158015610753573d6000803e3d6000fd5b505050506040513d601f19601f820116820180604052508101906107779190612206565b6107818287611b95565b11156107c65760405162461bcd60e51b815260206004820152601460248201527313505617d413d3d317d0d05417d4915050d2115160621b60448201526064016106cf565b60006107eb670de0b6b3a764000061045b856004015489611b7690919063ffffffff16565b905060005b60028401548110156108b55760008460020182815481106108135761081361219d565b60009182526020822001546001600160a01b031691506108498561045b61083a8c88611b95565b61084386611746565b90611b76565b90508061088b5760405162461bcd60e51b815260206004820152601060248201526f105353d5539517d513d3d7d4d350531360821b60448201526064016106cf565b6108a06001600160a01b038316333084611bad565b505080806108ad906121c9565b9150506107f0565b5080158015906108c85750600583015415155b80156108e05750600a8301546001600160a01b031615155b1561092c57600061090a670de0b6b3a764000061045b866005015485611b7690919063ffffffff16565b9050801561092a57600a84015461092a906001600160a01b031682611c1e565b505b6109363387611c1e565b60405186815233907f7a011ddbb8da163de89faccb018bb75c616e6ac270738b8bf1785f08ae1b2d6f906020015b60405180910390a250508254821490506109db5760405162461bcd60e51b815260206004820152603260248201527f5265656e74727950726f74656374696f6e46616365742e6e6f5265656e7472796044820152710e881c99595b9d1c9e4819195d1958dd195960721b60648201526084016106cf565b505050565b60006109ea611b52565b60070154905090565b6060806000610a00611b52565b90506000610a0f61047061191c565b600283015490915067ffffffffffffffff811115610a2f57610a2f612187565b604051908082528060200260200182016040528015610a58578160200160208202803683370190505b50600283015490945067ffffffffffffffff811115610a7957610a79612187565b604051908082528060200260200182016040528015610aa2578160200160208202803683370190505b50925060005b6002830154811015610b95576000836002018281548110610acb57610acb61219d565b60009182526020822001546001600160a01b03169150610aea82611746565b90506000610afc8561045b848c611b76565b9050610b2b610b24670de0b6b3a764000061045b896004015485611b7690919063ffffffff16565b8290611b95565b905082888581518110610b4057610b4061219d565b60200260200101906001600160a01b031690816001600160a01b03168152505080878581518110610b7357610b7361219d565b6020026020010181815250505050508080610b8d906121c9565b915050610aa8565b505050915091565b60008051602061236b833981519152600401546001600160a01b0316331480610bc557503330145b610be15760405162461bcd60e51b81526004016106cf9061221f565b80610bea611b52565b600101556040518181527f9872d5eb566b79923d043f1b59aca655ca80a2bb5b6bca4824e515b0e398902f906020015b60405180910390a150565b6000610c2f611b52565b60010154905090565b6000610c42611b52565b54919050565b60008051602061236b833981519152600401546001600160a01b0316331480610c7057503330145b610c8c5760405162461bcd60e51b81526004016106cf9061221f565b610c94610cea565b80610c9d611b52565b600a0180546001600160a01b0319166001600160a01b03928316179055604051908216907ff7015098f8d6fa48f0560725ffd5f81bf687ee5ac45153b590bdcb04648bbdd390600090a250565b6000610cf461191c565b90506000610d00611b52565b42600982015590508115610d2657600a810154610d26906001600160a01b031683611c1e565b6040518281527fccac4111799e8a37144a6ae9e90ea146dcd86f34f155783a8ce97c546ad8c2fe9060200160405180910390a15050565b60008051602061236b833981519152600401546001600160a01b0316331480610d8557503330145b610da15760405162461bcd60e51b81526004016106cf9061221f565b6000610dab611b52565b6001600160a01b038316600090815260038201602052604090205490915060ff16610e0c5760405162461bcd60e51b81526020600482015260116024820152701513d2d15397d393d517d25397d413d3d3607a1b60448201526064016106cf565b6001600160a01b03821660009081526003820160205260408120805460ff191690555b60028201548110156109db57826001600160a01b0316826002018281548110610e5a57610e5a61219d565b6000918252602090912001546001600160a01b03161415610f6157600282018054610e8790600190612244565b81548110610e9757610e9761219d565b6000918252602090912001546002830180546001600160a01b039092169183908110610ec557610ec561219d565b9060005260206000200160006101000a8154816001600160a01b0302191690836001600160a01b0316021790555081600201805480610f0657610f0661225b565b600082815260208120820160001990810180546001600160a01b03191690559091019091556040516001600160a01b038516917f4c910b69fe65a61f7531b9c5042b2329ca7179c77290aa7e2eb3afa3c8511fd391a2505050565b80610f6b816121c9565b915050610e2f565b600080610f7e611b52565b80549091501580610f90575080544311155b91505090565b60008051602061236b833981519152600401546001600160a01b0316331480610fbe57503330145b610fda5760405162461bcd60e51b81526004016106cf9061221f565b670de0b6b3a76400008111156110265760405162461bcd60e51b81526020600482015260116024820152704645455f53484152455f544f4f5f42494760781b60448201526064016106cf565b8061102f611b52565b600501556040518181527f34099db0e58e33c67a0ceae8361ed3a1d587d9fb194626eb7d65ecd51fa4f4d790602001610c1a565b600061106d611b52565b60050154905090565b60606000611082611b52565b6002018054806020026020016040519081016040528092919081815260200182805480156110d957602002820191906000526020600020905b81546001600160a01b031681526001909101906020018083116110bb575b505050505090506000815167ffffffffffffffff8111156110fc576110fc612187565b604051908082528060200260200182016040528015611125578160200160208202803683370190505b50905060005b825181101561118a578281815181106111465761114661219d565b60200260200101518282815181106111605761116061219d565b6001600160a01b039092166020928302919091019091015280611182816121c9565b91505061112b565b5092915050565b600061119b611b52565b60080154905090565b60006111ae611b52565b6001600160a01b03909216600090815260039290920160205250604090205460ff1690565b7ffad169404002d10c88c6f4c5df96a5ae8d3cada85765079fe73839a09bf6887c8054816000611202836121c9565b9091555050805460408051637e5852d960e01b815290513091637e5852d99160048083019260209291908290030181865afa158015611245573d6000803e3d6000fd5b505050506040513d601f19601f8201168201806040525081019061126991906121e4565b156112a45760405162461bcd60e51b815260206004820152600b60248201526a1413d3d317d313d0d2d15160aa1b60448201526064016106cf565b6112ac610cea565b60006112b6611b52565b7f41d2dff3392a31ed3dbbccd2b0d803b57f5635d0ccd048fd68edf9f4d37c1ba1546006820154919250906000906112fd90670de0b6b3a76400009061045b908990611b76565b905060005b60028401548110156113d95760008460020182815481106113255761132561219d565b60009182526020822001546001600160a01b0316915061134482611746565b905060006113598661045b6105888d89611ba1565b9050620f42406113698383611ba1565b10156113af5760405162461bcd60e51b8152602060048201526015602482015274544f4b454e5f42414c414e43455f544f4f5f4c4f5760581b60448201526064016106cf565b6113c36001600160a01b0384163383611d43565b50505080806113d1906121c9565b915050611302565b5080158015906113ec5750600783015415155b80156114045750600a8301546001600160a01b031615155b1561145057600061142e670de0b6b3a764000061045b866007015485611b7690919063ffffffff16565b9050801561144e57600a84015461144e906001600160a01b031682611c1e565b505b620f424061145e8388611ba1565b10156114ac5760405162461bcd60e51b815260206004820152601a60248201527f504f4f4c5f544f4b454e5f42414c414e43455f544f4f5f4c4f5700000000000060448201526064016106cf565b6114b63387611d73565b60405186815233907fbc865856a1e9f1dfe2abde98edc2eefe87b6c391a47032388ef36d8c2474aad390602001610964565b60008051602061236b833981519152600401546001600160a01b031633148061151057503330145b61152c5760405162461bcd60e51b81526004016106cf9061221f565b80611535611b52565b556040518181527fc96ac8f962bbb0ee952304839108c72982a49173fa73e62ede62c943e10f574290602001610c1a565b60008051602061236b833981519152600401546001600160a01b031633148061158e57503330145b6115aa5760405162461bcd60e51b81526004016106cf9061221f565b60006115b4611b52565b6001600160a01b038316600090815260038201602052604090205490915060ff161561161a5760405162461bcd60e51b81526020600482015260156024820152741513d2d15397d053149150511657d25397d413d3d3605a1b60448201526064016106cf565b6002810154601e116116645760405162461bcd60e51b81526020600482015260136024820152721513d2d15397d31253525517d4915050d21151606a1b60448201526064016106cf565b620f424061167183611746565b10156116b35760405162461bcd60e51b8152602060048201526011602482015270109053105390d157d513d3d7d4d3505313607a1b60448201526064016106cf565b6001600160a01b03821660008181526003830160209081526040808320805460ff191660019081179091556002860180549182018155845291832090910180546001600160a01b03191684179055517f784c8f4dbf0ffedd6e72c76501c545a70f8b203b30a26ce542bf92ba87c248a49190a25050565b6000611734611b52565b600a01546001600160a01b0316919050565b6040516370a0823160e01b81523060048201526000906001600160a01b038316906370a0823190602401602060405180830381865afa15801561178d573d6000803e3d6000fd5b505050506040513d601f19601f820116820180604052508101906117b19190612206565b92915050565b60006117c1611b52565b60040154905090565b60008051602061236b833981519152600401546001600160a01b03163314806117f257503330145b61180e5760405162461bcd60e51b81526004016106cf9061221f565b67016345785d8a00008111156118365760405162461bcd60e51b81526004016106cf90612271565b8061183f611b52565b600601556040518181527fb087f15d44c22304a275c2b80bad7d5ccfd7059fa7678aa84549b55f614a158c90602001610c1a565b60008051602061236b833981519152600401546001600160a01b031633148061189b57503330145b6118b75760405162461bcd60e51b81526004016106cf9061221f565b67016345785d8a00008111156118df5760405162461bcd60e51b81526004016106cf90612271565b806118e8611b52565b600401556040518181527f565a4bfd76b3419546eefb0f3228d436837362a9b57e0c3a03227225dfec023d90602001610c1a565b600080611927611b52565b7f41d2dff3392a31ed3dbbccd2b0d803b57f5635d0ccd048fd68edf9f4d37c1ba1546009820154600883015492935090918015806119705750600a8401546001600160a01b0316155b80611979575081155b1561198957600094505050505090565b60006119954284611ba1565b90506119b76301e1338061045b83610843670de0b6b3a7640000838a89611b76565b9550505050505090565b60006119cb611b52565b60060154905090565b60008051602061236b833981519152600401546001600160a01b03163314806119fc57503330145b611a185760405162461bcd60e51b81526004016106cf9061221f565b611a20610cea565b67016345785d8a0000811115611a485760405162461bcd60e51b81526004016106cf90612271565b80611a51611b52565b600801556040518181527fb28ff79de60b96320a73afead226d63eff6efb0af3c1ce70c7e2e5489419e11390602001610c1a565b60008051602061236b833981519152600401546001600160a01b0316331480611aad57503330145b611ac95760405162461bcd60e51b81526004016106cf9061221f565b670de0b6b3a7640000811115611b155760405162461bcd60e51b81526020600482015260116024820152704645455f53484152455f544f4f5f42494760781b60448201526064016106cf565b80611b1e611b52565b600701556040518181527f5dfdebaeccd5926e0513268bf319e64f404ccc739f1344dbd895cd6a1c4ede8c90602001610c1a565b7f1cdb335291b9ba9e18468a78cd32d3a9c32fd7cc42984115c04be356ede766ac90565b6000611b828284612296565b9392505050565b6000611b8282846122b5565b6000611b8282846122d7565b6000611b828284612244565b6040516001600160a01b0380851660248301528316604482015260648101829052611c189085906323b872dd60e01b906084015b60408051601f198184030181529190526020810180516001600160e01b03166001600160e01b031990931692909217909152611e44565b50505050565b6001600160a01b038216611c695760405162461bcd60e51b8152602060048201526012602482015271494e56414c49445f544f5f4144445245535360701b60448201526064016106cf565b6001600160a01b03821660009081527f41d2dff3392a31ed3dbbccd2b0d803b57f5635d0ccd048fd68edf9f4d37c1ba260205260409020547f41d2dff3392a31ed3dbbccd2b0d803b57f5635d0ccd048fd68edf9f4d37c1b9f90611ccd9083611b95565b6001600160a01b03841660009081526003830160205260409020556002810154611cf79083611b95565b60028201556040518281526001600160a01b038416906000907fddf252ad1be2c89b69c2b068fc378daa952ba7f163c4a11628f55a4df523b3ef906020015b60405180910390a3505050565b6040516001600160a01b0383166024820152604481018290526109db90849063a9059cbb60e01b90606401611be1565b6001600160a01b03821660009081527f41d2dff3392a31ed3dbbccd2b0d803b57f5635d0ccd048fd68edf9f4d37c1ba260205260409020547f41d2dff3392a31ed3dbbccd2b0d803b57f5635d0ccd048fd68edf9f4d37c1b9f90611dd79083611ba1565b6001600160a01b03841660009081526003830160205260409020556002810154611e019083611ba1565b60028201556040518281526000906001600160a01b038516907fddf252ad1be2c89b69c2b068fc378daa952ba7f163c4a11628f55a4df523b3ef90602001611d36565b6000611e99826040518060400160405280602081526020017f5361666545524332303a206c6f772d6c6576656c2063616c6c206661696c6564815250856001600160a01b0316611f169092919063ffffffff16565b8051909150156109db5780806020019051810190611eb791906121e4565b6109db5760405162461bcd60e51b815260206004820152602a60248201527f5361666545524332303a204552433230206f7065726174696f6e20646964206e6044820152691bdd081cdd58d8d9595960b21b60648201526084016106cf565b6060611f258484600085611f2d565b949350505050565b606082471015611f8e5760405162461bcd60e51b815260206004820152602660248201527f416464726573733a20696e73756666696369656e742062616c616e636520666f6044820152651c8818d85b1b60d21b60648201526084016106cf565b6001600160a01b0385163b611fe55760405162461bcd60e51b815260206004820152601d60248201527f416464726573733a2063616c6c20746f206e6f6e2d636f6e747261637400000060448201526064016106cf565b600080866001600160a01b03168587604051612001919061231b565b60006040518083038185875af1925050503d806000811461203e576040519150601f19603f3d011682016040523d82523d6000602084013e612043565b606091505b509150915061205382828661205e565b979650505050505050565b6060831561206d575081611b82565b82511561207d5782518084602001fd5b8160405162461bcd60e51b81526004016106cf9190612337565b6000602082840312156120a957600080fd5b5035919050565b600081518084526020808501945080840160005b838110156120e95781516001600160a01b0316875295820195908201906001016120c4565b509495945050505050565b60408152600061210760408301856120b0565b82810360208481019190915284518083528582019282019060005b8181101561213e57845183529383019391830191600101612122565b5090979650505050505050565b60006020828403121561215d57600080fd5b81356001600160a01b0381168114611b8257600080fd5b602081526000611b8260208301846120b0565b634e487b7160e01b600052604160045260246000fd5b634e487b7160e01b600052603260045260246000fd5b634e487b7160e01b600052601160045260246000fd5b60006000198214156121dd576121dd6121b3565b5060010190565b6000602082840312156121f657600080fd5b81518015158114611b8257600080fd5b60006020828403121561221857600080fd5b5051919050565b6020808252600b908201526a1393d517d0531313d5d15160aa1b604082015260600190565b600082821015612256576122566121b3565b500390565b634e487b7160e01b600052603160045260246000fd5b6020808252600b908201526a4645455f544f4f5f42494760a81b604082015260600190565b60008160001904831182151516156122b0576122b06121b3565b500290565b6000826122d257634e487b7160e01b600052601260045260246000fd5b500490565b600082198211156122ea576122ea6121b3565b500190565b60005b8381101561230a5781810151838201526020016122f2565b83811115611c185750506000910152565b6000825161232d8184602087016122ef565b9190910192915050565b60208152600082518060208401526123568160408501602087016122ef565b601f01601f1916919091016040019291505056fec8fcad8db84d3cc18b4c41d551ea0ee66dd599cde068d998e57d5e09332c131ca2646970667358221220534e59105420a4bc256b4cc1825e8c6a0fd43fcbb8ff2e8e2c78de70106a38b764736f6c634300080c0033",
    "linkReferences": {}
  }
}