{
  "abi": [
    {
      "inputs": [
        {
          "internalType": "address",
          "name": "_value",
          "type": "address"
        }
      ],
      "name": "addressToBytes32",
      "outputs": [
        {
          "internalType": "bytes32",
          "name": "",
          "type": "bytes32"
        }
      ],
      "stateMutability": "view",
      "type": "function"
    },
    {
      "inputs": [
        {
          "internalType": "bytes32",
          "name": "_value",
          "type": "bytes32"
        }
      ],
      "name": "bytes32ToAddress",
      "outputs": [
        {
          "internalType": "address",
          "name": "",
          "type": "address"
        }
      ],
      "stateMutability": "pure",
      "type": "function"
    },
    {
      "inputs": [
        {
          "internalType": "bytes32",
          "name": "_key",
          "type": "bytes32"
        }
      ],
      "name": "readAddress",
      "outputs": [
        {
          "internalType": "address",
          "name": "",
          "type": "address"
        }
      ],
      "stateMutability": "view",
      "type": "function"
    },
    {
      "inputs": [
        {
          "internalType": "bytes32",
          "name": "_key",
          "type": "bytes32"
        }
      ],
      "name": "readBool",
      "outputs": [
        {
          "internalType": "bool",
          "name": "",
          "type": "bool"
        }
      ],
      "stateMutability": "view",
      "type": "function"
    },
    {
      "inputs": [
        {
          "internalType": "bytes32",
          "name": "_key",
          "type": "bytes32"
        }
      ],
      "name": "storageRead",
      "outputs": [
        {
          "internalType": "bytes32",
          "name": "",
          "type": "bytes32"
        }
      ],
      "stateMutability": "view",
      "type": "function"
    }
  ],
  "bytecode": {
    "object": "0x608060405234801561001057600080fd5b506101aa806100206000396000f3fe608060405234801561001057600080fd5b50600436106100575760003560e01c806337a440e61461005c5780635ced058e1461008157806382c947b7146100aa5780639d84ae69146100cf578063bb15ac8e146100e2575b600080fd5b61006e61006a36600461012b565b5490565b6040519081526020015b60405180910390f35b61009261008f36600461012b565b90565b6040516001600160a01b039091168152602001610078565b61006e6100b8366004610144565b506bffffffffffffffffffffffff193060601b1690565b6100926100dd36600461012b565b610105565b6100f56100f036600461012b565b610118565b6040519015158152602001610078565b600061011261008f835490565b92915050565b60006001610124835490565b1492915050565b60006020828403121561013d57600080fd5b5035919050565b60006020828403121561015657600080fd5b81356001600160a01b038116811461016d57600080fd5b939250505056fea26469706673582212201f57b7530dc511661e7213f1a4394030c607333879611d7db2d702e02276214d64736f6c634300080c0033",
    "linkReferences": {}
  }
}