{
  "abi": [
    {
      "inputs": [
        {
          "internalType": "address",
          "name": "_lendingRegistry",
          "type": "address"
        },
        {
          "internalType": "address",
          "name": "_basket",
          "type": "address"
        }
      ],
      "stateMutability": "nonpayable",
      "type": "constructor"
    },
    {
      "anonymous": false,
      "inputs": [
        {
          "indexed": true,
          "internalType": "address",
          "name": "underlying",
          "type": "address"
        },
        {
          "indexed": false,
          "internalType": "uint256",
          "name": "amount",
          "type": "uint256"
        },
        {
          "indexed": true,
          "internalType": "bytes32",
          "name": "protocol",
          "type": "bytes32"
        }
      ],
      "name": "Lend",
      "type": "event"
    },
    {
      "anonymous": false,
      "inputs": [
        {
          "indexed": true,
          "internalType": "address",
          "name": "previousOwner",
          "type": "address"
        },
        {
          "indexed": true,
          "internalType": "address",
          "name": "newOwner",
          "type": "address"
        }
      ],
      "name": "OwnershipTransferred",
      "type": "event"
    },
    {
      "anonymous": false,
      "inputs": [
        {
          "indexed": true,
          "internalType": "address",
          "name": "wrapped",
          "type": "address"
        },
        {
          "indexed": false,
          "internalType": "uint256",
          "name": "amount",
          "type": "uint256"
        }
      ],
      "name": "UnLend",
      "type": "event"
    },
    {
      "inputs": [],
      "name": "basket",
      "outputs": [
        {
          "internalType": "contract IExperiPie",
          "name": "",
          "type": "address"
        }
      ],
      "stateMutability": "view",
      "type": "function"
    },
    {
      "inputs": [
        {
          "internalType": "address",
          "name": "_wrapped",
          "type": "address"
        },
        {
          "internalType": "uint256",
          "name": "_amount",
          "type": "uint256"
        },
        {
          "internalType": "bytes32",
          "name": "_toProtocol",
          "type": "bytes32"
        }
      ],
      "name": "bounce",
      "outputs": [],
      "stateMutability": "nonpayable",
      "type": "function"
    },
    {
      "inputs": [
        {
          "internalType": "address",
          "name": "_underlying",
          "type": "address"
        },
        {
          "internalType": "uint256",
          "name": "_amount",
          "type": "uint256"
        },
        {
          "internalType": "bytes32",
          "name": "_protocol",
          "type": "bytes32"
        }
      ],
      "name": "lend",
      "outputs": [],
      "stateMutability": "nonpayable",
      "type": "function"
    },
    {
      "inputs": [],
      "name": "lendingRegistry",
      "outputs": [
        {
          "internalType": "contract LendingRegistry",
          "name": "",
          "type": "address"
        }
      ],
      "stateMutability": "view",
      "type": "function"
    },
    {
      "inputs": [],
      "name": "owner",
      "outputs": [
        {
          "internalType": "address",
          "name": "",
          "type": "address"
        }
      ],
      "stateMutability": "view",
      "type": "function"
    },
    {
      "inputs": [],
      "name": "renounceOwnership",
      "outputs": [],
      "stateMutability": "nonpayable",
      "type": "function"
    },
    {
      "inputs": [
        {
          "internalType": "address",
          "name": "newOwner",
          "type": "address"
        }
      ],
      "name": "transferOwnership",
      "outputs": [],
      "stateMutability": "nonpayable",
      "type": "function"
    },
    {
      "inputs": [
        {
          "internalType": "address",
          "name": "_wrapped",
          "type": "address"
        },
        {
          "internalType": "uint256",
          "name": "_amount",
          "type": "uint256"
        }
      ],
      "name": "unlend",
      "outputs": [],
      "stateMutability": "nonpayable",
      "type": "function"
    }
  ],
  "bytecode": {
    "object": "0x608060405234801561001057600080fd5b506040516112bf3803806112bf83398101604081905261002f91610163565b600080546001600160a01b031916339081178255604051909182917f8be0079c531659141344cd1fd0a4f28419497f9722a3daafe3b4186f6b6457e0908290a350600180556001600160a01b0382166100cf5760405162461bcd60e51b815260206004820152601860248201527f494e56414c49445f4c454e44494e475f5245474953545259000000000000000060448201526064015b60405180910390fd5b6001600160a01b0381166101165760405162461bcd60e51b815260206004820152600e60248201526d1253959053125117d09054d2d15560921b60448201526064016100c6565b600280546001600160a01b039384166001600160a01b03199182161790915560038054929093169116179055610196565b80516001600160a01b038116811461015e57600080fd5b919050565b6000806040838503121561017657600080fd5b61017f83610147565b915061018d60208401610147565b90509250929050565b61111a806101a56000396000f3fe608060405234801561001057600080fd5b50600436106100885760003560e01c8063e89d1ea31161005b578063e89d1ea3146100e6578063edc832b3146100f9578063eeb401a91461010c578063f2fde38b1461011f57600080fd5b8063715018a61461008d5780638da5cb5b14610097578063b7b4df38146100c0578063c8ab0a9f146100d3575b600080fd5b610095610132565b005b6000546001600160a01b03165b6040516001600160a01b03909116815260200160405180910390f35b6100956100ce366004610c73565b6101af565b6100956100e1366004610ca8565b610237565b6100956100f4366004610c73565b6104f9565b6003546100a4906001600160a01b031681565b6002546100a4906001600160a01b031681565b61009561012d366004610cd4565b610883565b6000546001600160a01b031633146101655760405162461bcd60e51b815260040161015c90610cf1565b60405180910390fd5b600080546040516001600160a01b03909116907f8be0079c531659141344cd1fd0a4f28419497f9722a3daafe3b4186f6b6457e0908390a3600080546001600160a01b0319169055565b6101b98383610237565b600254604051632aabce9960e11b81526001600160a01b0385811660048301526102329216906355579d3290602401602060405180830381865afa158015610205573d6000803e3d6000fd5b505050506040513d601f19601f820116820180604052508101906102299190610d26565b600019836104f9565b505050565b6000546001600160a01b031633146102615760405162461bcd60e51b815260040161015c90610cf1565b600260015414156102b45760405162461bcd60e51b815260206004820152601f60248201527f5265656e7472616e637947756172643a207265656e7472616e742063616c6c00604482015260640161015c565b60026001556003546040516370a0823160e01b81526001600160a01b03918216600482015260009161033591908516906370a0823190602401602060405180830381865afa15801561030a573d6000803e3d6000fd5b505050506040513d601f19601f8201168201806040525081019061032e9190610d43565b839061096d565b6002546003546040516358d28ef760e01b81526001600160a01b038781166004830152602482018590529182166044820152929350600092839291909116906358d28ef790606401600060405180830381865afa15801561039a573d6000803e3d6000fd5b505050506040513d6000823e601f3d908101601f191682016040526103c29190810190610ee0565b60035460405163bd509fd560e01b81529294509092506001600160a01b03169063bd509fd5906103f89085908590600401610fd1565b600060405180830381600087803b15801561041257600080fd5b505af1158015610426573d6000803e3d6000fd5b5050600254604051632aabce9960e11b81526001600160a01b0389811660048301526104a2945090911691506355579d32906024015b602060405180830381865afa158015610479573d6000803e3d6000fd5b505050506040513d601f19601f8201168201806040525081019061049d9190610d26565b610985565b6104ab85610b2d565b846001600160a01b03167f8d00b0a12de62fbaf47a01515094cbd0c9fcc0357a0af65f99786841500e77fd856040516104e691815260200190565b60405180910390a2505060018055505050565b6000546001600160a01b031633146105235760405162461bcd60e51b815260040161015c90610cf1565b600260015414156105765760405162461bcd60e51b815260206004820152601f60248201527f5265656e7472616e637947756172643a207265656e7472616e742063616c6c00604482015260640161015c565b60026001556003546040516370a0823160e01b81526001600160a01b0391821660048201526000916105f791908616906370a0823190602401602060405180830381865afa1580156105cc573d6000803e3d6000fd5b505050506040513d601f19601f820116820180604052508101906105f09190610d43565b849061096d565b60025460405163d7aceec760e01b81526001600160a01b0387811660048301526024820186905292935091169063d7aceec790604401602060405180830381865afa15801561064a573d6000803e3d6000fd5b505050506040513d601f19601f8201168201806040525081019061066e9190610d26565b60408051600481526024810182526020810180516001600160e01b031663f8ba4cff60e01b17905290516001600160a01b0392909216916000916106b191611072565b60006040518083038185875af1925050503d80600081146106ee576040519150601f19603f3d011682016040523d82523d6000602084013e6106f3565b606091505b50506002546003546040516356f6e43560e11b81526001600160a01b03888116600483015260248201869052918216604482015260648101869052600093508392919091169063adedc86a90608401600060405180830381865afa15801561075f573d6000803e3d6000fd5b505050506040513d6000823e601f3d908101601f191682016040526107879190810190610ee0565b60035460405163bd509fd560e01b81529294509092506001600160a01b03169063bd509fd5906107bd9085908590600401610fd1565b600060405180830381600087803b1580156107d757600080fd5b505af11580156107eb573d6000803e3d6000fd5b505050506107f886610b2d565b60025460405163d7aceec760e01b81526001600160a01b0388811660048301526024820187905261083392169063d7aceec79060440161045c565b83866001600160a01b03167f487f0a0363a6dd1f773ac8a6ab336d93de1614f4dbaac2992c5698800b1ab1ca8760405161086f91815260200190565b60405180910390a350506001805550505050565b6000546001600160a01b031633146108ad5760405162461bcd60e51b815260040161015c90610cf1565b6001600160a01b0381166109125760405162461bcd60e51b815260206004820152602660248201527f4f776e61626c653a206e6577206f776e657220697320746865207a65726f206160448201526564647265737360d01b606482015260840161015c565b600080546040516001600160a01b03808516939216917f8be0079c531659141344cd1fd0a4f28419497f9722a3daafe3b4186f6b6457e091a3600080546001600160a01b0319166001600160a01b0392909216919091179055565b600081831061097c578161097e565b825b9392505050565b60035460405163e3d670d760e01b81526001600160a01b038381166004830152600092169063e3d670d790602401602060405180830381865afa1580156109d0573d6000803e3d6000fd5b505050506040513d601f19601f820116820180604052508101906109f49190610d43565b600354604051635765c9ab60e11b81526001600160a01b0385811660048301529293506000929091169063aecb935690602401602060405180830381865afa158015610a44573d6000803e3d6000fd5b505050506040513d601f19601f82011682018060405250810190610a68919061108e565b9050811580610a745750805b15610a7e57505050565b6003546040516001600160a01b038581166024830152909116906398a9884d90829063d48bfca760e01b906044015b60408051601f198184030181529181526020820180516001600160e01b03166001600160e01b03199485161790525160e085901b9092168252610af692916000906004016110b0565b600060405180830381600087803b158015610b1057600080fd5b505af1158015610b24573d6000803e3d6000fd5b50505050505050565b60035460405163e3d670d760e01b81526001600160a01b038381166004830152600092169063e3d670d790602401602060405180830381865afa158015610b78573d6000803e3d6000fd5b505050506040513d601f19601f82011682018060405250810190610b9c9190610d43565b600354604051635765c9ab60e11b81526001600160a01b0385811660048301529293506000929091169063aecb935690602401602060405180830381865afa158015610bec573d6000803e3d6000fd5b505050506040513d601f19601f82011682018060405250810190610c10919061108e565b905081151580610c1e575080155b15610c2857505050565b6003546040516001600160a01b038581166024830152909116906398a9884d9082906317e9ed6160e21b90604401610aad565b6001600160a01b0381168114610c7057600080fd5b50565b600080600060608486031215610c8857600080fd5b8335610c9381610c5b565b95602085013595506040909401359392505050565b60008060408385031215610cbb57600080fd5b8235610cc681610c5b565b946020939093013593505050565b600060208284031215610ce657600080fd5b813561097e81610c5b565b6020808252818101527f4f776e61626c653a2063616c6c6572206973206e6f7420746865206f776e6572604082015260600190565b600060208284031215610d3857600080fd5b815161097e81610c5b565b600060208284031215610d5557600080fd5b5051919050565b634e487b7160e01b600052604160045260246000fd5b604051601f8201601f1916810167ffffffffffffffff81118282101715610d9b57610d9b610d5c565b604052919050565b600067ffffffffffffffff821115610dbd57610dbd610d5c565b5060051b60200190565b60005b83811015610de2578181015183820152602001610dca565b83811115610df1576000848401525b50505050565b6000601f8381840112610e0957600080fd5b82516020610e1e610e1983610da3565b610d72565b82815260059290921b85018101918181019087841115610e3d57600080fd5b8287015b84811015610ed457805167ffffffffffffffff80821115610e625760008081fd5b818a0191508a603f830112610e775760008081fd5b85820151604082821115610e8d57610e8d610d5c565b610e9e828b01601f19168901610d72565b92508183528c81838601011115610eb55760008081fd5b610ec482898501838701610dc7565b5050845250918301918301610e41565b50979650505050505050565b60008060408385031215610ef357600080fd5b825167ffffffffffffffff80821115610f0b57600080fd5b818501915085601f830112610f1f57600080fd5b81516020610f2f610e1983610da3565b82815260059290921b84018101918181019089841115610f4e57600080fd5b948201945b83861015610f75578551610f6681610c5b565b82529482019490820190610f53565b91880151919650909350505080821115610f8e57600080fd5b50610f9b85828601610df7565b9150509250929050565b60008151808452610fbd816020860160208601610dc7565b601f01601f19169290920160200192915050565b604080825283519082018190526000906020906060840190828701845b828110156110135781516001600160a01b031684529284019290840190600101610fee565b50505083810382850152845180825282820190600581901b8301840187850160005b8381101561106357601f19868403018552611051838351610fa5565b94870194925090860190600101611035565b50909998505050505050505050565b60008251611084818460208701610dc7565b9190910192915050565b6000602082840312156110a057600080fd5b8151801515811461097e57600080fd5b6001600160a01b03841681526060602082018190526000906110d490830185610fa5565b905082604083015294935050505056fea264697066735822122021f98e441efcdfb1b0c9a3b81d294b388fca6a129ffb5fa315e9b85faf3f47a564736f6c634300080c0033",
    "linkReferences": {}
  }
}