{
  "_format": "hh-sol-artifact-1",
  "contractName": "LendingLogicCompound",
  "sourceName": "contracts/Strategies/LendingLogicCompound.sol",
  "abi": [
    {
      "inputs": [
        {
          "internalType": "address",
          "name": "_lendingRegistry",
          "type": "address"
        },
        {
          "internalType": "bytes32",
          "name": "_protocolKey",
          "type": "bytes32"
        }
      ],
      "stateMutability": "nonpayable",
      "type": "constructor"
    },
    {
      "anonymous": false,
      "inputs": [
        {
          "indexed": true,
          "internalType": "address",
          "name": "previousOwner",
          "type": "address"
        },
        {
          "indexed": true,
          "internalType": "address",
          "name": "newOwner",
          "type": "address"
        }
      ],
      "name": "OwnershipTransferred",
      "type": "event"
    },
    {
      "inputs": [],
      "name": "blocksPerYear",
      "outputs": [
        {
          "internalType": "uint256",
          "name": "",
          "type": "uint256"
        }
      ],
      "stateMutability": "view",
      "type": "function"
    },
    {
      "inputs": [
        {
          "internalType": "address",
          "name": "_wrapped",
          "type": "address"
        }
      ],
      "name": "exchangeRate",
      "outputs": [
        {
          "internalType": "uint256",
          "name": "",
          "type": "uint256"
        }
      ],
      "stateMutability": "nonpayable",
      "type": "function"
    },
    {
      "inputs": [
        {
          "internalType": "address",
          "name": "_wrapped",
          "type": "address"
        }
      ],
      "name": "exchangeRateView",
      "outputs": [
        {
          "internalType": "uint256",
          "name": "",
          "type": "uint256"
        }
      ],
      "stateMutability": "view",
      "type": "function"
    },
    {
      "inputs": [
        {
          "internalType": "address",
          "name": "_token",
          "type": "address"
        }
      ],
      "name": "getAPRFromUnderlying",
      "outputs": [
        {
          "internalType": "uint256",
          "name": "",
          "type": "uint256"
        }
      ],
      "stateMutability": "view",
      "type": "function"
    },
    {
      "inputs": [
        {
          "internalType": "address",
          "name": "_token",
          "type": "address"
        }
      ],
      "name": "getAPRFromWrapped",
      "outputs": [
        {
          "internalType": "uint256",
          "name": "",
          "type": "uint256"
        }
      ],
      "stateMutability": "view",
      "type": "function"
    },
    {
      "inputs": [
        {
          "internalType": "address",
          "name": "_underlying",
          "type": "address"
        },
        {
          "internalType": "uint256",
          "name": "_amount",
          "type": "uint256"
        },
        {
          "internalType": "address",
          "name": "_tokenHolder",
          "type": "address"
        }
      ],
      "name": "lend",
      "outputs": [
        {
          "internalType": "address[]",
          "name": "targets",
          "type": "address[]"
        },
        {
          "internalType": "bytes[]",
          "name": "data",
          "type": "bytes[]"
        }
      ],
      "stateMutability": "view",
      "type": "function"
    },
    {
      "inputs": [],
      "name": "lendingRegistry",
      "outputs": [
        {
          "internalType": "contract LendingRegistry",
          "name": "",
          "type": "address"
        }
      ],
      "stateMutability": "view",
      "type": "function"
    },
    {
      "inputs": [],
      "name": "owner",
      "outputs": [
        {
          "internalType": "address",
          "name": "",
          "type": "address"
        }
      ],
      "stateMutability": "view",
      "type": "function"
    },
    {
      "inputs": [],
      "name": "protocolKey",
      "outputs": [
        {
          "internalType": "bytes32",
          "name": "",
          "type": "bytes32"
        }
      ],
      "stateMutability": "view",
      "type": "function"
    },
    {
      "inputs": [],
      "name": "renounceOwnership",
      "outputs": [],
      "stateMutability": "nonpayable",
      "type": "function"
    },
    {
      "inputs": [
        {
          "internalType": "uint256",
          "name": "_blocks",
          "type": "uint256"
        }
      ],
      "name": "setBlocksPerYear",
      "outputs": [],
      "stateMutability": "nonpayable",
      "type": "function"
    },
    {
      "inputs": [
        {
          "internalType": "address",
          "name": "newOwner",
          "type": "address"
        }
      ],
      "name": "transferOwnership",
      "outputs": [],
      "stateMutability": "nonpayable",
      "type": "function"
    },
    {
      "inputs": [
        {
          "internalType": "address",
          "name": "_wrapped",
          "type": "address"
        },
        {
          "internalType": "uint256",
          "name": "_amount",
          "type": "uint256"
        },
        {
          "internalType": "address",
          "name": "_tokenHolder",
          "type": "address"
        }
      ],
      "name": "unlend",
      "outputs": [
        {
          "internalType": "address[]",
          "name": "targets",
          "type": "address[]"
        },
        {
          "internalType": "bytes[]",
          "name": "data",
          "type": "bytes[]"
        }
      ],
      "stateMutability": "view",
      "type": "function"
    }
  ],
  "bytecode": "0x60a060405234801561001057600080fd5b50604051610dc4380380610dc483398101604081905261002f916100df565b60006100396100db565b600080546001600160a01b0319166001600160a01b0383169081178255604051929350917f8be0079c531659141344cd1fd0a4f28419497f9722a3daafe3b4186f6b6457e0908290a3506001600160a01b0382166100b25760405162461bcd60e51b81526004016100a990610117565b60405180910390fd5b600180546001600160a01b0319166001600160a01b03939093169290921790915560805261014e565b3390565b600080604083850312156100f1578182fd5b82516001600160a01b0381168114610107578283fd5b6020939093015192949293505050565b60208082526018908201527f494e56414c49445f4c454e44494e475f52454749535452590000000000000000604082015260600190565b608051610c52610172600039806102ee528061045e52806105885250610c526000f3fe608060405234801561001057600080fd5b50600436106100cf5760003560e01c80637b1c44321161008c578063dc3b7c8b11610066578063dc3b7c8b14610186578063e5fa2b7014610199578063eeb401a9146101ac578063f2fde38b146101b4576100cf565b80637b1c4432146101565780638da5cb5b14610169578063a385fb961461017e576100cf565b80630f13634e146100d4578063269d2947146100fd57806337bca10f1461011057806342bde0b8146101235780636cfa20d614610144578063715018a61461014c575b600080fd5b6100e76100e2366004610955565b6101c7565b6040516100f49190610b03565b60405180910390f35b6100e761010b366004610955565b61024c565b6100e761011e366004610955565b6102bf565b61013661013136600461098d565b610378565b6040516100f4929190610a47565b6100e761045c565b610154610480565b005b61013661016436600461098d565b610508565b6101716107b2565b6040516100f491906109fe565b6100e76107c1565b6100e7610194366004610955565b6107c7565b6101546101a73660046109ce565b610818565b610171610852565b6101546101c2366004610955565b610861565b6000610246600254836001600160a01b031663ae9d70b06040518163ffffffff1660e01b815260040160206040518083038186803b15801561020857600080fd5b505afa15801561021c573d6000803e3d6000fd5b505050506040513d601f19601f8201168201806040525081019061024091906109e6565b90610917565b92915050565b6000816001600160a01b031663182df0f56040518163ffffffff1660e01b815260040160206040518083038186803b15801561028757600080fd5b505afa15801561029b573d6000803e3d6000fd5b505050506040513d601f19601f8201168201806040525081019061024691906109e6565b60015460405163d7aceec760e01b815260009182916001600160a01b039091169063d7aceec7906103169086907f000000000000000000000000000000000000000000000000000000000000000090600401610a12565b60206040518083038186803b15801561032e57600080fd5b505afa158015610342573d6000803e3d6000fd5b505050506040513d601f19601f820116820180604052508101906103669190610971565b9050610371816101c7565b9392505050565b6040805160018082528183019092526060918291906020808301908036833701905050604080516001808252818301909252919350816020015b60608152602001906001900390816103b257905050905084826000815181106103d757fe5b6001600160a01b039092166020928302919091019091015260405163db006a7560e01b90610409908690602401610b03565b604051602081830303815290604052906001600160e01b0319166020820180516001600160e01b0383818316178352505050508160008151811061044957fe5b6020026020010181905250935093915050565b7f000000000000000000000000000000000000000000000000000000000000000081565b610488610951565b6000546001600160a01b039081169116146104be5760405162461bcd60e51b81526004016104b590610b93565b60405180910390fd5b600080546040516001600160a01b03909116907f8be0079c531659141344cd1fd0a4f28419497f9722a3daafe3b4186f6b6457e0908390a3600080546001600160a01b0319169055565b60408051600380825260808201909252606091829186916020820184803683370190505060408051600380825260808201909252919450816020015b606081526020019060019003908161054457505060015460405163d7aceec760e01b81529193506000916001600160a01b039091169063d7aceec7906105b0908a907f000000000000000000000000000000000000000000000000000000000000000090600401610a12565b60206040518083038186803b1580156105c857600080fd5b505afa1580156105dc573d6000803e3d6000fd5b505050506040513d601f19601f820116820180604052508101906106009190610971565b9050868460008151811061061057fe5b6001600160a01b039092166020928302919091019091015260405163095ea7b360e01b90610645908390600090602401610a2b565b604051602081830303815290604052906001600160e01b0319166020820180516001600160e01b0383818316178352505050508360008151811061068557fe5b6020026020010181905250868460018151811061069e57fe5b6001600160a01b039092166020928302919091019091015260405163095ea7b360e01b906106d29083908990602401610a12565b604051602081830303815290604052906001600160e01b0319166020820180516001600160e01b0383818316178352505050508360018151811061071257fe5b6020026020010181905250808460028151811061072b57fe5b6001600160a01b039092166020928302919091019091015260405163140e25ad60e31b9061075d908890602401610b03565b604051602081830303815290604052906001600160e01b0319166020820180516001600160e01b0383818316178352505050508360028151811061079d57fe5b60200260200101819052505050935093915050565b6000546001600160a01b031690565b60025481565b6000816001600160a01b031663bd6d894d6040518163ffffffff1660e01b8152600401602060405180830381600087803b15801561080457600080fd5b505af115801561029b573d6000803e3d6000fd5b610820610951565b6000546001600160a01b0390811691161461084d5760405162461bcd60e51b81526004016104b590610b93565b600255565b6001546001600160a01b031681565b610869610951565b6000546001600160a01b039081169116146108965760405162461bcd60e51b81526004016104b590610b93565b6001600160a01b0381166108bc5760405162461bcd60e51b81526004016104b590610b0c565b600080546040516001600160a01b03808516939216917f8be0079c531659141344cd1fd0a4f28419497f9722a3daafe3b4186f6b6457e091a3600080546001600160a01b0319166001600160a01b0392909216919091179055565b60008261092657506000610246565b8282028284828161093357fe5b04146103715760405162461bcd60e51b81526004016104b590610b52565b3390565b600060208284031215610966578081fd5b813561037181610c04565b600060208284031215610982578081fd5b815161037181610c04565b6000806000606084860312156109a1578182fd5b83356109ac81610c04565b92506020840135915060408401356109c381610c04565b809150509250925092565b6000602082840312156109df578081fd5b5035919050565b6000602082840312156109f7578081fd5b5051919050565b6001600160a01b0391909116815260200190565b6001600160a01b03929092168252602082015260400190565b6001600160a01b0392909216825260ff16602082015260400190565b604080825283519082018190526000906020906060840190828701845b82811015610a8857610a768251610bc8565b84529284019290840190600101610a64565b5050508381038285015284518082528282019080840283018401878501865b83811015610af457601f198087850301865282518051610ac78187610b03565b610ad482828d8601610bd4565b978a0197601f919091019092169190910193505090860190600101610aa7565b50909998505050505050505050565b90815260200190565b60208082526026908201527f4f776e61626c653a206e6577206f776e657220697320746865207a65726f206160408201526564647265737360d01b606082015260800190565b60208082526021908201527f536166654d6174683a206d756c7469706c69636174696f6e206f766572666c6f6040820152607760f81b606082015260800190565b6020808252818101527f4f776e61626c653a2063616c6c6572206973206e6f7420746865206f776e6572604082015260600190565b6001600160a01b031690565b60005b83811015610bef578181015183820152602001610bd7565b83811115610bfe576000848401525b50505050565b6001600160a01b0381168114610c1957600080fd5b5056fea26469706673582212201154eb7e80b30d09f2a4b8d4898002ac32eb33dd92f892116ee6c3cae07ea34b64736f6c63430007010033",
  "linkReferences": {},
  "deployedLinkReferences": {}
}