{
  "_format": "hh-sol-artifact-1",
  "contractName": "ATokenV2",
  "sourceName": "contracts/Strategies/LendingLogicAaveV2.sol",
  "abi": [
    {
      "inputs": [],
      "name": "UNDERLYING_ASSET_ADDRESS",
      "outputs": [
        {
          "internalType": "address",
          "name": "",
          "type": "address"
        }
      ],
      "stateMutability": "view",
      "type": "function"
    }
  ],
  "bytecode": "0x6080604052348015600f57600080fd5b5060a08061001e6000396000f3fe6080604052348015600f57600080fd5b506004361060285760003560e01c8063b16a19de14602d575b600080fd5b60336047565b604051603e91906056565b60405180910390f35b6000546001600160a01b031681565b6001600160a01b039190911681526020019056fea264697066735822122004683470c98e0f88d633bd8ffa3d822e09f51291c9f16d2cabf3abff974c6dc964736f6c63430007010033",
  "linkReferences": {},
  "deployedLinkReferences": {}
}