{
  "_format": "hh-sol-artifact-1",
  "contractName": "LendingLogicAaveV2",
  "sourceName": "contracts/Strategies/LendingLogicAaveV2.sol",
  "abi": [
    {
      "inputs": [
        {
          "internalType": "address",
          "name": "_lendingPool",
          "type": "address"
        },
        {
          "internalType": "uint16",
          "name": "_referralCode",
          "type": "uint16"
        }
      ],
      "stateMutability": "nonpayable",
      "type": "constructor"
    },
    {
      "inputs": [
        {
          "internalType": "address",
          "name": "",
          "type": "address"
        }
      ],
      "name": "exchangeRate",
      "outputs": [
        {
          "internalType": "uint256",
          "name": "",
          "type": "uint256"
        }
      ],
      "stateMutability": "pure",
      "type": "function"
    },
    {
      "inputs": [
        {
          "internalType": "address",
          "name": "",
          "type": "address"
        }
      ],
      "name": "exchangeRateView",
      "outputs": [
        {
          "internalType": "uint256",
          "name": "",
          "type": "uint256"
        }
      ],
      "stateMutability": "pure",
      "type": "function"
    },
    {
      "inputs": [
        {
          "internalType": "address",
          "name": "_token",
          "type": "address"
        }
      ],
      "name": "getAPRFromUnderlying",
      "outputs": [
        {
          "internalType": "uint256",
          "name": "",
          "type": "uint256"
        }
      ],
      "stateMutability": "view",
      "type": "function"
    },
    {
      "inputs": [
        {
          "internalType": "address",
          "name": "_token",
          "type": "address"
        }
      ],
      "name": "getAPRFromWrapped",
      "outputs": [
        {
          "internalType": "uint256",
          "name": "",
          "type": "uint256"
        }
      ],
      "stateMutability": "view",
      "type": "function"
    },
    {
      "inputs": [
        {
          "internalType": "address",
          "name": "_underlying",
          "type": "address"
        },
        {
          "internalType": "uint256",
          "name": "_amount",
          "type": "uint256"
        },
        {
          "internalType": "address",
          "name": "_tokenHolder",
          "type": "address"
        }
      ],
      "name": "lend",
      "outputs": [
        {
          "internalType": "address[]",
          "name": "targets",
          "type": "address[]"
        },
        {
          "internalType": "bytes[]",
          "name": "data",
          "type": "bytes[]"
        }
      ],
      "stateMutability": "view",
      "type": "function"
    },
    {
      "inputs": [],
      "name": "lendingPool",
      "outputs": [
        {
          "internalType": "contract IAaveLendingPoolV2",
          "name": "",
          "type": "address"
        }
      ],
      "stateMutability": "view",
      "type": "function"
    },
    {
      "inputs": [],
      "name": "referralCode",
      "outputs": [
        {
          "internalType": "uint16",
          "name": "",
          "type": "uint16"
        }
      ],
      "stateMutability": "view",
      "type": "function"
    },
    {
      "inputs": [
        {
          "internalType": "address",
          "name": "_wrapped",
          "type": "address"
        },
        {
          "internalType": "uint256",
          "name": "_amount",
          "type": "uint256"
        },
        {
          "internalType": "address",
          "name": "_tokenHolder",
          "type": "address"
        }
      ],
      "name": "unlend",
      "outputs": [
        {
          "internalType": "address[]",
          "name": "targets",
          "type": "address[]"
        },
        {
          "internalType": "bytes[]",
          "name": "data",
          "type": "bytes[]"
        }
      ],
      "stateMutability": "view",
      "type": "function"
    }
  ],
  "bytecode": "0x608060405234801561001057600080fd5b50604051610c5d380380610c5d83398101604081905261002f9161009c565b6001600160a01b03821661005e5760405162461bcd60e51b8152600401610055906100e6565b60405180910390fd5b6000805461ffff909216600160a01b0261ffff60a01b196001600160a01b039094166001600160a01b0319909316929092179290921617905561011d565b600080604083850312156100ae578182fd5b82516001600160a01b03811681146100c4578283fd5b602084015190925061ffff811681146100db578182fd5b809150509250929050565b60208082526014908201527f4c454e44494e475f504f4f4c5f494e56414c4944000000000000000000000000604082015260600190565b610b318061012c6000396000f3fe608060405234801561001057600080fd5b50600436106100885760003560e01c80637b1c44321161005b5780637b1c4432146100fd578063a59a997314610110578063d8b6d25214610125578063dc3b7c8b146100b657610088565b80630f13634e1461008d578063269d2947146100b657806337bca10f146100c957806342bde0b8146100dc575b600080fd5b6100a061009b366004610790565b61013a565b6040516100ad9190610aa7565b60405180910390f35b6100a06100c4366004610790565b6101c0565b6100a06100d7366004610790565b6101cd565b6100ef6100ea3660046107c8565b610277565b6040516100ad9291906109e8565b6100ef61010b3660046107c8565b6103e3565b6101186105fa565b6040516100ad919061094f565b61012d610609565b6040516100ad9190610a98565b600080826001600160a01b031663b16a19de6040518163ffffffff1660e01b815260040160206040518083038186803b15801561017657600080fd5b505afa15801561018a573d6000803e3d6000fd5b505050506040513d601f19601f820116820180604052508101906101ae91906107ac565b90506101b9816101cd565b9392505050565b50670de0b6b3a764000090565b60006101d76106a5565b6000546040516335ea6a7560e01b81526001600160a01b03909116906335ea6a759061020790869060040161094f565b6101806040518083038186803b15801561022057600080fd5b505afa158015610234573d6000803e3d6000fd5b505050506040513d601f19601f820116820180604052508101906102589190610809565b60608101519091506101b9906001600160801b0316633b9aca0061061a565b604080516001808252818301909252606091829186916020808301908036833701905050604080516001808252818301909252919450816020015b60608152602001906001900390816102b25750506000805485519294506001600160a01b0316918591906102e257fe5b60200260200101906001600160a01b031690816001600160a01b0316815250506369328dec60e01b816001600160a01b031663b16a19de6040518163ffffffff1660e01b815260040160206040518083038186803b15801561034357600080fd5b505afa158015610357573d6000803e3d6000fd5b505050506040513d601f19601f8201168201806040525081019061037b91906107ac565b868660405160240161038f93929190610998565b604051602081830303815290604052906001600160e01b0319166020820180516001600160e01b038381831617835250505050826000815181106103cf57fe5b602002602001018190525050935093915050565b60408051600380825260808201909252606091829186916020820184803683370190505060408051600380825260808201909252919450816020015b606081526020019060019003908161041f579050509150858360008151811061044457fe5b6001600160a01b0392831660209182029290920101526000805460405163095ea7b360e01b9361047a9392169190602401610963565b604051602081830303815290604052906001600160e01b0319166020820180516001600160e01b038381831617835250505050826000815181106104ba57fe5b602002602001018190525085836001815181106104d357fe5b6001600160a01b03928316602091820292909201015260005460405163095ea7b360e01b92610508921690889060240161097f565b604051602081830303815290604052906001600160e01b0319166020820180516001600160e01b0383818316178352505050508260018151811061054857fe5b602002602001018190525060008054906101000a90046001600160a01b03168360028151811061057457fe5b6001600160a01b039092166020928302919091019091015260005460405163e8eda9df60e01b916105ba9189918991899161ffff600160a01b90910416906024016109bb565b604051602081830303815290604052906001600160e01b0319166020820180516001600160e01b038381831617835250505050826002815181106103cf57fe5b6000546001600160a01b031681565b600054600160a01b900461ffff1681565b600061065c83836040518060400160405280601a81526020017f536166654d6174683a206469766973696f6e206279207a65726f000000000000815250610665565b90505b92915050565b6000818361068f5760405162461bcd60e51b81526004016106869190610a85565b60405180910390fd5b50600083858161069b57fe5b0495945050505050565b6040518061018001604052806106b9610710565b815260006020820181905260408201819052606082018190526080820181905260a0820181905260c0820181905260e082018190526101008201819052610120820181905261014082018190526101609091015290565b6040518060200160405280600081525090565b805161065f81610ae3565b60006020828403121561073f578081fd5b6107496020610ab0565b9151825250919050565b80516001600160801b038116811461065f57600080fd5b805164ffffffffff8116811461065f57600080fd5b805160ff8116811461065f57600080fd5b6000602082840312156107a1578081fd5b81356101b981610ae3565b6000602082840312156107bd578081fd5b81516101b981610ae3565b6000806000606084860312156107dc578182fd5b83356107e781610ae3565b92506020840135915060408401356107fe81610ae3565b809150509250925092565b600061018080838503121561081c578182fd5b61082581610ab0565b9050610831848461072e565b81526108408460208501610753565b60208201526108528460408501610753565b60408201526108648460608501610753565b60608201526108768460808501610753565b60808201526108888460a08501610753565b60a082015261089a8460c0850161076a565b60c08201526108ac8460e08501610723565b60e08201526101006108c085828601610723565b908201526101206108d385858301610723565b908201526101406108e685858301610723565b908201526101606108f98585830161077f565b908201529392505050565b60008151808452815b818110156109295760208185018101518683018201520161090d565b8181111561093a5782602083870101525b50601f01601f19169290920160200192915050565b6001600160a01b0391909116815260200190565b6001600160a01b0392909216825260ff16602082015260400190565b6001600160a01b03929092168252602082015260400190565b6001600160a01b0393841681526020810192909252909116604082015260600190565b6001600160a01b03948516815260208101939093529216604082015261ffff909116606082015260800190565b604080825283519082018190526000906020906060840190828701845b82811015610a2957610a178251610ad7565b84529284019290840190600101610a05565b5050508381038285015284518082528282019080840283018401878501865b83811015610a7657601f19868403018552610a64838351610904565b94870194925090860190600101610a48565b50909998505050505050505050565b60006020825261065c6020830184610904565b61ffff91909116815260200190565b90815260200190565b60405181810167ffffffffffffffff81118282101715610acf57600080fd5b604052919050565b6001600160a01b031690565b6001600160a01b0381168114610af857600080fd5b5056fea26469706673582212204aff873439ffa9ca1b5ddd829b04d3732493a7717343d33b132fc0bc19f946ce64736f6c63430007010033",
  "linkReferences": {},
  "deployedLinkReferences": {}
}