{
  "abi": [
    {
      "anonymous": false,
      "inputs": [
        {
          "indexed": false,
          "internalType": "address",
          "name": "tokenAddress",
          "type": "address"
        }
      ],
      "name": "DiamondCreated",
      "type": "event"
    },
    {
      "inputs": [
        {
          "internalType": "address",
          "name": "_owner",
          "type": "address"
        },
        {
          "components": [
            {
              "internalType": "address",
              "name": "facetAddress",
              "type": "address"
            },
            {
              "internalType": "enum IDiamondCut.FacetCutAction",
              "name": "action",
              "type": "uint8"
            },
            {
              "internalType": "bytes4[]",
              "name": "functionSelectors",
              "type": "bytes4[]"
            }
          ],
          "internalType": "struct IDiamondCut.FacetCut[]",
          "name": "_diamondCut",
          "type": "tuple[]"
        }
      ],
      "name": "deployNewDiamond",
      "outputs": [
        {
          "internalType": "address",
          "name": "",
          "type": "address"
        }
      ],
      "stateMutability": "nonpayable",
      "type": "function"
    },
    {
      "inputs": [
        {
          "internalType": "uint256",
          "name": "",
          "type": "uint256"
        }
      ],
      "name": "diamonds",
      "outputs": [
        {
          "internalType": "address",
          "name": "",
          "type": "address"
        }
      ],
      "stateMutability": "view",
      "type": "function"
    },
    {
      "inputs": [],
      "name": "getDiamondCount",
      "outputs": [
        {
          "internalType": "uint256",
          "name": "",
          "type": "uint256"
        }
      ],
      "stateMutability": "view",
      "type": "function"
    },
    {
      "inputs": [
        {
          "internalType": "address",
          "name": "",
          "type": "address"
        }
      ],
      "name": "isDiamond",
      "outputs": [
        {
          "internalType": "bool",
          "name": "",
          "type": "bool"
        }
      ],
      "stateMutability": "view",
      "type": "function"
    }
  ],
  "bytecode": {
    "object": "0x608060405234801561001057600080fd5b50611b8f806100206000396000f3fe608060405234801561001057600080fd5b506004361061004c5760003560e01c80633670bab2146100515780633951e09b14610067578063db9844d714610092578063ff6f22c5146100c5575b600080fd5b6000546040519081526020015b60405180910390f35b61007a61007536600461023b565b6100d8565b6040516001600160a01b03909116815260200161005e565b6100b56100a0366004610270565b60016020526000908152604090205460ff1681565b604051901515815260200161005e565b61007a6100d3366004610326565b610102565b600081815481106100e857600080fd5b6000918252602090912001546001600160a01b0316905081565b6000806040516101119061022e565b604051809103906000f08015801561012d573d6000803e3d6000fd5b506040516309f555ad60e01b81529091506001600160a01b038216906309f555ad9061015f90869088906004016104b5565b600060405180830381600087803b15801561017957600080fd5b505af115801561018d573d6000803e3d6000fd5b505060008054600180820183557f290decd9548b62a8d60345a988386fc84ba6bc95484008f6362f93160ef3e56390910180546001600160a01b0319166001600160a01b0387169081179091558083526020828152604093849020805460ff191690931790925591519182527f644ca5b0a8b0418e9faf3880659eeb84eaad45ad838b0173808e5ca72f5efc49935001905060405180910390a15092915050565b6115b0806105aa83390190565b60006020828403121561024d57600080fd5b5035919050565b80356001600160a01b038116811461026b57600080fd5b919050565b60006020828403121561028257600080fd5b61028b82610254565b9392505050565b634e487b7160e01b600052604160045260246000fd5b6040516060810167ffffffffffffffff811182821017156102cb576102cb610292565b60405290565b604051601f8201601f1916810167ffffffffffffffff811182821017156102fa576102fa610292565b604052919050565b600067ffffffffffffffff82111561031c5761031c610292565b5060051b60200190565b6000806040838503121561033957600080fd5b61034283610254565b915060208084013567ffffffffffffffff8082111561036057600080fd5b818601915086601f83011261037457600080fd5b813561038761038282610302565b6102d1565b81815260059190911b830184019084810190898311156103a657600080fd5b8585015b838110156104a4578035858111156103c157600080fd5b86016060818d03601f190112156103d757600080fd5b6103df6102a8565b6103ea898301610254565b81526040820135600381106103fe57600080fd5b818a015260608201358781111561041457600080fd5b8083019250508c603f83011261042957600080fd5b8882013561043961038282610302565b81815260059190911b8301604001908a8101908f83111561045957600080fd5b6040850194505b8285101561048f5784356001600160e01b03198116811461048057600080fd5b8252938b0193908b0190610460565b604084015250508452509186019186016103aa565b508096505050505050509250929050565b60006040808301818452808651808352606092508286019150828160051b8701016020808a0160005b8481101561058357898403605f19018652815180516001600160a01b0316855283810151888601906003811061052457634e487b7160e01b600052602160045260246000fd5b868601529089015189860189905280519182905284019060009060808701905b8083101561056e5783516001600160e01b0319168252928601926001929092019190860190610544565b509785019795505050908201906001016104de565b505081965061059c8189018a6001600160a01b03169052565b505050505050939250505056fe608060405234801561001057600080fd5b50611590806100206000396000f3fe6080604052600436106100225760003560e01c806309f555ad146100ce57610029565b3661002957005b600080356001600160e01b03191681526000805160206114c78339815191526020819052604090912054819060601c806100aa5760405162461bcd60e51b815260206004820181905260248201527f4469616d6f6e643a2046756e6374696f6e20646f6573206e6f7420657869737460448201526064015b60405180910390fd5b3660008037600080366000845af43d6000803e8080156100c9573d6000f35b3d6000fd5b6100e16100dc3660046110aa565b6100e3565b005b7f8c8e0f79971b4fe6223a2e78aaaeb612a86f8276a42955448d21582baf5eea405460ff161561014b5760405162461bcd60e51b81526020600482015260136024820152721053149150511657d253925512505312569151606a1b60448201526064016100a1565b7f8c8e0f79971b4fe6223a2e78aaaeb612a86f8276a42955448d21582baf5eea40805460ff191660011790556040805160008082526020820190925261019291849161027b565b61019b81610411565b50507fc8fcad8db84d3cc18b4c41d551ea0ee66dd599cde068d998e57d5e09332c131f6020527f699d9daa71b280d05a152715774afa0a81a312594b2d731d6b0b2552b7d6f69f8054600160ff1991821681179092557ff97e938d8af42f52387bb74b8b526fda8f184cc2aa534340a8d75a88fbecc77580548216831790557f65d510a5d8f7ef134ec444f7f34ee808c8eeb5177cdfd16be0c40fe1ab43369580548216831790556307f5828d60e41b6000527f5622121b47b8cd0120c4efe45dd5483242f54a3d49bd7679be565d47694918c380549091169091179055565b7fc8fcad8db84d3cc18b4c41d551ea0ee66dd599cde068d998e57d5e09332c131e546000805160206114c78339815191529061ffff16806000806102c060088461124e565b11156102e9576001840160006102d7600885611278565b81526020019081526020016000205490505b60005b87518110156103705761035983838a848151811061030c5761030c61128c565b6020026020010151600001518b858151811061032a5761032a61128c565b6020026020010151602001518c86815181106103485761034861128c565b602002602001015160400151610494565b909350915080610368816112a2565b9150506102ec565b5082821461038c5760028401805461ffff191661ffff84161790555b600061039960088461124e565b11156103c357806001850160006103b1600886611278565b81526020810191909152604001600020555b7f8faa70878671ccd212d20771b795c50af8fd3ff6cf27f4bde57e5d4de0aeb6738787876040516103f69392919061132b565b60405180910390a16104088686610dc6565b50505050505050565b7fc8fcad8db84d3cc18b4c41d551ea0ee66dd599cde068d998e57d5e09332c132080546001600160a01b031981166001600160a01b038481169182179093556040516000805160206114c7833981519152939092169182907f8be0079c531659141344cd1fd0a4f28419497f9722a3daafe3b4186f6b6457e090600090a3505050565b600080806000805160206114c78339815191529050600084511161050e5760405162461bcd60e51b815260206004820152602b60248201527f4c69624469616d6f6e644375743a204e6f2073656c6563746f727320696e206660448201526a1858d95d081d1bc818dd5d60aa1b60648201526084016100a1565b6000856002811115610522576105226112bd565b1415610734576001600160a01b0386166105935760405162461bcd60e51b815260206004820152602c60248201527f4c69624469616d6f6e644375743a204164642066616365742063616e2774206260448201526b65206164647265737328302960a01b60648201526084016100a1565b6105b5866040518060600160405280602481526020016114e760249139610fd9565b60005b845181101561072e5760008582815181106105d5576105d561128c565b6020908102919091018101516001600160e01b03198116600090815291859052604090912054909150606081901c1561066e5760405162461bcd60e51b815260206004820152603560248201527f4c69624469616d6f6e644375743a2043616e2774206164642066756e6374696f6044820152746e207468617420616c72656164792065786973747360581b60648201526084016100a1565b6001600160e01b0319821660009081526020859052604081206001600160601b031960608c901b168d1790556106a560088d61124e565b6106b090602061142b565b905080836001600160e01b031916901c816001600160e01b031960001b901c198c16179a508060e0141561070b578a85600101600060088f6106f29190611278565b8152602001908152602001600020819055506000801b9a505b8b610715816112a2565b9c50505050508080610726906112a2565b9150506105b8565b50610dba565b6001856002811115610748576107486112bd565b14156109e9576001600160a01b0386166107bd5760405162461bcd60e51b815260206004820152603060248201527f4c69624469616d6f6e644375743a205265706c6163652066616365742063616e60448201526f2774206265206164647265737328302960801b60648201526084016100a1565b6107df8660405180606001604052806028815260200161153360289139610fd9565b60005b845181101561072e5760008582815181106107ff576107ff61128c565b6020908102919091018101516001600160e01b03198116600090815291859052604090912054909150606081901c308114156108955760405162461bcd60e51b815260206004820152602f60248201527f4c69624469616d6f6e644375743a2043616e2774207265706c61636520696d6d60448201526e3aba30b1363290333ab731ba34b7b760891b60648201526084016100a1565b896001600160a01b0316816001600160a01b0316141561091d5760405162461bcd60e51b815260206004820152603860248201527f4c69624469616d6f6e644375743a2043616e2774207265706c6163652066756e60448201527f6374696f6e20776974682073616d652066756e6374696f6e000000000000000060648201526084016100a1565b6001600160a01b0381166109995760405162461bcd60e51b815260206004820152603860248201527f4c69624469616d6f6e644375743a2043616e2774207265706c6163652066756e60448201527f6374696f6e207468617420646f65736e2774206578697374000000000000000060648201526084016100a1565b506001600160e01b031990911660009081526020849052604090206bffffffffffffffffffffffff919091166001600160601b031960608a901b16179055806109e1816112a2565b9150506107e2565b60028560028111156109fd576109fd6112bd565b1415610d62576001600160a01b03861615610a795760405162461bcd60e51b815260206004820152603660248201527f4c69624469616d6f6e644375743a2052656d6f76652066616365742061646472604482015275657373206d757374206265206164647265737328302960501b60648201526084016100a1565b6000610a8660088a611278565b905060006001610a9760088c61124e565b610aa1919061144a565b905060005b8651811015610d375789610ad95782610abe81611461565b60008181526001870160205260409020549b50935060079250505b6000806000808a8581518110610af157610af161128c565b6020908102919091018101516001600160e01b031981166000908152918a9052604090912054909150606081901c610b915760405162461bcd60e51b815260206004820152603760248201527f4c69624469616d6f6e644375743a2043616e27742072656d6f76652066756e6360448201527f74696f6e207468617420646f65736e277420657869737400000000000000000060648201526084016100a1565b606081901c301415610bfc5760405162461bcd60e51b815260206004820152602e60248201527f4c69624469616d6f6e644375743a2043616e27742072656d6f766520696d6d7560448201526d3a30b1363290333ab731ba34b7b760911b60648201526084016100a1565b610c0787602061142b565b8f901b94506001600160e01b031980861690831614610c58576001600160e01b03198516600090815260208a90526040902080546001600160601b0319166bffffffffffffffffffffffff83161790555b6001600160e01b03198216600090815260208a9052604081205561ffff8116610c82600882611278565b9450610c8f60088261124e565b610c9a90602061142b565b9350505050858214610cd5576000828152600188016020526040902080546001600160e01b031980841c19909116908516831c179055610cf9565b80836001600160e01b031916901c816001600160e01b031960001b901c198e16179c505b84610d1457600086815260018801602052604081208190559c505b84610d1e81611461565b9550505050508080610d2f906112a2565b915050610aa6565b5080610d4483600861142b565b610d4e9190611478565b610d59906001611478565b99505050610dba565b60405162461bcd60e51b815260206004820152602760248201527f4c69624469616d6f6e644375743a20496e636f727265637420466163657443756044820152663a20b1ba34b7b760c91b60648201526084016100a1565b50959694955050505050565b6001600160a01b038216610e4d57805115610e495760405162461bcd60e51b815260206004820152603c60248201527f4c69624469616d6f6e644375743a205f696e697420697320616464726573732860448201527f3029206275745f63616c6c64617461206973206e6f7420656d7074790000000060648201526084016100a1565b5050565b6000815111610ec45760405162461bcd60e51b815260206004820152603d60248201527f4c69624469616d6f6e644375743a205f63616c6c6461746120697320656d707460448201527f7920627574205f696e6974206973206e6f74206164647265737328302900000060648201526084016100a1565b6001600160a01b0382163014610ef657610ef68260405180606001604052806028815260200161150b60289139610fd9565b600080836001600160a01b031683604051610f119190611490565b600060405180830381855af49150503d8060008114610f4c576040519150601f19603f3d011682016040523d82523d6000602084013e610f51565b606091505b509150915081610fd357805115610f7c578060405162461bcd60e51b81526004016100a191906114ac565b60405162461bcd60e51b815260206004820152602660248201527f4c69624469616d6f6e644375743a205f696e69742066756e6374696f6e2072656044820152651d995c9d195960d21b60648201526084016100a1565b50505050565b813b8181610fd35760405162461bcd60e51b81526004016100a191906114ac565b634e487b7160e01b600052604160045260246000fd5b6040516060810167ffffffffffffffff8111828210171561103357611033610ffa565b60405290565b604051601f8201601f1916810167ffffffffffffffff8111828210171561106257611062610ffa565b604052919050565b600067ffffffffffffffff82111561108457611084610ffa565b5060051b60200190565b80356001600160a01b03811681146110a557600080fd5b919050565b600080604083850312156110bd57600080fd5b823567ffffffffffffffff808211156110d557600080fd5b818501915085601f8301126110e957600080fd5b813560206110fe6110f98361106a565b611039565b82815260059290921b8401810191818101908984111561111d57600080fd5b8286015b8481101561121b5780358681111561113857600080fd5b87016060818d03601f1901121561114e57600080fd5b611156611010565b61116186830161108e565b815260408201356003811061117557600080fd5b8187015260608201358881111561118b57600080fd5b8083019250508c603f8301126111a057600080fd5b858201356111b06110f98261106a565b81815260059190911b830160400190878101908f8311156111d057600080fd5b6040850194505b828510156112065784356001600160e01b0319811681146111f757600080fd5b825293880193908801906111d7565b60408401525050845250918301918301611121565b50965061122b905087820161108e565b9450505050509250929050565b634e487b7160e01b600052601260045260246000fd5b60008261125d5761125d611238565b500690565b634e487b7160e01b600052601160045260246000fd5b60008261128757611287611238565b500490565b634e487b7160e01b600052603260045260246000fd5b60006000198214156112b6576112b6611262565b5060010190565b634e487b7160e01b600052602160045260246000fd5b60005b838110156112ee5781810151838201526020016112d6565b83811115610fd35750506000910152565b600081518084526113178160208601602086016112d3565b601f01601f19169290920160200192915050565b60006060808301818452808751808352608092508286019150828160051b8701016020808b0160005b848110156113fb57898403607f19018652815180516001600160a01b0316855283810151898601906003811061139a57634e487b7160e01b600052602160045260246000fd5b868601526040918201519186018a905281519081905290840190600090898701905b808310156113e65783516001600160e01b03191682529286019260019290920191908601906113bc565b50978501979550505090820190600101611354565b50506001600160a01b038a1690880152868103604088015261141d81896112ff565b9a9950505050505050505050565b600081600019048311821515161561144557611445611262565b500290565b60008282101561145c5761145c611262565b500390565b60008161147057611470611262565b506000190190565b6000821982111561148b5761148b611262565b500190565b600082516114a28184602087016112d3565b9190910192915050565b6020815260006114bf60208301846112ff565b939250505056fec8fcad8db84d3cc18b4c41d551ea0ee66dd599cde068d998e57d5e09332c131c4c69624469616d6f6e644375743a2041646420666163657420686173206e6f20636f64654c69624469616d6f6e644375743a205f696e6974206164647265737320686173206e6f20636f64654c69624469616d6f6e644375743a205265706c61636520666163657420686173206e6f20636f6465a26469706673582212201e80c2270becbf3d07fbc3d6471a647a02c1c1c50267bd5523c623d09cf14eca64736f6c634300080c0033a2646970667358221220a18d9f0b73f8ae29ab113474a522a1ed5ba511128096a8f261324d2e0337fc7264736f6c634300080c0033",
    "linkReferences": {}
  }
}