{
  "abi": [
    {
      "inputs": [],
      "name": "diamondCutFacet",
      "outputs": [
        {
          "internalType": "contract DiamondCutFacet",
          "name": "",
          "type": "address"
        }
      ],
      "stateMutability": "view",
      "type": "function"
    },
    {
      "inputs": [],
      "name": "diamondLoupeFacet",
      "outputs": [
        {
          "internalType": "contract DiamondLoupeFacet",
          "name": "",
          "type": "address"
        }
      ],
      "stateMutability": "view",
      "type": "function"
    },
    {
      "inputs": [],
      "name": "ownershipFacet",
      "outputs": [
        {
          "internalType": "contract OwnershipFacet",
          "name": "",
          "type": "address"
        }
      ],
      "stateMutability": "view",
      "type": "function"
    }
  ],
  "bytecode": {
    "object": "0x608060405234801561001057600080fd5b5060c98061001f6000396000f3fe6080604052348015600f57600080fd5b5060043610603c5760003560e01c80630c53b2bd146041578063a051e9b314606f578063befddd1c146081575b600080fd5b6002546053906001600160a01b031681565b6040516001600160a01b03909116815260200160405180910390f35b6000546053906001600160a01b031681565b6001546053906001600160a01b03168156fea264697066735822122027321dbfa2f6ffde91f9a61cce97ca11c71bdc062f78beeaaed24413d13fc03964736f6c634300080c0033",
    "linkReferences": {}
  }
}