{
  "abi": [
    {
      "inputs": [
        {
          "internalType": "address",
          "name": "_weth",
          "type": "address"
        },
        {
          "internalType": "address",
          "name": "_lendingRegistry",
          "type": "address"
        },
        {
          "internalType": "address",
          "name": "_pieRegistry",
          "type": "address"
        },
        {
          "internalType": "address",
          "name": "_bentoBox",
          "type": "address"
        },
        {
          "internalType": "address",
          "name": "_masterContract",
          "type": "address"
        }
      ],
      "stateMutability": "nonpayable",
      "type": "constructor"
    },
    {
      "inputs": [
        {
          "internalType": "uint16",
          "name": "index",
          "type": "uint16"
        }
      ],
      "name": "invalidDexIndex",
      "type": "error"
    },
    {
      "anonymous": false,
      "inputs": [
        {
          "indexed": true,
          "internalType": "address",
          "name": "previousOwner",
          "type": "address"
        },
        {
          "indexed": true,
          "internalType": "address",
          "name": "newOwner",
          "type": "address"
        }
      ],
      "name": "OwnershipTransferred",
      "type": "event"
    },
    {
      "inputs": [
        {
          "internalType": "address",
          "name": "_outputToken",
          "type": "address"
        },
        {
          "internalType": "uint256",
          "name": "_maxInput",
          "type": "uint256"
        },
        {
          "internalType": "uint256",
          "name": "_mintAmount",
          "type": "uint256"
        },
        {
          "internalType": "uint16[]",
          "name": "_dexIndex",
          "type": "uint16[]"
        }
      ],
      "name": "bake",
      "outputs": [
        {
          "internalType": "uint256",
          "name": "inputAmountUsed",
          "type": "uint256"
        },
        {
          "internalType": "uint256",
          "name": "outputAmount",
          "type": "uint256"
        }
      ],
      "stateMutability": "nonpayable",
      "type": "function"
    },
    {
      "inputs": [
        {
          "internalType": "address",
          "name": "",
          "type": "address"
        }
      ],
      "name": "customHops",
      "outputs": [
        {
          "internalType": "address",
          "name": "",
          "type": "address"
        }
      ],
      "stateMutability": "view",
      "type": "function"
    },
    {
      "inputs": [
        {
          "internalType": "address",
          "name": "_assetIn",
          "type": "address"
        },
        {
          "internalType": "address",
          "name": "_assetOut",
          "type": "address"
        },
        {
          "internalType": "uint256",
          "name": "_amountOut",
          "type": "uint256"
        },
        {
          "internalType": "uint16",
          "name": "_dexIndex",
          "type": "uint16"
        }
      ],
      "name": "dexSwap",
      "outputs": [],
      "stateMutability": "nonpayable",
      "type": "function"
    },
    {
      "inputs": [
        {
          "internalType": "address",
          "name": "_assetIn",
          "type": "address"
        },
        {
          "internalType": "address",
          "name": "_assetOut",
          "type": "address"
        },
        {
          "internalType": "uint256",
          "name": "_amountOut",
          "type": "uint256"
        }
      ],
      "name": "getBestPrice",
      "outputs": [
        {
          "components": [
            {
              "internalType": "uint256",
              "name": "price",
              "type": "uint256"
            },
            {
              "internalType": "uint256",
              "name": "ammIndex",
              "type": "uint256"
            }
          ],
          "internalType": "struct Recipe.BestPrice",
          "name": "bestPrice",
          "type": "tuple"
        }
      ],
      "stateMutability": "nonpayable",
      "type": "function"
    },
    {
      "inputs": [
        {
          "internalType": "address",
          "name": "_inputToken",
          "type": "address"
        },
        {
          "internalType": "address",
          "name": "_outputToken",
          "type": "address"
        },
        {
          "internalType": "uint256",
          "name": "_outputAmount",
          "type": "uint256"
        }
      ],
      "name": "getPrice",
      "outputs": [
        {
          "internalType": "uint256",
          "name": "",
          "type": "uint256"
        }
      ],
      "stateMutability": "nonpayable",
      "type": "function"
    },
    {
      "inputs": [
        {
          "internalType": "address",
          "name": "_pie",
          "type": "address"
        },
        {
          "internalType": "uint256",
          "name": "_pieAmount",
          "type": "uint256"
        }
      ],
      "name": "getPricePie",
      "outputs": [
        {
          "internalType": "uint256",
          "name": "",
          "type": "uint256"
        }
      ],
      "stateMutability": "nonpayable",
      "type": "function"
    },
    {
      "inputs": [],
      "name": "owner",
      "outputs": [
        {
          "internalType": "address",
          "name": "",
          "type": "address"
        }
      ],
      "stateMutability": "view",
      "type": "function"
    },
    {
      "inputs": [],
      "name": "renounceOwnership",
      "outputs": [],
      "stateMutability": "nonpayable",
      "type": "function"
    },
    {
      "inputs": [
        {
          "internalType": "address payable",
          "name": "_to",
          "type": "address"
        },
        {
          "internalType": "uint256",
          "name": "_amount",
          "type": "uint256"
        }
      ],
      "name": "saveEth",
      "outputs": [],
      "stateMutability": "nonpayable",
      "type": "function"
    },
    {
      "inputs": [
        {
          "internalType": "address",
          "name": "_token",
          "type": "address"
        },
        {
          "internalType": "address",
          "name": "_to",
          "type": "address"
        },
        {
          "internalType": "uint256",
          "name": "_amount",
          "type": "uint256"
        }
      ],
      "name": "saveToken",
      "outputs": [],
      "stateMutability": "nonpayable",
      "type": "function"
    },
    {
      "inputs": [
        {
          "internalType": "address",
          "name": "_inputAsset",
          "type": "address"
        },
        {
          "internalType": "bytes32",
          "name": "_pool",
          "type": "bytes32"
        }
      ],
      "name": "setBalancerPoolMapping",
      "outputs": [],
      "stateMutability": "nonpayable",
      "type": "function"
    },
    {
      "inputs": [
        {
          "internalType": "address",
          "name": "_outputAsset",
          "type": "address"
        },
        {
          "internalType": "uint16",
          "name": "_Fee",
          "type": "uint16"
        }
      ],
      "name": "setUniPoolMapping",
      "outputs": [],
      "stateMutability": "nonpayable",
      "type": "function"
    },
    {
      "inputs": [
        {
          "internalType": "address",
          "name": "_pie",
          "type": "address"
        },
        {
          "internalType": "uint256",
          "name": "_outputAmount",
          "type": "uint256"
        },
        {
          "internalType": "uint16[]",
          "name": "_dexIndex",
          "type": "uint16[]"
        }
      ],
      "name": "toPie",
      "outputs": [],
      "stateMutability": "payable",
      "type": "function"
    },
    {
      "inputs": [
        {
          "internalType": "address",
          "name": "newOwner",
          "type": "address"
        }
      ],
      "name": "transferOwnership",
      "outputs": [],
      "stateMutability": "nonpayable",
      "type": "function"
    }
  ],
  "bytecode": {
    "object": "0x60e0604052600180546001600160a01b031990811673ba12222222228d8ba445958a75a0704d566bf2c81790915560028054821673b27308f9f90d607463bb33ea1bebb41c27ce5ab617905560038054821673e592427a0aece92de3edee1f18e0157c0586156417905560048054909116731b02da8cb0d097eb8d57a175b88c7d8b479975061790553480156200009557600080fd5b50604051620034d0380380620034d0833981016040819052620000b891620002f6565b620000c33362000289565b6001600160a01b0385166200010b5760405162461bcd60e51b8152602060048201526009602482015268574554485f5a45524f60b81b60448201526064015b60405180910390fd5b6001600160a01b038416620001635760405162461bcd60e51b815260206004820152601460248201527f4c454e44494e475f4d414e414745525f5a45524f000000000000000000000000604482015260640162000102565b6001600160a01b038316620001af5760405162461bcd60e51b81526020600482015260116024820152705049455f52454749535452595f5a45524f60781b604482015260640162000102565b6001600160a01b0385811660805284811660a05283811660c0526040805130602482015283831660448201526001606482015260006084820181905260a4820181905260c48083018290528351808403909101815260e490920183526020820180516001600160e01b031663c0a47c9360e01b17905291519285169262000237919062000366565b60006040518083038185875af1925050503d806000811462000276576040519150601f19603f3d011682016040523d82523d6000602084013e6200027b565b606091505b5050505050505050620003a4565b600080546001600160a01b038381166001600160a01b0319831681178455604051919092169283917f8be0079c531659141344cd1fd0a4f28419497f9722a3daafe3b4186f6b6457e09190a35050565b80516001600160a01b0381168114620002f157600080fd5b919050565b600080600080600060a086880312156200030f57600080fd5b6200031a86620002d9565b94506200032a60208701620002d9565b93506200033a60408701620002d9565b92506200034a60608701620002d9565b91506200035a60808701620002d9565b90509295509295909350565b6000825160005b818110156200038957602081860181015185830152016200036d565b8181111562000399576000828501525b509190910192915050565b60805160a05160c0516130936200043d600039600081816104300152611c4001526000818161069501528181611a9c01526121f101526000818161052e015281816107d6015281816108350152818161086a015281816108b5015281816109320152818161096d015281816117f901528181611864015281816118ba0152818161194b01528181611be50152611eb201526130936000f3fe6080604052600436106100dd5760003560e01c8063bcdf0a921161007f578063dba5c16211610059578063dba5c16214610284578063f2fde38b146102a4578063fc7361f2146102c4578063febf0e25146102d757600080fd5b8063bcdf0a92146101de578063c1a5c7f114610213578063d6d2aedb1461024957600080fd5b80638da5cb5b116100bb5780638da5cb5b14610139578063947b9396146101705780639afdb2c21461019e578063a9dd14d6146101be57600080fd5b8063168a1a60146100e257806327726e7d14610104578063715018a614610124575b600080fd5b3480156100ee57600080fd5b506101026100fd366004612646565b6102f7565b005b34801561011057600080fd5b5061010261011f36600461267b565b610359565b34801561013057600080fd5b506101026103d8565b34801561014557600080fd5b506000546001600160a01b03165b6040516001600160a01b0390911681526020015b60405180910390f35b34801561017c57600080fd5b5061019061018b36600461267b565b61040e565b604051908152602001610167565b3480156101aa57600080fd5b506101026101b93660046126a7565b6105af565b3480156101ca57600080fd5b506101906101d93660046126a7565b610650565b3480156101ea57600080fd5b506101fe6101f93660046127c5565b61082c565b60408051928352602083019190915201610167565b34801561021f57600080fd5b5061015361022e366004612828565b6007602052600090815260409020546001600160a01b031681565b34801561025557600080fd5b506102696102643660046126a7565b610a61565b60408051825181526020928301519281019290925201610167565b34801561029057600080fd5b5061010261029f366004612845565b6110d1565b3480156102b057600080fd5b506101026102bf366004612828565b611751565b6101026102d2366004612896565b6117ec565b3480156102e357600080fd5b506101026102f236600461267b565b6119e4565b6000546001600160a01b0316331461032a5760405162461bcd60e51b8152600401610321906128ef565b60405180910390fd5b6001600160a01b03919091166000908152600660205260409020805461ffff191661ffff909216919091179055565b6000546001600160a01b031633146103835760405162461bcd60e51b8152600401610321906128ef565b6040516001600160a01b038316908290600081818185875af1925050503d80600081146103cc576040519150601f19603f3d011682016040523d82523d6000602084013e6103d1565b606091505b5050505050565b6000546001600160a01b031633146104025760405162461bcd60e51b8152600401610321906128ef565b61040c6000611a2a565b565b60405163e4ec552b60e01b81526001600160a01b0383811660048301526000917f00000000000000000000000000000000000000000000000000000000000000009091169063e4ec552b90602401602060405180830381865afa158015610479573d6000803e3d6000fd5b505050506040513d601f19601f8201168201806040525081019061049d9190612924565b6104a657600080fd5b604051630dc6eaf760e21b81526004810183905260009081906001600160a01b0386169063371babdc90602401600060405180830381865afa1580156104f0573d6000803e3d6000fd5b505050506040513d6000823e601f3d908101601f191682016040526105189190810190612a05565b915091506000805b83518110156105a5576105867f000000000000000000000000000000000000000000000000000000000000000085838151811061055f5761055f612a69565b602002602001015185848151811061057957610579612a69565b6020026020010151610a61565b516105919083612a95565b91508061059d81612aad565b915050610520565b5095945050505050565b6000546001600160a01b031633146105d95760405162461bcd60e51b8152600401610321906128ef565b60405163a9059cbb60e01b81526001600160a01b0384169063a9059cbb906106079085908590600401612ac8565b6020604051808303816000875af1158015610626573d6000803e3d6000fd5b505050506040513d601f19601f8201168201806040525081019061064a9190612924565b50505050565b6000826001600160a01b0316846001600160a01b03161415610673575080610825565b604051632aabce9960e11b81526001600160a01b0384811660048301526000917f0000000000000000000000000000000000000000000000000000000000000000909116906355579d3290602401602060405180830381865afa1580156106de573d6000803e3d6000fd5b505050506040513d601f19601f820116820180604052508101906107029190612ae1565b90506001600160a01b038116156107d457600061071e85611a7a565b60405163dc3b7c8b60e01b81526001600160a01b03878116600483015291925060009183169063dc3b7c8b906024016020604051808303816000875af115801561076c573d6000803e3d6000fd5b505050506040513d601f19601f820116820180604052508101906107909190612afe565b90506000670de0b6b3a76400006107a78388612b17565b6107b19190612b36565b6107bc906001612a95565b90506107c9888583610650565b945050505050610825565b7f00000000000000000000000000000000000000000000000000000000000000006001600160a01b0316856001600160a01b03161461081257600080fd5b600061081f868686610a61565b51925050505b9392505050565b600080856108657f00000000000000000000000000000000000000000000000000000000000000006001600160a01b0316333089611b76565b6108927f000000000000000000000000000000000000000000000000000000000000000088888888611be1565b6040516370a0823160e01b81523060048201529092506000906001600160a01b037f000000000000000000000000000000000000000000000000000000000000000016906370a0823190602401602060405180830381865afa1580156108fc573d6000803e3d6000fd5b505050506040513d601f19601f820116820180604052508101906109209190612afe565b90508015610a42576001600160a01b037f00000000000000000000000000000000000000000000000000000000000000001663a9059cbb336040516370a0823160e01b81523060048201527f00000000000000000000000000000000000000000000000000000000000000006001600160a01b0316906370a0823190602401602060405180830381865afa1580156109bc573d6000803e3d6000fd5b505050506040513d601f19601f820116820180604052508101906109e09190612afe565b6040518363ffffffff1660e01b81526004016109fd929190612ac8565b6020604051808303816000875af1158015610a1c573d6000803e3d6000fd5b505050506040513d601f19601f82011682018060405250810190610a409190612924565b505b610a566001600160a01b0383163385611d33565b505094509492505050565b6040805180820190915260008082526020820152600080600080610a98604051806040016040528060008152602001600081525090565b6001600160a01b03881660009081526006602052604090205461ffff166101f41415610b54576002546040516330d07f2160e01b81526001600160a01b03909116906330d07f2190610af9908c908c906101f4908d90600090600401612b58565b6020604051808303816000875af1925050508015610b34575060408051601f3d908101601f19168201909252610b3191810190612afe565b60015b610b42576000199450610b45565b94505b84815260006020820152610d3c565b6001600160a01b03881660009081526006602052604090205461ffff16610bb81415610c10576002546040516330d07f2160e01b81526001600160a01b03909116906330d07f2190610bb5908c908c90610bb8908d90600090600401612b58565b6020604051808303816000875af1925050508015610bf0575060408051601f3d908101601f19168201909252610bed91810190612afe565b60015b610bfe576000199350610c01565b93505b83815260016020820152610d3c565b6002546040516330d07f2160e01b81526001600160a01b03909116906330d07f2190610c4b908c908c906101f4908d90600090600401612b58565b6020604051808303816000875af1925050508015610c86575060408051601f3d908101601f19168201909252610c8391810190612afe565b60015b610c94576000199450610c97565b94505b8481526000602082018190526002546040516330d07f2160e01b81526001600160a01b03909116916330d07f2191610cdc918d918d91610bb8918e9190600401612b58565b6020604051808303816000875af1925050508015610d17575060408051601f3d908101601f19168201909252610d1491810190612afe565b60015b610d25576000199350610d28565b93505b8051841015610d3c57838152600160208201525b6040805160028082526060820183526000926020830190803683370190505090508981600081518110610d7157610d71612a69565b60200260200101906001600160a01b031690816001600160a01b0316815250508881600181518110610da557610da5612a69565b6001600160a01b039283166020918202929092010152600480546040516307c0329d60e21b8152921691631f00ca7491610de3918c91869101612bd1565b600060405180830381865afa925050508015610e2157506040513d6000823e601f3d908101601f19168201604052610e1e9190810190612bea565b60015b610e2f576000199350610e4e565b80600081518110610e4257610e42612a69565b60200260200101519450505b8151841015610e6257838252600260208301525b6001600160a01b038916600090815260056020526040902054156110c45760408051600280825260608201835260019260009291906020830190803683370190505090508b81600081518110610eba57610eba612a69565b60200260200101906001600160a01b031690816001600160a01b0316815250508a81600181518110610eee57610eee612a69565b6001600160a01b039290921660209283029190910190910152604080516001808252818301909252600091816020015b610f536040518060a0016040528060008019168152602001600081526020016000815260200160008152602001606081525090565b815260200190600190039081610f1e5790505090506040518060a00160405280600560008f6001600160a01b03166001600160a01b0316815260200190815260200160002054815260200160008152602001600181526020018c81526020016040518060200160405280600081525081525081600081518110610fd857610fd8612a69565b602090810291909101810191909152604080516080810182523380825260009382018490528183015260608101929092526001549051637c26833760e11b81526001600160a01b039091169063f84d066e9061103e908790869088908790600401612c99565b6000604051808303816000875af192505050801561107e57506040513d6000823e601f3d908101601f1916820160405261107b9190810190612d8a565b60015b61108c5760001996506110ab565b8060008151811061109f5761109f612a69565b60200260200101519750505b85518710156110bf57868652600460208701525b505050505b5098975050505050505050565b61ffff81166112e55760408051610100810182526001600160a01b038087168252851660208201526101f4918101919091523060608201526000906080810161111b426001612a95565b81526020810185905260001960408083019190915260006060909201829052600354905163095ea7b360e01b81529293506001600160a01b038881169363095ea7b39361116f939092169190600401612ac8565b6020604051808303816000875af115801561118e573d6000803e3d6000fd5b505050506040513d601f19601f820116820180604052508101906111b29190612924565b5060035460405163095ea7b360e01b81526001600160a01b038781169263095ea7b3926111e9929091169060001990600401612ac8565b6020604051808303816000875af1158015611208573d6000803e3d6000fd5b505050506040513d601f19601f8201168201806040525081019061122c9190612924565b5060035460408051631b67c43360e31b815283516001600160a01b0390811660048301526020850151811660248301529184015162ffffff1660448201526060840151821660648201526080840151608482015260a084015160a482015260c084015160c482015260e0840151821660e482015291169063db3e21989061010401600060405180830381600087803b1580156112c757600080fd5b505af11580156112db573d6000803e3d6000fd5b505050505061064a565b8061ffff16600114156113335760408051610100810182526001600160a01b03808716825285166020820152610bb8918101919091523060608201526000906080810161111b426001612a95565b8061ffff166002141561153757604080516002808252606082018352600092602083019080368337019050509050848160008151811061137557611375612a69565b60200260200101906001600160a01b031690816001600160a01b03168152505083816001815181106113a9576113a9612a69565b6001600160a01b0392831660209182029290920101526004805460405163095ea7b360e01b81528884169363095ea7b3936113eb939091169160009101612ac8565b6020604051808303816000875af115801561140a573d6000803e3d6000fd5b505050506040513d601f19601f8201168201806040525081019061142e9190612924565b506004805460405163095ea7b360e01b81526001600160a01b038089169363095ea7b393611463939216916000199101612ac8565b6020604051808303816000875af1158015611482573d6000803e3d6000fd5b505050506040513d601f19601f820116820180604052508101906114a69190612924565b506004546001600160a01b0316638803dbee8460001984306114c9426001612a95565b6040518663ffffffff1660e01b81526004016114e9959493929190612e10565b6000604051808303816000875af1158015611508573d6000803e3d6000fd5b505050506040513d6000823e601f3d908101601f191682016040526115309190810190612bea565b505061064a565b8061ffff1660031415611732576040805160c0810182526001600160a01b0385811660008181526005602090815285822054855260018186018190528a851686880181905260608088019590955260808088018b905288518085018a5285815260a08901528851908101895230808252938101859052808901939093529382018390528054965163095ea7b360e01b81529096919463095ea7b3936115e29390911691600401612ac8565b6020604051808303816000875af1158015611601573d6000803e3d6000fd5b505050506040513d601f19601f820116820180604052508101906116259190612924565b5060015460405163095ea7b360e01b81526001600160a01b038981169263095ea7b39261165c929091169060001990600401612ac8565b6020604051808303816000875af115801561167b573d6000803e3d6000fd5b505050506040513d601f19601f8201168201806040525081019061169f9190612924565b50600180546001600160a01b0316906352bbbe299084908490600019906116c7904290612a95565b6040518563ffffffff1660e01b81526004016116e69493929190612e4c565b6020604051808303816000875af1158015611705573d6000803e3d6000fd5b505050506040513d601f19601f820116820180604052508101906117299190612afe565b5050505061064a565b604051630b58ac0560e21b815261ffff82166004820152602401610321565b6000546001600160a01b0316331461177b5760405162461bcd60e51b8152600401610321906128ef565b6001600160a01b0381166117e05760405162461bcd60e51b815260206004820152602660248201527f4f776e61626c653a206e6577206f776e657220697320746865207a65726f206160448201526564647265737360d01b6064820152608401610321565b6117e981611a2a565b50565b6040516001600160a01b037f000000000000000000000000000000000000000000000000000000000000000016903490600081818185875af1925050503d8060008114611855576040519150601f19603f3d011682016040523d82523d6000602084013e61185a565b606091505b505050600061188c7f000000000000000000000000000000000000000000000000000000000000000085348686611be1565b90506118a26001600160a01b0385163383611d33565b6040516370a0823160e01b81523060048201526000907f00000000000000000000000000000000000000000000000000000000000000006001600160a01b0316906370a0823190602401602060405180830381865afa158015611909573d6000803e3d6000fd5b505050506040513d601f19601f8201168201806040525081019061192d9190612afe565b905080156103d157604051632e1a7d4d60e01b8152600481018290527f00000000000000000000000000000000000000000000000000000000000000006001600160a01b031690632e1a7d4d90602401600060405180830381600087803b15801561199757600080fd5b505af11580156119ab573d6000803e3d6000fd5b505060405133925083156108fc02915083906000818181858888f193505050501580156119dc573d6000803e3d6000fd5b505050505050565b6000546001600160a01b03163314611a0e5760405162461bcd60e51b8152600401610321906128ef565b6001600160a01b03909116600090815260056020526040902055565b600080546001600160a01b038381166001600160a01b0319831681178455604051919092169283917f8be0079c531659141344cd1fd0a4f28419497f9722a3daafe3b4186f6b6457e09190a35050565b604051632df6e47f60e21b81526001600160a01b0382811660048301526000917f00000000000000000000000000000000000000000000000000000000000000009091169063f8b7f42290829063b7db91fc90602401602060405180830381865afa158015611aed573d6000803e3d6000fd5b505050506040513d601f19601f82011682018060405250810190611b119190612afe565b6040518263ffffffff1660e01b8152600401611b2f91815260200190565b602060405180830381865afa158015611b4c573d6000803e3d6000fd5b505050506040513d601f19601f82011682018060405250810190611b709190612ae1565b92915050565b6040516001600160a01b038085166024830152831660448201526064810182905261064a9085906323b872dd60e01b906084015b60408051601f198184030181529190526020810180516001600160e01b03166001600160e01b031990931692909217909152611d57565b60007f00000000000000000000000000000000000000000000000000000000000000006001600160a01b0316866001600160a01b031614611c2157600080fd5b60405163e4ec552b60e01b81526001600160a01b0386811660048301527f0000000000000000000000000000000000000000000000000000000000000000169063e4ec552b90602401602060405180830381865afa158015611c87573d6000803e3d6000fd5b505050506040513d601f19601f82011682018060405250810190611cab9190612924565b611cb457600080fd5b611cbf858484611e29565b6040516370a0823160e01b81523060048201526001600160a01b038616906370a0823190602401602060405180830381865afa158015611d03573d6000803e3d6000fd5b505050506040513d601f19601f82011682018060405250810190611d279190612afe565b90505b95945050505050565b611d528363a9059cbb60e01b8484604051602401611baa929190612ac8565b505050565b6000611dac826040518060400160405280602081526020017f5361666545524332303a206c6f772d6c6576656c2063616c6c206661696c6564815250856001600160a01b03166121999092919063ffffffff16565b805190915015611d525780806020019051810190611dca9190612924565b611d525760405162461bcd60e51b815260206004820152602a60248201527f5361666545524332303a204552433230206f7065726174696f6e20646964206e6044820152691bdd081cdd58d8d9595960b21b6064820152608401610321565b604051630dc6eaf760e21b815260048101839052839060009081906001600160a01b0384169063371babdc90602401600060405180830381865afa158015611e75573d6000803e3d6000fd5b505050506040513d6000823e601f3d908101601f19168201604052611e9d9190810190612a05565b9150915060005b825181101561213657611f247f0000000000000000000000000000000000000000000000000000000000000000848381518110611ee357611ee3612a69565b6020026020010151848481518110611efd57611efd612a69565b6020026020010151888581518110611f1757611f17612a69565b60200260200101516121b0565b6000838281518110611f3857611f38612a69565b60200260200101519050806001600160a01b031663095ea7b38960006040518363ffffffff1660e01b8152600401611f71929190612ac8565b6020604051808303816000875af1158015611f90573d6000803e3d6000fd5b505050506040513d601f19601f82011682018060405250810190611fb49190612924565b50806001600160a01b031663095ea7b389858581518110611fd757611fd7612a69565b60200260200101516040518363ffffffff1660e01b8152600401611ffc929190612ac8565b6020604051808303816000875af115801561201b573d6000803e3d6000fd5b505050506040513d601f19601f8201168201806040525081019061203f9190612924565b506040516370a0823160e01b81523060048201526001600160a01b038216906370a0823190602401602060405180830381865afa158015612084573d6000803e3d6000fd5b505050506040513d601f19601f820116820180604052508101906120a89190612afe565b8383815181106120ba576120ba612a69565b602002602001015111156121235760405162461bcd60e51b815260206004820152602a60248201527f57652061726520747279696e6720746f206465706f736974206d6f7265207468604482015269656e207765206861766560b01b6064820152608401610321565b508061212e81612aad565b915050611ea4565b506040516334e7a19f60e01b8152600481018690526001600160a01b038416906334e7a19f90602401600060405180830381600087803b15801561217957600080fd5b505af115801561218d573d6000803e3d6000fd5b50505050505050505050565b60606121a884846000856124b0565b949350505050565b826001600160a01b0316846001600160a01b031614156121cf5761064a565b604051632aabce9960e11b81526001600160a01b0384811660048301526000917f0000000000000000000000000000000000000000000000000000000000000000909116906355579d3290602401602060405180830381865afa15801561223a573d6000803e3d6000fd5b505050506040513d601f19601f8201168201806040525081019061225e9190612ae1565b90506001600160a01b038116156124a457600061227a85611a7a565b60405163dc3b7c8b60e01b81526001600160a01b03878116600483015291925060009183169063dc3b7c8b906024016020604051808303816000875af11580156122c8573d6000803e3d6000fd5b505050506040513d601f19601f820116820180604052508101906122ec9190612afe565b90506000670de0b6b3a76400006123038388612b17565b61230d9190612b36565b612318906001612a95565b9050612326888583886121b0565b604051633d8e221960e11b81526001600160a01b038581166004830152602482018390523060448301526000918291861690637b1c443290606401600060405180830381865afa15801561237e573d6000803e3d6000fd5b505050506040513d6000823e601f3d908101601f191682016040526123a69190810190612f07565b9150915060005b82518110156124985760008382815181106123ca576123ca612a69565b60200260200101516001600160a01b031660008484815181106123ef576123ef612a69565b6020026020010151604051612404919061302e565b60006040518083038185875af1925050503d8060008114612441576040519150601f19603f3d011682016040523d82523d6000602084013e612446565b606091505b50509050806124855760405162461bcd60e51b815260206004820152600b60248201526a10d0531317d1905253115160aa1b6044820152606401610321565b508061249081612aad565b9150506123ad565b5050505050505061064a565b6103d1858585856110d1565b6060824710156125115760405162461bcd60e51b815260206004820152602660248201527f416464726573733a20696e73756666696369656e742062616c616e636520666f6044820152651c8818d85b1b60d21b6064820152608401610321565b6001600160a01b0385163b6125685760405162461bcd60e51b815260206004820152601d60248201527f416464726573733a2063616c6c20746f206e6f6e2d636f6e74726163740000006044820152606401610321565b600080866001600160a01b03168587604051612584919061302e565b60006040518083038185875af1925050503d80600081146125c1576040519150601f19603f3d011682016040523d82523d6000602084013e6125c6565b606091505b50915091506125d68282866125e1565b979650505050505050565b606083156125f0575081610825565b8251156126005782518084602001fd5b8160405162461bcd60e51b8152600401610321919061304a565b6001600160a01b03811681146117e957600080fd5b803561ffff8116811461264157600080fd5b919050565b6000806040838503121561265957600080fd5b82356126648161261a565b91506126726020840161262f565b90509250929050565b6000806040838503121561268e57600080fd5b82356126998161261a565b946020939093013593505050565b6000806000606084860312156126bc57600080fd5b83356126c78161261a565b925060208401356126d78161261a565b929592945050506040919091013590565b634e487b7160e01b600052604160045260246000fd5b604051601f8201601f1916810167ffffffffffffffff81118282101715612727576127276126e8565b604052919050565b600067ffffffffffffffff821115612749576127496126e8565b5060051b60200190565b600082601f83011261276457600080fd5b813560206127796127748361272f565b6126fe565b82815260059290921b8401810191818101908684111561279857600080fd5b8286015b848110156127ba576127ad8161262f565b835291830191830161279c565b509695505050505050565b600080600080608085870312156127db57600080fd5b84356127e68161261a565b93506020850135925060408501359150606085013567ffffffffffffffff81111561281057600080fd5b61281c87828801612753565b91505092959194509250565b60006020828403121561283a57600080fd5b81356108258161261a565b6000806000806080858703121561285b57600080fd5b84356128668161261a565b935060208501356128768161261a565b92506040850135915061288b6060860161262f565b905092959194509250565b6000806000606084860312156128ab57600080fd5b83356128b68161261a565b925060208401359150604084013567ffffffffffffffff8111156128d957600080fd5b6128e586828701612753565b9150509250925092565b6020808252818101527f4f776e61626c653a2063616c6c6572206973206e6f7420746865206f776e6572604082015260600190565b60006020828403121561293657600080fd5b8151801515811461082557600080fd5b600082601f83011261295757600080fd5b815160206129676127748361272f565b82815260059290921b8401810191818101908684111561298657600080fd5b8286015b848110156127ba57805161299d8161261a565b835291830191830161298a565b600082601f8301126129bb57600080fd5b815160206129cb6127748361272f565b82815260059290921b840181019181810190868411156129ea57600080fd5b8286015b848110156127ba57805183529183019183016129ee565b60008060408385031215612a1857600080fd5b825167ffffffffffffffff80821115612a3057600080fd5b612a3c86838701612946565b93506020850151915080821115612a5257600080fd5b50612a5f858286016129aa565b9150509250929050565b634e487b7160e01b600052603260045260246000fd5b634e487b7160e01b600052601160045260246000fd5b60008219821115612aa857612aa8612a7f565b500190565b6000600019821415612ac157612ac1612a7f565b5060010190565b6001600160a01b03929092168252602082015260400190565b600060208284031215612af357600080fd5b81516108258161261a565b600060208284031215612b1057600080fd5b5051919050565b6000816000190483118215151615612b3157612b31612a7f565b500290565b600082612b5357634e487b7160e01b600052601260045260246000fd5b500490565b6001600160a01b039586168152938516602085015262ffffff9290921660408401526060830152909116608082015260a00190565b600081518084526020808501945080840160005b83811015612bc65781516001600160a01b031687529582019590820190600101612ba1565b509495945050505050565b8281526040602082015260006121a86040830184612b8d565b600060208284031215612bfc57600080fd5b815167ffffffffffffffff811115612c1357600080fd5b6121a8848285016129aa565b60028110612c3d57634e487b7160e01b600052602160045260246000fd5b9052565b60005b83811015612c5c578181015183820152602001612c44565b8381111561064a5750506000910152565b60008151808452612c85816020860160208601612c41565b601f01601f19169290920160200192915050565b600060e08201612ca98388612c1f565b602060e08185015281875180845261010093508386019150838160051b870101935082890160005b82811015612d335787860360ff190184528151805187528581015186880152604080820151908801526060808201519088015260809081015160a091880182905290612d1f81890183612c6d565b975050509284019290840190600101612cd1565b50505050508281036040840152612d4a8186612b8d565b915050611d2a606083018480516001600160a01b039081168352602080830151151590840152604080830151909116908301526060908101511515910152565b60006020808385031215612d9d57600080fd5b825167ffffffffffffffff811115612db457600080fd5b8301601f81018513612dc557600080fd5b8051612dd36127748261272f565b81815260059190911b82018301908381019087831115612df257600080fd5b928401925b828410156125d657835182529284019290840190612df7565b85815284602082015260a060408201526000612e2f60a0830186612b8d565b6001600160a01b0394909416606083015250608001529392505050565b60e08152845160e082015260006020860151612e6c610100840182612c1f565b5060408601516001600160a01b03908116610120840152606087015116610140830152608086015161016083015260a086015160c0610180840152612eb56101a0840182612c6d565b915050612ef5602083018680516001600160a01b039081168352602080830151151590840152604080830151909116908301526060908101511515910152565b60a082019390935260c0015292915050565b6000806040808486031215612f1b57600080fd5b835167ffffffffffffffff80821115612f3357600080fd5b612f3f87838801612946565b9450602091508186015181811115612f5657600080fd5b8601601f8082018913612f6857600080fd5b8151612f766127748261272f565b81815260059190911b8301850190858101908b831115612f9557600080fd5b8685015b8381101561301b57805187811115612fb15760008081fd5b8601603f81018e13612fc35760008081fd5b8881015188811115612fd757612fd76126e8565b612fe8818801601f19168b016126fe565b8181528f8c838501011115612ffd5760008081fd5b61300c828c83018e8601612c41565b85525050918701918701612f99565b5080985050505050505050509250929050565b60008251613040818460208701612c41565b9190910192915050565b6020815260006108256020830184612c6d56fea26469706673582212208811b2a4571d97e394e2461bc94eea3e05674e274a359b9bae71b90f7e095cdf64736f6c634300080c0033",
    "linkReferences": {}
  }
}