{
  "abi": [
    {
      "inputs": [
        {
          "internalType": "address",
          "name": "_weth",
          "type": "address"
        },
        {
          "internalType": "address",
          "name": "_sushiRouter",
          "type": "address"
        },
        {
          "internalType": "address",
          "name": "_lendingRegistry",
          "type": "address"
        },
        {
          "internalType": "address",
          "name": "_pieRegistry",
          "type": "address"
        },
        {
          "internalType": "address",
          "name": "_bentoBox",
          "type": "address"
        },
        {
          "internalType": "address",
          "name": "_masterKontract",
          "type": "address"
        }
      ],
      "stateMutability": "nonpayable",
      "type": "constructor"
    },
    {
      "anonymous": false,
      "inputs": [
        {
          "indexed": true,
          "internalType": "address",
          "name": "_token",
          "type": "address"
        },
        {
          "indexed": true,
          "internalType": "address",
          "name": "_hop",
          "type": "address"
        }
      ],
      "name": "HopUpdated",
      "type": "event"
    },
    {
      "anonymous": false,
      "inputs": [
        {
          "indexed": true,
          "internalType": "address",
          "name": "previousOwner",
          "type": "address"
        },
        {
          "indexed": true,
          "internalType": "address",
          "name": "newOwner",
          "type": "address"
        }
      ],
      "name": "OwnershipTransferred",
      "type": "event"
    },
    {
      "inputs": [
        {
          "internalType": "address",
          "name": "_inputToken",
          "type": "address"
        },
        {
          "internalType": "address",
          "name": "_outputToken",
          "type": "address"
        },
        {
          "internalType": "uint256",
          "name": "_maxInput",
          "type": "uint256"
        },
        {
          "internalType": "bytes",
          "name": "_data",
          "type": "bytes"
        }
      ],
      "name": "bake",
      "outputs": [
        {
          "internalType": "uint256",
          "name": "inputAmountUsed",
          "type": "uint256"
        },
        {
          "internalType": "uint256",
          "name": "outputAmount",
          "type": "uint256"
        }
      ],
      "stateMutability": "nonpayable",
      "type": "function"
    },
    {
      "inputs": [
        {
          "internalType": "address",
          "name": "_pie",
          "type": "address"
        },
        {
          "internalType": "uint256",
          "name": "_poolAmount",
          "type": "uint256"
        }
      ],
      "name": "calcToPie",
      "outputs": [
        {
          "internalType": "uint256",
          "name": "",
          "type": "uint256"
        }
      ],
      "stateMutability": "nonpayable",
      "type": "function"
    },
    {
      "inputs": [
        {
          "internalType": "address",
          "name": "",
          "type": "address"
        }
      ],
      "name": "customHops",
      "outputs": [
        {
          "internalType": "address",
          "name": "hop",
          "type": "address"
        }
      ],
      "stateMutability": "view",
      "type": "function"
    },
    {
      "inputs": [
        {
          "internalType": "uint256",
          "name": "_outputAmount",
          "type": "uint256"
        }
      ],
      "name": "encodeData",
      "outputs": [
        {
          "internalType": "bytes",
          "name": "",
          "type": "bytes"
        }
      ],
      "stateMutability": "pure",
      "type": "function"
    },
    {
      "inputs": [
        {
          "internalType": "address",
          "name": "_inputToken",
          "type": "address"
        },
        {
          "internalType": "address",
          "name": "_outputToken",
          "type": "address"
        },
        {
          "internalType": "uint256",
          "name": "_outputAmount",
          "type": "uint256"
        }
      ],
      "name": "getPrice",
      "outputs": [
        {
          "internalType": "uint256",
          "name": "",
          "type": "uint256"
        }
      ],
      "stateMutability": "nonpayable",
      "type": "function"
    },
    {
      "inputs": [],
      "name": "owner",
      "outputs": [
        {
          "internalType": "address",
          "name": "",
          "type": "address"
        }
      ],
      "stateMutability": "view",
      "type": "function"
    },
    {
      "inputs": [],
      "name": "renounceOwnership",
      "outputs": [],
      "stateMutability": "nonpayable",
      "type": "function"
    },
    {
      "inputs": [
        {
          "internalType": "address payable",
          "name": "_to",
          "type": "address"
        },
        {
          "internalType": "uint256",
          "name": "_amount",
          "type": "uint256"
        }
      ],
      "name": "saveEth",
      "outputs": [],
      "stateMutability": "nonpayable",
      "type": "function"
    },
    {
      "inputs": [
        {
          "internalType": "address",
          "name": "_token",
          "type": "address"
        },
        {
          "internalType": "address",
          "name": "_to",
          "type": "address"
        },
        {
          "internalType": "uint256",
          "name": "_amount",
          "type": "uint256"
        }
      ],
      "name": "saveToken",
      "outputs": [],
      "stateMutability": "nonpayable",
      "type": "function"
    },
    {
      "inputs": [
        {
          "internalType": "address",
          "name": "_token",
          "type": "address"
        },
        {
          "internalType": "address",
          "name": "_hop",
          "type": "address"
        }
      ],
      "name": "setCustomHop",
      "outputs": [],
      "stateMutability": "nonpayable",
      "type": "function"
    },
    {
      "inputs": [
        {
          "internalType": "address",
          "name": "_pie",
          "type": "address"
        },
        {
          "internalType": "uint256",
          "name": "_outputAmount",
          "type": "uint256"
        }
      ],
      "name": "toPie",
      "outputs": [],
      "stateMutability": "payable",
      "type": "function"
    },
    {
      "inputs": [
        {
          "internalType": "address",
          "name": "newOwner",
          "type": "address"
        }
      ],
      "name": "transferOwnership",
      "outputs": [],
      "stateMutability": "nonpayable",
      "type": "function"
    }
  ],
  "bytecode": {
    "object": "0x6101006040523480156200001257600080fd5b5060405162002d1438038062002d148339810160408190526200003591620002c6565b620000403362000259565b6001600160a01b038616620000885760405162461bcd60e51b8152602060048201526009602482015268574554485f5a45524f60b81b60448201526064015b60405180910390fd5b6001600160a01b038516620000d45760405162461bcd60e51b815260206004820152601160248201527053555348495f524f555445525f5a45524f60781b60448201526064016200007f565b6001600160a01b0384166200012c5760405162461bcd60e51b815260206004820152601460248201527f4c454e44494e475f4d414e414745525f5a45524f00000000000000000000000060448201526064016200007f565b6001600160a01b038316620001785760405162461bcd60e51b81526020600482015260116024820152705049455f52454749535452595f5a45524f60781b60448201526064016200007f565b6001600160a01b0386811660805285811660a05284811660c05283811660e0526040805130602482015283831660448201526001606482015260006084820181905260a4820181905260c48083018290528351808403909101815260e490920183526020820180516001600160e01b031663c0a47c9360e01b17905291519285169262000206919062000347565b60006040518083038185875af1925050503d806000811462000245576040519150601f19603f3d011682016040523d82523d6000602084013e6200024a565b606091505b50505050505050505062000385565b600080546001600160a01b038381166001600160a01b0319831681178455604051919092169283917f8be0079c531659141344cd1fd0a4f28419497f9722a3daafe3b4186f6b6457e09190a35050565b80516001600160a01b0381168114620002c157600080fd5b919050565b60008060008060008060c08789031215620002e057600080fd5b620002eb87620002a9565b9550620002fb60208801620002a9565b94506200030b60408801620002a9565b93506200031b60608801620002a9565b92506200032b60808801620002a9565b91506200033b60a08801620002a9565b90509295509295509295565b6000825160005b818110156200036a57602081860181015185830152016200034e565b818111156200037a576000828501525b509190910192915050565b60805160a05160c05160e05161288a6200048a60003960008181610a2201526112250152600081816108c401528181610e3d01526112c1015260008181611026015281816116db01528181611773015281816117fb01528181611fdd0152818161207501526120fd01526000818161030201528181610590015281816105ba01528181610632015281816106870152818161071801528181610aa201528181610adf01528181610b1801528181610b5501528181610b9601528181610bc701528181610fa30152818161114a01528181611188015281816111b6015281816111e00152818161192a01528181611c2701528181611c640152611cf5015261288a6000f3fe6080604052600436106100a75760003560e01c80638da5cb5b116100645780638da5cb5b1461017e5780639afdb2c2146101b0578063a7521a89146101d0578063a9dd14d6146101fd578063c1a5c7f11461021d578063f2fde38b1461025357600080fd5b806327726e7d146100ac578063335d15e3146100ce578063412c9547146101015780634ec8f6ae14610136578063715018a614610156578063731dae7e1461016b575b600080fd5b3480156100b857600080fd5b506100cc6100c7366004612181565b610273565b005b3480156100da57600080fd5b506100ee6100e9366004612181565b6102fb565b6040519081526020015b60405180910390f35b34801561010d57600080fd5b5061012161011c36600461221c565b61032f565b604080519283526020830191909152016100f8565b34801561014257600080fd5b506100cc6101513660046122cb565b6104ed565b34801561016257600080fd5b506100cc610553565b6100cc610179366004612181565b610589565b34801561018a57600080fd5b506000546001600160a01b03165b6040516001600160a01b0390911681526020016100f8565b3480156101bc57600080fd5b506100cc6101cb366004612304565b6107b1565b3480156101dc57600080fd5b506101f06101eb366004612345565b610854565b6040516100f891906123b6565b34801561020957600080fd5b506100ee610218366004612304565b61087f565b34801561022957600080fd5b506101986102383660046123c9565b6001602052600090815260409020546001600160a01b031681565b34801561025f57600080fd5b506100cc61026e3660046123c9565b610c10565b6000546001600160a01b031633146102a65760405162461bcd60e51b815260040161029d906123e6565b60405180910390fd5b6040516001600160a01b038316908290600081818185875af1925050503d80600081146102ef576040519150601f19603f3d011682016040523d82523d6000602084013e6102f4565b606091505b5050505050565b60006103287f0000000000000000000000000000000000000000000000000000000000000000848461087f565b9392505050565b60008085856103496001600160a01b038316333089610cab565b60008580602001905181019061035f919061241b565b905061036d89898984610d16565b6040516370a0823160e01b81523060048201529094506000906001600160a01b038516906370a0823190602401602060405180830381865afa1580156103b7573d6000803e3d6000fd5b505050506040513d601f19601f820116820180604052508101906103db919061241b565b905080156104cc576001600160a01b03841663a9059cbb336040516370a0823160e01b81523060048201526001600160a01b038816906370a0823190602401602060405180830381865afa158015610437573d6000803e3d6000fd5b505050506040513d601f19601f8201168201806040525081019061045b919061241b565b6040516001600160e01b031960e085901b1681526001600160a01b03909216600483015260248201526044016020604051808303816000875af11580156104a6573d6000803e3d6000fd5b505050506040513d601f19601f820116820180604052508101906104ca9190612434565b505b6104e06001600160a01b0384163387610d96565b5050505094509492505050565b6000546001600160a01b031633146105175760405162461bcd60e51b815260040161029d906123e6565b60408051602080820183526001600160a01b039384168252938316600090815260019094529220915182546001600160a01b0319169116179055565b6000546001600160a01b0316331461057d5760405162461bcd60e51b815260040161029d906123e6565b6105876000610dcb565b565b60006105b67f0000000000000000000000000000000000000000000000000000000000000000848461087f565b90507f00000000000000000000000000000000000000000000000000000000000000006001600160a01b03163460405160006040518083038185875af1925050503d8060008114610623576040519150601f19603f3d011682016040523d82523d6000602084013e610628565b606091505b50505060006106597f0000000000000000000000000000000000000000000000000000000000000000853486610d16565b905061066f6001600160a01b0385163383610d96565b6040516370a0823160e01b81523060048201526000907f00000000000000000000000000000000000000000000000000000000000000006001600160a01b0316906370a0823190602401602060405180830381865afa1580156106d6573d6000803e3d6000fd5b505050506040513d601f19601f820116820180604052508101906106fa919061241b565b905080156102f457604051632e1a7d4d60e01b8152600481018290527f00000000000000000000000000000000000000000000000000000000000000006001600160a01b031690632e1a7d4d90602401600060405180830381600087803b15801561076457600080fd5b505af1158015610778573d6000803e3d6000fd5b505060405133925083156108fc02915083906000818181858888f193505050501580156107a9573d6000803e3d6000fd5b505050505050565b6000546001600160a01b031633146107db5760405162461bcd60e51b815260040161029d906123e6565b60405163a9059cbb60e01b81526001600160a01b0383811660048301526024820183905284169063a9059cbb906044016020604051808303816000875af115801561082a573d6000803e3d6000fd5b505050506040513d601f19601f8201168201806040525081019061084e9190612434565b50505050565b60608160405160200161086991815260200190565b6040516020818303038152906040529050919050565b6000826001600160a01b0316846001600160a01b031614156108a2575080610328565b604051632aabce9960e11b81526001600160a01b0384811660048301526000917f0000000000000000000000000000000000000000000000000000000000000000909116906355579d3290602401602060405180830381865afa15801561090d573d6000803e3d6000fd5b505050506040513d601f19601f820116820180604052508101906109319190612456565b90506001600160a01b03811615610a0357600061094d85610e1b565b60405163dc3b7c8b60e01b81526001600160a01b03878116600483015291925060009183169063dc3b7c8b906024016020604051808303816000875af115801561099b573d6000803e3d6000fd5b505050506040513d601f19601f820116820180604052508101906109bf919061241b565b90506000670de0b6b3a76400006109d68388612489565b6109e091906124a8565b6109eb9060016124ca565b90506109f888858361087f565b945050505050610328565b60405163e4ec552b60e01b81526001600160a01b0385811660048301527f0000000000000000000000000000000000000000000000000000000000000000169063e4ec552b90602401602060405180830381865afa158015610a69573d6000803e3d6000fd5b505050506040513d601f19601f82011682018060405250810190610a8d9190612434565b15610b16576000610a9e8585610f17565b90507f00000000000000000000000000000000000000000000000000000000000000006001600160a01b0316866001600160a01b031614610b0d57610b04867f00000000000000000000000000000000000000000000000000000000000000008361087f565b92505050610328565b91506103289050565b7f00000000000000000000000000000000000000000000000000000000000000006001600160a01b0316856001600160a01b031614158015610b8a57507f00000000000000000000000000000000000000000000000000000000000000006001600160a01b0316846001600160a01b031614155b15610bf8576000610bbc7f00000000000000000000000000000000000000000000000000000000000000008686611019565b5090506000610bec877f000000000000000000000000000000000000000000000000000000000000000084611019565b50935061032892505050565b6000610c05868686611019565b509695505050505050565b6000546001600160a01b03163314610c3a5760405162461bcd60e51b815260040161029d906123e6565b6001600160a01b038116610c9f5760405162461bcd60e51b815260206004820152602660248201527f4f776e61626c653a206e6577206f776e657220697320746865207a65726f206160448201526564647265737360d01b606482015260840161029d565b610ca881610dcb565b50565b6040516001600160a01b038085166024830152831660448201526064810182905261084e9085906323b872dd60e01b906084015b60408051601f198184030181529190526020810180516001600160e01b03166001600160e01b031990931692909217909152611057565b6000610d23858584611129565b6040516370a0823160e01b81523060048201526001600160a01b038516906370a0823190602401602060405180830381865afa158015610d67573d6000803e3d6000fd5b505050506040513d601f19601f82011682018060405250810190610d8b919061241b565b90505b949350505050565b6040516001600160a01b038316602482015260448101829052610dc690849063a9059cbb60e01b90606401610cdf565b505050565b600080546001600160a01b038381166001600160a01b0319831681178455604051919092169283917f8be0079c531659141344cd1fd0a4f28419497f9722a3daafe3b4186f6b6457e09190a35050565b604051632df6e47f60e21b81526001600160a01b0382811660048301526000917f00000000000000000000000000000000000000000000000000000000000000009091169063f8b7f42290829063b7db91fc90602401602060405180830381865afa158015610e8e573d6000803e3d6000fd5b505050506040513d601f19601f82011682018060405250810190610eb2919061241b565b6040518263ffffffff1660e01b8152600401610ed091815260200190565b602060405180830381865afa158015610eed573d6000803e3d6000fd5b505050506040513d601f19601f82011682018060405250810190610f119190612456565b92915050565b604051630dc6eaf760e21b8152600481018290526000908390829081906001600160a01b0384169063371babdc90602401600060405180830381865afa158015610f65573d6000803e3d6000fd5b505050506040513d6000823e601f3d908101601f19168201604052610f8d91908101906125c5565b915091506000805b8351811015610c0557610ffb7f0000000000000000000000000000000000000000000000000000000000000000858381518110610fd457610fd4612629565b6020026020010151858481518110610fee57610fee612629565b602002602001015161087f565b61100590836124ca565b9150806110118161263f565b915050610f95565b600080600061104a8686867f000000000000000000000000000000000000000000000000000000000000000061157e565b9660019650945050505050565b60006110ac826040518060400160405280602081526020017f5361666545524332303a206c6f772d6c6576656c2063616c6c206661696c6564815250856001600160a01b03166116489092919063ffffffff16565b805190915015610dc657808060200190518101906110ca9190612434565b610dc65760405162461bcd60e51b815260206004820152602a60248201527f5361666545524332303a204552433230206f7065726174696f6e20646964206e6044820152691bdd081cdd58d8d9595960b21b606482015260840161029d565b816001600160a01b0316836001600160a01b0316141561114857505050565b7f00000000000000000000000000000000000000000000000000000000000000006001600160a01b0316836001600160a01b0316146112065760006111ae7f0000000000000000000000000000000000000000000000000000000000000000848461087f565b90506111db847f000000000000000000000000000000000000000000000000000000000000000083611657565b61084e7f00000000000000000000000000000000000000000000000000000000000000008484611129565b60405163e4ec552b60e01b81526001600160a01b0383811660048301527f0000000000000000000000000000000000000000000000000000000000000000169063e4ec552b90602401602060405180830381865afa15801561126c573d6000803e3d6000fd5b505050506040513d601f19601f820116820180604052508101906112909190612434565b1561129f57610dc682826118a1565b604051632aabce9960e11b81526001600160a01b0383811660048301526000917f0000000000000000000000000000000000000000000000000000000000000000909116906355579d3290602401602060405180830381865afa15801561130a573d6000803e3d6000fd5b505050506040513d601f19601f8201168201806040525081019061132e9190612456565b90506001600160a01b0381161561157357600061134a84610e1b565b60405163dc3b7c8b60e01b81526001600160a01b03868116600483015291925060009183169063dc3b7c8b906024016020604051808303816000875af1158015611398573d6000803e3d6000fd5b505050506040513d601f19601f820116820180604052508101906113bc919061241b565b90506000670de0b6b3a76400006113d38387612489565b6113dd91906124a8565b6113e89060016124ca565b90506113f5878583611129565b604051633d8e221960e11b81526001600160a01b038581166004830152602482018390523060448301526000918291861690637b1c443290606401600060405180830381865afa15801561144d573d6000803e3d6000fd5b505050506040513d6000823e601f3d908101601f19168201604052611475919081019061265a565b9150915060005b825181101561156757600083828151811061149957611499612629565b60200260200101516001600160a01b031660008484815181106114be576114be612629565b60200260200101516040516114d3919061276a565b60006040518083038185875af1925050503d8060008114611510576040519150601f19603f3d011682016040523d82523d6000602084013e611515565b606091505b50509050806115545760405162461bcd60e51b815260206004820152600b60248201526a10d0531317d1905253115160aa1b604482015260640161029d565b508061155f8161263f565b91505061147c565b50505050505050505050565b61084e848484611657565b6000836001600160a01b0316856001600160a01b031614156115a1575081610d8e565b816001600160a01b0316631f00ca74846115bd88886000611c23565b6040518363ffffffff1660e01b81526004016115da9291906127ca565b600060405180830381865afa92505050801561161857506040513d6000823e601f3d908101601f1916820160405261161591908101906127e3565b60015b6116255750600019610d8e565b8060008151811061163857611638612629565b6020026020010151915050610d8e565b6060610d8e8484600085611e87565b6001600160a01b038083166000818152600160209081526040918290208251918201909252905483168152859290919083161415611696575050505050565b80516001600160a01b0316156116b6576102f48582600001518686611fb8565b60006116c486866000611c23565b60405163095ea7b360e01b81526001600160a01b037f000000000000000000000000000000000000000000000000000000000000000081166004830152600060248301529192509084169063095ea7b3906044016020604051808303816000875af1158015611737573d6000803e3d6000fd5b505050506040513d601f19601f8201168201806040525081019061175b9190612434565b5060405163095ea7b360e01b81526001600160a01b037f000000000000000000000000000000000000000000000000000000000000000081166004830152600019602483015284169063095ea7b3906044016020604051808303816000875af11580156117cc573d6000803e3d6000fd5b505050506040513d601f19601f820116820180604052508101906117f09190612434565b506001600160a01b037f000000000000000000000000000000000000000000000000000000000000000016638803dbee8560001984306118314260016124ca565b6040518663ffffffff1660e01b8152600401611851959493929190612818565b6000604051808303816000875af1158015611870573d6000803e3d6000fd5b505050506040513d6000823e601f3d908101601f1916820160405261189891908101906127e3565b50505050505050565b604051630dc6eaf760e21b815260048101829052829060009081906001600160a01b0384169063371babdc90602401600060405180830381865afa1580156118ed573d6000803e3d6000fd5b505050506040513d6000823e601f3d908101601f1916820160405261191591908101906125c5565b9150915060005b8251811015611bc15761198e7f000000000000000000000000000000000000000000000000000000000000000084838151811061195b5761195b612629565b602002602001015184848151811061197557611975612629565b6020026020010151600161198991906124ca565b611129565b60008382815181106119a2576119a2612629565b602090810291909101015160405163095ea7b360e01b81526001600160a01b038981166004830152600060248301529192509082169063095ea7b3906044016020604051808303816000875af1158015611a00573d6000803e3d6000fd5b505050506040513d601f19601f82011682018060405250810190611a249190612434565b50806001600160a01b031663095ea7b388858581518110611a4757611a47612629565b60200260200101516001611a5b91906124ca565b6040516001600160e01b031960e085901b1681526001600160a01b03909216600483015260248201526044016020604051808303816000875af1158015611aa6573d6000803e3d6000fd5b505050506040513d601f19601f82011682018060405250810190611aca9190612434565b506040516370a0823160e01b81523060048201526001600160a01b038216906370a0823190602401602060405180830381865afa158015611b0f573d6000803e3d6000fd5b505050506040513d601f19601f82011682018060405250810190611b33919061241b565b838381518110611b4557611b45612629565b60200260200101511115611bae5760405162461bcd60e51b815260206004820152602a60248201527f57652061726520747279696e6720746f206465706f736974206d6f7265207468604482015269656e207765206861766560b01b606482015260840161029d565b5080611bb98161263f565b91505061191c565b506040516334e7a19f60e01b8152600481018590526001600160a01b038416906334e7a19f90602401600060405180830381600087803b158015611c0457600080fd5b505af1158015611c18573d6000803e3d6000fd5b505050505050505050565b60607f00000000000000000000000000000000000000000000000000000000000000006001600160a01b0316846001600160a01b031614158015611c9957507f00000000000000000000000000000000000000000000000000000000000000006001600160a01b0316836001600160a01b031614155b15611d80576040805160038082526080820190925290602082016060803683370190505090508381600081518110611cd357611cd3612629565b60200260200101906001600160a01b031690816001600160a01b0316815250507f000000000000000000000000000000000000000000000000000000000000000081600181518110611d2757611d27612629565b60200260200101906001600160a01b031690816001600160a01b0316815250508281600281518110611d5b57611d5b612629565b60200260200101906001600160a01b031690816001600160a01b031681525050610328565b6001600160a01b03821615611df8576040805160038082526080820190925290602082016060803683370190505090508381600081518110611dc457611dc4612629565b60200260200101906001600160a01b031690816001600160a01b0316815250508181600181518110611d2757611d27612629565b60408051600280825260608201835290916020830190803683370190505090508381600081518110611e2c57611e2c612629565b60200260200101906001600160a01b031690816001600160a01b0316815250508281600181518110611e6057611e60612629565b60200260200101906001600160a01b031690816001600160a01b0316815250509392505050565b606082471015611ee85760405162461bcd60e51b815260206004820152602660248201527f416464726573733a20696e73756666696369656e742062616c616e636520666f6044820152651c8818d85b1b60d21b606482015260840161029d565b6001600160a01b0385163b611f3f5760405162461bcd60e51b815260206004820152601d60248201527f416464726573733a2063616c6c20746f206e6f6e2d636f6e7472616374000000604482015260640161029d565b600080866001600160a01b03168587604051611f5b919061276a565b60006040518083038185875af1925050503d8060008114611f98576040519150601f19603f3d011682016040523d82523d6000602084013e611f9d565b606091505b5091509150611fad828286612133565b979650505050505050565b836000611fc6828587611c23565b60405163095ea7b360e01b81526001600160a01b037f000000000000000000000000000000000000000000000000000000000000000081166004830152600060248301529192509083169063095ea7b3906044016020604051808303816000875af1158015612039573d6000803e3d6000fd5b505050506040513d601f19601f8201168201806040525081019061205d9190612434565b5060405163095ea7b360e01b81526001600160a01b037f000000000000000000000000000000000000000000000000000000000000000081166004830152600019602483015283169063095ea7b3906044016020604051808303816000875af11580156120ce573d6000803e3d6000fd5b505050506040513d601f19601f820116820180604052508101906120f29190612434565b506001600160a01b037f000000000000000000000000000000000000000000000000000000000000000016638803dbee8460001984306118314260016124ca565b60608315612142575081610328565b8251156121525782518084602001fd5b8160405162461bcd60e51b815260040161029d91906123b6565b6001600160a01b0381168114610ca857600080fd5b6000806040838503121561219457600080fd5b823561219f8161216c565b946020939093013593505050565b634e487b7160e01b600052604160045260246000fd5b604051601f8201601f1916810167ffffffffffffffff811182821017156121ec576121ec6121ad565b604052919050565b600067ffffffffffffffff82111561220e5761220e6121ad565b50601f01601f191660200190565b6000806000806080858703121561223257600080fd5b843561223d8161216c565b9350602085013561224d8161216c565b925060408501359150606085013567ffffffffffffffff81111561227057600080fd5b8501601f8101871361228157600080fd5b803561229461228f826121f4565b6121c3565b8181528860208385010111156122a957600080fd5b8160208401602083013760006020838301015280935050505092959194509250565b600080604083850312156122de57600080fd5b82356122e98161216c565b915060208301356122f98161216c565b809150509250929050565b60008060006060848603121561231957600080fd5b83356123248161216c565b925060208401356123348161216c565b929592945050506040919091013590565b60006020828403121561235757600080fd5b5035919050565b60005b83811015612379578181015183820152602001612361565b8381111561084e5750506000910152565b600081518084526123a281602086016020860161235e565b601f01601f19169290920160200192915050565b602081526000610328602083018461238a565b6000602082840312156123db57600080fd5b81356103288161216c565b6020808252818101527f4f776e61626c653a2063616c6c6572206973206e6f7420746865206f776e6572604082015260600190565b60006020828403121561242d57600080fd5b5051919050565b60006020828403121561244657600080fd5b8151801515811461032857600080fd5b60006020828403121561246857600080fd5b81516103288161216c565b634e487b7160e01b600052601160045260246000fd5b60008160001904831182151516156124a3576124a3612473565b500290565b6000826124c557634e487b7160e01b600052601260045260246000fd5b500490565b600082198211156124dd576124dd612473565b500190565b600067ffffffffffffffff8211156124fc576124fc6121ad565b5060051b60200190565b600082601f83011261251757600080fd5b8151602061252761228f836124e2565b82815260059290921b8401810191818101908684111561254657600080fd5b8286015b84811015610c0557805161255d8161216c565b835291830191830161254a565b600082601f83011261257b57600080fd5b8151602061258b61228f836124e2565b82815260059290921b840181019181810190868411156125aa57600080fd5b8286015b84811015610c0557805183529183019183016125ae565b600080604083850312156125d857600080fd5b825167ffffffffffffffff808211156125f057600080fd5b6125fc86838701612506565b9350602085015191508082111561261257600080fd5b5061261f8582860161256a565b9150509250929050565b634e487b7160e01b600052603260045260246000fd5b600060001982141561265357612653612473565b5060010190565b600080604080848603121561266e57600080fd5b835167ffffffffffffffff8082111561268657600080fd5b61269287838801612506565b94506020915081860151818111156126a957600080fd5b8601601f810188136126ba57600080fd5b80516126c861228f826124e2565b81815260059190911b8201840190848101908a8311156126e757600080fd5b8584015b83811015612758578051868111156127035760008081fd5b8501603f81018d136127155760008081fd5b8781015161272561228f826121f4565b8181528e8b83850101111561273a5760008081fd5b612749828b83018d860161235e565b855250509186019186016126eb565b50809750505050505050509250929050565b6000825161277c81846020870161235e565b9190910192915050565b600081518084526020808501945080840160005b838110156127bf5781516001600160a01b03168752958201959082019060010161279a565b509495945050505050565b828152604060208201526000610d8e6040830184612786565b6000602082840312156127f557600080fd5b815167ffffffffffffffff81111561280c57600080fd5b610d8e8482850161256a565b85815284602082015260a06040820152600061283760a0830186612786565b6001600160a01b039490941660608301525060800152939250505056fea26469706673582212200a0dc8e2d7b70f97739044bc80704b291621368dbb717844bf949d6c4bfbaeb464736f6c634300080c0033",
    "linkReferences": {}
  }
}