{
  "abi": [
    {
      "inputs": [],
      "stateMutability": "nonpayable",
      "type": "constructor"
    },
    {
      "anonymous": false,
      "inputs": [
        {
          "indexed": true,
          "internalType": "address",
          "name": "basketAddress",
          "type": "address"
        },
        {
          "indexed": true,
          "internalType": "address",
          "name": "deployer",
          "type": "address"
        },
        {
          "indexed": true,
          "internalType": "uint256",
          "name": "index",
          "type": "uint256"
        }
      ],
      "name": "BasketCreated",
      "type": "event"
    },
    {
      "anonymous": false,
      "inputs": [
        {
          "indexed": true,
          "internalType": "address",
          "name": "controller",
          "type": "address"
        }
      ],
      "name": "DefaultControllerSet",
      "type": "event"
    },
    {
      "anonymous": false,
      "inputs": [
        {
          "components": [
            {
              "internalType": "address",
              "name": "facetAddress",
              "type": "address"
            },
            {
              "internalType": "enum IDiamondCut.FacetCutAction",
              "name": "action",
              "type": "uint8"
            },
            {
              "internalType": "bytes4[]",
              "name": "functionSelectors",
              "type": "bytes4[]"
            }
          ],
          "indexed": false,
          "internalType": "struct IDiamondCut.FacetCut",
          "name": "",
          "type": "tuple"
        }
      ],
      "name": "FacetAdded",
      "type": "event"
    },
    {
      "anonymous": false,
      "inputs": [
        {
          "components": [
            {
              "internalType": "address",
              "name": "facetAddress",
              "type": "address"
            },
            {
              "internalType": "enum IDiamondCut.FacetCutAction",
              "name": "action",
              "type": "uint8"
            },
            {
              "internalType": "bytes4[]",
              "name": "functionSelectors",
              "type": "bytes4[]"
            }
          ],
          "indexed": false,
          "internalType": "struct IDiamondCut.FacetCut",
          "name": "",
          "type": "tuple"
        }
      ],
      "name": "FacetRemoved",
      "type": "event"
    },
    {
      "anonymous": false,
      "inputs": [
        {
          "indexed": true,
          "internalType": "address",
          "name": "previousOwner",
          "type": "address"
        },
        {
          "indexed": true,
          "internalType": "address",
          "name": "newOwner",
          "type": "address"
        }
      ],
      "name": "OwnershipTransferred",
      "type": "event"
    },
    {
      "inputs": [
        {
          "components": [
            {
              "internalType": "address",
              "name": "facetAddress",
              "type": "address"
            },
            {
              "internalType": "enum IDiamondCut.FacetCutAction",
              "name": "action",
              "type": "uint8"
            },
            {
              "internalType": "bytes4[]",
              "name": "functionSelectors",
              "type": "bytes4[]"
            }
          ],
          "internalType": "struct IDiamondCut.FacetCut",
          "name": "_facet",
          "type": "tuple"
        }
      ],
      "name": "addFacet",
      "outputs": [],
      "stateMutability": "nonpayable",
      "type": "function"
    },
    {
      "inputs": [
        {
          "internalType": "address[]",
          "name": "_tokens",
          "type": "address[]"
        },
        {
          "internalType": "uint256[]",
          "name": "_amounts",
          "type": "uint256[]"
        },
        {
          "internalType": "uint256",
          "name": "_initialSupply",
          "type": "uint256"
        },
        {
          "internalType": "string",
          "name": "_symbol",
          "type": "string"
        },
        {
          "internalType": "string",
          "name": "_name",
          "type": "string"
        }
      ],
      "name": "bakeBasket",
      "outputs": [],
      "stateMutability": "nonpayable",
      "type": "function"
    },
    {
      "inputs": [
        {
          "internalType": "uint256",
          "name": "",
          "type": "uint256"
        }
      ],
      "name": "baskets",
      "outputs": [
        {
          "internalType": "address",
          "name": "",
          "type": "address"
        }
      ],
      "stateMutability": "view",
      "type": "function"
    },
    {
      "inputs": [],
      "name": "defaultController",
      "outputs": [
        {
          "internalType": "address",
          "name": "",
          "type": "address"
        }
      ],
      "stateMutability": "view",
      "type": "function"
    },
    {
      "inputs": [
        {
          "internalType": "uint256",
          "name": "",
          "type": "uint256"
        }
      ],
      "name": "defaultCut",
      "outputs": [
        {
          "internalType": "address",
          "name": "facetAddress",
          "type": "address"
        },
        {
          "internalType": "enum IDiamondCut.FacetCutAction",
          "name": "action",
          "type": "uint8"
        }
      ],
      "stateMutability": "view",
      "type": "function"
    },
    {
      "inputs": [],
      "name": "diamondImplementation",
      "outputs": [
        {
          "internalType": "address",
          "name": "",
          "type": "address"
        }
      ],
      "stateMutability": "view",
      "type": "function"
    },
    {
      "inputs": [],
      "name": "getDefaultCut",
      "outputs": [
        {
          "components": [
            {
              "internalType": "address",
              "name": "facetAddress",
              "type": "address"
            },
            {
              "internalType": "enum IDiamondCut.FacetCutAction",
              "name": "action",
              "type": "uint8"
            },
            {
              "internalType": "bytes4[]",
              "name": "functionSelectors",
              "type": "bytes4[]"
            }
          ],
          "internalType": "struct IDiamondCut.FacetCut[]",
          "name": "",
          "type": "tuple[]"
        }
      ],
      "stateMutability": "view",
      "type": "function"
    },
    {
      "inputs": [],
      "name": "getDefaultCutCount",
      "outputs": [
        {
          "internalType": "uint256",
          "name": "",
          "type": "uint256"
        }
      ],
      "stateMutability": "view",
      "type": "function"
    },
    {
      "inputs": [
        {
          "internalType": "address",
          "name": "",
          "type": "address"
        }
      ],
      "name": "isBasket",
      "outputs": [
        {
          "internalType": "bool",
          "name": "",
          "type": "bool"
        }
      ],
      "stateMutability": "view",
      "type": "function"
    },
    {
      "inputs": [],
      "name": "owner",
      "outputs": [
        {
          "internalType": "address",
          "name": "",
          "type": "address"
        }
      ],
      "stateMutability": "view",
      "type": "function"
    },
    {
      "inputs": [
        {
          "internalType": "uint256",
          "name": "_index",
          "type": "uint256"
        }
      ],
      "name": "removeFacet",
      "outputs": [],
      "stateMutability": "nonpayable",
      "type": "function"
    },
    {
      "inputs": [],
      "name": "renounceOwnership",
      "outputs": [],
      "stateMutability": "nonpayable",
      "type": "function"
    },
    {
      "inputs": [
        {
          "internalType": "address",
          "name": "_controller",
          "type": "address"
        }
      ],
      "name": "setDefaultController",
      "outputs": [],
      "stateMutability": "nonpayable",
      "type": "function"
    },
    {
      "inputs": [
        {
          "internalType": "address",
          "name": "_diamondImplementation",
          "type": "address"
        }
      ],
      "name": "setDiamondImplementation",
      "outputs": [],
      "stateMutability": "nonpayable",
      "type": "function"
    },
    {
      "inputs": [
        {
          "internalType": "address",
          "name": "newOwner",
          "type": "address"
        }
      ],
      "name": "transferOwnership",
      "outputs": [],
      "stateMutability": "nonpayable",
      "type": "function"
    }
  ],
  "bytecode": {
    "object": "0x608060405234801561001057600080fd5b5061001a33610031565b600380546001600160a01b03191633179055610081565b600080546001600160a01b038381166001600160a01b0319831681178455604051919092169283917f8be0079c531659141344cd1fd0a4f28419497f9722a3daafe3b4186f6b6457e09190a35050565b61212f806100906000396000f3fe608060405234801561001057600080fd5b50600436106100f55760003560e01c806392c4b65111610097578063c91b8b0311610066578063c91b8b03146101e9578063eb44d482146101fe578063eb6065f914610231578063f2fde38b1461024457600080fd5b806392c4b6511461018f5780639933591c146101a2578063a60ed374146101b5578063af2ee456146101c857600080fd5b806325f5e750116100d357806325f5e7501461015257806355196bd914610163578063715018a6146101765780638da5cb5b1461017e57600080fd5b80630586864a146100fa578063186908461461010f578063205663881461013f575b600080fd5b61010d6101083660046112ea565b610257565b005b600454610122906001600160a01b031681565b6040516001600160a01b0390911681526020015b60405180910390f35b61010d61014d3660046113f1565b61036f565b600554604051908152602001610136565b61010d6101713660046113f1565b6103bb565b61010d61042f565b6000546001600160a01b0316610122565b61010d61019d36600461140c565b610465565b600354610122906001600160a01b031681565b6101226101c336600461140c565b610632565b6101db6101d636600461140c565b61065c565b60405161013692919061145d565b6101f1610696565b6040516101369190611507565b61022161020c3660046113f1565b60026020526000908152604090205460ff1681565b6040519015158152602001610136565b61010d61023f366004611634565b6107c2565b61010d6102523660046113f1565b610d54565b6000546001600160a01b0316331461028a5760405162461bcd60e51b815260040161028190611747565b60405180910390fd5b6005805460018101825560009190915281517f036b6384b5eca791c62761152d0c79bb0604c104a5fb6f4eb0703f3154bb3db060029283020180546001600160a01b031981166001600160a01b039093169283178255602085015185949293909284926001600160a81b03191690911790600160a01b90849081111561031257610312611425565b0217905550604082015180516103329160018401916020909101906110f9565b5050507f0aed3022f525ee07c45899934ca4811d019d6228bc4099304003a1beab41ee8881604051610364919061177c565b60405180910390a150565b6000546001600160a01b031633146103995760405162461bcd60e51b815260040161028190611747565b600480546001600160a01b0319166001600160a01b0392909216919091179055565b6000546001600160a01b031633146103e55760405162461bcd60e51b815260040161028190611747565b600380546001600160a01b0319166001600160a01b0383169081179091556040517fbbe27178bb28e0dc4acfc033380c8b785ff9740a17f254a70184e25ad237e49e90600090a250565b6000546001600160a01b031633146104595760405162461bcd60e51b815260040161028190611747565b6104636000610def565b565b6000546001600160a01b0316331461048f5760405162461bcd60e51b815260040161028190611747565b60055481106104d05760405162461bcd60e51b815260206004820152600d60248201526c0929cac82989288be929c888ab609b1b6044820152606401610281565b7fc8f906888de53bbfb85a019893e6b256b8effd12cdf09d03326ac51184050404600582815481106105045761050461178f565b906000526020600020906002020160405161051f91906119f5565b60405180910390a16005805461053790600190611a1e565b815481106105475761054761178f565b9060005260206000209060020201600582815481106105685761056861178f565b600091825260209091208254600292830290910180546001600160a01b031981166001600160a01b0390931692831782558454919360ff600160a01b93849004169385936001600160a81b031990931617919084908111156105cc576105cc611425565b0217905550600182810180546105e592840191906111a5565b5090505060058054806105fa576105fa611a35565b60008281526020812060026000199093019283020180546001600160a81b03191681559061062b60018301826111f3565b5050905550565b6001818154811061064257600080fd5b6000918252602090912001546001600160a01b0316905081565b6005818154811061066c57600080fd5b60009182526020909120600290910201546001600160a01b0381169150600160a01b900460ff1682565b60606005805480602002602001604051908101604052809291908181526020016000905b828210156107b95760008481526020908190206040805160608101909152600285810290920180546001600160a01b03811683529193909290840191600160a01b900460ff169081111561071057610710611425565b600281111561072157610721611425565b8152602001600182018054806020026020016040519081016040528092919081815260200182805480156107a157602002820191906000526020600020906000905b82829054906101000a900460e01b6001600160e01b031916815260200190600401906020826003010492830192600103820291508084116107635790505b505050505081525050815260200190600101906106ba565b50505050905090565b60006040516107d090611218565b604051809103906000f0801580156107ec573d6000803e3d6000fd5b5060048054604051636bc26a1360e11b81526001600160a01b0391821692810192909252919250829182919082169063d784d42690602401600060405180830381600087803b15801561083e57600080fd5b505af1158015610852573d6000803e3d6000fd5b50506040516309f555ad60e01b81526001600160a01b03841692506309f555ad9150610885906005903090600401611a4b565b600060405180830381600087803b15801561089f57600080fd5b505af11580156108b3573d6000803e3d6000fd5b50506001805480820182557fb10e2d527612073b26eecdfd717e6a320cf44b4afac2b0732d9fcbe2b7fa0cf60180546001600160a01b0319166001600160a01b0386169081179091556000908152600260205260409020805460ff19169091179055505087516109745760405162461bcd60e51b815260206004820152602660248201527f43414e4e4f545f4352454154455f5a45524f5f544f4b454e5f4c454e4754485f604482015265109054d2d15560d21b6064820152608401610281565b86518851146109bd5760405162461bcd60e51b8152602060048201526015602482015274082a4a482b2be988a9c8ea890be9a92a69a82a8869605b1b6044820152606401610281565b60405163eedfca5f60e01b815281906001600160a01b0382169063eedfca5f906109ef908a9089908b90600401611b1f565b600060405180830381600087803b158015610a0957600080fd5b505af1158015610a1d573d6000803e3d6000fd5b5050505060005b8951811015610b1e5760008a8281518110610a4157610a4161178f565b60200260200101519050610a8433848c8581518110610a6257610a6261178f565b6020026020010151846001600160a01b0316610e3f909392919063ffffffff16565b826001600160a01b031663d48bfca78c8481518110610aa557610aa561178f565b60200260200101516040518263ffffffff1660e01b8152600401610ad891906001600160a01b0391909116815260200190565b600060405180830381600087803b158015610af257600080fd5b505af1158015610b06573d6000803e3d6000fd5b50505050508080610b1690611b54565b915050610a24565b5060405163d3e1574760e01b8152600160048201526001600160a01b0382169063d3e1574790602401600060405180830381600087803b158015610b6157600080fd5b505af1158015610b75573d6000803e3d6000fd5b50506040516347786d3760e01b815260001960048201526001600160a01b03841692506347786d379150602401600060405180830381600087803b158015610bbc57600080fd5b505af1158015610bd0573d6000803e3d6000fd5b505060405163a9059cbb60e01b8152336004820152602481018a90526001600160a01b038416925063a9059cbb91506044016020604051808303816000875af1158015610c21573d6000803e3d6000fd5b505050506040513d601f19601f82011682018060405250810190610c459190611b6f565b5060035460405163f2fde38b60e01b81526001600160a01b0391821660048201529082169063f2fde38b90602401600060405180830381600087803b158015610c8d57600080fd5b505af1158015610ca1573d6000803e3d6000fd5b50506003546040516332abba4760e21b81526001600160a01b039182166004820152908716925063caaee91c9150602401600060405180830381600087803b158015610cec57600080fd5b505af1158015610d00573d6000803e3d6000fd5b505060018054610d139350909150611a1e565b60405133906001600160a01b038516907fcb430db035d3cf6a54fbce716eeee3cc5826f8cd4e32f9b9e271582250b42b8290600090a4505050505050505050565b6000546001600160a01b03163314610d7e5760405162461bcd60e51b815260040161028190611747565b6001600160a01b038116610de35760405162461bcd60e51b815260206004820152602660248201527f4f776e61626c653a206e6577206f776e657220697320746865207a65726f206160448201526564647265737360d01b6064820152608401610281565b610dec81610def565b50565b600080546001600160a01b038381166001600160a01b0319831681178455604051919092169283917f8be0079c531659141344cd1fd0a4f28419497f9722a3daafe3b4186f6b6457e09190a35050565b604080516001600160a01b0385811660248301528416604482015260648082018490528251808303909101815260849091019091526020810180516001600160e01b03166323b872dd60e01b179052610e99908590610e9f565b50505050565b6000610ef4826040518060400160405280602081526020017f5361666545524332303a206c6f772d6c6576656c2063616c6c206661696c6564815250856001600160a01b0316610f769092919063ffffffff16565b805190915015610f715780806020019051810190610f129190611b6f565b610f715760405162461bcd60e51b815260206004820152602a60248201527f5361666545524332303a204552433230206f7065726174696f6e20646964206e6044820152691bdd081cdd58d8d9595960b21b6064820152608401610281565b505050565b6060610f858484600085610f8f565b90505b9392505050565b606082471015610ff05760405162461bcd60e51b815260206004820152602660248201527f416464726573733a20696e73756666696369656e742062616c616e636520666f6044820152651c8818d85b1b60d21b6064820152608401610281565b6001600160a01b0385163b6110475760405162461bcd60e51b815260206004820152601d60248201527f416464726573733a2063616c6c20746f206e6f6e2d636f6e74726163740000006044820152606401610281565b600080866001600160a01b031685876040516110639190611b91565b60006040518083038185875af1925050503d80600081146110a0576040519150601f19603f3d011682016040523d82523d6000602084013e6110a5565b606091505b50915091506110b58282866110c0565b979650505050505050565b606083156110cf575081610f88565b8251156110df5782518084602001fd5b8160405162461bcd60e51b81526004016102819190611bad565b828054828255906000526020600020906007016008900481019282156111955791602002820160005b8382111561116357835183826101000a81548163ffffffff021916908360e01c02179055509260200192600401602081600301049283019260010302611122565b80156111935782816101000a81549063ffffffff0219169055600401602081600301049283019260010302611163565b505b506111a1929150611225565b5090565b82805482825590600052602060002090600701600890048101928215611195576000526020600020916007016008900482015b828111156111955782548255916001019190600101906111d8565b508054600082556007016008900490600052602060002090810190610dec9190611225565b61053980611bc183390190565b5b808211156111a15760008155600101611226565b634e487b7160e01b600052604160045260246000fd5b6040516060810167ffffffffffffffff811182821017156112735761127361123a565b60405290565b604051601f8201601f1916810167ffffffffffffffff811182821017156112a2576112a261123a565b604052919050565b80356001600160a01b03811681146112c157600080fd5b919050565b600067ffffffffffffffff8211156112e0576112e061123a565b5060051b60200190565b600060208083850312156112fd57600080fd5b823567ffffffffffffffff8082111561131557600080fd5b908401906060828703121561132957600080fd5b611331611250565b61133a836112aa565b8152838301356003811061134d57600080fd5b8185015260408301358281111561136357600080fd5b80840193505086601f84011261137857600080fd5b8235915061138d611388836112c6565b611279565b82815260059290921b830184019184810190888411156113ac57600080fd5b938501935b838510156113e15784356001600160e01b0319811681146113d25760008081fd5b825293850193908501906113b1565b6040830152509695505050505050565b60006020828403121561140357600080fd5b610f88826112aa565b60006020828403121561141e57600080fd5b5035919050565b634e487b7160e01b600052602160045260246000fd5b6003811061145957634e487b7160e01b600052602160045260246000fd5b9052565b6001600160a01b038316815260408101610f88602083018461143b565b6001600160e01b0319169052565b80516001600160a01b0316825260208082015160009160608501916114af8287018261143b565b506040840151606060408701528281518085526080880191508383019450600092505b808310156114fc5784516001600160e01b03191682529383019360019290920191908301906114d2565b509695505050505050565b6000602080830181845280855180835260408601915060408160051b870101925083870160005b8281101561155c57603f1988860301845261154a858351611488565b9450928501929085019060010161152e565b5092979650505050505050565b600082601f83011261157a57600080fd5b8135602061158a611388836112c6565b82815260059290921b840181019181810190868411156115a957600080fd5b8286015b848110156114fc57803583529183019183016115ad565b600082601f8301126115d557600080fd5b813567ffffffffffffffff8111156115ef576115ef61123a565b611602601f8201601f1916602001611279565b81815284602083860101111561161757600080fd5b816020850160208301376000918101602001919091529392505050565b600080600080600060a0868803121561164c57600080fd5b853567ffffffffffffffff8082111561166457600080fd5b818801915088601f83011261167857600080fd5b81356020611688611388836112c6565b82815260059290921b8401810191818101908c8411156116a757600080fd5b948201945b838610156116cc576116bd866112aa565b825294820194908201906116ac565b995050890135925050808211156116e257600080fd5b6116ee89838a01611569565b955060408801359450606088013591508082111561170b57600080fd5b61171789838a016115c4565b9350608088013591508082111561172d57600080fd5b5061173a888289016115c4565b9150509295509295909350565b6020808252818101527f4f776e61626c653a2063616c6c6572206973206e6f7420746865206f776e6572604082015260600190565b602081526000610f886020830184611488565b634e487b7160e01b600052603260045260246000fd5b80546001600160a01b0381168352600090606084019060206117d081870160a084901c60ff1661143b565b6001915081850160406060818901528482546117f0818890815260200190565b600094855260208520975091505b806007850110156118b457865460e06118198483831b61147a565b6001600160e01b031960c0611834868a0185831b841661147a565b611845878701838660a01b1661147a565b6080611858606088018487841b1661147a565b611869818801848760601b1661147a565b5061187b60a0870183868a1b1661147a565b61188b81870183868c1b1661147a565b5061189a82860182851661147a565b5050506101008201915085870196506008840193506117fe565b955495808410156118d5576118cc828860e01b61147a565b92850192908401905b808410156118fe576118f58260c089901b6001600160e01b03191661147a565b92850192908401905b808410156119275761191e8260a089901b6001600160e01b03191661147a565b92850192908401905b808410156119505761194782608089901b6001600160e01b03191661147a565b92850192908401905b808410156119795761197082606089901b6001600160e01b03191661147a565b92850192908401905b808410156119a0576119978288851b6001600160e01b03191661147a565b92850192908401905b808410156119c7576119be8288871b6001600160e01b03191661147a565b92850192908401905b808410156119e8576119e3826001600160e01b0319891661147a565b908401905b5098975050505050505050565b602081526000610f8860208301846117a5565b634e487b7160e01b600052601160045260246000fd5b600082821015611a3057611a30611a08565b500390565b634e487b7160e01b600052603160045260246000fd5b6000604082016040835280855480835260608501915060608160051b86010192508660005260208060002060005b83811015611aa957878603605f19018552611a9486836117a5565b95509382019360029190910190600101611a79565b50506001600160a01b03969096169490950193909352949350505050565b60005b83811015611ae2578181015183820152602001611aca565b83811115610e995750506000910152565b60008151808452611b0b816020860160208601611ac7565b601f01601f19169290920160200192915050565b838152606060208201526000611b386060830185611af3565b8281036040840152611b4a8185611af3565b9695505050505050565b6000600019821415611b6857611b68611a08565b5060010190565b600060208284031215611b8157600080fd5b81518015158114610f8857600080fd5b60008251611ba3818460208701611ac7565b9190910192915050565b602081526000610f886020830184611af356fe608060405234801561001057600080fd5b506040516913d5d3915497d4d313d560b21b602082015261005090602a01604051602081830303815290604052805190602001203361005560201b60201c565b610068565b503060601b6001600160601b0319169055565b6104c2806100776000396000f3fe6080604052600436106100865760003560e01c80639d84ae69116100595780639d84ae691461013f578063aaf10f421461015f578063bb15ac8e14610174578063caaee91c146101a4578063d784d426146101c457610086565b80631ab7710d1461009057806337a440e6146100c25780635ced058e146100ef57806382c947b71461010d575b61008e6101e4565b005b34801561009c57600080fd5b506100a5610254565b6040516001600160a01b0390911681526020015b60405180910390f35b3480156100ce57600080fd5b506100e16100dd3660046103f8565b5490565b6040519081526020016100b9565b3480156100fb57600080fd5b506100a561010a3660046103f8565b90565b34801561011957600080fd5b506100e1610128366004610411565b506bffffffffffffffffffffffff193060601b1690565b34801561014b57600080fd5b506100a561015a3660046103f8565b61027e565b34801561016b57600080fd5b506100a5610291565b34801561018057600080fd5b5061019461018f3660046103f8565b6102bf565b60405190151581526020016100b9565b3480156101b057600080fd5b5061008e6101bf366004610411565b6102d2565b3480156101d057600080fd5b5061008e6101df366004610411565b61037b565b600061022d604051602001610212907212535413115351539510551253d397d4d313d5606a1b815260130190565b6040516020818303038152906040528051906020012061027e565b905060405136600082376000803683855af43d806000843e818015610250578184f35b8184fd5b6000610279604051602001610212906913d5d3915497d4d313d560b21b8152600a0190565b905090565b600061028b61010a835490565b92915050565b6000610279604051602001610212907212535413115351539510551253d397d4d313d5606a1b815260130190565b600060016102cb835490565b1492915050565b6040516913d5d3915497d4d313d560b21b60208201526102f490602a01610212565b6001600160a01b0316336001600160a01b03161461032d5760405162461bcd60e51b815260040161032490610441565b60405180910390fd5b6040516913d5d3915497d4d313d560b21b602082015261037890602a015b604051602081830303815290604052805190602001203060601b6bffffffffffffffffffffffff19169055565b50565b6040516913d5d3915497d4d313d560b21b602082015261039d90602a01610212565b6001600160a01b0316336001600160a01b0316146103cd5760405162461bcd60e51b815260040161032490610441565b6040517212535413115351539510551253d397d4d313d5606a1b60208201526103789060330161034b565b60006020828403121561040a57600080fd5b5035919050565b60006020828403121561042357600080fd5b81356001600160a01b038116811461043a57600080fd5b9392505050565b6020808252602b908201527f5050726f78792e6f6e6c7950726f78794f776e65723a206d73672073656e646560408201526a39103737ba1037bbb732b960a91b60608201526080019056fea2646970667358221220d65747019db784b44b743373ced04edd8839eae9dbf9276150f9a011bac7b6d064736f6c634300080c0033a264697066735822122065420bcf5f7c90c707d9c91d3f070c0351b1ee5b433ed1b508406a86c37836d464736f6c634300080c0033",
    "linkReferences": {}
  }
}