{
  "_format": "hh-sol-artifact-1",
  "contractName": "LendingRegistry",
  "sourceName": "contracts/Strategies/KashiLending/LendingRegistry.sol",
  "abi": [
    {
      "anonymous": false,
      "inputs": [
        {
          "indexed": true,
          "internalType": "address",
          "name": "previousOwner",
          "type": "address"
        },
        {
          "indexed": true,
          "internalType": "address",
          "name": "newOwner",
          "type": "address"
        }
      ],
      "name": "OwnershipTransferred",
      "type": "event"
    },
    {
      "anonymous": false,
      "inputs": [
        {
          "indexed": true,
          "internalType": "bytes32",
          "name": "protocol",
          "type": "bytes32"
        },
        {
          "indexed": true,
          "internalType": "address",
          "name": "logic",
          "type": "address"
        }
      ],
      "name": "ProtocolToLogicSet",
      "type": "event"
    },
    {
      "anonymous": false,
      "inputs": [
        {
          "indexed": true,
          "internalType": "address",
          "name": "underlying",
          "type": "address"
        },
        {
          "indexed": true,
          "internalType": "bytes32",
          "name": "protocol",
          "type": "bytes32"
        },
        {
          "indexed": true,
          "internalType": "address",
          "name": "wrapped",
          "type": "address"
        }
      ],
      "name": "UnderlyingToProtocolWrappedSet",
      "type": "event"
    },
    {
      "anonymous": false,
      "inputs": [
        {
          "indexed": true,
          "internalType": "address",
          "name": "wrapped",
          "type": "address"
        },
        {
          "indexed": true,
          "internalType": "bytes32",
          "name": "protocol",
          "type": "bytes32"
        }
      ],
      "name": "WrappedToProtocolSet",
      "type": "event"
    },
    {
      "anonymous": false,
      "inputs": [
        {
          "indexed": true,
          "internalType": "address",
          "name": "wrapped",
          "type": "address"
        },
        {
          "indexed": true,
          "internalType": "address",
          "name": "underlying",
          "type": "address"
        }
      ],
      "name": "WrappedToUnderlyingSet",
      "type": "event"
    },
    {
      "inputs": [
        {
          "internalType": "address",
          "name": "_underlying",
          "type": "address"
        },
        {
          "internalType": "bytes32[]",
          "name": "_protocols",
          "type": "bytes32[]"
        }
      ],
      "name": "getBestApr",
      "outputs": [
        {
          "internalType": "uint256",
          "name": "apr",
          "type": "uint256"
        },
        {
          "internalType": "bytes32",
          "name": "protocol",
          "type": "bytes32"
        }
      ],
      "stateMutability": "view",
      "type": "function"
    },
    {
      "inputs": [
        {
          "internalType": "address",
          "name": "_underlying",
          "type": "address"
        },
        {
          "internalType": "uint256",
          "name": "_amount",
          "type": "uint256"
        },
        {
          "internalType": "address",
          "name": "_tokenHolder",
          "type": "address"
        },
        {
          "internalType": "bytes32",
          "name": "_protocol",
          "type": "bytes32"
        }
      ],
      "name": "getLendTXData",
      "outputs": [
        {
          "internalType": "address[]",
          "name": "targets",
          "type": "address[]"
        },
        {
          "internalType": "bytes[]",
          "name": "data",
          "type": "bytes[]"
        }
      ],
      "stateMutability": "view",
      "type": "function"
    },
    {
      "inputs": [
        {
          "internalType": "address",
          "name": "_wrapped",
          "type": "address"
        },
        {
          "internalType": "uint256",
          "name": "_amount",
          "type": "uint256"
        },
        {
          "internalType": "address",
          "name": "_tokenHolder",
          "type": "address"
        }
      ],
      "name": "getUnlendTXData",
      "outputs": [
        {
          "internalType": "address[]",
          "name": "targets",
          "type": "address[]"
        },
        {
          "internalType": "bytes[]",
          "name": "data",
          "type": "bytes[]"
        }
      ],
      "stateMutability": "view",
      "type": "function"
    },
    {
      "inputs": [],
      "name": "owner",
      "outputs": [
        {
          "internalType": "address",
          "name": "",
          "type": "address"
        }
      ],
      "stateMutability": "view",
      "type": "function"
    },
    {
      "inputs": [
        {
          "internalType": "bytes32",
          "name": "",
          "type": "bytes32"
        }
      ],
      "name": "protocolToLogic",
      "outputs": [
        {
          "internalType": "address",
          "name": "",
          "type": "address"
        }
      ],
      "stateMutability": "view",
      "type": "function"
    },
    {
      "inputs": [],
      "name": "renounceOwnership",
      "outputs": [],
      "stateMutability": "nonpayable",
      "type": "function"
    },
    {
      "inputs": [
        {
          "internalType": "bytes32",
          "name": "_protocol",
          "type": "bytes32"
        },
        {
          "internalType": "address",
          "name": "_logic",
          "type": "address"
        }
      ],
      "name": "setProtocolToLogic",
      "outputs": [],
      "stateMutability": "nonpayable",
      "type": "function"
    },
    {
      "inputs": [
        {
          "internalType": "address",
          "name": "_underlying",
          "type": "address"
        },
        {
          "internalType": "bytes32",
          "name": "_protocol",
          "type": "bytes32"
        },
        {
          "internalType": "address",
          "name": "_wrapped",
          "type": "address"
        }
      ],
      "name": "setUnderlyingToProtocolWrapped",
      "outputs": [],
      "stateMutability": "nonpayable",
      "type": "function"
    },
    {
      "inputs": [
        {
          "internalType": "address",
          "name": "_wrapped",
          "type": "address"
        },
        {
          "internalType": "bytes32",
          "name": "_protocol",
          "type": "bytes32"
        }
      ],
      "name": "setWrappedToProtocol",
      "outputs": [],
      "stateMutability": "nonpayable",
      "type": "function"
    },
    {
      "inputs": [
        {
          "internalType": "address",
          "name": "_wrapped",
          "type": "address"
        },
        {
          "internalType": "address",
          "name": "_underlying",
          "type": "address"
        }
      ],
      "name": "setWrappedToUnderlying",
      "outputs": [],
      "stateMutability": "nonpayable",
      "type": "function"
    },
    {
      "inputs": [
        {
          "internalType": "address",
          "name": "newOwner",
          "type": "address"
        }
      ],
      "name": "transferOwnership",
      "outputs": [],
      "stateMutability": "nonpayable",
      "type": "function"
    },
    {
      "inputs": [
        {
          "internalType": "address",
          "name": "",
          "type": "address"
        },
        {
          "internalType": "bytes32",
          "name": "",
          "type": "bytes32"
        }
      ],
      "name": "underlyingToProtocolWrapped",
      "outputs": [
        {
          "internalType": "address",
          "name": "",
          "type": "address"
        }
      ],
      "stateMutability": "view",
      "type": "function"
    },
    {
      "inputs": [
        {
          "internalType": "address",
          "name": "",
          "type": "address"
        }
      ],
      "name": "wrappedToProtocol",
      "outputs": [
        {
          "internalType": "bytes32",
          "name": "",
          "type": "bytes32"
        }
      ],
      "stateMutability": "view",
      "type": "function"
    },
    {
      "inputs": [
        {
          "internalType": "address",
          "name": "",
          "type": "address"
        }
      ],
      "name": "wrappedToUnderlying",
      "outputs": [
        {
          "internalType": "address",
          "name": "",
          "type": "address"
        }
      ],
      "stateMutability": "view",
      "type": "function"
    }
  ],
  "bytecode": "0x608060405234801561001057600080fd5b5061002161001c610026565b61002a565b61007a565b3390565b600080546001600160a01b038381166001600160a01b0319831681178455604051919092169283917f8be0079c531659141344cd1fd0a4f28419497f9722a3daafe3b4186f6b6457e09190a35050565b610f3b806100896000396000f3fe608060405234801561001057600080fd5b50600436106100ea5760003560e01c8063adedc86a1161008c578063d26809e111610066578063d26809e1146101d8578063d7aceec7146101eb578063f2fde38b146101fe578063f8b7f42214610211576100ea565b8063adedc86a14610192578063b7db91fc146101a5578063bda82acc146101c5576100ea565b806358d28ef7116100c857806358d28ef71461014e5780635f91dd811461016f578063715018a6146101825780638da5cb5b1461018a576100ea565b806314457947146100ef578063196041181461010457806355579d321461012e575b600080fd5b6101026100fd366004610ace565b610224565b005b6101176101123660046109fe565b6102d0565b604051610125929190610e20565b60405180910390f35b61014161013c3660046109a3565b6103fb565b6040516101259190610c81565b61016161015c366004610b0f565b610416565b604051610125929190610cb8565b61010261017d366004610aa3565b6104f1565b610102610577565b6101416105c2565b6101616101a0366004610b23565b6105d1565b6101b86101b33660046109a3565b61069d565b6040516101259190610d6e565b6101026101d3366004610c45565b6106af565b6101026101e63660046109c6565b610747565b6101416101f9366004610aa3565b6107dd565b61010261020c3660046109a3565b610803565b61014161021f366004610c2d565b610874565b61022c61088f565b6001600160a01b031661023d6105c2565b6001600160a01b03161461026c5760405162461bcd60e51b815260040161026390610deb565b60405180910390fd5b6001600160a01b03838116600081815260036020908152604080832087845290915280822080546001600160a01b0319169486169485179055518592917ef16cac75566114cbfffaff7857b8fff8050ff0820a182eac3b236f0b62ac2b91a4505050565b60008060008060005b85518110156103ef57600086828151811061030457634e487b7160e01b600052603260045260246000fd5b602090810291909101810151600081815260049092526040909120549091506001600160a01b0316806103495760405162461bcd60e51b815260040161026390610dbd565b6040516337bca10f60e01b81526000906001600160a01b038316906337bca10f90610378908d90600401610c81565b60206040518083038186803b15801561039057600080fd5b505afa1580156103a4573d6000803e3d6000fd5b505050506040513d601f19601f820116820180604052508101906103c89190610c69565b9050858111156103d9578095508294505b50505080806103e790610eb3565b9150506102d9565b50909590945092505050565b6002602052600090815260409020546001600160a01b031681565b6001600160a01b0380841660009081526001602090815260408083205483526004909152902054606091829116806104605760405162461bcd60e51b815260040161026390610dbd565b604051630857bc1760e31b81526001600160a01b038216906342bde0b89061049090899089908990600401610c95565b60006040518083038186803b1580156104a857600080fd5b505afa1580156104bc573d6000803e3d6000fd5b505050506040513d6000823e601f3d908101601f191682016040526104e49190810190610b6a565b9250925050935093915050565b6104f961088f565b6001600160a01b031661050a6105c2565b6001600160a01b0316146105305760405162461bcd60e51b815260040161026390610deb565b6001600160a01b038216600081815260016020526040808220849055518392917f8d6c4851f1ff74632094f71fe39e4b0603cfd53a02524b0f56e077ec1a62464491a35050565b61057f61088f565b6001600160a01b03166105906105c2565b6001600160a01b0316146105b65760405162461bcd60e51b815260040161026390610deb565b6105c06000610893565b565b6000546001600160a01b031690565b60008181526004602052604090205460609081906001600160a01b03168061060b5760405162461bcd60e51b815260040161026390610dbd565b604051633d8e221960e11b81526001600160a01b03821690637b1c44329061063b908a908a908a90600401610c95565b60006040518083038186803b15801561065357600080fd5b505afa158015610667573d6000803e3d6000fd5b505050506040513d6000823e601f3d908101601f1916820160405261068f9190810190610b6a565b925092505094509492505050565b60016020526000908152604090205481565b6106b761088f565b6001600160a01b03166106c86105c2565b6001600160a01b0316146106ee5760405162461bcd60e51b815260040161026390610deb565b60008281526004602052604080822080546001600160a01b0319166001600160a01b0385169081179091559051909184917f05b94fa6d67a57a259499d28d3f8fd0eb8131cda46ea8c527ce24199839cb6649190a35050565b61074f61088f565b6001600160a01b03166107606105c2565b6001600160a01b0316146107865760405162461bcd60e51b815260040161026390610deb565b6001600160a01b0382811660008181526002602052604080822080546001600160a01b0319169486169485179055517fcff55967603e193c0ecb65c41c4fa6f4032a9053d0fad30061ec89105cc7b5c29190a35050565b60036020908152600092835260408084209091529082529020546001600160a01b031681565b61080b61088f565b6001600160a01b031661081c6105c2565b6001600160a01b0316146108425760405162461bcd60e51b815260040161026390610deb565b6001600160a01b0381166108685760405162461bcd60e51b815260040161026390610d77565b61087181610893565b50565b6004602052600090815260409020546001600160a01b031681565b3390565b600080546001600160a01b038381166001600160a01b0319831681178455604051919092169283917f8be0079c531659141344cd1fd0a4f28419497f9722a3daafe3b4186f6b6457e09190a35050565b6000601f83818401126108f4578182fd5b8251602061090961090483610e5f565b610e2e565b82815281810190868301865b8581101561099557815189018a603f82011261092f578889fd5b85810151604067ffffffffffffffff82111561094d5761094d610eda565b61095e828b01601f19168901610e2e565b8281528d82848601011115610971578b8cfd5b610980838a8301848701610e83565b87525050509284019290840190600101610915565b509098975050505050505050565b6000602082840312156109b4578081fd5b81356109bf81610ef0565b9392505050565b600080604083850312156109d8578081fd5b82356109e381610ef0565b915060208301356109f381610ef0565b809150509250929050565b60008060408385031215610a10578182fd5b8235610a1b81610ef0565b915060208381013567ffffffffffffffff811115610a37578283fd5b8401601f81018613610a47578283fd5b8035610a5561090482610e5f565b81815283810190838501858402850186018a1015610a71578687fd5b8694505b83851015610a93578035835260019490940193918501918501610a75565b5080955050505050509250929050565b60008060408385031215610ab5578182fd5b8235610ac081610ef0565b946020939093013593505050565b600080600060608486031215610ae2578081fd5b8335610aed81610ef0565b9250602084013591506040840135610b0481610ef0565b809150509250925092565b600080600060608486031215610ae2578283fd5b60008060008060808587031215610b38578081fd5b8435610b4381610ef0565b9350602085013592506040850135610b5a81610ef0565b9396929550929360600135925050565b60008060408385031215610b7c578182fd5b825167ffffffffffffffff80821115610b93578384fd5b818501915085601f830112610ba6578384fd5b81516020610bb661090483610e5f565b82815281810190858301838502870184018b1015610bd2578889fd5b8896505b84871015610bfd578051610be981610ef0565b835260019690960195918301918301610bd6565b5091880151919650909350505080821115610c16578283fd5b50610c23858286016108e3565b9150509250929050565b600060208284031215610c3e578081fd5b5035919050565b60008060408385031215610c57578182fd5b8235915060208301356109f381610ef0565b600060208284031215610c7a578081fd5b5051919050565b6001600160a01b0391909116815260200190565b6001600160a01b0393841681526020810192909252909116604082015260600190565b604080825283519082018190526000906020906060840190828701845b82811015610cfa5781516001600160a01b031684529284019290840190600101610cd5565b5050508381038285015284518082528282019080840283018401878501865b83811015610d5f57601f198087850301865282518051808652610d41818b88018c8501610e83565b96890196601f01909116939093018701925090860190600101610d19565b50909998505050505050505050565b90815260200190565b60208082526026908201527f4f776e61626c653a206e6577206f776e657220697320746865207a65726f206160408201526564647265737360d01b606082015260800190565b6020808252601490820152731393d7d3115391125391d7d313d1d250d7d4d15560621b604082015260600190565b6020808252818101527f4f776e61626c653a2063616c6c6572206973206e6f7420746865206f776e6572604082015260600190565b918252602082015260400190565b604051601f8201601f1916810167ffffffffffffffff81118282101715610e5757610e57610eda565b604052919050565b600067ffffffffffffffff821115610e7957610e79610eda565b5060209081020190565b60005b83811015610e9e578181015183820152602001610e86565b83811115610ead576000848401525b50505050565b6000600019821415610ed357634e487b7160e01b81526011600452602481fd5b5060010190565b634e487b7160e01b600052604160045260246000fd5b6001600160a01b038116811461087157600080fdfea2646970667358221220673e6abaf67c948b85f44e478f882e4ea7eaf0279f2643e31d122c71c603badb64736f6c63430008010033",
  "linkReferences": {},
  "deployedLinkReferences": {}
}