{
  "abi": [
    {
      "anonymous": false,
      "inputs": [
        {
          "indexed": true,
          "internalType": "address",
          "name": "owner",
          "type": "address"
        },
        {
          "indexed": true,
          "internalType": "address",
          "name": "spender",
          "type": "address"
        },
        {
          "indexed": false,
          "internalType": "uint256",
          "name": "value",
          "type": "uint256"
        }
      ],
      "name": "Approval",
      "type": "event"
    },
    {
      "anonymous": false,
      "inputs": [
        {
          "indexed": true,
          "internalType": "address",
          "name": "from",
          "type": "address"
        },
        {
          "indexed": true,
          "internalType": "address",
          "name": "to",
          "type": "address"
        },
        {
          "indexed": false,
          "internalType": "uint256",
          "name": "value",
          "type": "uint256"
        }
      ],
      "name": "Transfer",
      "type": "event"
    },
    {
      "inputs": [
        {
          "internalType": "address",
          "name": "_owner",
          "type": "address"
        },
        {
          "internalType": "address",
          "name": "_spender",
          "type": "address"
        }
      ],
      "name": "allowance",
      "outputs": [
        {
          "internalType": "uint256",
          "name": "",
          "type": "uint256"
        }
      ],
      "stateMutability": "view",
      "type": "function"
    },
    {
      "inputs": [
        {
          "internalType": "address",
          "name": "_spender",
          "type": "address"
        },
        {
          "internalType": "uint256",
          "name": "_amount",
          "type": "uint256"
        }
      ],
      "name": "approve",
      "outputs": [
        {
          "internalType": "bool",
          "name": "",
          "type": "bool"
        }
      ],
      "stateMutability": "nonpayable",
      "type": "function"
    },
    {
      "inputs": [
        {
          "internalType": "address",
          "name": "_of",
          "type": "address"
        }
      ],
      "name": "balanceOf",
      "outputs": [
        {
          "internalType": "uint256",
          "name": "",
          "type": "uint256"
        }
      ],
      "stateMutability": "view",
      "type": "function"
    },
    {
      "inputs": [
        {
          "internalType": "address",
          "name": "_from",
          "type": "address"
        },
        {
          "internalType": "uint256",
          "name": "_amount",
          "type": "uint256"
        }
      ],
      "name": "burn",
      "outputs": [],
      "stateMutability": "nonpayable",
      "type": "function"
    },
    {
      "inputs": [],
      "name": "decimals",
      "outputs": [
        {
          "internalType": "uint8",
          "name": "",
          "type": "uint8"
        }
      ],
      "stateMutability": "pure",
      "type": "function"
    },
    {
      "inputs": [
        {
          "internalType": "address",
          "name": "_spender",
          "type": "address"
        },
        {
          "internalType": "uint256",
          "name": "_amount",
          "type": "uint256"
        }
      ],
      "name": "decreaseApproval",
      "outputs": [
        {
          "internalType": "bool",
          "name": "",
          "type": "bool"
        }
      ],
      "stateMutability": "nonpayable",
      "type": "function"
    },
    {
      "inputs": [
        {
          "internalType": "address",
          "name": "_spender",
          "type": "address"
        },
        {
          "internalType": "uint256",
          "name": "_amount",
          "type": "uint256"
        }
      ],
      "name": "increaseApproval",
      "outputs": [
        {
          "internalType": "bool",
          "name": "",
          "type": "bool"
        }
      ],
      "stateMutability": "nonpayable",
      "type": "function"
    },
    {
      "inputs": [
        {
          "internalType": "uint256",
          "name": "_initialSupply",
          "type": "uint256"
        },
        {
          "internalType": "string",
          "name": "_name",
          "type": "string"
        },
        {
          "internalType": "string",
          "name": "_symbol",
          "type": "string"
        }
      ],
      "name": "initialize",
      "outputs": [],
      "stateMutability": "nonpayable",
      "type": "function"
    },
    {
      "inputs": [
        {
          "internalType": "address",
          "name": "_receiver",
          "type": "address"
        },
        {
          "internalType": "uint256",
          "name": "_amount",
          "type": "uint256"
        }
      ],
      "name": "mint",
      "outputs": [],
      "stateMutability": "nonpayable",
      "type": "function"
    },
    {
      "inputs": [],
      "name": "name",
      "outputs": [
        {
          "internalType": "string",
          "name": "",
          "type": "string"
        }
      ],
      "stateMutability": "view",
      "type": "function"
    },
    {
      "inputs": [
        {
          "internalType": "string",
          "name": "_name",
          "type": "string"
        }
      ],
      "name": "setName",
      "outputs": [],
      "stateMutability": "nonpayable",
      "type": "function"
    },
    {
      "inputs": [
        {
          "internalType": "string",
          "name": "_symbol",
          "type": "string"
        }
      ],
      "name": "setSymbol",
      "outputs": [],
      "stateMutability": "nonpayable",
      "type": "function"
    },
    {
      "inputs": [],
      "name": "symbol",
      "outputs": [
        {
          "internalType": "string",
          "name": "",
          "type": "string"
        }
      ],
      "stateMutability": "view",
      "type": "function"
    },
    {
      "inputs": [],
      "name": "totalSupply",
      "outputs": [
        {
          "internalType": "uint256",
          "name": "",
          "type": "uint256"
        }
      ],
      "stateMutability": "view",
      "type": "function"
    },
    {
      "inputs": [
        {
          "internalType": "address",
          "name": "_to",
          "type": "address"
        },
        {
          "internalType": "uint256",
          "name": "_amount",
          "type": "uint256"
        }
      ],
      "name": "transfer",
      "outputs": [
        {
          "internalType": "bool",
          "name": "",
          "type": "bool"
        }
      ],
      "stateMutability": "nonpayable",
      "type": "function"
    },
    {
      "inputs": [
        {
          "internalType": "address",
          "name": "_from",
          "type": "address"
        },
        {
          "internalType": "address",
          "name": "_to",
          "type": "address"
        },
        {
          "internalType": "uint256",
          "name": "_amount",
          "type": "uint256"
        }
      ],
      "name": "transferFrom",
      "outputs": [
        {
          "internalType": "bool",
          "name": "",
          "type": "bool"
        }
      ],
      "stateMutability": "nonpayable",
      "type": "function"
    }
  ],
  "bytecode": {
    "object": "0x608060405234801561001057600080fd5b506111f0806100206000396000f3fe608060405234801561001057600080fd5b50600436106101005760003560e01c806395d89b4111610097578063c47f002711610066578063c47f002714610238578063d73dd6231461024b578063dd62ed3e1461025e578063eedfca5f146102a457600080fd5b806395d89b41146101f75780639dc29fac146101ff578063a9059cbb14610212578063b84c82461461022557600080fd5b8063313ce567116100d3578063313ce5671461018a57806340c10f191461019957806366188463146101ae57806370a08231146101c157600080fd5b806306fdde0314610105578063095ea7b31461012357806318160ddd1461014657806323b872dd14610177575b600080fd5b61010d6102b7565b60405161011a9190610da5565b60405180910390f35b610136610131366004610e16565b610356565b604051901515815260200161011a565b7f41d2dff3392a31ed3dbbccd2b0d803b57f5635d0ccd048fd68edf9f4d37c1ba1545b60405190815260200161011a565b610136610185366004610e40565b6103e6565b6040516012815260200161011a565b6101ac6101a7366004610e16565b6104ff565b005b6101366101bc366004610e16565b610551565b6101696101cf366004610e7c565b6001600160a01b0316600090815260008051602061113b833981519152602052604090205490565b61010d610673565b6101ac61020d366004610e16565b610692565b610136610220366004610e16565b6106e0565b6101ac610233366004610e97565b6106f6565b6101ac610246366004610e97565b61076a565b610136610259366004610e16565b6107c7565b61016961026c366004610f09565b6001600160a01b03918216600090815260008051602061119b8339815191526020908152604080832093909416825291909152205490565b6101ac6102b2366004610fdf565b61088e565b606060008051602061115b83398151915280546102d39061104c565b80601f01602080910402602001604051908101604052809291908181526020018280546102ff9061104c565b801561034c5780601f106103215761010080835404028352916020019161034c565b820191906000526020600020905b81548152906001019060200180831161032f57829003601f168201915b5050505050905090565b60006001600160a01b0383166103875760405162461bcd60e51b815260040161037e90611087565b60405180910390fd5b33600081815260008051602061119b833981519152602090815260408083206001600160a01b038816808552908352928190208690555185815291929160008051602061117b833981519152910160405180910390a350600192915050565b600060008051602061115b8339815191526001600160a01b03851661043c5760405162461bcd60e51b815260206004820152600c60248201526b119493d357d253959053125160a21b604482015260640161037e565b6001600160a01b03851660009081526004820160209081526040808320338452909152902054600019146104e9576001600160a01b0385166000908152600482016020908152604080832033845290915281205461049a90856109f6565b6001600160a01b03871660008181526004850160209081526040808320338085529083529281902085905551848152939450909260008051602061117b833981519152910160405180910390a3505b6104f4858585610a09565b506001949350505050565b60008051602061111b833981519152600401546001600160a01b031633148061052757503330145b6105435760405162461bcd60e51b815260040161037e906110b0565b61054d8282610ade565b5050565b60006001600160a01b0383166105795760405162461bcd60e51b815260040161037e90611087565b33600090815260008051602061119b833981519152602090815260408083206001600160a01b038716845290915290205460008051602061115b83398151915290808411156105ed5733600090815260048301602090815260408083206001600160a01b038916845290915281205561061e565b6105f781856109f6565b33600090815260048401602090815260408083206001600160a01b038a1684529091529020555b33600081815260048401602090815260408083206001600160a01b038a168085529083529281902054905190815291929160008051602061117b833981519152910160405180910390a3506001949350505050565b606060008051602061115b83398151915260010180546102d39061104c565b60008051602061111b833981519152600401546001600160a01b03163314806106ba57503330145b6106d65760405162461bcd60e51b815260040161037e906110b0565b61054d8282610bdf565b60006106ed338484610a09565b50600192915050565b60008051602061111b833981519152600401546001600160a01b031633148061071e57503330145b61073a5760405162461bcd60e51b815260040161037e906110b0565b6107657f41d2dff3392a31ed3dbbccd2b0d803b57f5635d0ccd048fd68edf9f4d37c1ba08383610c98565b505050565b60008051602061111b833981519152600401546001600160a01b031633148061079257503330145b6107ae5760405162461bcd60e51b815260040161037e906110b0565b61076560008051602061115b8339815191528383610c98565b60006001600160a01b0383166107ef5760405162461bcd60e51b815260040161037e90611087565b33600090815260008051602061119b833981519152602090815260408083206001600160a01b038716845290915290205460008051602061115b8339815191529061083a9084610c8c565b33600081815260048401602090815260408083206001600160a01b038a168085529083529281902085905551938452909260008051602061117b833981519152910160405180910390a35060019392505050565b60008051602061115b833981519152805460008051602061111b833981519152919081906108bb9061104c565b15905080156108d857508060010180546108d49061104c565b1590505b61091a5760405162461bcd60e51b81526020600482015260136024820152721053149150511657d253925512505312569151606a1b604482015260640161037e565b83511580159061092a5750825115155b6109675760405162461bcd60e51b815260206004820152600e60248201526d494e56414c49445f504152414d5360901b604482015260640161037e565b60048201546001600160a01b031633146109bc5760405162461bcd60e51b815260206004820152601660248201527526bab9ba1037bbb7103a34329031b7b73a3930b1ba1760511b604482015260640161037e565b6109c63386610ade565b83516109d89082906020870190610d1c565b5082516109ee9060018301906020860190610d1c565b505050505050565b6000610a0282846110eb565b9392505050565b6001600160a01b038316600090815260008051602061113b833981519152602052604090205460008051602061115b83398151915290610a4990836109f6565b6001600160a01b0380861660009081526003840160205260408082209390935590851681522054610a7a9083610c8c565b6001600160a01b03808516600081815260038501602052604090819020939093559151908616907fddf252ad1be2c89b69c2b068fc378daa952ba7f163c4a11628f55a4df523b3ef90610ad09086815260200190565b60405180910390a350505050565b6001600160a01b038216610b295760405162461bcd60e51b8152602060048201526012602482015271494e56414c49445f544f5f4144445245535360701b604482015260640161037e565b6001600160a01b038216600090815260008051602061113b833981519152602052604090205460008051602061115b83398151915290610b699083610c8c565b6001600160a01b03841660009081526003830160205260409020556002810154610b939083610c8c565b60028201556040518281526001600160a01b038416906000907fddf252ad1be2c89b69c2b068fc378daa952ba7f163c4a11628f55a4df523b3ef906020015b60405180910390a3505050565b6001600160a01b038216600090815260008051602061113b833981519152602052604090205460008051602061115b83398151915290610c1f90836109f6565b6001600160a01b03841660009081526003830160205260409020556002810154610c4990836109f6565b60028201556040518281526000906001600160a01b038516907fddf252ad1be2c89b69c2b068fc378daa952ba7f163c4a11628f55a4df523b3ef90602001610bd2565b6000610a028284611102565b828054610ca49061104c565b90600052602060002090601f016020900481019282610cc65760008555610d0c565b82601f10610cdf5782800160ff19823516178555610d0c565b82800160010185558215610d0c579182015b82811115610d0c578235825591602001919060010190610cf1565b50610d18929150610d90565b5090565b828054610d289061104c565b90600052602060002090601f016020900481019282610d4a5760008555610d0c565b82601f10610d6357805160ff1916838001178555610d0c565b82800160010185558215610d0c579182015b82811115610d0c578251825591602001919060010190610d75565b5b80821115610d185760008155600101610d91565b600060208083528351808285015260005b81811015610dd257858101830151858201604001528201610db6565b81811115610de4576000604083870101525b50601f01601f1916929092016040019392505050565b80356001600160a01b0381168114610e1157600080fd5b919050565b60008060408385031215610e2957600080fd5b610e3283610dfa565b946020939093013593505050565b600080600060608486031215610e5557600080fd5b610e5e84610dfa565b9250610e6c60208501610dfa565b9150604084013590509250925092565b600060208284031215610e8e57600080fd5b610a0282610dfa565b60008060208385031215610eaa57600080fd5b823567ffffffffffffffff80821115610ec257600080fd5b818501915085601f830112610ed657600080fd5b813581811115610ee557600080fd5b866020828501011115610ef757600080fd5b60209290920196919550909350505050565b60008060408385031215610f1c57600080fd5b610f2583610dfa565b9150610f3360208401610dfa565b90509250929050565b634e487b7160e01b600052604160045260246000fd5b600082601f830112610f6357600080fd5b813567ffffffffffffffff80821115610f7e57610f7e610f3c565b604051601f8301601f19908116603f01168101908282118183101715610fa657610fa6610f3c565b81604052838152866020858801011115610fbf57600080fd5b836020870160208301376000602085830101528094505050505092915050565b600080600060608486031215610ff457600080fd5b83359250602084013567ffffffffffffffff8082111561101357600080fd5b61101f87838801610f52565b9350604086013591508082111561103557600080fd5b5061104286828701610f52565b9150509250925092565b600181811c9082168061106057607f821691505b6020821081141561108157634e487b7160e01b600052602260045260246000fd5b50919050565b6020808252600f908201526e14d4115391115497d2539590531251608a1b604082015260600190565b6020808252600b908201526a1393d517d0531313d5d15160aa1b604082015260600190565b634e487b7160e01b600052601160045260246000fd5b6000828210156110fd576110fd6110d5565b500390565b60008219821115611115576111156110d5565b50019056fec8fcad8db84d3cc18b4c41d551ea0ee66dd599cde068d998e57d5e09332c131c41d2dff3392a31ed3dbbccd2b0d803b57f5635d0ccd048fd68edf9f4d37c1ba241d2dff3392a31ed3dbbccd2b0d803b57f5635d0ccd048fd68edf9f4d37c1b9f8c5be1e5ebec7d5bd14f71427d1e84f3dd0314c0f7b2291e5b200ac8c7c3b92541d2dff3392a31ed3dbbccd2b0d803b57f5635d0ccd048fd68edf9f4d37c1ba3a26469706673582212204b0da1989a15db76844384d9973e426ce5e03564aa949bee9c0be41624fd81e364736f6c634300080c0033",
    "linkReferences": {}
  }
}