{
  "_format": "hh-sol-artifact-1",
  "contractName": "KashiLendingEncoder",
  "sourceName": "contracts/Utility/KashiLendingEncoder.sol",
  "abi": [
    {
      "inputs": [
        {
          "internalType": "address",
          "name": "_nest",
          "type": "address"
        },
        {
          "internalType": "address",
          "name": "_masterKontract",
          "type": "address"
        }
      ],
      "name": "encodeDataForKashiLending",
      "outputs": [
        {
          "internalType": "bytes",
          "name": "",
          "type": "bytes"
        }
      ],
      "stateMutability": "view",
      "type": "function"
    },
    {
      "inputs": [
        {
          "internalType": "address",
          "name": "_nest",
          "type": "address"
        },
        {
          "internalType": "uint256",
          "name": "_amount",
          "type": "uint256"
        }
      ],
      "name": "encodeUnLendLending",
      "outputs": [
        {
          "internalType": "bytes",
          "name": "",
          "type": "bytes"
        }
      ],
      "stateMutability": "view",
      "type": "function"
    }
  ],
  "bytecode": "0x608060405234801561001057600080fd5b50610285806100206000396000f3fe608060405234801561001057600080fd5b50600436106100365760003560e01c80635ed103211461003b57806361eb6e0914610064575b600080fd5b61004e61004936600461015f565b610077565b60405161005b91906101fc565b60405180910390f35b61004e61007236600461012d565b6100e9565b60606397da6d3060e01b732791bca1f2de4661ed88a30c99a7a9449aa8417484856000866040516024016100af959493929190610188565b60408051601f198184030181529190526020810180516001600160e01b03166001600160e01b031990931692909217909152905092915050565b606063c0a47c9360e01b8383600160008060006040516024016100af969594939291906101be565b80356001600160a01b038116811461012857600080fd5b919050565b6000806040838503121561013f578182fd5b61014883610111565b915061015660208401610111565b90509250929050565b60008060408385031215610171578182fd5b61017a83610111565b946020939093013593505050565b6001600160a01b039586168152938516602085015291909316604083015260ff9092166060820152608081019190915260a00190565b6001600160a01b039687168152949095166020850152911515604084015260ff9081166060840152908116608083015290911660a082015260c00190565b6000602080835283518082850152825b818110156102285785810183015185820160400152820161020c565b818111156102395783604083870101525b50601f01601f191692909201604001939250505056fea2646970667358221220f9594384eba823f7bf6a81065db79852457109c62a6afcd92be32d0196e572de64736f6c63430008010033",
  "linkReferences": {},
  "deployedLinkReferences": {}
}