{
  "_format": "hh-sol-artifact-1",
  "contractName": "BasketFactoryContract",
  "sourceName": "contracts/BasketFactoryContract.sol",
  "abi": [
    {
      "inputs": [],
      "stateMutability": "nonpayable",
      "type": "constructor"
    },
    {
      "anonymous": false,
      "inputs": [
        {
          "indexed": true,
          "internalType": "address",
          "name": "basketAddress",
          "type": "address"
        },
        {
          "indexed": true,
          "internalType": "address",
          "name": "deployer",
          "type": "address"
        },
        {
          "indexed": true,
          "internalType": "uint256",
          "name": "index",
          "type": "uint256"
        }
      ],
      "name": "BasketCreated",
      "type": "event"
    },
    {
      "anonymous": false,
      "inputs": [
        {
          "indexed": true,
          "internalType": "address",
          "name": "controller",
          "type": "address"
        }
      ],
      "name": "DefaultControllerSet",
      "type": "event"
    },
    {
      "anonymous": false,
      "inputs": [
        {
          "components": [
            {
              "internalType": "address",
              "name": "facetAddress",
              "type": "address"
            },
            {
              "internalType": "enum IDiamondCut.FacetCutAction",
              "name": "action",
              "type": "uint8"
            },
            {
              "internalType": "bytes4[]",
              "name": "functionSelectors",
              "type": "bytes4[]"
            }
          ],
          "indexed": false,
          "internalType": "struct IDiamondCut.FacetCut",
          "name": "",
          "type": "tuple"
        }
      ],
      "name": "FacetAdded",
      "type": "event"
    },
    {
      "anonymous": false,
      "inputs": [
        {
          "components": [
            {
              "internalType": "address",
              "name": "facetAddress",
              "type": "address"
            },
            {
              "internalType": "enum IDiamondCut.FacetCutAction",
              "name": "action",
              "type": "uint8"
            },
            {
              "internalType": "bytes4[]",
              "name": "functionSelectors",
              "type": "bytes4[]"
            }
          ],
          "indexed": false,
          "internalType": "struct IDiamondCut.FacetCut",
          "name": "",
          "type": "tuple"
        }
      ],
      "name": "FacetRemoved",
      "type": "event"
    },
    {
      "anonymous": false,
      "inputs": [
        {
          "indexed": true,
          "internalType": "address",
          "name": "previousOwner",
          "type": "address"
        },
        {
          "indexed": true,
          "internalType": "address",
          "name": "newOwner",
          "type": "address"
        }
      ],
      "name": "OwnershipTransferred",
      "type": "event"
    },
    {
      "inputs": [
        {
          "components": [
            {
              "internalType": "address",
              "name": "facetAddress",
              "type": "address"
            },
            {
              "internalType": "enum IDiamondCut.FacetCutAction",
              "name": "action",
              "type": "uint8"
            },
            {
              "internalType": "bytes4[]",
              "name": "functionSelectors",
              "type": "bytes4[]"
            }
          ],
          "internalType": "struct IDiamondCut.FacetCut",
          "name": "_facet",
          "type": "tuple"
        }
      ],
      "name": "addFacet",
      "outputs": [],
      "stateMutability": "nonpayable",
      "type": "function"
    },
    {
      "inputs": [
        {
          "internalType": "address[]",
          "name": "_tokens",
          "type": "address[]"
        },
        {
          "internalType": "uint256[]",
          "name": "_amounts",
          "type": "uint256[]"
        },
        {
          "internalType": "uint256",
          "name": "_initialSupply",
          "type": "uint256"
        },
        {
          "internalType": "string",
          "name": "_symbol",
          "type": "string"
        },
        {
          "internalType": "string",
          "name": "_name",
          "type": "string"
        }
      ],
      "name": "bakeBasket",
      "outputs": [],
      "stateMutability": "nonpayable",
      "type": "function"
    },
    {
      "inputs": [
        {
          "internalType": "uint256",
          "name": "",
          "type": "uint256"
        }
      ],
      "name": "baskets",
      "outputs": [
        {
          "internalType": "address",
          "name": "",
          "type": "address"
        }
      ],
      "stateMutability": "view",
      "type": "function"
    },
    {
      "inputs": [],
      "name": "defaultController",
      "outputs": [
        {
          "internalType": "address",
          "name": "",
          "type": "address"
        }
      ],
      "stateMutability": "view",
      "type": "function"
    },
    {
      "inputs": [
        {
          "internalType": "uint256",
          "name": "",
          "type": "uint256"
        }
      ],
      "name": "defaultCut",
      "outputs": [
        {
          "internalType": "address",
          "name": "facetAddress",
          "type": "address"
        },
        {
          "internalType": "enum IDiamondCut.FacetCutAction",
          "name": "action",
          "type": "uint8"
        }
      ],
      "stateMutability": "view",
      "type": "function"
    },
    {
      "inputs": [],
      "name": "diamondImplementation",
      "outputs": [
        {
          "internalType": "address",
          "name": "",
          "type": "address"
        }
      ],
      "stateMutability": "view",
      "type": "function"
    },
    {
      "inputs": [],
      "name": "getDefaultCut",
      "outputs": [
        {
          "components": [
            {
              "internalType": "address",
              "name": "facetAddress",
              "type": "address"
            },
            {
              "internalType": "enum IDiamondCut.FacetCutAction",
              "name": "action",
              "type": "uint8"
            },
            {
              "internalType": "bytes4[]",
              "name": "functionSelectors",
              "type": "bytes4[]"
            }
          ],
          "internalType": "struct IDiamondCut.FacetCut[]",
          "name": "",
          "type": "tuple[]"
        }
      ],
      "stateMutability": "view",
      "type": "function"
    },
    {
      "inputs": [],
      "name": "getDefaultCutCount",
      "outputs": [
        {
          "internalType": "uint256",
          "name": "",
          "type": "uint256"
        }
      ],
      "stateMutability": "view",
      "type": "function"
    },
    {
      "inputs": [
        {
          "internalType": "address",
          "name": "",
          "type": "address"
        }
      ],
      "name": "isBasket",
      "outputs": [
        {
          "internalType": "bool",
          "name": "",
          "type": "bool"
        }
      ],
      "stateMutability": "view",
      "type": "function"
    },
    {
      "inputs": [],
      "name": "owner",
      "outputs": [
        {
          "internalType": "address",
          "name": "",
          "type": "address"
        }
      ],
      "stateMutability": "view",
      "type": "function"
    },
    {
      "inputs": [
        {
          "internalType": "uint256",
          "name": "_index",
          "type": "uint256"
        }
      ],
      "name": "removeFacet",
      "outputs": [],
      "stateMutability": "nonpayable",
      "type": "function"
    },
    {
      "inputs": [],
      "name": "renounceOwnership",
      "outputs": [],
      "stateMutability": "nonpayable",
      "type": "function"
    },
    {
      "inputs": [
        {
          "internalType": "address",
          "name": "_controller",
          "type": "address"
        }
      ],
      "name": "setDefaultController",
      "outputs": [],
      "stateMutability": "nonpayable",
      "type": "function"
    },
    {
      "inputs": [
        {
          "internalType": "address",
          "name": "_diamondImplementation",
          "type": "address"
        }
      ],
      "name": "setDiamondImplementation",
      "outputs": [],
      "stateMutability": "nonpayable",
      "type": "function"
    },
    {
      "inputs": [
        {
          "internalType": "address",
          "name": "newOwner",
          "type": "address"
        }
      ],
      "name": "transferOwnership",
      "outputs": [],
      "stateMutability": "nonpayable",
      "type": "function"
    }
  ],
  "bytecode": "0x608060405234801561001057600080fd5b50600061001b61007c565b600080546001600160a01b0319166001600160a01b0383169081178255604051929350917f8be0079c531659141344cd1fd0a4f28419497f9722a3daafe3b4186f6b6457e0908290a350600380546001600160a01b03191633179055610080565b3390565b6121e98061008f6000396000f3fe608060405234801561001057600080fd5b50600436106100f55760003560e01c806392c4b65111610097578063c91b8b0311610066578063c91b8b03146101c7578063eb44d482146101dc578063eb6065f9146101fc578063f2fde38b1461020f576100f5565b806392c4b651146101785780639933591c1461018b578063a60ed37414610193578063af2ee456146101a6576100f5565b806325f5e750116100d357806325f5e7501461014057806355196bd914610155578063715018a6146101685780638da5cb5b14610170576100f5565b80630586864a146100fa578063186908461461010f578063205663881461012d575b600080fd5b61010d610108366004611366565b610222565b005b61011761033a565b6040516101249190611794565b60405180910390f35b61010d61013b366004611211565b610349565b6101486103a0565b60405161012491906118ef565b61010d610163366004611211565b6103a6565b61010d610425565b6101176104a4565b61010d610186366004611459565b6104b3565b61011761063f565b6101176101a1366004611459565b61064e565b6101b96101b4366004611459565b610675565b6040516101249291906117e5565b6101cf6106ac565b604051610124919061180b565b6101ef6101ea366004611211565b6107cc565b60405161012491906118e4565b61010d61020a366004611233565b6107e1565b61010d61021d366004611211565b610cfd565b61022a610db3565b6000546001600160a01b039081169116146102605760405162461bcd60e51b8152600401610257906119be565b60405180910390fd5b6005805460018101825560009190915281517f036b6384b5eca791c62761152d0c79bb0604c104a5fb6f4eb0703f3154bb3db060029283020180546001600160a01b0319166001600160a01b0390921691909117808255602084015184939091839160ff60a01b1990911690600160a01b9084908111156102dd57fe5b0217905550604082015180516102fd916001840191602090910190610fbd565b5050507f0aed3022f525ee07c45899934ca4811d019d6228bc4099304003a1beab41ee888160405161032f9190611aa3565b60405180910390a150565b6004546001600160a01b031681565b610351610db3565b6000546001600160a01b0390811691161461037e5760405162461bcd60e51b8152600401610257906119be565b600480546001600160a01b0319166001600160a01b0392909216919091179055565b60055490565b6103ae610db3565b6000546001600160a01b039081169116146103db5760405162461bcd60e51b8152600401610257906119be565b600380546001600160a01b0319166001600160a01b0383169081179091556040517fbbe27178bb28e0dc4acfc033380c8b785ff9740a17f254a70184e25ad237e49e90600090a250565b61042d610db3565b6000546001600160a01b0390811691161461045a5760405162461bcd60e51b8152600401610257906119be565b600080546040516001600160a01b03909116907f8be0079c531659141344cd1fd0a4f28419497f9722a3daafe3b4186f6b6457e0908390a3600080546001600160a01b0319169055565b6000546001600160a01b031690565b6104bb610db3565b6000546001600160a01b039081169116146104e85760405162461bcd60e51b8152600401610257906119be565b60055481106105095760405162461bcd60e51b815260040161025790611997565b7fc8f906888de53bbfb85a019893e6b256b8effd12cdf09d03326ac511840504046005828154811061053757fe5b90600052602060002090600202016040516105529190611ab6565b60405180910390a160058054600019810190811061056c57fe5b90600052602060002090600202016005828154811061058757fe5b600091825260209091208254600292830290910180546001600160a01b0319166001600160a01b03909216919091178082558354919260ff600160a01b938490041692849260ff60a01b19169184908111156105df57fe5b0217905550600182810180546105f89284019190611069565b50905050600580548061060757fe5b60008281526020812060026000199093019283020180546001600160a81b03191681559061063860018301826110b7565b5050905550565b6003546001600160a01b031681565b6001818154811061065b57fe5b6000918252602090912001546001600160a01b0316905081565b6005818154811061068257fe5b60009182526020909120600290910201546001600160a01b0381169150600160a01b900460ff1682565b60606005805480602002602001604051908101604052809291908181526020016000905b828210156107c35760008481526020908190206040805160608101909152600285810290920180546001600160a01b03811683529193909290840191600160a01b900460ff169081111561072057fe5b600281111561072b57fe5b8152602001600182018054806020026020016040519081016040528092919081815260200182805480156107ab57602002820191906000526020600020906000905b82829054906101000a900460e01b6001600160e01b0319168152602001906004019060208260030104928301926001038202915080841161076d5790505b505050505081525050815260200190600101906106d0565b50505050905090565b60026020526000908152604090205460ff1681565b60006040516107ef906110df565b604051809103906000f08015801561080b573d6000803e3d6000fd5b5060048054604051636bc26a1360e11b815292935083926001600160a01b038085169363d784d426936108419392169101611794565b600060405180830381600087803b15801561085b57600080fd5b505af115801561086f573d6000803e3d6000fd5b50506040516309f555ad60e01b81526001600160a01b03841692506309f555ad91506108a290600590309060040161186b565b600060405180830381600087803b1580156108bc57600080fd5b505af11580156108d0573d6000803e3d6000fd5b50506001805480820182557fb10e2d527612073b26eecdfd717e6a320cf44b4afac2b0732d9fcbe2b7fa0cf60180546001600160a01b0319166001600160a01b0386169081179091556000908152600260205260409020805460ff19169091179055505086516109525760405162461bcd60e51b81526004016102579061190b565b85518751146109735760405162461bcd60e51b815260040161025790611a2a565b60405163eedfca5f60e01b815281906001600160a01b0382169063eedfca5f906109a590899088908a90600401611ac9565b600060405180830381600087803b1580156109bf57600080fd5b505af11580156109d3573d6000803e3d6000fd5b5050505060005b8851811015610aac5760008982815181106109f157fe5b60200260200101519050610a2e33848b8581518110610a0c57fe5b6020026020010151846001600160a01b0316610db7909392919063ffffffff16565b826001600160a01b031663d48bfca78b8481518110610a4957fe5b60200260200101516040518263ffffffff1660e01b8152600401610a6d9190611794565b600060405180830381600087803b158015610a8757600080fd5b505af1158015610a9b573d6000803e3d6000fd5b5050600190930192506109da915050565b5060405163d3e1574760e01b81526001600160a01b0382169063d3e1574790610ada906001906004016118ef565b600060405180830381600087803b158015610af457600080fd5b505af1158015610b08573d6000803e3d6000fd5b50506040516347786d3760e01b81526001600160a01b03841692506347786d379150610b3a90600019906004016118ef565b600060405180830381600087803b158015610b5457600080fd5b505af1158015610b68573d6000803e3d6000fd5b505060405163a9059cbb60e01b81526001600160a01b038416925063a9059cbb9150610b9a9033908a906004016117a8565b602060405180830381600087803b158015610bb457600080fd5b505af1158015610bc8573d6000803e3d6000fd5b505050506040513d601f19601f82011682018060405250810190610bec9190611346565b5060035460405163f2fde38b60e01b81526001600160a01b038381169263f2fde38b92610c1f9290911690600401611794565b600060405180830381600087803b158015610c3957600080fd5b505af1158015610c4d573d6000803e3d6000fd5b50506003546040516332abba4760e21b81526001600160a01b03808816945063caaee91c9350610c81921690600401611794565b600060405180830381600087803b158015610c9b57600080fd5b505af1158015610caf573d6000803e3d6000fd5b505060015460405160001990910192503391506001600160a01b038516907fcb430db035d3cf6a54fbce716eeee3cc5826f8cd4e32f9b9e271582250b42b8290600090a45050505050505050565b610d05610db3565b6000546001600160a01b03908116911614610d325760405162461bcd60e51b8152600401610257906119be565b6001600160a01b038116610d585760405162461bcd60e51b815260040161025790611951565b600080546040516001600160a01b03808516939216917f8be0079c531659141344cd1fd0a4f28419497f9722a3daafe3b4186f6b6457e091a3600080546001600160a01b0319166001600160a01b0392909216919091179055565b3390565b610e0f846323b872dd60e01b858585604051602401610dd8939291906117c1565b60408051601f198184030181529190526020810180516001600160e01b03166001600160e01b031990931692909217909152610e15565b50505050565b6060610e6a826040518060400160405280602081526020017f5361666545524332303a206c6f772d6c6576656c2063616c6c206661696c6564815250856001600160a01b0316610ea99092919063ffffffff16565b805190915015610ea45780806020019051810190610e889190611346565b610ea45760405162461bcd60e51b815260040161025790611a59565b505050565b6060610eb88484600085610ec0565b949350505050565b6060610ecb85610f84565b610ee75760405162461bcd60e51b8152600401610257906119f3565b60006060866001600160a01b03168587604051610f049190611778565b60006040518083038185875af1925050503d8060008114610f41576040519150601f19603f3d011682016040523d82523d6000602084013e610f46565b606091505b50915091508115610f5a579150610eb89050565b805115610f6a5780518082602001fd5b8360405162461bcd60e51b815260040161025791906118f8565b6000813f7fc5d2460186f7233c927e7db2dcc703c0e500b653ca82273b7bfad8045d85a470818114801590610eb8575050151592915050565b828054828255906000526020600020906007016008900481019282156110595791602002820160005b8382111561102757835183826101000a81548163ffffffff021916908360e01c02179055509260200192600401602081600301049283019260010302610fe6565b80156110575782816101000a81549063ffffffff0219169055600401602081600301049283019260010302611027565b505b506110659291506110ec565b5090565b82805482825590600052602060002090600701600890048101928215611059576000526020600020916007016008900482015b8281111561105957825482559160010191906001019061109c565b5080546000825560070160089004906000526020600020908101906110dc9190611108565b50565b61061680611b9e83390190565b5b8082111561106557805463ffffffff191681556001016110ed565b5b808211156110655760008155600101611109565b80356001600160a01b038116811461113457600080fd5b92915050565b600082601f83011261114a578081fd5b813561115d61115882611b25565b611afe565b81815291506020808301908481018184028601820187101561117e57600080fd5b60005b8481101561119d57813584529282019290820190600101611181565b505050505092915050565b600082601f8301126111b8578081fd5b813567ffffffffffffffff8111156111ce578182fd5b6111e1601f8201601f1916602001611afe565b91508082528360208285010111156111f857600080fd5b8060208401602084013760009082016020015292915050565b600060208284031215611222578081fd5b61122c838361111d565b9392505050565b600080600080600060a0868803121561124a578081fd5b853567ffffffffffffffff80821115611261578283fd5b818801915088601f830112611274578283fd5b813561128261115882611b25565b80828252602080830192508086018d8283870289010111156112a2578788fd5b8796505b848710156112cc576112b88e8261111d565b8452600196909601959281019281016112a6565b509099508a013593505050808211156112e3578283fd5b6112ef89838a0161113a565b955060408801359450606088013591508082111561130b578283fd5b61131789838a016111a8565b9350608088013591508082111561132c578283fd5b50611339888289016111a8565b9150509295509295909350565b600060208284031215611357578081fd5b8151801515811461122c578182fd5b60006020808385031215611378578182fd5b823567ffffffffffffffff8082111561138f578384fd5b90840190606082870312156113a2578384fd5b6113ac6060611afe565b6113b6878461111d565b815283830135600381106113c8578586fd5b818501526040830135828111156113dd578586fd5b80840193505086601f8401126113f1578485fd5b8235915061140161115883611b25565b82815284810190848601868502860187018a101561141d578788fd5b8795505b8486101561144857803561143481611b87565b835260019590950194918601918601611421565b506040830152509695505050505050565b60006020828403121561146a578081fd5b5035919050565b6001600160e01b0319169052565b60008151808452611497816020860160208601611b51565b601f01601f19169290920160200192915050565b80516001600160a01b0316825260208082015160009160608501916114cf81611b7d565b85820152604084810151606091870191909152805192839052810191839060808701905b8083101561151d5784516001600160e01b03191682529383019360019290920191908301906114f3565b509695505050505050565b80546001600160a01b03811683526000906060908482019060a01c60ff16602061155182611b7d565b81818801526001915081860184604089015283815461157081876118ef565b915061157b83611b45565b95508792505b8060078401101561163757855460e061159c8483831b611471565b6001600160e01b031960c06115b786890185831b8416611471565b6115c960408701838660a01b16611471565b60806115db8c88018487841b16611471565b6115eb81880184878f1b16611471565b506115fe60a08701838660401b16611471565b61160e81870183868b1b16611471565b5061161d828601828516611471565b505050610100820191508486019550600883019250611581565b945494808310156116585761164f828760e01b611471565b91840191908301905b80831015611681576116788260c088901b6001600160e01b031916611471565b91840191908301905b808310156116aa576116a18260a088901b6001600160e01b031916611471565b91840191908301905b808310156116d3576116ca82608088901b6001600160e01b031916611471565b91840191908301905b808310156116fa576116f18287891b6001600160e01b031916611471565b91840191908301905b808310156117235761171a82604088901b6001600160e01b031916611471565b91840191908301905b8083101561174a576117418287861b6001600160e01b031916611471565b91840191908301905b8083101561176b57611766826001600160e01b03198816611471565b908301905b5098975050505050505050565b6000825161178a818460208701611b51565b9190910192915050565b6001600160a01b0391909116815260200190565b6001600160a01b03929092168252602082015260400190565b6001600160a01b039384168152919092166020820152604081019190915260600190565b6001600160a01b0383168152604081016117fe83611b7d565b8260208301529392505050565b6000602080830181845280855180835260408601915060408482028701019250838701855b8281101561185e57603f1988860301845261184c8583516114ab565b94509285019290850190600101611830565b5092979650505050505050565b60006040820160408352808554808352606085019150602092506060838202860101878552838520855b838110156118c557878303605f190185526118b08383611528565b94860194925060029190910190600101611895565b50506001600160a01b0396909616949092019390935250919392505050565b901515815260200190565b90815260200190565b60006020825261122c602083018461147f565b60208082526026908201527f43414e4e4f545f4352454154455f5a45524f5f544f4b454e5f4c454e4754485f604082015265109054d2d15560d21b606082015260800190565b60208082526026908201527f4f776e61626c653a206e6577206f776e657220697320746865207a65726f206160408201526564647265737360d01b606082015260800190565b6020808252600d908201526c0929cac82989288be929c888ab609b1b604082015260600190565b6020808252818101527f4f776e61626c653a2063616c6c6572206973206e6f7420746865206f776e6572604082015260600190565b6020808252601d908201527f416464726573733a2063616c6c20746f206e6f6e2d636f6e7472616374000000604082015260600190565b602080825260159082015274082a4a482b2be988a9c8ea890be9a92a69a82a8869605b1b604082015260600190565b6020808252602a908201527f5361666545524332303a204552433230206f7065726174696f6e20646964206e6040820152691bdd081cdd58d8d9595960b21b606082015260800190565b60006020825261122c60208301846114ab565b60006020825261122c6020830184611528565b600084825260606020830152611ae2606083018561147f565b8281036040840152611af4818561147f565b9695505050505050565b60405181810167ffffffffffffffff81118282101715611b1d57600080fd5b604052919050565b600067ffffffffffffffff821115611b3b578081fd5b5060209081020190565b60009081526020902090565b60005b83811015611b6c578181015183820152602001611b54565b83811115610e0f5750506000910152565b600381106110dc57fe5b6001600160e01b0319811681146110dc57600080fdfe608060405234801561001057600080fd5b5061005460405160200180806913d5d3915497d4d313d560b21b815250600a019050604051602081830303815290604052805190602001203361005960201b60201c565b61007f565b61006b826100668361006f565b61007b565b5050565b6001600160a01b031690565b9055565b6105888061008e6000396000f3fe6080604052600436106100865760003560e01c80639d84ae69116100595780639d84ae691461015a578063aaf10f4214610184578063bb15ac8e14610199578063caaee91c146101d7578063d784d4261461020a57610086565b80631ab7710d1461009057806337a440e6146100c15780635ced058e146100fd57806382c947b714610127575b61008e61023d565b005b34801561009c57600080fd5b506100a56102ab565b604080516001600160a01b039092168252519081900360200190f35b3480156100cd57600080fd5b506100eb600480360360208110156100e457600080fd5b50356102ee565b60408051918252519081900360200190f35b34801561010957600080fd5b506100a56004803603602081101561012057600080fd5b50356102f2565b34801561013357600080fd5b506100eb6004803603602081101561014a57600080fd5b50356001600160a01b03166102f5565b34801561016657600080fd5b506100a56004803603602081101561017d57600080fd5b5035610301565b34801561019057600080fd5b506100a561031a565b3480156101a557600080fd5b506101c3600480360360208110156101bc57600080fd5b5035610361565b604080519115158252519081900360200190f35b3480156101e357600080fd5b5061008e600480360360208110156101fa57600080fd5b50356001600160a01b0316610375565b34801561021657600080fd5b5061008e6004803603602081101561022d57600080fd5b50356001600160a01b0316610440565b600061028460405160200180807212535413115351539510551253d397d4d313d5606a1b815250601301905060405160208183030381529060405280519060200120610301565b905060405136600082376000803683855af43d806000843e8180156102a7578184f35b8184fd5b60006102e960405160200180806913d5d3915497d4d313d560b21b815250600a01905060405160208183030381529060405280519060200120610301565b905090565b5490565b90565b6001600160a01b031690565b600061031461030f836102ee565b6102f2565b92915050565b60006102e960405160200180807212535413115351539510551253d397d4d313d5606a1b815250601301905060405160208183030381529060405280519060200120610301565b6000600161036e836102ee565b1492915050565b6103b160405160200180806913d5d3915497d4d313d560b21b815250600a01905060405160208183030381529060405280519060200120610301565b6001600160a01b0316336001600160a01b0316146104005760405162461bcd60e51b815260040180806020018281038252602b815260200180610528602b913960400191505060405180910390fd5b61043d60405160200180806913d5d3915497d4d313d560b21b815250600a019050604051602081830303815290604052805190602001208261050d565b50565b61047c60405160200180806913d5d3915497d4d313d560b21b815250600a01905060405160208183030381529060405280519060200120610301565b6001600160a01b0316336001600160a01b0316146104cb5760405162461bcd60e51b815260040180806020018281038252602b815260200180610528602b913960400191505060405180910390fd5b61043d60405160200180807212535413115351539510551253d397d4d313d5606a1b815250601301905060405160208183030381529060405280519060200120825b61051f8261051a836102f5565b610523565b5050565b905556fe5050726f78792e6f6e6c7950726f78794f776e65723a206d73672073656e646572206e6f74206f776e6572a264697066735822122019c6eb2aa34adfbf6508bceb66d45643fa08e4501ed8c56b857f8e43aa22f19d64736f6c63430007010033a26469706673582212209b915db1416f0e86493140342f4a1f2c1662ca77d6e9e57b98990f6a108af50464736f6c63430007010033",
  "linkReferences": {},
  "deployedLinkReferences": {}
}